:020000040000FA
:030000000200E318
:03001300020DE0FB
:03003300020D516A
:03003B00020E2F83
:03006B00020C8BF9
:03007B00020CE490
:10008300020DA800000080FB12013FB9000302002B
:10009300CDE4900101784C79058002F0A3D8FCD916
:1000A300FA90054CAA82AB83900142787A79018059
:1000B30015E493A3AC82AD838A828B83F0A3AA82D7
:1000C300AB838C828D83D8E9D9E775821075832140
:1000D30074001200F575828675830074001200F5B2
:1000E30075D0007581BF751001751101759F0002F0
:1000F300008BC0F0F5F0E59F5407C0E0E59F54F88E
:1001030045F0D0F0F59FE473859FF053F0F8D0E00D
:1001130045F0F59F22D083D082E59F5407C0E0E4E9
:1001230093C0E0740193C0E07402935407C0F0F5E8
:10013300F0E59F54F845F0D0F0F59F22790122496C
:100143002E4F2E4C5F53797374656D005365617246
:100153006368204D61737465720031003200536C23
:100163006176655F203A4D6F64650050726F677208
:10017300616D3A00536C6176655F203A4E65774D49
:100183006F646500536C6176655F203A5265616404
:10019300792E2E00FF000000000000000000000088
:1001A30000000000303132333435363738394142BC
:1001B300434445460A000000120118810E00120153
:1001C30018A00E00120118502100120118A42100DA
:1001D300120118C22200120118EF2200120118584E
:1001E3002300120118772300120118EF1D001201DA
:1001F30018E41E001201185E1F001201186020008F
:100203001201186B2000120118002100120118249A
:100213002800120118322900120118FE28001201C9
:10022300187E2900120118832900120118FE2500E7
:100233001201182A26001201184426001201184C34
:100243002600120118842600120118B82600120194
:1002530018BB1A00120118EB1A001201181B1B001D
:10026300120118A11B00120118D61B0012011873EA
:100273001C00120118B81C001201185B1D001201AA
:1002830018F026001201185B2700120118BC270082
:10029300120118C12700120118D12700120118FDFD
:1002A3002700120118EC2400120118202500120166
:1002B300182525001201183525001201183F2500C5
:1002C300120118492500120118762500120118940D
:1002D3002500120118A22500120118AB25001201F6
:1002E30018B42500120118C52500120118D62500DF
:1002F300120118EF2500120118BE2800120118D0B0
:100303002300120118782800120118602900C3E0A5
:100313009608A3E09608A3E09608A3E096A2D26508
:10032300D03322E4CFC0E0E4CEC0E0E4CDC0E0E4CB
:10033300CCC0E075F020C3E633F608E633F608E6F2
:1003430033F608E633F6181818EC33FCED33FDEEFC
:1003530033FEEF33FFC3EC9709ED9709EE9709EFEF
:1003630097191919400FFFEC97FC09ED97FD09EE5A
:1003730097FE191906D5F0BEECF709EDF709EEF76C
:1003830009EFF7191919D0E0FCD0E0FDD0E0FED059
:10039300E0FF221203FE1818181203261203ED19A8
:1003A3001919221203ED191919080808E618181863
:1003B30020E7E01203261203FE1818182209090980
:1003C300E719191920E7DC080808E618181820E7C8
:1003D300030203261203FE1818181203261203FE43
:1003E3001818181203ED19191922E4C397F709E431
:1003F30097F709E497F709E497F722E4C396F60819
:10040300E496F608E496F608E496F622E0F608A3E6
:10041300E0F608A3E0F608A3E0F622E6F008A3E678
:10042300F008A3E6F008A3E6F022E0FAA3E0FBA3BA
:10043300E0FCA3E0FD22EAF0A3EBF0A3ECF0A3EDD4
:10044300F022CAC0E0E6F0A308DAFAD0E0FA2260AC
:100453000D08C6A2E713C618C613C6D5E0F322607B
:100463000C08C6C313C618C613C6D5E0F42270041D
:1004730022600D18C6C333C608C633C6D5E0F418C8
:1004830022251010AF08F510400215118008F51051
:1004930040021511D2AF22C0D0251010AF08F510BD
:1004A300500205118008F51050020511D2AFD0D0CB
:1004B300222510F58210AF08F510400215118008AF
:1004C300F51040021511D2AF851183222510F58254
:1004D300E43511F58322E4732510C582C0E0E511EC
:1004E30034FFC583C0E0E510C3958224F810AF083C
:1004F3008583118582108008858311858210D2AF90
:10050300CEF0A3E520F0A37808E608F0A3DEFAEF27
:10051300F0A3E58124FAF8E608F0A3E608F0A3E6E1
:1005230008F0A30808E608F0A3E608F0A315811570
:1005330081D0E0FED0E0F8158115811581E8C0E097
:10054300EEC0E022851183851082E0A3FEE0A3F5CF
:10055300207808E0A3F608DFFAE0A3FFE0A3C0E0F9
:10056300E0A3C0E0E0A3C0E0E0A3C0E0E0A3C0E0FC
:1005730010AF0885821085831180088582108583DA
:1005830011D2AFD083D08202010BC0D02510C58217
:10059300C0E0E51134FFC583C0E0E510C3958224B4
:1005A300F310AF0885831185821080088583118538
:1005B3008210D2AFC8F0A3E9F0A3EAF0A3EBF0A353
:1005C3007908E709F0A3D8FAECF0A3EDF0A3EEF075
:1005D300A3EFF0A3D0E0F0A3D0E0F0A3D0E0F0A32A
:1005E300E520F0A3E5F0F0A322851183851082E0D6
:1005F300C0E0A3E0F9A3E0FAA3E0FBA37808E0F6E8
:1006030008A3DFFAE0FCA3E0FDA3E0FEA3E0FFA361
:10061300E0C0E0A3E0C0E0A3E0F5D0A3E0F520A3B1
:10062300E0A3F5F010AF088583118582108008855B
:100633008311858210D2AFD082D083D0E0F8D0E08E
:100643003274028000C0E0F4041204B4D0E0120457
:100653004522D083D082C5F0E493A3C5F0C395F0BF
:10066300F5F0E493A3C395F04005E5F0048001E4BD
:1006730075F002A42582F582E5F03583F583E493D2
:10068300A3C0E0E493C0E0220000000000000000EB
:100693000000000000000000000070F8F870000087
:1006A3000000000D0D000000001C3C0000003C1C7D
:1006B30000000000000000000020F8F820F8F820F7
:1006C30000020F0F020F0F020070F8888E8E983011
:1006D30000060C0838380F07006060000080C06017
:1006E30000080C0603010C0C0000B0F8C878B080B9
:1006F30000070F0809070F0800203C1C000000003A
:1007030000000000000000000000E0F018080000F6
:10071300000003070C0800000000000818F0E000C8
:10072300000000080C07030080A0E0C0C0E0A08028
:100733000002030101030200808080F0F0808080CA
:100743000000000707000000000000000000000098
:100753000000101E0E0000008080808080808000DA
:100763000000000000000000000000000000000086
:100773000000000C0C00000000000080C060301876
:10078300000603010000000000F0F888C868F8F0D4
:1007930000070F0908080F0700002030F8F80000D1
:1007A300000008080F0F08080010180888C87830E0
:1007B300000C0E0B09080C0C001018888888F870C0
:1007C30000040C0808080F070080C06030F8F80028
:1007D30000010101090F0F0900F8F88888888808CB
:1007E30000040C0808080F0700E0F09888888000D0
:1007F30000070F0808080F070018180888C878387A
:100803000000000F0F0000000070F8888888F8705F
:1008130000070F0808080F070070F8888888F8F0A9
:1008230000000808080C0703000000303000000037
:100833000000000606000000000000303000000049
:100843000000080E060000000080C0603018080099
:1008530000000103060C08000040404040404000F7
:1008630000020202020202000008183060C0800089
:1008730000080C06030100000030380888C87830EF
:10088300000000000D0D000000F0F808C8C8F8F0E3
:1008930000070F080B0B0B0100C0E0301830E0C05D
:1008A300000F0F0101010F0F0008F8F88888F87096
:1008B30000080F0F08080F0700E0F01808081830A9
:1008C3000003070C08080C060008F8F80818F0E005
:1008D30000080F0F080C07030008F8F888C8183839
:1008E30000080F0F08090C0E0008F8F888C818381C
:1008F30000080F0F0801000000E0F0180808183086
:100903000003070C0909070F00F8F8808080F8F846
:10091300000F0F0000000F0F000008F8F808000098
:100923000000080F0F0800000000000008F8F80896
:1009330000060E08080F07000008F8F880E0781892
:1009430000080F0F00030F0C0008F8F80800000060
:1009530000080F0F08080C0E00F8F8306030F8F8A4
:10096300000F0F0000000F0F00F8F870E0C0F8F858
:10097300000F0F0000010F0F00E0F0180818F0E05F
:100983000003070C080C07030008F8F88888F870C0
:1009930000080F0F0800000000F0F8080808F8F03E
:1009A30000030704071E1F130008F8F88888F8706F
:1009B30000080F0F00010F0E003078C88888383008
:1009C30000060E0808090F06180808F8F8080818A2
:1009D3000000080F0F08000000F8F8000000F8F806
:1009E30000070F0808080F0700F8F8000000F8F8E0
:1009F300000103060C06030100F8F8000000F8F8F4
:100A0300000F0F0603060F0F003878C080C0783838
:100A1300000E0F0100010F0E003878C080C0783837
:100A23000000080F0F0F080000381888C86838182E
:100A3300000E0F0908080C0E0000F8F80808000063
:100A430000000F0F08080000003870E0C0800000AD
:100A5300000000000103070E00000808F8F800007A
:100A6300000008080F0F00000010180C060C1810E7
:100A73000000000000000000000000000000000073
:100A83000020202020202000000000060E08000087
:100A930000000000000000000000404040C0800053
:100AA30000060F0909070F080008F8F840C0800086
:100AB30000080F0708080F070080C0404040C080AF
:100AC30000070F0808080C04000080C048F8F8006D
:100AD30000070F0808070F080080C0404040C0808F
:100AE30000070F0909090D050080F0F88898300008
:100AF30000080F0F080000000080C0404080C04085
:100B030000133724243F1F000008F8F88040C080FA
:100B130000080F0F00000F0F00000040D8D800009E
:100B2300000000080F0F08000000000040D8D800A4
:100B330000183820203F1F000008F8F80080C0404C
:100B430000080F0F01030E0C00000008F8F8000066
:100B5300000000080F0F08000080C0808080C08064
:100B6300000F0F000F000F0F0040C0804040C080F7
:100B730000000F0F00000F0F0080C0404040C080F6
:100B830000070F0808080F070040C0804040C080DE
:100B930000203F3F240407030080C0404080C04042
:100BA30000030704243F3F200040C080C040C080B2
:100BB30000080F0F080001010080C0404040C080C2
:100BC30000040D090B0A0E04004040F0F8404000F9
:100BD300000000070F080C0400C0C00000C0C000E4
:100BE30000070F0808070F0800C0C0000000C0C0BE
:100BF300000103060C06030100C0C0000000C0C0D2
:100C030000070F0C060C0F070040C0800080C04097
:100C130000080C0703070C0800C0C0000000C0C098
:100C23000003272424341F0F00C0C04040C0C0402D
:100C330000080C0E0B090C0C008080F078080800EB
:100C4300000000070F08080000000078780000008B
:100C53000000000F0F00000000080878F0808000FB
:100C63000008080F070000000010180818101808E3
:100C730000000000000000000000000E0A0E00004B
:100C83000000000000000000C0E074F112058DC2F6
:100C9300C5E58960477E00750801750900EE78088F
:100CA300120471AF08E5895F602BEEC333F8E433B8
:100CB300F9740E28F5827404120D3A6014EEC333EE
:100CC300F8E433F9740E28F5827404120D45120406
:100CD300D9EFF452890EEEC3940840BB7F0202059C
:100CE300ECC0E074F112058DC2EBE58A60477E002B
:100CF300750801750900EE7808120471AF08E58ADA
:100D03005F602BEEC333F8E433F9741E28F5827465
:100D130004120D3A6014EEC333F8E433F9741E2859
:100D2300F5827404120D451204D9EFF4528A0EEEC3
:100D3300C3940840BB80A539F583E0F8A3E0F9E844
:100D4300492239F583E0F8A3E0F583888222C0E0E5
:100D530074F112058DC2E8E58B60477E00750801CA
:100D6300750900EE7808120471AF08E58B5F602BFC
:100D7300EEC333F8E433F9742E28F5827404120DAC
:100D83003A6014EEC333F8E433F9742E28F5827411
:100D930004120D451204D9EFF4528B0EEEC39405E1
:100DA30040BB020CDFC0E074F212058DA2AFE43346
:100DB300FEC2AFE5E9A2E6501A900438E0F8A3E0DA
:100DC300F9E8496008E0F58388821204D9759B002D
:100DD30053E9BFEEA2E092AF7F010205ECC0E0C091
:100DE300D0E8C0E0E9C0E0C082C083E5C1C0E090C4
:100DF30004BBE0F8743A28F58274043400F583D018
:100E0300E0F09004BAE0F8A3E0687004E595A3F07D
:100E13009004BBE004F0C394804002E4F0D083D09C
:100E230082D0E0F9D0E0F8D0D0D0E032C0E0C0D03A
:100E3300E8C0E0C008C009C082C08390053DE0F867
:100E4300A3E0687008539AFBA374018026C2E9905B
:100E5300053DE0F50874012508F074BD2508F58209
:100E630074043400F583E0F5C190053DE0C394803C
:100E73004002E4F0D083D082D009D00880A674F673
:100E83001204DBE9FE8E0874012508F5827401342F
:100E930000F583E0F912028D7F02020547C082C08C
:100EA30083E912065500636E195B19740F840F9C56
:100EB3000FB60FCD0FF00F06101810271039105270
:100EC300106E1084109610B710D110F0100211207C
:100ED300113E115C1172119011B111CE11EF110D70
:100EE300122B124C1267128212A312B912DD12FED8
:100EF30012221340135E1379139413AF13D013E527
:100F030013031424143D14591472148B14A814BC21
:100F130014D114E314F514071519153A1559157856
:100F2300159115AA15C615E4150216261649166954
:100F33001680169716A916C416D116E316FE1610B8
:100F43001722173D174F1761177C179317AA17C559
:100F530017DC17F31700180E182018321844185E00
:100F63001875188818A918C718E6180919251944F7
:100F730019900101121A94F0A3E4F0A374FF02196B
:100F83006D9001017401F0A304121AA0121A7D746A
:100F930020121A76748002196D9001017480121A5E
:100FA300767420121A7F7408121AA07402F0A31424
:100FB30002196D1219E07407F0A3740FF0A3741FE4
:100FC300F0A3743FF0A3747F80B09001017480F0AC
:100FD300A374C0F0A374E0F0A374F0F0A374F8F06A
:100FE300A374FCF0A374FEF0A30402196D90010135
:100FF3007411121A147444F0A3E4121AB6F0A3E4A1
:1010030002196D9001017411121A547444121A409A
:101013007488020F7D90010174881219FC742212E6
:1010230019BE80D99001017488121A407444121AAF
:10103300547411020F7D9001017481F0A374421264
:101043001A8D7418121A8D7442F0A3748180AE90B5
:1010530001017481F0A374C3F0A374E7121A4074FE
:10106300E7F0A374C3F0A374818092900101741319
:101073001219BA74231219BA74431219BA748380F9
:10108300CC1219B5742A1219BA744A1219BA74A86F
:101093000210009001017471F0A37461F0A3745104
:1010A300F0A37441F0A374311219A37411F0A37463
:1010B3000102196D9001017417F0A37427121A6FBE
:1010C3007447F0A37457121A64748702196D900160
:1010D30001747AF0A3746BF0A3745CF0A3744DF005
:1010E300A3743EF0A3742FF0A3741080C090010189
:1010F30074C1121AA774A41219BA7498021000903A
:1011030001017467F0A37442F0A37468121A5D744A
:10111300691219D97465F0A3743002196D90010135
:1011230074311219E574321219D27433F0A37409AD
:10113300F0A37434F0A3741202196D900101743595
:10114300F0A374151219CB7418121A6F7421F0A33B
:101153007438F0A3742402196D90010174391219C3
:101163009C7441121AA07442121995744380C5905D
:10117300010174441219C47445F0A37420F0A374DC
:1011830046121A8D7447F0A3742802196D90010159
:101193007448F0A37432F0A374491219CB7451F05C
:1011A300A37405F0A37452F0A3741002196D900197
:1011B300017453F0A374151219D97420F0A3745554
:1011C300F0A37425F0A3745602111990010174570A
:1011D300F0A37435F0A37458121A767459F0A374FB
:1011E30045F0A37461F0A3740602196D90010174B4
:1011F30062F0A37412F0A374631219877464121A51
:101203008D7471F0A3740702196D9001017472F06B
:10121300A37414F0A374731219A3747412198E7443
:1012230075F0A3743502196D9001017476F0A374FF
:1012330042121A687449F0A37478F0A37456F0A3A9
:101243007479F0A3746302196D900101748112190A
:101253009574821219C47483121A8D7484F0A37462
:101263003202196D9001017485121A767486121A6E
:101273005D7487F0A37456121AB0746402196D90EA
:1012830001017489F0A37472F0A37491F0A374093B
:10129300F0A374921219877493F0A3742702196D43
:1012A30090010174941219CB7495121A5D749612FD
:1012B30019D97497808C9001017498F0A37472F01B
:1012C300A37499F0A37481F0A374A1F0A3740AF03A
:1012D300A374A2F0A3742002196D90010174A3F00A
:1012E300A37430F0A374A4121A7674A5F0A37450F7
:1012F300F0A374A6F0A3746002196D90010174A7A2
:10130300F0A37470F0A374A8F0A37480F0A374A97D
:10131300F0A37490F0A374B1F0A3741102196D904B
:10132300010174B2121A0D74B3F0A37433F0A374F1
:10133300B41219F574B5F0A3745502196D90010137
:1013430074B6F0A37466F0A374B7121A6874B81273
:101353001AB074B9F0A3749902196D900101742144
:10136300121A867422121AA074231219D27424F04A
:10137300A3740802196D9001017425121A7F742653
:10138300F0A3741212199C741412198E7416021994
:101393006D9001017429121987742A12199574C862
:1013A300F0A374761219E5747402196D9001017437
:1013B30061F0A37450F0A3742DF0A374D5F0A3745B
:1013C3004B1219D27498F0A3743402196D1219E0F8
:1013D3007405F0A37407F0A374091219AA74150213
:1013E300196D9001017417F0A374191219A37423D2
:1013F300F0A3742512199C7429F0A3743102196D9A
:101403009001017433F0A37435121A6F7439F0A389
:101413007441F0A37443F0A37445F0A37447021915
:101423006D9001017451F0A37453F0A37455121A13
:101433002C7463F0A3746502196D9001017467F055
:10144300A37469121975F0A37475121A687479F08C
:10145300A3748102196D9001017483F0A374851242
:101463001A1D7493F0A37495F0A3749702196D90E9
:1014730001017499121A8604F0A37405F0A374078A
:101483001219AA741702196D9001017419F0A3744B
:1014930023F0A37429F0A37431121A6F7441F0A3DB
:1014A300744302141D9001017451F0A37453121A72
:1014B3002C746712197502196D9001017477F0A3EA
:1014C3007479F0A37483121A1D74970210009001AB
:1014D3000174A1121AA774C41219BA74D8021000A5
:1014E300900101741A1219BA742B1219EC748D023B
:1014F300100090010174A1121A4474C4121A4074AA
:10150300D8020F7D121A3B742B121A40744C121A14
:1015130040748D020F7D9001017419F0A374281299
:101523001A6F7445F0A37455F0A37464F0A3747335
:10153300F0A3748202196D90010174A1F0A374B039
:10154300F0A374C2F0A374D0F0A374E4F0A374F016
:10155300121AB60211AA900101741AF0A3740BF0C7
:10156300A3742CF0A3740DF0A3744EF0A3740F12A4
:101573001AB60210B09001017411F0A37401F0A324
:101583007422121A867444F0A3741602127A90011C
:101593000174761219D97432121A7F7401F0A304FC
:1015A300F0A374040211E8900101121A7D7412F081
:1015B300A374141219C47418F0A37420F0A3742232
:1015C30002196D9001017424F0A3742612198E740C
:1015D30030F0A37432F0A374341219CB74380219A7
:1015E3006D9001017440F0A374421219F574461210
:1015F3001A5D7450F0A37452F0A3745402196D90E1
:1016030001017456F0A37458F0A37460F0A37462DC
:10161300F0A37464F0A37468F0A37470F0A37472FD
:1016230002196D9001017474F0A37476F0A37478B9
:10163300F0A37480F0A37482F0A37484F0A374867F
:10164300121AB602196D9001017490F0A37492F00E
:10165300A37494F0A37496F0A37498F0A374A0F009
:10166300A37482020FEA90010174C81219BA74C4F8
:101673001219BA74C21219BA74C10210009001018E
:1016830074C8121A4074C2121A4074C4121A4074F5
:10169300C8020F7D900101741C1219BA742C12191F
:1016A300EC748C0210009001017411F0A3740C12FD
:1016B3001A0D74C01219F5740C121AB074C0021901
:1016C3006D1219B574A21219BA74A402108E121AEB
:1016D3003B742A121A40744A121A40748A020F7D0C
:1016E3009001017411F0A374A0121A0D740A121957
:1016F300F574A0121AB0740A02196D90010174B145
:10170300121AA774B41219BA74B802100090010126
:1017130074B1121A4474B4121A4074B8020F7D9053
:1017230001017411F0A374B0121A0D740B1219F5A0
:1017330074B0121AB0740B02196D90010174D112B6
:1017430019BA74D21219BA74D40214DB9001017459
:10175300D1121A4074D2121A4074D40214FF9001A9
:10176300017411F0A374D0121A0D740D1219F574CB
:10177300D0121AB0740D02196D90010174E112199F
:10178300BA74E21219BA74E41219BA74E8021000B6
:1017930090010174E1121A4074E2121A4074E412C7
:1017A3001A4074E8020F7D9001017411F0A374E0F4
:1017B300121A0D740E1219F574E0121AB0740E0297
:1017C300196D90010174F11219BA74F21219BA74F5
:1017D300F41219BA74F8021000900101741F12195F
:1017E300BA742F1219BA744F1219BA748F021000F7
:1017F30090010174FFF0A3121A94021000900101EA
:1018030074111219BE1219BE021022900101742222
:10181300121A1474221219BA7422021000900101D0
:1018230074441219FC74441219BA744402100090DF
:1018330001017488F0A3E4121AB0E4121AB6020F7D
:10184300FA9001017410121A8D7405F0A374121228
:101853001A867456F0A37401021189900101E4F011
:10186300A374641219BA7432F0A3E41219C4E40223
:101873001372900101E4121AA0E4121A86E4F0A391
:1018830074FF020FFD9001017493F0A37439F0A368
:101893007484121A5D7475F0A37457F0A37465F021
:1018A300A3745602196D9001017494F0A37449F066
:1018B300A37485F0A3745812197EF0A304F0A374E3
:1018C3008602196D9001017431F0A37413F0A374AF
:1018D30025F0A37452F0A374C8F0A3748C12197E7C
:1018E30002196D90010174D8F0A3748DF0A374B73D
:1018F300F0A3747BF0A3746AF0A374A6F0A3745FDF
:10190300F0A374F5806490010174E4F0A3744EF0C5
:10191300A374A8F0A3749C121A647496F0A374536E
:1019230080489001017498F0A37489F0A314F0A384
:101933007486F0A37440121AA07469F0A37496809D
:101943002990010174701219D27450121AA07430C4
:10195300121A867410021372900101E4F0A3F0A32B
:10196300F0A3F0A3F0A3F0A3F0A3F0D083D08202FE
:10197300010BF0A37471F0A3747322F0A37476F0D7
:10198300A3746722F0A37418F0A322F0A37428F0C1
:10199300A322F0A37408F0A322F0A37427F0A322D8
:1019A300F0A37421F0A322F0A37411F0A37413F035
:1019B300A32290010174A1121A0722121A077411AB
:1019C30022F0A37416F0A322F0A37436F0A322F03E
:1019D300A37406F0A322F0A37454F0A32290010190
:1019E3007401F0A37403F0A322121A07744C121AA1
:1019F3000722F0A37444F0A322121A077444121AA4
:101A0300072274FFF0A3E4F0A322F0A37422F0A34F
:101A130022121A077422121A0722F0A37487F0A362
:101A23007489F0A37491F0A322F0A37457F0A37404
:101A330059F0A37461F0A322900101741A121A4D94
:101A430022121A4D74B2121A4D22F0A374FFF0A39E
:101A530022121A4D7422121A4D22F0A37448F0A3D5
:101A630022F0A37467F0A37477F0A322F0A3743772
:101A7300F0A322F0A37440F0A3227408F0A374101F
:101A8300F0A322F0A37402F0A322F0A37424F0A322
:101A930022E4F0A3121A05121A0574FF22F0A374AC
:101AA30004F0A322121A0774B2121A0722121AB6EA
:101AB300F0A322F0A374882274F61204DBC290C24E
:101AC300A07A00750880750900EA7808120452E5C7
:101AD30008596004D2928002C292C291D2910AEA5A
:101AE300C3940840DE021B9274F61204DBD290C248
:101AF300A07A00750880750900EA7808120452E597
:101B030008596004D2928002C292C291D2910AEA29
:101B1300C3940840DE021B92C082C08379E21202A2
:101B2300517A057B0012029F79E21202517A057BFA
:101B330000121B85121B8512029F79F8120251793C
:101B43000112025179A312025179261202517981AD
:101B5300120251792012025179C012025179A11255
:101B6300025179A612025179AF1202517A147B0005
:101B730012029F7940120251120263D083D0820273
:101B8300010B12029F792F1202517A027B0022D29B
:101B9300A0D29290040DE0F5907F0202054774F7FE
:101BA3001204DB7EB0EE121BC37F80790012025752
:101BB3001FEF70F70EEEC394B840EA7F01020547AA
:101BC300F9120251121BCB2279101202517904121D
:101BD30002512274F01204DB8B0DE9C33324AEF5FA
:101BE30008EA33333354F82404F50CC4540F441077
:101BF300FE740F550CFF74E0250DC394604003750C
:101C03000D20850D0AE50A24E0F50AE434FFF50BFF
:101C13007404780A120471850A0E850B0F121C686E
:101C2300A908120251750A0080117408650A700B25
:101C330074012508F9120251121C68748B250EF5E4
:101C4300827406350FF583E493F9120257E50E24E7
:101C530001F50EE50F3400F50F050AE50AC39410EC
:101C630040C8021DEAEEF9120251EFF912025122A5
:101C730074F21204DBE9FE8A088C0C8D0DAA0CABFE
:101C83000D12030BEAF5097F0080158F0AE50C2579
:101C93000AF582E50D121CB3E0FBE508121DBA0F2D
:101CA300EFC3950940E57F060205477F0702054715
:101CB3003400F5832274F21204DB890AEAFE8B0BEB
:101CC3008C088D09EB70337F00AA08AB09E4121D61
:101CD300438011FB121D39850C82850D83A38582F8
:101CE3000C85830D850C82850D83E070E6EFC3942C
:101CF3000550407B20121D3980F37401650B70334E
:101D03008C0C8D0D740C780C12046274B1250CF5D7
:101D1300827405121CB3E0FB120269E509121DE48B
:101D2300121D4D121DCE7402121D4D121DCF7403D0
:101D3300121D53021CA9EE2FFAA90A1202690F22DF
:101D4300FCFD1202FF8A0C8B0D22121D53E50822A3
:101D53002EFAA90A1202692274F11204DBE9FEEADF
:101D6300FF8B0E8C09EB7034750800ECFAE4FB1260
:101D73001D438011FB121DC2850C82850D83A38533
:101D8300820C85830D850C82850D83E070E6E50862
:101D9300C39403501F7B20121DC280F27401650E91
:101DA3007012EC121DCE12026985090AE50A121D92
:101DB300E4121DBA021CAE2FFAEEF912026922EFE9
:101DC3002508FAEEF9120269050822C4121DD3226E
:101DD300540FF874B128F58274053400F583E0FBE1
:101DE30022121DD37401227F08020547C082C083DB
:101DF3001202E112022179017A8D7B031202C9904A
:101E0300038DE0C2E7F0640570347905121EC450F7
:101E130004D2F08002C2F0A2F0E4339005A9F0905E
:101E23000392E0A2E74003021EBC900390E0F89007
:101E33000311E0686003021EBCA37401807AE024EE
:101E4300F59005A6F090038DE0F9121EC45004D25C
:101E5300F08002C2F0A2F0E4339005A9F09003955C
:101E6300E0F8A3E0F99005A2E8F0A3E9F09005A754
:101E73007497F0A37403F0121ED2749728F87403B6
:101E830039F988828983E09005AAF088828983A33F
:101E9300E0A2E7501C9005A1E0F8900390E0686091
:101EA3001090038EE054DF644170069005AB74011B
:101EB300F0900390E09005A1F01202271202E78050
:101EC300197A8E7B031202C990038EE0A2E5229059
:101ED30005A6E0F83395E0F922F9D083D082020118
:101EE3000B74F71204DBEAFEEBFF1202A5E96401AF
:101EF30070047901804E120227900318EEF0A3EFCD
:101F0300F09005A7E4F0A3F090031304F09005AD5F
:101F130012042D900314120439121F4CA3A3E0F9E9
:101F23001202B112204BFAA3E0FB1202B7121F4CAC
:101F3300E0FAA3E0FB1202BD7AEB7B011202ED1281
:101F4300022179007F01020547121F5022900318D6
:101F5300E0F8A3E0F5838882A3A32274F41204DBE0
:101F6300EAFEEBFF8C088D09890A900313E07003E6
:101F73001202D5E50AC394675005850A0B800375E1
:101F83000B671202F31202E1740B250B90031AF094
:101F930012205890031B6004746180027441F0A303
:101FA3007488F0900311E090031DF0900319121F41
:101FB30056E0F8A3E0F990031EE8F0A3E9F0A3EEDE
:101FC300F0A3EFF012204BF8A3E0F9900322E8F01E
:101FD300A3E9F07A0080218A82A882E50828F582A5
:101FE300E5093400F583E0C0E0742428F582740326
:101FF3003400F583D0E0F00AEAC3950B40D9740AA4
:10200300250BF97A1A7B031202C31202E71202CFDD
:102013001220586012900312E4F07A4A7B021202F3
:1020230099900312E060047E0080027E0190031306
:10203300E070031202DBEEA2E04006900311E0041D
:10204300F0EEF97F04020547900318E0F8A3E0F5EA
:10205300838882E022121F50A3A3A3E022C082C080
:10206300839005ABE0021EDC74F21204DB8A088B5A
:1020730009890AECFEEDFF120227121ED2850A0C13
:10208300C3E8950CE99400A2D265D033500AE0F579
:102093000C3395E0F50D8003750D00780C120644A2
:1020A3009005A7E0FCA3E0FDAA08AB0912030574A1
:1020B3000212049AEE4F601E1202ABE9F508900576
:1020C300AA121ED5E8C39508F8E99400F98E828F09
:1020D30083E8F0A3E9F09005ABE4F0120221121EAD
:1020E300D2850A08C3E89508E99400A2D265D033E3
:1020F3005004E0F98002A90A7F06020547C082C0A6
:10210300839003137401F01202D5021EDD1201C77E
:10211300120215E990030EF0640170F41201E580D8
:102123000C79071202877ADC7B0512029F1201FDEC
:10213300E960EE7C007D0079FF7A097B01120203DE
:10214300E960EA900109E0F91201CD80E6C082C09E
:10215300839003097411F0A3F0A304F0A37401F0B6
:1021630012020F79081202819003077401F0A3E4AD
:10217300F07A077B031201F112020990030F742C0A
:10218300F0A37401F07C4C7D057A00F912026F7C98
:10219300597D057A00790212026FD083D082020141
:1021A3000B74F51204DB90010AE075F064A490034C
:1021B3000FF0A3E5F0F0E914600614605202229CCC
:1021C3001201D37C677D057A0C790112026F7E00C0
:1021D300EE1222A1EEF91201DFEEFC7B007A087900
:1021E3000212027B7F00EFF91222B70FEFC39408AC
:1021F30040F4790012028D1222AB7A01EEF912013A
:10220300D9E9FE0E04C39464400302229C80C112E8
:1022130001D37C697D057A0C790112026F7E007F00
:1022230000740B2EF50874013FF509850882F583C8
:10223300E01222A1850882850983E0F91201DF8576
:102243000882850983E0FC7B007A08790212027B0D
:10225300750800750900A9081222B7E5082401F5DD
:1022630008E5093400F509C3E5089408E509940075
:10227300A2D265D03340DF7A02EEF91201D9E9F533
:10228300081222ABE5082401FEE43400FFEE9408B3
:10229300EF9400C365D03340887F03020547F912EA
:1022A30001C1900113E0FA2290030FE0FAA3E0FBCF
:1022B30012029F221201BB7AFA7B0012029F22C0F4
:1022C30082C0831202637C6B7D0512234B7C787D75
:1022D300057A00790212026F90030FE0FCA3E0FD80
:1022E3007B007A0C790212027502219D74F71204A5
:1022F300DBE9FEEAFF7C007D0079FF7A097B0112AE
:102303000203E9603E900109E06F7015A3E075F0E8
:1023130064A4F8A9F090030FE0687003A3E0696078
:10232300207C817D0512234B7A647B0012029F740B
:10233300016F70047964800B74026F7004790880F4
:1023430002EEF97F010205477A0079011223C5796C
:10235300011202692274F71204DBE9FE9002087489
:1023630001F0EEA3F079FF7C087D027A337B331210
:1023730001F780CFC082C0839002087401F0A37478
:10238300FFF0F97C087D027A337B331201F77C007E
:102393007D0079FF7A097B01120203E96021900134
:1023A30014E0F4701AE4F0900113E090030DF07C54
:1023B300917D057A0079021223C57902120269021E
:1023C300219D12026F90030DE0FB7A062274F01236
:1023D30004DB74FB12048474011204CFEAF0A3EB50
:1023E300F0A3ECF0A3EDF07A407B0574011204CF67
:1023F300C082C0839005AD780812040FD083D082C9
:102403007808120311851082851183501C7401F022
:102413001204CF780812040F78081203FE74011215
:1024230004CF780812041E8002E4F074011204CF72
:10243300780C12040F9005C1780812040F780C79F8
:10244300081203C0E50824308A828B83F0A3AA8292
:10245300AB8374011204CF780C12040F9005C1787A
:102463000812040F780C79081203C074011204CF08
:10247300780C12041E74011204CF780812040FE5BD
:10248300084509450A450B70A2851082851183E032
:10249300A2E0500B8A828B83742DF0A30AAB838A4C
:1024A300828B83E41224E278407905801D8A828B33
:1024B30083E0FC88828983E08A828B831224E2ECA6
:1024C30088828983F0A3A882A983C3E89AE99B4001
:1024D300DC7A407B05740512049A7F08020547F0F5
:1024E300EA24FF1AEB34FFFB22C082C08390618988
:1024F300E04460F090619074D5F09061FA7409F053
:102503009061B27415F09061AEE4F01202E77900C5
:102513008004F0EBA3F0D083D08202010B7949024F
:10252300010BC082C08375F005E9A424D490618FA8
:1025330080E3C082C083EA90617480D6C082C08386
:10254300EA90617280CC74F61204DB75E1EE75914A
:10255300FD78008003122565E8C39940F87F0202E5
:1025630005478808EA2508F582EB3400F583E0F592
:10257300D90822C082C083800DE5D98A828B83F07B
:10258300A3AA82AB8319E970F0022519790002012D
:102593000B75E1E9E591A2E150FA7591FD80ED75C6
:1025A300E1EC75E1E302010B75E1EF75E1EC02018A
:1025B3000BC082C0839061A3E0C2E6F0539AFE028F
:1025C3002519C082C0839061A3E0D2E6F0439A014B
:1025D300022519C082C083E5A8F8C2AF900438EA87
:1025E300F0A3EBF0E8A2E792AF022519C082C08303
:1025F300906193E0542270F8022519C082C083D2FF
:10260300A4D2A37A027B00120299C2A38002D2A4AD
:102613007A027B00120299C2A47A027B0012029909
:10262300D083D08202010BC082C083C2A37A027B13
:1026330000120299D2A47A027B00120299D2A380DB
:10264300D8C082C083C2A380C574F71204DBE9FF3C
:102653007E08EFA2E75004D2A38002C2A3D2A4C390
:1026630033FF1226731EEE70E980007F01020547D7
:102673007A027B00120299C2A47A027B00120299A9
:102683002274F71204DBE9FFEAFE12269AEEF9122E
:1026930026AD12023380D412022D79E01226B179CD
:1026A300001226B1EFF91226B1221226B12212022C
:1026B3003F12023922C082C0837A62790012024536
:1026C3007AF779021202457A0779031202457A00F2
:1026D30079041202457A0079051202457A30790E9F
:1026E3001202457A6A7900120245022623C082C08B
:1026F30083E914601714601C1460211460261460AD
:102703002B14603014603514603A803F90040DE060
:10271300D2E0803690040DE0D2E1802E90040DE0EB
:10272300D2E2802690040DE0D2E3801E90040DE0F7
:10273300D2E4801690040DE0D2E5800E90040DE003
:10274300D2E6800690040DE0D2E7F090040DE0F5A8
:1027530090D083D08202010BC082C083E91460173A
:1027630014601C14602114602614602B1460301450
:10277300603514603A803F90040DE0640180369028
:10278300040DE06402802E90040DE0640480269022
:10279300040DE06408801E90040DE0641080169020
:1027A300040DE06420800E90040DE06440800690E8
:1027B300040DE06480F002274E899002010BC08271
:1027C300C083790012021BD083D08202010BEBC3BA
:1027D30013FBEA13FAEAF8EBF9E824FFFAE934FF0A
:1027E300FBE8496012000000000000000000000048
:1027F300000000000080DE02010B74F71204DBEA24
:10280300FEEBFFEEF8EFF9E824FFFEE934FFFFE803
:102813004960097AE87B0312029980E77F01020588
:1028230047C082C08312029353F5EFD2A443FF1033
:1028330053F5F7D2A343FF0853F5F753FFF743F7D5
:102843000853F5FEC2A043FF0153F3BFC28643FD05
:102853004075F4007590FF75FEFF90040DE4F0756C
:10286300900012025D12024B1202F9120221D08370
:10287300D08202010B74F61204DB740A1204CFE057
:10288300FEA3E0FFEAF8EBF980188C828D83E088E1
:10289300828983F0A3A882A9838C828D83A3AC82CF
:1028A300AD838E088F09E50824FF1EE50934FFFF79
:1028B300E508450970D47F02020547C082C08353EF
:1028C300F1FE43F30C53F2F375868075C48075C231
:1028D300D875C50B75C402438640D2AA75C1009052
:1028E30004BAE4F0A3F090053DF0A3F09004BCF02B
:1028F30090053FF0D083D08202010BE5C65480F8E7
:1029030053BEFBE59DA2E550FAE59DA2E240F4002B
:102913007401697007744948F5C68005E970028837
:10292300C6E5C6F8E59E6870FB43BE0402010B7959
:1029330000A2A340107800A2A34002780008E8C3D5
:10294300943240F309A2A440117800A2A440027873
:102953000008E8C3943240F3790202010BC082C03D
:10296300838A828B838001A3E070FCE582C39AFA99
:10297300E5839BFBD083D08202010BD2AF02010B14
:05298300C2AF02010BD0
:04000005000000E314
:00000001FF
