:020000040000FA
:030000000200E318
:03004B000204FDAF
:1000830002050100000080FB120113B90003020006
:10009300CDE4900101780D79048002F0A3D8FCD956
:1000A300FA90040DAA82AB8390011678117901802E
:1000B30015E493A3AC82AD838A828B83F0A3AA82D7
:1000C300AB838C828D83D8E9D9E7758275758314E8
:1000D30074001200F575828675830074001200F5B2
:1000E30075D0007581BF751001751101759F0002F0
:1000F300008BC09FF59FE473D09F22D083D082C032
:100103009FE493C0E0740193C0E0740293F59F22CF
:10011300790122FF00000000000000000000000041
:100123000000001200FE3905001200FE5A050012FD
:1001330000FEB614001200FEF814001200FEF115C2
:10014300001200FE4616001200FE6011001200FEAF
:100153005412001200FECE12001200FED013001241
:1001630000FE6514001200FE7717001200FEA318AC
:10017300001200FEE218001200FE1619001200FE23
:100183001B19001200FE2019001200FEEF170012C7
:1001930000FEFF17001200FE2B18001200FE52187B
:1001A300001200FE6516001200FE9916001200FEF2
:1001B3009E16001200FEAE16001200FEB8160012C4
:1001C30000FEC216001200FEEF16001200FE0D170D
:1001D300001200FE1B17001200FE2417001200FE7F
:1001E3002D17001200FE3E17001200FE4F170012DB
:1001F30000FE6817001200FE5D1800E4CFC0E0E4C3
:10020300CEC0E0E4CDC0E0E4CCC0E075F020C3E6AE
:1002130033F608E633F608E633F608E633F618183D
:1002230018EC33FCED33FDEE33FEEF33FFC3EC97F5
:1002330009ED9709EE9709EF97191919400FFFEC8C
:1002430097FC09ED97FD09EE97FE191906D5F0BE47
:10025300ECF709EDF709EEF709EFF7191919D0E0F3
:10026300FCD0E0FDD0E0FED0E0FF221202D6181849
:10027300181201FE1202C5191919221202C5191901
:1002830019080808E618181820E7E01201FE120200
:10029300D618181822090909E719191920E7DC08E3
:1002A3000808E618181820E7030201FE1202D61800
:1002B30018181201FE1202D61818181202C51919BD
:1002C3001922E4C397F709E497F709E497F709E4D8
:1002D30097F722E4C396F608E496F608E496F60840
:1002E300E496F622E0FAA3E0FBA3E0FCA3E0FD2200
:1002F300EAF0A3EBF0A3ECF0A3EDF022CAC0E0E632
:10030300F0A308DAFAD0E0FA22C0D0251010AF0823
:10031300F510500205118008F51050020511D2AFF7
:10032300D0D0222510F58210AF08F5104002151128
:100333008008F51040021511D2AF851183222510D4
:10034300F582E43511F58322E4732510C582C0E0FC
:10035300E51134FFC583C0E0E510C3958224F8108E
:10036300AF088583118582108008858311858210EB
:10037300D2AFCEF0A3E520F0A37808E608F0A3DE21
:10038300FAEFF0A3E58124FAF8E608F0A3E608F013
:10039300A3E608F0A30808E608F0A3E608F0A3150F
:1003A300811581D0E0FED0E0F8158115811581E833
:1003B300C0E0EEC0E022851183851082E0A3FEE059
:1003C300A3F5207808E0A3F608DFFAE0A3FFE0A393
:1003D300C0E0E0A3C0E0E0A3C0E0E0A3C0E0E0A38E
:1003E300C0E010AF088582108583118008858210D4
:1003F300858311D2AFD083D0820200FBC0D02510F9
:10040300C582C0E0E51134FFC583C0E0E510C395A4
:100413008224F310AF0885831185821080088583B9
:1004230011858210D2AFC8F0A3E9F0A3EAF0A3EBE1
:10043300F0A37908E709F0A3D8FAECF0A3EDF0A351
:10044300EEF0A3EFF0A3D0E0F0A3D0E0F0A3D0E070
:10045300F0A3E520F0A3E5F0F0A322851183851036
:1004630082E0C0E0A3E0F9A3E0FAA3E0FBA37808ED
:10047300E0F608A3DFFAE0FCA3E0FDA3E0FEA3E0BF
:10048300FFA3E0C0E0A3E0C0E0A3E0F5D0A3E0F564
:1004930020A3E0A3F5F010AF0885831185821080B7
:1004A30008858311858210D2AFD082D083D0E0F843
:1004B300D0E03274028000C0E0F404120326D0E0DE
:1004C3001202FF22D083D082C5F0E493A3C5F0C308
:1004D30095F0F5F0E493A3C395F04005E5F00480AF
:1004E30001E475F002A42582F582E5F03583F583F6
:1004F300E493A3C0E0E493C0E02263800232C0E04F
:1005030074F21203FFA2AFE433FEC2AFE5E9A2E641
:10051300501A90040BE0F8A3E0F9E8496008E0F50D
:1005230083888212034B759B0053E9BFEEA2E092CE
:10053300AF7F0102045E74F612034DE9FE8E087468
:10054300012508F58274013400F583E0F9898012EE
:1005530001867F020203B9C082C083E91204C70087
:1005630063DD0FCA0F2E063E06560670068706AADF
:1005730006C006D306EF06080720072E0720073616
:100583000748075E0779078E07AC07BE07D007EE5B
:10059300070C082A08480866088408A508C608E462
:1005A30008FF0820093609570978099C09BA09D8B0
:1005B30009F3090D0A280A490A5E0A7A0A990AB256
:1005C3000ACE0AE70AFD0A120B260B3B0B4D0B5F03
:1005D3000B710B830B9D0BBC0BDB0BF40B0D0C296D
:1005E3000C470C650C890CAC0CCC0CE30CFA0C0C12
:1005F3000D270D3E0D500D6B0D7D0D8F0DAA0DBCFE
:100603000DCE0DE90D000E170E320E490E600E6D64
:100613000E7B0E8D0E9F0EB10ECB0EE30EF60E1754
:100623000F350F510F740F940FB30F900101121177
:1006330042F0A3E4F0A374FF020FDC900101740104
:10064300F0A30412114E12111974201211127480A6
:10065300020FDC9001017480121112742012111B1D
:10066300740812114E7402F0A314020FDC1210620C
:100673007407F0A3740FF0A3741FF0A3743FF0A3E7
:10068300747F80B09001017480F0A374C0F0A374F0
:10069300E0F0A374F0F0A374F8F0A374FCF0A37477
:1006A300FEF0A304020FDC90010174111210C47454
:1006B30044F0A3E412115BF0A3E4020FDC90010108
:1006C30074881210B37422F0A3E4F0A3741180E7CA
:1006D3009001017481F0A37442F0A3742412110BEE
:1006E3007424F0A37442F0A3748180CB900101744D
:1006F300181211047442F0A37481F0A3744212110E
:1007030004741880B29001017481F0A374C3F0A340
:1007130074E71210F074E7F0A374C380C912105683
:100723007415121087F0A37401808C12101A121121
:1007330022808412101AF0A374AAF0A374EAF0A31F
:1007430074FA0206A090010174FFF0A314F0A374DD
:10075300FAF0A374EA121122020FDC90010174FF74
:10076300F0A374FDF0A374F5F0A374D5121087F011
:10077300A37401020FDC121056740A121130745064
:10078300F0A37441F0A37482020FDC90010174A002
:10079300F0A374501211347414F0A3740A12105B92
:1007A3007482F0A37441020FDC900101121006124F
:1007B30011557444F0A374220206CD90010174888C
:1007C3001210AC7422F0A31210060206B7900101B6
:1007D3007439F0A37427F0A3744112114E744212BA
:1007E300104F7443F0A37412020FDC9001017444A0
:1007F300F0A374161210487420F0A3744612110467
:100803007447F0A37428020FDC9001017448F0A32D
:100813007432F0A37449121041745112105B745274
:10082300F0A37410020FDC9001017453F0A374154C
:1008330012103A7420F0A374551210337456F0A3B7
:100843007430020FDC9001017457F0A37435F0A3E8
:10085300745812111274591210487461F0A374067B
:10086300020FDC9001017462F0A37412F0A37463AD
:1008730012110B74641211047471F0A37407020F44
:10088300DC9001017472F0A37414F0A37473F0A3E9
:100893007421F0A374741211347475F0A3743502C7
:1008A3000FDC9001017476F0A37442121080744936
:1008B300F0A37478F0A37456F0A37479F0A374636F
:1008C300020FDC900101748112104F7482F0A37443
:1008D30016F0A374831211047484F0A37432020F0C
:1008E300DC900101748512111274861210797487D9
:1008F300F0A374561211557464020FDC9001017455
:1009030089F0A37472F0A37491F0A37409F0A37433
:100913009212110B7493F0A37427020FDC90010160
:1009230074941210417495121079749612103A74DB
:100933009780899001017498F0A37472F0A374995D
:10094300F0A37481F0A374A112102574A2F0A37410
:1009530020020FDC90010174A3F0A37430F0A374A0
:10096300A412111274A5F0A37450F0A374A6F0A3FB
:100973007460020FDC90010174A7F0A37470F0A3FC
:1009830074A8F0A37480F0A374A9F0A37490F0A3E7
:1009930074B1F0A37411020FDC90010174B2120F51
:1009A300FF74B3F0A37433F0A374B41210AC74B532
:1009B300F0A37455020FDC90010174B6F0A37466C2
:1009C300F0A374B712108074B812115574B9F0A360
:1009D3007499020FDC900101742112113B742212ED
:1009E300114E742312102C7424F0A37408020FDC2C
:1009F300900101742512111B7426F0A37412F0A345
:100A030074271211307416020FDC9001017429123D
:100A1300110B742A12104F74C8F0A3747612106766
:100A23007474020FDC9001017461F0A37450F0A39D
:100A3300742DF0A374D5F0A3744B12102C7498F09A
:100A4300A37434020FDC1210627405F0A37407F070
:100A5300A3740912106E7415020FDC900101741750
:100A6300F0A37419F0A37421F0A374231210337448
:100A730027120FED020FDC9001017433F0A37435DC
:100A8300F0A37437F0A37439121011F0A37445F076
:100A9300A37447020FDC9001017451F0A37453F067
:100AA300A374551210CD7463F0A37465020FDC9028
:100AB30001017467F0A37469120FE4F0A374751253
:100AC30010807479F0A37481020FDC9001017483A8
:100AD300F0A374851210DC7493F0A37495F0A374DF
:100AE30097020FDC900101749912113B0412105B01
:100AF300740712106E7417020FDC9001017419F061
:100B0300A37423120FEDF0A3743712101180809099
:100B130001017451F0A374531210CD7467120FE4E2
:100B2300020FDC9001017477F0A37479F0A374834E
:100B33001210DC74970206BA90010174A11210A37B
:100B430074C412109674D80206BA900101741A1272
:100B53001096742B12109A748D0206BA90010174C8
:100B6300A11210F474C41210F074D80206371210D4
:100B7300EB742B1210F0744C1210F0748D020637C4
:100B8300900101741912113474371210487455F01E
:100B9300A37464F0A3747302078790010174A1F036
:100BA300A374B0F0A374C2F0A374D0F0A374E4F000
:100BB300A374F012115B020823900101741AF0A3CD
:100BC300740BF0A3742CF0A3740DF0A3744EF0A374
:100BD300740F12115B0207729001017411F0A37478
:100BE30001F0A3742212113B7444F0A3741602089B
:100BF300F7900101747612103A743212111B7401CA
:100C0300F0A304F0A3740402085F90010112111908
:100C13007412F0A37414F0A3741612110B7420F061
:100C2300A37422020FDC9001017424F0A374261232
:100C330011347430F0A37432F0A37434121041747D
:100C430038020FDC9001017440F0A374421210AC1F
:100C530074461210797450F0A37452F0A3745402C2
:100C63000FDC9001017456F0A37458F0A37460F084
:100C7300A37462F0A37464F0A37468F0A37470F0B7
:100C8300A37472020FDC9001017474F0A37476F004
:100C9300A37478F0A37480F0A37482F0A37484F037
:100CA300A3748612115B020FDC9001017490F0A310
:100CB3007492F0A37494F0A37496F0A37498F0A3C1
:100CC30074A0F0A374820206A490010174C81210E8
:100CD3009674C412109674C212109674C10206BAA6
:100CE30090010174C81210F074C21210F074C4128F
:100CF30010F074C8020637900101741C1210967428
:100D03002C12109A748C0206BA9001017411F0A38C
:100D1300740C120FFF74C01210AC740C12115574C2
:100D2300C0020FDC90010174A112109674A212107C
:100D33009674A412109674A80206BA1210EB742AC1
:100D43001210F0744A1210F0748A020637900101EF
:100D53007411F0A374A0120FFF740A1210AC74A0E4
:100D6300121155740A020FDC90010174B11210A321
:100D730074B412109674B80206BA90010174B112D9
:100D830010F474B41210F074B802063790010174B1
:100D930011F0A374B0120FFF740B1210AC74B012E5
:100DA3001155740B020FDC90010174D1121096746B
:100DB300D212109674D4020B4590010174D1121013
:100DC300F074D21210F074D4020B69900101741103
:100DD300F0A374D0120FFF740D1210AC74D0121163
:100DE30055740D020FDC90010174E112109674E248
:100DF30012109674E412109674E80206BA90010178
:100E030074E11210F074E21210F074E41210F07432
:100E1300E80206379001017411F0A374E0120FFF8A
:100E2300740E1210AC74E0121155740E020FDC90A4
:100E3300010174F112109674F212109674F41210E8
:100E43009674F80206BA900101741F121096742F5B
:100E5300121096744F121096748F0206BA90010105
:100E630074FFF0A31211420206BA9001011210940A
:100E730012109474110206CA90010174221210C454
:100E8300742212109674220206BA9001017444125D
:100E930010B3744412109674440206BA900101749C
:100EA30088F0A3E4121155E412115B0206B4900119
:100EB3000174101211047405F0A3741212113B741F
:100EC30056F0A37401020805900101E4F0A37464D1
:100ED30012109674321210967416F0A3E40209EC01
:100EE300900101E412114EE412113BE4F0A374FFEC
:100EF3000206B79001017493F0A37439F0A37484CC
:100F03001210797475F0A37457F0A37465F0A37489
:100F130056020FDC9001017494F0A37449F0A3749A
:100F230085F0A37458120FF6F0A304F0A37486029D
:100F33000FDC9001017431F0A37413121033745257
:100F4300F0A374C8F0A3748C120FF6020FDC9001A7
:100F53000174D8F0A3748DF0A374B7F0A3747BF07D
:100F6300A3746AF0A374A6F0A3745FF0A374F5806E
:100F73006890010174E4F0A3744EF0A374A8F0A385
:100F8300749CF0A374671210807496F0A37453805A
:100F9300489001017498F0A37489F0A314F0A3742A
:100FA30086F0A3744012114E7469F0A374968029DD
:100FB300900101747012102C745012114E7430127F
:100FC300113B74100209EC900101E4F0A3F0A3F0CB
:100FD300A3F0A3F0A3F0A3F0A3F0D083D082020088
:100FE300FBF0A37471F0A3747322F0A37429F0A32C
:100FF300743122F0A37476F0A3746722F0A37422F1
:10100300F0A3227411F0A37422F0A3744422F0A37A
:101013007441F0A3744322900101740212102574E9
:101023002A22F0A3740AF0A322F0A37406F0A322E9
:10103300F0A37425F0A322F0A37454F0A322F0A329
:101043007436F0A322F0A37445F0A322F0A374082E
:10105300F0A3229001017401F0A37405F0A3229080
:1010630001017401F0A37403F0A322F0A37411F03F
:10107300A37413F0A322F0A37448F0A322F0A37483
:1010830077F0A322F0A37455F0A37415F0A37405AD
:101093002274111210BE221210BE744C1210BE2202
:1010A3001210BE74B21210BE22F0A37444F0A32235
:1010B3001210BE74441210BE2274FFF0A3E4F0A316
:1010C300221210BE74221210BE22F0A37457F0A392
:1010D3007459F0A37461F0A322F0A37487F0A3748E
:1010E30089F0A37491F0A322900101741A1210FDE8
:1010F300221210FD74B21210FD22F0A374FFF0A3AC
:1011030022F0A37424F0A322F0A37418F0A322F016
:10111300A37440F0A3227408F0A37410F0A322F088
:10112300A374AAF0A3742A121025740222F0A374E4
:1011330014F0A37428F0A322F0A37402F0A322E412
:10114300F0A31210BC1210BC74FF22F0A37404F0BD
:10115300A32212115BF0A322F0A3748822C082C0E1
:10116300831201E012017A79017A8B7B031201C8A1
:1011730090038BE0C2E7F0640570347905121235F1
:101183005004D2F08002C2F0A2F0E433900415F0D0
:10119300900390E0A2E7400302122D90038EE0F843
:1011A30090030FE068600302122DA37401807AE0BC
:1011B30024F5900412F090038BE0F91212355004D9
:1011C300D2F08002C2F0A2F0E433900415F0900351
:1011D30093E0F8A3E0F990040EE8F0A3E9F090049B
:1011E300137495F0A37403F0121243749528F874E2
:1011F3000339F988828983E0900416F08882898311
:10120300A3E0A2E7501C90040DE0F890038EE06881
:10121300601090038CE054DF6441700690041774EF
:1012230001F090038EE090040DF01201801201E6AC
:1012330080187A8C7B031201C890038CE0A2E5220C
:10124300900412E0F83395E0F922D083D0820200B3
:10125300FB74F712034DEAFEEBFF1201A4E96401EC
:1012630070047901804E120180900316EEF0A3EF13
:10127300F0900413E4F0A3F090031104F090041928
:101283001202E79003121202F31212BCA3A3E0F9B5
:101293001201B01213BBFAA3E0FB1201B61212BC87
:1012A300E0FAA3E0FB1201BC7A4A7B011201EC12C3
:1012B300017A79007F010203B91212C0229003164A
:1012C300E0F8A3E0F5838882A3A32274F412034D0C
:1012D300EAFEEBFF8C088D09890A900311E0700385
:1012E3001201D4E50AC394675005850A0B80037580
:1012F3000B671201F21201E0740B250B900318F037
:101303001213C89003196004746180027441F0A33E
:101313007488F090030FE090031BF09003171212F0
:10132300C6E0F8A3E0F990031CE8F0A3E9F0A3EE0C
:10133300F0A3EFF01213BBF8A3E0F9900320E8F059
:10134300A3E9F07A0080218A82A882E50828F58241
:10135300E5093400F583E0C0E0742228F5827403C4
:101363003400F583D0E0F00AEAC3950B40D9740A40
:10137300250BF97A187B031201C21201E61201CE82
:101383001213C86012900310E4F07A4A7B02120130
:1013930092900310E060047E0080027E01900311AE
:1013A300E070031201DAEEA2E0400690030FE004BE
:1013B300F0EEF97F040203B9900316E0F8A3E0F519
:1013C300838882E0221212C0A3A3A3E02274F21244
:1013D300034D8A088B09890AECFEEDFF1201801286
:1013E3001243850A0CC3E8950CE99400A2D265D098
:1013F30033500AE0F50C3395E0F50D8003750D00CD
:10140300780C1204B6900413E0FCA3E0FDAA08AB29
:10141300091201F8740212030CEE4F601E1201AAA6
:10142300E9F508900416121246E8C39508F8E99402
:1014330000F98E828F83E8F0A3E9F0900417E4F0BB
:1014430012017A121243850A08C3E89508E9940049
:10145300A2D265D0335004E0F98002A90A7F0602C4
:1014630003B9C082C0839003117401F01201D40246
:10147300124D1201327C007D0079FF7A097B011243
:10148300015CE960F0900109E0700BA3E0700F7A52
:10149300007900120144900109E064056010900195
:1014A30009E0F9120138900109E0640570C71201DF
:1014B3009E80C2C082C0839003097411F0A3F0A37D
:1014C30004F0A37401F01201689003077422F0A3DF
:1014D300F07A077B0312015012016290030D742C02
:1014E300F0A37401F075F30075FDFF758000D083E0
:1014F300D0820200FB74F512034D90010AE075F0EF
:1015030064A490030DF0A3E5F0F0E9146006146001
:10151300400215C07E01EE1215CEEEF9120144759C
:1015230008001215DC0508E508C3940840F47900A7
:101533001201867580001215D87A01EEF912013E68
:10154300E91215C59464EF9400C365D033506E80DF
:10155300C57E007F00740B2EF50874013FF50985E5
:101563000882F583E01215CE850882850983E0F9A8
:101573001201447508007509001215DCE508240101
:10158300F508E5093400F509C3E5089408E509946D
:1015930000A2D265D03340E17A02EEF912013EE9AE
:1015A300F50875800079001201861215D8E5081236
:1015B30015C59402EF9400C365D03340987F0302AE
:1015C30003B92401FEE43400FFEE22F912012C904A
:1015D3000113E0FA221215E522A9081201261215B9
:1015E300E52290030DE0FAA3E0FB1201982274F7C1
:1015F30012034DE9FEEAFF7C007D0079FF7A097B47
:101603000112015CE96037900109E06F7015A3E0F6
:1016130075F064A4F8A9F090030DE0687003A3E0EB
:101623006960197A647B0012019874016F70047900
:1016330064800B74026F7004790A8002EEF97F01F3
:101643000203B974F712034DE9FE9002087401F026
:10165300EEA3F079FF7C087D027A337B33120156C7
:1016630080DCC082C083906189E04460F090619027
:1016730074D5F09061FA7409F09061B27415F0902A
:1016830061AEE4F01201E679008004F0EBA3F0D040
:1016930083D0820200FB79490200FBC082C08375BC
:1016A300F005E9A424D490618F80E3C082C083EA6B
:1016B30090617480D6C082C083EA90617280CC74DA
:1016C300F612034D75E1EE7591FD78008003121655
:1016D300DEE8C39940F87F020203B98808EA2508C7
:1016E300F582EB3400F583E0F5D90822C082C0838C
:1016F300800DE5D98A828B83F0A3AA82AB8319E993
:1017030070F002169279000200FB75E1E9E591A2FF
:10171300E150FA7591FD80ED75E1EC75E1E30200AE
:10172300FB75E1EF75E1EC0200FBC082C0839061C1
:10173300A3E0C2E6F0539AFE021692C082C08390E1
:1017430061A3E0D2E6F0439A01021692C082C083FD
:10175300E5A8F8C2AF90040BEAF0A3EBF0E8A2E728
:1017630092AF021692C082C083906193E0542270BC
:10177300F8021692C082C08312018C53F4FEC29009
:1017830043FE0153F4FDC29143FE0253F4FBC292A4
:1017930043FE0453F4F7C29343FE0853F4EFC29499
:1017A30043FE1053F4DFC29543FE2053F4BFC296A9
:1017B30043FE4053F47FC29743FE8053F5F753FF34
:1017C300F753F7F753F77F53F5EF53FFEF53F7EF64
:1017D30053F77F53F3FDD28143FD027AAA7B0A12AA
:1017E300016E12017AD083D0820200FBC082C083D3
:1017F3007900120174D083D0820200FBEBC313FB88
:10180300EA13FAEAF8EBF9E824FFFAE934FFFBE814
:10181300496012000000000000000000000000000A
:1018230000000080DE0200FB74F712034DEAFEEBBA
:10183300FFEEF8EFF9E824FFFEE934FFFFE8496023
:10184300097AE87B0312019280E77F010203B9431F
:10185300C90353C9FB43C90880FE74F612034D74D0
:101863000A120341E0FEA3E0FFEAF8EBF980188CCB
:10187300828D83E088828983F0A3A882A9838C82E6
:101883008D83A3AC82AD838E088F09E50824FF1EE8
:10189300E50934FFFFE508450970D47F020203B967
:1018A30074F012034D43E40C750C48750DE8750E86
:1018B30001750F008A088B09E4F50AF50B780C799A
:1018C30008120298850D09E509F5DBE50CF5DA75D3
:1018D300E54453E4EF53E4FDC2B97F080203B9E5DD
:1018E300C65480F853BEFBE59DA2E550FAE59DA2E0
:1018F300E240F4007401697007744948F5C6800535
:10190300E9700288C6E5C6F8E59E6870FB43BE042D
:101913000200FBD2AF0200FBC2AF0200FB899002C0
:0219230000FBC7
:04000005000000E314
:00000001FF
