:020000040000FA
:030000000200E318
:03004B000204FDAF
:1000830002050100000080FB120113B90003020006
:10009300CDE4900101780D79048002F0A3D8FCD956
:1000A300FA90040DAA82AB8390011678117901802E
:1000B30015E493A3AC82AD838A828B83F0A3AA82D7
:1000C300AB838C828D83D8E9D9E775828A758314D3
:1000D30074001200F575828675830074001200F5B2
:1000E30075D0007581BF751001751101759F0002F0
:1000F300008BC09FF59FE473D09F22D083D082C032
:100103009FE493C0E0740193C0E0740293F59F22CF
:10011300790122FF00000000000000000000000041
:100123000000001200FE3905001200FE5A050012FD
:1001330000FEB714001200FEF914001200FEE115D0
:10014300001200FE3616001200FE7511001200FEAA
:100153006912001200FEE312001200FEE513001202
:1001630000FE7A14001200FE6717001200FE9318B7
:10017300001200FED218001200FE0619001200FE43
:100183000B19001200FE1019001200FEDF170012F7
:1001930000FEEF17001200FE1B18001200FE4218AB
:1001A300001200FE5516001200FE8916001200FE12
:1001B3008E16001200FE9E16001200FEA8160012F4
:1001C30000FEB216001200FEDF16001200FEFD163E
:1001D300001200FE0B17001200FE1417001200FE9F
:1001E3001D17001200FE2E17001200FE3F1700120B
:1001F30000FE5817001200FE4D1800E4CFC0E0E4E3
:10020300CEC0E0E4CDC0E0E4CCC0E075F020C3E6AE
:1002130033F608E633F608E633F608E633F618183D
:1002230018EC33FCED33FDEE33FEEF33FFC3EC97F5
:1002330009ED9709EE9709EF97191919400FFFEC8C
:1002430097FC09ED97FD09EE97FE191906D5F0BE47
:10025300ECF709EDF709EEF709EFF7191919D0E0F3
:10026300FCD0E0FDD0E0FED0E0FF221202D6181849
:10027300181201FE1202C5191919221202C5191901
:1002830019080808E618181820E7E01201FE120200
:10029300D618181822090909E719191920E7DC08E3
:1002A3000808E618181820E7030201FE1202D61800
:1002B30018181201FE1202D61818181202C51919BD
:1002C3001922E4C397F709E497F709E497F709E4D8
:1002D30097F722E4C396F608E496F608E496F60840
:1002E300E496F622E0FAA3E0FBA3E0FCA3E0FD2200
:1002F300EAF0A3EBF0A3ECF0A3EDF022CAC0E0E632
:10030300F0A308DAFAD0E0FA22C0D0251010AF0823
:10031300F510500205118008F51050020511D2AFF7
:10032300D0D0222510F58210AF08F5104002151128
:100333008008F51040021511D2AF851183222510D4
:10034300F582E43511F58322E4732510C582C0E0FC
:10035300E51134FFC583C0E0E510C3958224F8108E
:10036300AF088583118582108008858311858210EB
:10037300D2AFCEF0A3E520F0A37808E608F0A3DE21
:10038300FAEFF0A3E58124FAF8E608F0A3E608F013
:10039300A3E608F0A30808E608F0A3E608F0A3150F
:1003A300811581D0E0FED0E0F8158115811581E833
:1003B300C0E0EEC0E022851183851082E0A3FEE059
:1003C300A3F5207808E0A3F608DFFAE0A3FFE0A393
:1003D300C0E0E0A3C0E0E0A3C0E0E0A3C0E0E0A38E
:1003E300C0E010AF088582108583118008858210D4
:1003F300858311D2AFD083D0820200FBC0D02510F9
:10040300C582C0E0E51134FFC583C0E0E510C395A4
:100413008224F310AF0885831185821080088583B9
:1004230011858210D2AFC8F0A3E9F0A3EAF0A3EBE1
:10043300F0A37908E709F0A3D8FAECF0A3EDF0A351
:10044300EEF0A3EFF0A3D0E0F0A3D0E0F0A3D0E070
:10045300F0A3E520F0A3E5F0F0A322851183851036
:1004630082E0C0E0A3E0F9A3E0FAA3E0FBA37808ED
:10047300E0F608A3DFFAE0FCA3E0FDA3E0FEA3E0BF
:10048300FFA3E0C0E0A3E0C0E0A3E0F5D0A3E0F564
:1004930020A3E0A3F5F010AF0885831185821080B7
:1004A30008858311858210D2AFD082D083D0E0F843
:1004B300D0E03274028000C0E0F404120326D0E0DE
:1004C3001202FF22D083D082C5F0E493A3C5F0C308
:1004D30095F0F5F0E493A3C395F04005E5F00480AF
:1004E30001E475F002A42582F582E5F03583F583F6
:1004F300E493A3C0E0E493C0E02263800232C0E04F
:1005030074F21203FFA2AFE433FEC2AFE5E9A2E641
:10051300501A90040BE0F8A3E0F9E8496008E0F50D
:1005230083888212034B759B0053E9BFEEA2E092CE
:10053300AF7F0102045E74F612034DE9FE8E087468
:10054300012508F58274013400F583E0F9898012EE
:1005530001867F020203B9C082C083E91204C70087
:1005630063281015102E063E06560670068706AA47
:1005730006C006D206E106F3060C0728073E07501D
:100583000771078B07AA07BC07DA07F80716082CB9
:10059300084A086B088808A908C708E5080609215E
:1005A300093C095D0973099709B809DC09FA0918B7
:1005B3000A330A4E0A690A8A0A9F0ABD0ADE0AF743
:1005C3000A130B2C0B450B620B760B8B0B9D0BAF9E
:1005D3000BC10BD30BF40B130C320C4B0C640C80C0
:1005E3000C9E0CBC0CE00C030D230D3A0D510D6356
:1005F3000D7E0D8B0D9D0DB80DCA0DDC0DF70D098C
:100603000E1B0E360E4D0E640E7F0E960EAD0EBAF9
:100613000EC80EDA0EEC0EFE0E180F2F0F420F63EC
:100623000F810FA00FC30FDF0FFE0F9001011211F7
:100633004EF0A3E4F0A374FF0210279001017401AC
:10064300F0A30412115A121137742012113074805E
:100653000210279001017480121130742012113995
:10066300740812115A7402F0A31402102712109A7C
:100673007407F0A3740FF0A3741FF0A3743FF0A3E7
:10068300747F80B09001017480F0A374C0F0A374F0
:10069300E0F0A374F0F0A374F8F0A374FCF0A37477
:1006A300FEF0A30402102790010174111210CE74FE
:1006B30044F0A3E4121170F0A3E4021027900101A7
:1006C300741112110E74441210FA748802063790D2
:1006D300010174881210B6742212107880D9900127
:1006E3000174881210FA744412110E741102063741
:1006F3009001017481F0A37442121147741812110E
:10070300477442F0A3748180AE9001017481F0A319
:1007130074C3F0A374E71210FA74E7F0A374C3F080
:10072300A3748180929001017413121074742312C4
:1007330010747443121074748380CC12106F742A73
:10074300121074744A12107474A80206BA9001014C
:100753007471F0A37461F0A37451F0A37441F0A316
:10076300743112105D7411F0A3740102102790010B
:10077300017417F0A374271211297447F0A3745757
:1007830012111E7487021027900101747AF0A3746A
:100793006BF0A3745CF0A3744DF0A3743EF0A374E8
:1007A3002FF0A3741080C090010174C11211617401
:1007B300A412107474980206BA9001017467F0A32E
:1007C3007442F0A37468121117746912109374655C
:1007D300F0A37430021027900101743112109F743A
:1007E3003212108C7433F0A37409F0A37434F0A3A1
:1007F30074120210279001017435F0A374151210BE
:100803008574181211297421F0A37438F0A3742489
:100813000210279001017439121056744112115AB3
:10082300744212104F744380C59001017444121036
:100833007E7445F0A37420F0A374461211477447E5
:10084300F0A374280210279001017448F0A37432B6
:10085300F0A374491210857451F0A37405F0A374C6
:1008630052F0A374100210279001017453F0A37483
:10087300151210937420F0A37455F0A37425F0A3FC
:1008830074560207D39001017457F0A37435F0A393
:1008930074581211307459F0A37445F0A37461F0C5
:1008A300A374060210279001017462F0A37412F07E
:1008B300A3746312104174641211477471F0A3742A
:1008C300070210279001017472F0A37414F0A3744B
:1008D3007312105D74741210487475F0A3743502AA
:1008E30010279001017476F0A37442121122744907
:1008F300F0A37478F0A37456F0A37479F0A374632F
:10090300021027900101748112104F748212107E1D
:1009130074831211477484F0A37432021027900178
:1009230001748512113074861211177487F0A37441
:100933005612116A74640210279001017489F0A39E
:100943007472F0A37491F0A37409F0A3749212105B
:10095300417493F0A3742702102790010174941239
:100963001085749512111774961210937497808CD6
:100973009001017498F0A37472F0A37499F0A374B6
:1009830081F0A374A1F0A3740AF0A374A2F0A3747A
:100993002002102790010174A3F0A37430F0A37414
:1009A300A412113074A5F0A37450F0A374A6F0A39D
:1009B300746002102790010174A7F0A37470F0A370
:1009C30074A8F0A37480F0A374A9F0A37490F0A3A7
:1009D30074B1F0A3741102102790010174B21210C4
:1009E300C774B3F0A37433F0A374B41210AF74B527
:1009F300F0A3745502102790010174B6F0A3746636
:100A0300F0A374B712112274B812116A74B9F0A367
:100A1300749902102790010174211211407422125B
:100A2300115A742312108C7424F0A3740802102733
:100A330090010174251211397426F0A37412121057
:100A43005674141210487416021027900101742969
:100A5300121041742A12104F74C8F0A37476121046
:100A63009F74740210279001017461F0A37450F015
:100A7300A3742DF0A374D5F0A3744B12108C749847
:100A8300F0A3743402102712109A7405F0A37407AC
:100A9300F0A37409121064741502102790010174F5
:100AA30017F0A3741912105D7423F0A374251210A8
:100AB300567429F0A374310210279001017433F0A6
:100AC300A374351211297439F0A37441F0A374434C
:100AD300F0A37445F0A374470210279001017451E9
:100AE300F0A37453F0A374551210E67463F0A37467
:100AF300650210279001017467F0A3746912102F27
:100B0300F0A374751211227479F0A3748102102773
:100B13009001017483F0A374851210D77493F0A32A
:100B23007495F0A374970210279001017499121120
:100B33004004F0A37405F0A3740712106474170241
:100B430010279001017419F0A37423F0A37429F002
:100B5300A374311211297441F0A37443020AD7908C
:100B630001017451F0A374531210E6746712102F2D
:100B73000210279001017477F0A37479F0A37483B2
:100B83001210D774970206BA90010174A112116171
:100B930074C412107474D80206BA900101741A1244
:100BA3001074742B1210A6748D0206BA900101748E
:100BB300A11210FE74C41210FA74D8020637121070
:100BC300F5742B1210FA744C1210FA748D02063756
:100BD3009001017419F0A374281211297445F0A32C
:100BE3007455F0A37464F0A37473F0A374820210B9
:100BF3002790010174A1F0A374B0F0A374C2F0A311
:100C030074D0F0A374E4F0A374F0121170020864BA
:100C1300900101741AF0A3740BF0A3742CF0A37465
:100C23000DF0A3744EF0A3740F12117002076A90B3
:100C330001017411F0A37401F0A374221211407422
:100C430044F0A374160209349001017476121093D0
:100C530074321211397401F0A304F0A3740402086E
:100C6300A29001011211377412F0A3741412107EB2
:100C73007418F0A37420F0A37422021027900101CA
:100C83007424F0A374261210487430F0A37432F065
:100C9300A374341210857438021027900101744034
:100CA300F0A374421210AF74461211177450F0A3DC
:100CB3007452F0A374540210279001017456F0A3E8
:100CC3007458F0A37460F0A37462F0A37464F0A387
:100CD3007468F0A37470F0A374720210279001017A
:100CE3007474F0A37476F0A37478F0A37480F0A303
:100CF3007482F0A37484F0A3748612117002102717
:100D03009001017490F0A37492F0A37494F0A3740F
:100D130096F0A37498F0A374A0F0A374820206A4BF
:100D230090010174C812107474C412107474C21246
:100D3300107474C10206BA90010174C81210FA74D7
:100D4300C21210FA74C41210FA74C8020637900162
:100D530001741C121074742C1210A6748C0206BA3F
:100D63009001017411F0A3740C1210C774C0121017
:100D7300AF740C12116A74C002102712106F74A2A0
:100D830012107474A40207481210F5742A1210FA90
:100D9300744A1210FA748A0206379001017411F032
:100DA300A374A01210C7740A1210AF74A012116AB0
:100DB300740A02102790010174B112116174B41204
:100DC300107474B80206BA90010174B11210FE7463
:100DD300B41210FA74B80206379001017411F0A32B
:100DE30074B01210C7740B1210AF74B012116A747E
:100DF3000B02102790010174D112107474D21210D7
:100E03007474D4020B9590010174D11210FA74D248
:100E13001210FA74D4020BB99001017411F0A37487
:100E2300D01210C7740D1210AF74D012116A740D62
:100E330002102790010174E112107474E21210740D
:100E430074E412107474E80206BA90010174E1129A
:100E530010FA74E21210FA74E41210FA74E802063B
:100E6300379001017411F0A374E01210C7740E12CD
:100E730010AF74E012116A740E021027900101740E
:100E8300F112107474F212107474F412107474F872
:100E93000206BA900101741F121074742F12107499
:100EA300744F121074748F0206BA90010174FFF02C
:100EB300A312114E0206BA90010174111210781296
:100EC30010780206DC90010174221210CE742212F3
:100ED300107474220206BA90010174441210B6749D
:100EE3004412107474440206BA9001017488F0A38A
:100EF300E412116AE41211700206B4900101741035
:100F03001211477405F0A374121211407456F0A322
:100F13007401020843900101E4F0A3746412107495
:100F23007432F0A3E412107EE4020A2C900101E46F
:100F330012115AE4121140E4F0A374FF0206B790B1
:100F430001017493F0A37439F0A37484121117741C
:100F530075F0A37457F0A37465F0A37456021027B9
:100F63009001017494F0A37449F0A37485F0A37401
:100F730058121038F0A304F0A374860210279001CE
:100F8300017431F0A37413F0A37425F0A37452F029
:100F9300A374C8F0A3748C121038021027900101B7
:100FA30074D8F0A3748DF0A374B7F0A3747BF0A38B
:100FB300746AF0A374A6F0A3745FF0A374F580645D
:100FC30090010174E4F0A3744EF0A374A8F0A37429
:100FD3009C12111E7496F0A37453804890010174FF
:100FE30098F0A37489F0A314F0A37486F0A374405B
:100FF30012115A7469F0A3749680299001017470D8
:1010030012108C745012115A743012114074100261
:101013000A2C900101E4F0A3F0A3F0A3F0A3F0A342
:10102300F0A3F0A3F0D083D0820200FBF0A374718D
:10103300F0A3747322F0A37476F0A3746722F0A371
:101043007418F0A322F0A37428F0A322F0A3740869
:10105300F0A322F0A37427F0A322F0A37421F0A33A
:1010630022F0A37411F0A37413F0A322900101746E
:10107300A11210C1221210C1741122F0A37416F030
:10108300A322F0A37436F0A322F0A37406F0A322E4
:10109300F0A37454F0A3229001017401F0A374032C
:1010A300F0A3221210C1744C1210C122F0A3744495
:1010B300F0A3221210C174441210C12274FFF0A3D2
:1010C300E4F0A322F0A37422F0A3221210C174222D
:1010D3001210C122F0A37487F0A37489F0A3749152
:1010E300F0A322F0A37457F0A37459F0A37461F032
:1010F300A322900101741A1211072212110774B26C
:1011030012110722F0A374FFF0A322121107742215
:1011130012110722F0A37448F0A322F0A37467F01E
:10112300A37477F0A322F0A37437F0A322F0A3747F
:1011330040F0A3227408F0A37410F0A322F0A37468
:1011430002F0A322F0A37424F0A322E4F0A312106C
:10115300BF1210BF74FF22F0A37404F0A322121075
:10116300C174B21210C122121170F0A322F0A37441
:101173008822C082C0831201E012017A79017A8B3E
:101183007B031201C890038BE0C2E7F0640570345F
:10119300790512124A5004D2F08002C2F0A2F0E4A0
:1011A30033900415F0900390E0A2E740030212424B
:1011B30090038EE0F890030FE0686003021242A3ED
:1011C3007401807AE024F5900412F090038BE0F927
:1011D30012124A5004D2F08002C2F0A2F0E433901B
:1011E3000415F0900393E0F8A3E0F990040EE8F0FF
:1011F300A3E9F09004137495F0A37403F01212584A
:10120300749528F8740339F988828983E090041669
:10121300F088828983A3E0A2E7501C90040DE0F8D4
:1012230090038EE068601090038CE054DF6441709B
:10123300069004177401F090038EE090040DF012F1
:1012430001801201E680187A8C7B031201C8900397
:101253008CE0A2E522900412E0F83395E0F922D065
:1012630083D0820200FB74F712034DEAFEEBFF12F8
:1012730001A4E9640170047901804E120180900396
:1012830016EEF0A3EFF0900413E4F0A3F090031133
:1012930004F09004191202E79003121202F31212DF
:1012A300D1A3A3E0F91201B01213D0FAA3E0FB1209
:1012B30001B61212D1E0FAA3E0FB1201BC7A4A7B19
:1012C300011201EC12017A79007F010203B91212B3
:1012D300D522900316E0F8A3E0F5838882A3A32226
:1012E30074F412034DEAFEEBFF8C088D09890A9012
:1012F3000311E070031201D4E50AC3946750058516
:101303000A0B8003750B671201F21201E0740B25BF
:101313000B900318F01213DD9003196004746180BD
:10132300027441F0A37488F090030FE090031BF064
:101333009003171212DBE0F8A3E0F990031CE8F026
:10134300A3E9F0A3EEF0A3EFF01213D0F8A3E0F9B2
:10135300900320E8F0A3E9F07A0080218A82A88232
:10136300E50828F582E5093400F583E0C0E074223E
:1013730028F58274033400F583D0E0F00AEAC395BC
:101383000B40D9740A250BF97A187B031201C21298
:1013930001E61201CE1213DD6012900310E4F07A1D
:1013A3004A7B02120192900310E060047E008002E7
:1013B3007E01900311E070031201DAEEA2E0400611
:1013C30090030FE004F0EEF97F040203B9900316D3
:1013D300E0F8A3E0F5838882E0221212D5A3A3A349
:1013E300E02274F212034D8A088B09890AECFEEDA0
:1013F300FF120180121258850A0CC3E8950CE99478
:1014030000A2D265D033500AE0F50C3395E0F50D18
:101413008003750D00780C1204B6900413E0FCA34E
:10142300E0FDAA08AB091201F8740212030CEE4F97
:10143300601E1201AAE9F50890041612125BE8C3B4
:101443009508F8E99400F98E828F83E8F0A3E9F018
:10145300900417E4F012017A121258850A08C3E8BF
:101463009508E99400A2D265D0335004E0F98002D4
:10147300A90A7F060203B9C082C0839003117401D5
:10148300F01201D40212621201327C007D0079FF56
:101493007A097B0112015CE960F0900109E06405BF
:1014A300600DE0F9120138900109E0640570DB1268
:1014B300019E80D6C082C0839003097411F0A3F00B
:1014C300A304F0A37401F01201689003077422F0DF
:1014D300A3F07A077B0312015012016290030D748B
:1014E3002CF0A37401F075F30075FDFF758000D037
:1014F30083D0820200FB74F512034D90010AE0755C
:10150300F064A490030DF0A3E5F0F0E91460061471
:1015130060400215B07E01EE1215BEEEF9120144D1
:101523007508001215CC0508E508C3940840F47942
:10153300001201867580001215C87A01EEF91201B6
:101543003EE91215B59464EF9400C365D033505D42
:1015530080C57E0090010BE01215BE90010BE0F9EF
:101563001201447508007509001215CCE508240121
:10157300F508E5093400F509C3E5089408E509947D
:1015830000A2D265D03340E17A02EEF912013EE9BE
:10159300F50875800079001201861215C8E5081256
:1015A30015B59408EF9400C365D03340A77F0302B9
:1015B30003B92401FEE43400FFEE22F912012C905A
:1015C3000113E0FA221215D522A9081201261215D9
:1015D300D52290030DE0FAA3E0FB1201982274F7E1
:1015E30012034DE9FEEAFF7C007D0079FF7A097B57
:1015F3000112015CE96037900109E06F7015A3E007
:1016030075F064A4F8A9F090030DE0687003A3E0FB
:101613006960197A647B0012019874016F70047910
:1016230064800B74026F700479098002EEF97F0104
:101633000203B974F712034DE9FE9002087401F036
:10164300EEA3F079FF7C087D027A337B33120156D7
:1016530080DCC082C083906189E04460F090619037
:1016630074D5F09061FA7409F09061B27415F0903A
:1016730061AEE4F01201E679008004F0EBA3F0D050
:1016830083D0820200FB79490200FBC082C08375CC
:10169300F005E9A424D490618F80E3C082C083EA7B
:1016A30090617480D6C082C083EA90617280CC74EA
:1016B300F612034D75E1EE7591FD78008003121665
:1016C300CEE8C39940F87F020203B98808EA2508E7
:1016D300F582EB3400F583E0F5D90822C082C0839C
:1016E300800DE5D98A828B83F0A3AA82AB8319E9A3
:1016F30070F002168279000200FB75E1E9E591A220
:10170300E150FA7591FD80ED75E1EC75E1E30200BE
:10171300FB75E1EF75E1EC0200FBC082C0839061D1
:10172300A3E0C2E6F0539AFE021682C082C0839001
:1017330061A3E0D2E6F0439A01021682C082C0831D
:10174300E5A8F8C2AF90040BEAF0A3EBF0E8A2E738
:1017530092AF021682C082C083906193E0542270DC
:10176300F8021682C082C08312018C53F4FEC29029
:1017730043FE0153F4FDC29143FE0253F4FBC292B4
:1017830043FE0453F4F7C29343FE0853F4EFC294A9
:1017930043FE1053F4DFC29543FE2053F4BFC296B9
:1017A30043FE4053F47FC29743FE8053F5F753FF44
:1017B300F753F7F753F77F53F5EF53FFEF53F7EF74
:1017C30053F77F53F3FDD28143FD027AAA7B0A12BA
:1017D300016E12017AD083D0820200FBC082C083E3
:1017E3007900120174D083D0820200FBEBC313FB98
:1017F300EA13FAEAF8EBF9E824FFFAE934FFFBE825
:10180300496012000000000000000000000000001A
:1018130000000080DE0200FB74F712034DEAFEEBCA
:10182300FFEEF8EFF9E824FFFEE934FFFFE8496033
:10183300097AE87B0312019280E77F010203B9432F
:10184300C90353C9FB43C90880FE74F612034D74E0
:101853000A120341E0FEA3E0FFEAF8EBF980188CDB
:10186300828D83E088828983F0A3A882A9838C82F6
:101873008D83A3AC82AD838E088F09E50824FF1EF8
:10188300E50934FFFFE508450970D47F020203B977
:1018930074F012034D43E40C750C48750DE8750E96
:1018A30001750F008A088B09E4F50AF50B780C79AA
:1018B30008120298850D09E509F5DBE50CF5DA75E3
:1018C300E54453E4EF53E4FDC2B97F080203B9E5ED
:1018D300C65480F853BEFBE59DA2E550FAE59DA2F0
:1018E300E240F4007401697007744948F5C6800545
:1018F300E9700288C6E5C6F8E59E6870FB43BE043E
:101903000200FBD2AF0200FBC2AF0200FB899002D0
:0219130000FBD7
:04000005000000E314
:00000001FF
