:020000040000FA
:030000000200E318
:03001300020DBA21
:03003300020D2B90
:03003B00020E09A9
:03006B00020C651F
:03007B00020CBEB6
:10008300020D8200000080FB12013FB90003020051
:10009300CDE4900101784A79058002F0A3D8FCD918
:1000A300FA90054AAA82AB83900142786C79018069
:1000B30015E493A3AC82AD838A828B83F0A3AA82D7
:1000C300AB838C828D83D8E9D9E77582DE75832073
:1000D30074001200F575828675830074001200F5B2
:1000E30075D0007581BF751001751101759F0002F0
:1000F300008BC0F0F5F0E59F5407C0E0E59F54F88E
:1001030045F0D0F0F59FE473859FF053F0F8D0E00D
:1001130045F0F59F22D083D082E59F5407C0E0E4E9
:1001230093C0E0740193C0E07402935407C0F0F5E8
:10013300F0E59F54F845F0D0F0F59F22790122496C
:100143002E4F2E4C5F53797374656D00536C61763B
:1001530065412052656164792E2E2E0031003200F4
:10016300536C6176655F413A4D6F64650050726F01
:100173006772616D3A00536C6176655F413A4E6513
:10018300774D6F646500FF00000000000000000071
:10019300000000000000303132333435363738394F
:1001A3004142434445460A0000001201185B0E0019
:1001B3001201187A0E001201180B210012011859AE
:1001C3002100120118822200120118B32200120129
:1001D30018132300120118C91D00120118BD1E00B7
:1001E300120118371F00120118392000120118CE0E
:1001F3002000120118C026001201189A27001201CC
:1002030018EC2700120118F12700120118602500CD
:100213001201188C2500120118A62500120118AE30
:100223002500120118E625001201181A26001201F2
:1002330018951A00120118C51A00120118F51A00B0
:100243001201187B1B00120118B01B001201184D7C
:100253001C00120118921C00120118351D00120116
:1002630018F6270012011852260012011862260000
:100273001201188E2600120118B526001201184E1D
:10028300240012011882240012011887240012018D
:1002930018972400120118A12400120118AB24009E
:1002A300120118D82400120118F6240012011804B0
:1002B30025001201180D2500120118162500120140
:1002C300182725001201183825001201185125009E
:1002D3001201185A270012011832230012011814B0
:1002E3002700120118CE2700C3E09608A3E0960862
:1002F300A3E09608A3E096A2D265D03322E4CFC050
:10030300E0E4CEC0E0E4CDC0E0E4CCC0E075F02092
:10031300C3E633F608E633F608E633F608E633F6C3
:10032300181818EC33FCED33FDEE33FEEF33FFC347
:10033300EC9709ED9709EE9709EF97191919400FF3
:10034300FFEC97FC09ED97FD09EE97FE191906D509
:10035300F0BEECF709EDF709EEF709EFF7191919F4
:10036300D0E0FCD0E0FDD0E0FED0E0FF221203D8C5
:100373001818181203001203C7191919221203C7F8
:10038300191919080808E618181820E7E0120300DD
:100393001203D818181822090909E719191920E7AF
:1003A300DC080808E618181820E703020300120304
:1003B300D81818181203001203D81818181203C7F4
:1003C30019191922E4C397F709E497F709E497F792
:1003D30009E497F722E4C396F608E496F608E49650
:1003E300F608E496F622E0F608A3E0F608A3E0F6A2
:1003F30008A3E0F622E6F008A3E6F008A3E6F00877
:10040300A3E6F022E0FAA3E0FBA3E0FCA3E0FD22D5
:10041300EAF0A3EBF0A3ECF0A3EDF022CAC0E0E610
:10042300F0A308DAFAD0E0FA22600D08C6A2E713B7
:10043300C618C613C6D5E0F322600C08C6C313C69C
:1004430018C613C6D5E0F422700422600D18C6C383
:1004530033C608C633C6D5E0F41822251010AF08FA
:10046300F510400215118008F51040021511D2AFA6
:1004730022C0D0251010AF08F510500205118008D6
:10048300F51050020511D2AFD0D0222510F58210FD
:10049300AF08F510400215118008F5104002151140
:1004A300D2AF851183222510F582E43511F583221D
:1004B300E4732510C582C0E0E51134FFC583C0E0B5
:1004C300E510C3958224F810AF0885831185821047
:1004D3008008858311858210D2AFCEF0A3E520F08A
:1004E300A37808E608F0A3DEFAEFF0A3E58124FA87
:1004F300F8E608F0A3E608F0A3E608F0A30808E688
:1005030008F0A3E608F0A315811581D0E0FED0E042
:10051300F8158115811581E8C0E0EEC0E022851150
:1005230083851082E0A3FEE0A3F5207808E0A3F61C
:1005330008DFFAE0A3FFE0A3C0E0E0A3C0E0E0A38C
:10054300C0E0E0A3C0E0E0A3C0E010AF08858210E4
:100553008583118008858210858311D2AFD083D023
:100563008202010BC0D02510C582C0E0E51134FF23
:10057300C583C0E0E510C3958224F310AF088583DB
:10058300118582108008858311858210D2AFC8F04F
:10059300A3E9F0A3EAF0A3EBF0A37908E709F0A33A
:1005A300D8FAECF0A3EDF0A3EEF0A3EFF0A3D0E0C4
:1005B300F0A3D0E0F0A3D0E0F0A3E520F0A3E5F0B2
:1005C300F0A322851183851082E0C0E0A3E0F9A3A4
:1005D300E0FAA3E0FBA37808E0F608A3DFFAE0FC67
:1005E300A3E0FDA3E0FEA3E0FFA3E0C0E0A3E0C01F
:1005F300E0A3E0F5D0A3E0F520A3E0A3F5F010AF6E
:10060300088583118582108008858311858210D225
:10061300AFD082D083D0E0F8D0E03274028000C043
:10062300E0F40412048ED0E012041F22D083D0829F
:10063300C5F0E493A3C5F0C395F0F5F0E493A3C329
:1006430095F04005E5F0048001E475F002A42582ED
:10065300F582E5F03583F583E493A3C0E0E493C02A
:10066300E022000000000000000000000000000085
:100673000000000070F8F87000000000000D0D008D
:100683000000001C3C0000003C1C000000000000B7
:1006930000000020F8F820F8F82000020F0F020FE6
:1006A3000F020070F8888E8E983000060C083838D8
:1006B3000F07006060000080C06000080C060301A3
:1006C3000C0C0000B0F8C878B08000070F080907C9
:1006D3000F0800203C1C0000000000000000000088
:1006E30000000000E0F018080000000003070C08F9
:1006F30000000000000818F0E000000000080C07EC
:10070300030080A0E0C0C0E0A08000020301010359
:100713000200808080F0F0808080000000070700E6
:10072300000000000000000000000000101E0E008A
:100733000000808080808080800000000000000036
:10074300000000000000000000000000000C0C008E
:10075300000000000080C0603018000603010000A4
:10076300000000F0F888C868F8F000070F090808CF
:100773000F0700002030F8F80000000008080F0FF2
:1007830008080010180888C87830000C0E0B0908F8
:100793000C0C001018888888F87000040C080808EE
:1007A3000F070080C06030F8F80000010101090F55
:1007B3000F0900F8F8888888880800040C080808DE
:1007C3000F0700E0F0988888800000070F080808EA
:1007D3000F070018180888C878380000000F0F00AA
:1007E30000000070F8888888F87000070F08080870
:1007F3000F070070F8888888F8F000000808080CD4
:10080300070300000030300000000000000606006F
:10081300000000000030300000000000080E060059
:1008230000000080C0603018080000000103060CBF
:100833000800004040404040400000020202020223
:1008430002000008183060C0800000080C06030195
:1008530000000030380888C87830000000000D0D13
:10086300000000F0F808C8C8F8F000070F080B0BE9
:100873000B0100C0E0301830E0C0000F0F01010190
:100883000F0F0008F8F88888F87000080F0F0808A1
:100893000F0700E0F018080818300003070C0808D9
:1008A3000C060008F8F80818F0E000080F0F080C11
:1008B30007030008F8F888C8183800080F0F08095C
:1008C3000C0E0008F8F888C8183800080F0F080144
:1008D300000000E0F018080818300003070C0909AD
:1008E300070F00F8F8808080F8F8000F0F00000071
:1008F3000F0F000008F8F80800000000080F0F08A9
:1009030000000000000008F8F80800060E08080FB1
:1009130007000008F8F880E0781800080F0F0003BC
:100923000F0C0008F8F80800000000080F0F080873
:100933000C0E00F8F8306030F8F8000F0F000000DC
:100943000F0F00F8F870E0C0F8F8000F0F00000177
:100953000F0F00E0F0180818F0E00003070C080C74
:1009630007030008F8F88888F87000080F0F0800DC
:10097300000000F0F8080808F8F000030704071E59
:100983001F130008F8F88888F87000080F0F00019B
:100993000F0E003078C88888383000060E08080922
:1009A3000F06180808F8F80808180000080F0F08C1
:1009B300000000F8F8000000F8F800070F08080826
:1009C3000F0700F8F8000000F8F8000103060C0612
:1009D300030100F8F8000000F8F8000F0F06030603
:1009E3000F0F003878C080C07838000E0F01000167
:1009F3000F0E003878C080C078380000080F0F0F42
:100A0300080000381888C8683818000E0F0908084D
:100A13000C0E0000F8F80808000000000F0F08088B
:100A23000000003870E0C0800000000000000103F7
:100A3300070E00000808F8F80000000008080F0F70
:100A430000000010180C060C181000000000000035
:100A530000000000000000000000002020202020F3
:100A63002000000000060E08000000000000000047
:100A730000000000404040C0800000060F09090745
:100A83000F080008F8F840C0800000080F070808A6
:100A93000F070080C0404040C08000070F080808CF
:100AA3000C04000080C048F8F80000070F0808078E
:100AB3000F080080C0404040C08000070F090909AB
:100AC3000D050080F0F88898300000080F0F08002B
:100AD30000000080C0404080C04000133724243F02
:100AE3001F000008F8F88040C08000080F0F0000C6
:100AF3000F0F00000040D8D80000000000080F0FBF
:100B030008000000000040D8D80000183820203F1B
:100B13001F000008F8F80080C04000080F0F010311
:100B23000E0C00000008F8F80000000000080F0F8A
:100B330008000080C0808080C080000F0F000F007D
:100B43000F0F0040C0804040C08000000F0F000026
:100B53000F0F0080C0404040C08000070F08080806
:100B63000F070040C0804040C08000203F3F240466
:100B730007030080C0404080C04000030704243FB7
:100B83003F200040C080C040C08000080F0F080015
:100B930001010080C0404040C08000040D090B0AE1
:100BA3000E04004040F0F8404000000000070F082A
:100BB3000C0400C0C00000C0C00000070F080807F5
:100BC3000F0800C0C0000000C0C0000103060C06EF
:100BD300030100C0C0000000C0C000070F0C060CDA
:100BE3000F070040C0800080C04000080C070307C7
:100BF3000C0800C0C0000000C0C000032724243438
:100C03001F0F00C0C04040C0C04000080C0E0B09BD
:100C13000C0C008080F078080800000000070F0823
:100C2300080000000078780000000000000F0F00AB
:100C3300000000080878F08080000008080F070013
:100C43000000001018081810180800000000000029
:100C530000000000000E0A0E00000000000000006B
:100C63000000C0E074F1120567C2C5E58960477EE4
:100C730000750801750900EE780812044BAF08E50A
:100C8300895F602BEEC333F8E433F9740C28F582E3
:100C93007404120D146014EEC333F8E433F9740CC6
:100CA30028F5827404120D1F1204B3EFF452890E57
:100CB300EEC3940840BB7F020205C6C0E074F11284
:100CC3000567C2EBE58A60477E0075080175090078
:100CD300EE780812044BAF08E58A5F602BEEC3334E
:100CE300F8E433F9741C28F5827404120D146014AB
:100CF300EEC333F8E433F9741C28F5827404120D3F
:100D03001F1204B3EFF4528A0EEEC3940840BB8063
:100D1300A539F583E0F8A3E0F9E8492239F583E042
:100D2300F8A3E0F583888222C0E074F1120567C25C
:100D3300E8E58B60477E00750801750900EE7808C9
:100D430012044BAF08E58B5F602BEEC333F8E4333B
:100D5300F9742C28F5827404120D146014EEC33355
:100D6300F8E433F9742C28F5827404120D1F12046D
:100D7300B3EFF4528B0EEEC3940540BB020CB9C023
:100D8300E074F2120567A2AFE433FEC2AFE5E9A255
:100D9300E6501A900436E0F8A3E0F9E8496008E069
:100DA300F58388821204B3759B0053E9BFEEA2E07A
:100DB30092AF7F010205C6C0E0C0D0E8C0E0E9C041
:100DC300E0C082C083E5C1C0E09004B9E0F87438A4
:100DD30028F58274043400F583D0E0F09004B8E081
:100DE300F8A3E0687004E595A3F09004B9E004F07B
:100DF300C394804002E4F0D083D082D0E0F9D0E005
:100E0300F8D0D0D0E032C0E0C0D0E8C0E0C008C025
:100E130009C082C08390053BE0F8A3E068700853E3
:100E23009AFBA374018026C2E990053BE0F50874A0
:100E3300012508F074BB2508F58274043400F5839A
:100E4300E0F5C190053BE0C394804002E4F0D08319
:100E5300D082D009D00880A674F61204B5E9FE8EBC
:100E63000874012508F58274013400F583E0F91252
:100E730002617F02020521C082C083E912062F00AE
:100E830063481935194E0F5E0F760F900FA70FCADF
:100E93000FE00FF20F011013102C1048105E1070AA
:100EA300109110AB10CA10DC10FA10181136114C47
:100EB300116A118B11A811C911E7110512261241EC
:100EC300125C127D129312B712D812FC121A133845
:100ED3001353136E138913AA13BF13DD13FE1317D2
:100EE3001433144C14651482149614AB14BD14CF2C
:100EF30014E114F3141415331552156B158415A04E
:100F030015BE15DC150016231643165A16711683E3
:100F1300169E16AB16BD16D816EA16FC1617172919
:100F2300173B1756176D1784179F17B617CD17DA88
:100F330017E817FA170C181E1838184F1862188379
:100F430018A118C018E318FF181E19900101121AEE
:100F53006EF0A3E4F0A374FF02194790010174013A
:100F6300F0A304121A7A121A577420121A507480BA
:100F73000219479001017480121A507420121A59F1
:100F83007408121A7A7402F0A3140219471219BAD8
:100F93007407F0A3740FF0A3741FF0A3743FF0A3BE
:100FA300747F80B09001017480F0A374C0F0A374C7
:100FB300E0F0A374F0F0A374F8F0A374FCF0A3744E
:100FC300FEF0A30402194790010174111219EE7483
:100FD30044F0A3E4121A90F0A3E40219479001012C
:100FE3007411121A2E7444121A1A7488020F57902D
:100FF300010174881219D6742212199880D99001AC
:10100300017488121A1A7444121A2E7411020F579B
:101013009001017481F0A37442121A677418121AB2
:10102300677442F0A3748180AE9001017481F0A3D0
:1010330074C3F0A374E7121A1A74E7F0A374C3F02D
:10104300A374818092900101741312199474231272
:1010530019947443121994748380CC12198F742ACF
:10106300121994744A12199474A8020FDA900101A8
:101073007471F0A37461F0A37451F0A37441F0A3ED
:10108300743112197D7411F0A37401021947900190
:10109300017417F0A37427121A497447F0A3745705
:1010A300121A3E7487021947900101747AF0A374EF
:1010B3006BF0A3745CF0A3744DF0A3743EF0A374BF
:1010C3002FF0A3741080C090010174C1121A8174AF
:1010D300A41219947498020FDA9001017467F0A3B3
:1010E3007442F0A37468121A3774691219B37465E1
:1010F300F0A3743002194790010174311219BF74BF
:10110300321219AC7433F0A37409F0A37434F0A34E
:1011130074120219479001017435F0A37415121962
:10112300A57418121A497421F0A37438F0A3742417
:1011330002194790010174391219767441121A7A0F
:10114300744212196F744380C590010174441219DB
:101153009E7445F0A37420F0A37446121A67744773
:10116300F0A374280219479001017448F0A3743264
:10117300F0A374491219A57451F0A37405F0A37474
:1011830052F0A374100219479001017453F0A37431
:10119300151219B37420F0A37455F0A37425F0A3AA
:1011A30074560210F39001017457F0A37435F0A341
:1011B3007458121A507459F0A37445F0A37461F073
:1011C300A374060219479001017462F0A37412F02C
:1011D300A374631219617464121A677471F0A374AF
:1011E300070219479001017472F0A37414F0A374F9
:1011F3007312197D74741219687475F0A37435022F
:1012030019479001017476F0A37442121A4274498B
:10121300F0A37478F0A37456F0A37479F0A3746305
:10122300021947900101748112196F748212199E79
:101233007483121A677484F0A374320219479001FD
:10124300017485121A507486121A377487F0A374C6
:1012530056121A8A74640219479001017489F0A323
:101263007472F0A37491F0A37409F0A37492121929
:10127300617493F0A37427021947900101749412C7
:1012830019A57495121A3774961219B37497808C32
:101293009001017498F0A37472F0A37499F0A3748D
:1012A30081F0A374A1F0A3740AF0A374A2F0A37451
:1012B3002002194790010174A3F0A37430F0A374C2
:1012C300A4121A5074A5F0A37450F0A374A6F0A34B
:1012D300746002194790010174A7F0A37470F0A31E
:1012E30074A8F0A37480F0A374A9F0A37490F0A37E
:1012F30074B1F0A3741102194790010174B2121969
:10130300E774B3F0A37433F0A374B41219CF74B5B4
:10131300F0A3745502194790010174B6F0A37466E3
:10132300F0A374B7121A4274B8121A8A74B9F0A3EC
:1013330074990219479001017421121A60742212E0
:101343001A7A74231219AC7424F0A374080219478F
:101353009001017425121A597426F0A374121219FC
:1013630076741412196874160219479001017429CE
:10137300121961742A12196F74C8F0A374761219C2
:10138300BF74740219479001017461F0A37450F0A3
:10139300A3742DF0A374D5F0A3744B1219AC7498F5
:1013A300F0A374340219471219BA7405F0A3740731
:1013B300F0A374091219847415021947900101747A
:1013C30017F0A3741912197D7423F0A3742512194D
:1013D300767429F0A374310219479001017433F034
:1013E300A37435121A497439F0A37441F0A37443FA
:1013F300F0A37445F0A37447021947900101745197
:10140300F0A37453F0A37455121A067463F0A37413
:10141300650219479001017467F0A3746912194FAB
:10142300F0A37475121A427479F0A37481021947F8
:101433009001017483F0A374851219F77493F0A3D8
:101443007495F0A374970219479001017499121AC5
:101453006004F0A37405F0A37407121984741702CF
:1014630019479001017419F0A37423F0A37429F0B0
:10147300A37431121A497441F0A374430213F79011
:1014830001017451F0A37453121A06746712194FB1
:101493000219479001017477F0A37479F0A3748360
:1014A3001219F77497020FDA90010174A1121A81CD
:1014B30074C412199474D8020FDA900101741A12C9
:1014C3001994742B1219C6748D020FDA90010174EA
:1014D300A1121A1E74C4121A1A74D8020F57121AC0
:1014E30015742B121A1A744C121A1A748D020F5790
:1014F3009001017419F0A37428121A497445F0A3DA
:101503007455F0A37464F0A37473F0A37482021986
:101513004790010174A1F0A374B0F0A374C2F0A3C7
:1015230074D0F0A374E4F0A374F0121A900211843F
:10153300900101741AF0A3740BF0A3742CF0A3743C
:101543000DF0A3744EF0A3740F121A9002108A9038
:1015530001017411F0A37401F0A37422121A6074D0
:1015630044F0A3741602125490010174761219B355
:101573007432121A597401F0A304F0A37404021113
:10158300C2900101121A577412F0A3741412199E17
:101593007418F0A37420F0A3742202194790010178
:1015A3007424F0A374261219687430F0A37432F013
:1015B300A374341219A574380219479001017440B9
:1015C300F0A374421219CF7446121A377450F0A361
:1015D3007452F0A374540219479001017456F0A396
:1015E3007458F0A37460F0A37462F0A37464F0A35E
:1015F3007468F0A37470F0A3747202194790010128
:101603007474F0A37476F0A37478F0A37480F0A3D9
:101613007482F0A37484F0A37486121A900219479B
:101623009001017490F0A37492F0A37494F0A374E6
:1016330096F0A37498F0A374A0F0A37482020FC46D
:1016430090010174C812199474C412199474C212CB
:10165300199474C1020FDA90010174C8121A1A7432
:10166300C2121A1A74C4121A1A74C8020F579001BC
:1016730001741C121994742C1219C6748C020FDA9B
:101683009001017411F0A3740C1219E774C01219BC
:10169300CF740C121A8A74C002194712198F74A2DC
:1016A30012199474A4021068121A15742A121A1AC1
:1016B300744A121A1A748A020F579001017411F0B6
:1016C300A374A01219E7740A1219CF74A0121A8A0C
:1016D300740A02194790010174B1121A8174B41289
:1016E300199474B8020FDA90010174B1121A1E74BE
:1016F300B4121A1A74B8020F579001017411F0A3AF
:1017030074B01219E7740B1219CF74B0121A8A74D9
:101713000B02194790010174D112199474D2121952
:101723009474D40214B590010174D1121A1A74D2AC
:10173300121A1A74D40214D99001017411F0A3740B
:10174300D01219E7740D1219CF74D0121A8A740DBE
:1017530002194790010174E112199474E212199469
:1017630074E412199474E8020FDA90010174E1121F
:101773001A1A74E2121A1A74E4121A1A74E8020F8B
:10178300579001017411F0A374E01219E7740E125B
:1017930019CF74E0121A8A740E021947900101746A
:1017A300F112199474F212199474F412199474F8CE
:1017B300020FDA900101741F121994742F121994F5
:1017C300744F121994748F020FDA90010174FFF0B1
:1017D300A3121A6E020FDA900101741112199812F2
:1017E3001998020FFC90010174221219EE7422124F
:1017F30019947422020FDA90010174441219D674F9
:10180300441219947444020FDA9001017488F0A30E
:10181300E4121A8AE4121A90020FD4900101741090
:10182300121A677405F0A37412121A607456F0A3A7
:101833007401021163900101E4F0A374641219941A
:101843007432F0A3E412199EE402134C900101E4F4
:10185300121A7AE4121A60E4F0A374FF020FD7900D
:1018630001017493F0A37439F0A37484121A3774CA
:1018730075F0A37457F0A37465F0A3745602194767
:101883009001017494F0A37449F0A37485F0A374D8
:1018930058121958F0A304F0A37486021947900153
:1018A300017431F0A37413F0A37425F0A37452F000
:1018B300A374C8F0A3748C1219580219479001013C
:1018C30074D8F0A3748DF0A374B7F0A3747BF0A362
:1018D300746AF0A374A6F0A3745FF0A374F5806434
:1018E30090010174E4F0A3744EF0A374A8F0A37400
:1018F3009C121A3E7496F0A37453804890010174AD
:1019030098F0A37489F0A314F0A37486F0A3744031
:10191300121A7A7469F0A374968029900101747085
:101923001219AC7450121A7A7430121A60741002BD
:10193300134C900101E4F0A3F0A3F0A3F0A3F0A3F0
:10194300F0A3F0A3F0D083D08202010BF0A3747153
:10195300F0A3747322F0A37476F0A3746722F0A348
:101963007418F0A322F0A37428F0A322F0A3740840
:10197300F0A322F0A37427F0A322F0A37421F0A311
:1019830022F0A37411F0A37413F0A3229001017445
:10199300A11219E1221219E1741122F0A37416F0B5
:1019A300A322F0A37436F0A322F0A37406F0A322BB
:1019B300F0A37454F0A3229001017401F0A3740303
:1019C300F0A3221219E1744C1219E122F0A374441A
:1019D300F0A3221219E174441219E12274FFF0A357
:1019E300E4F0A322F0A37422F0A3221219E17422DB
:1019F3001219E122F0A37487F0A37489F0A3749100
:101A0300F0A322F0A37457F0A37459F0A37461F008
:101A1300A322900101741A121A2722121A2774B2F0
:101A2300121A2722F0A374FFF0A322121A2774229A
:101A3300121A2722F0A37448F0A322F0A37467F0CC
:101A4300A37477F0A322F0A37437F0A322F0A37456
:101A530040F0A3227408F0A37410F0A322F0A3743F
:101A630002F0A322F0A37424F0A322E4F0A312193A
:101A7300DF1219DF74FF22F0A37404F0A3221219FA
:101A8300E174B21219E122121A90F0A322F0A374A6
:101A9300882274F61204B5C290C2A07A0075088039
:101AA300750900EA780812042CE508596004D292FB
:101AB3008002C292C291D2910AEAC3940840DE0224
:101AC3001B6C74F61204B5D290C2A07A007508801C
:101AD300750900EA780812042CE508596004D292CB
:101AE3008002C292C291D2910AEAC3940840DE02F4
:101AF3001B6CC082C08379E21202317A057B00122B
:101B0300027379E21202317A057B00121B5F121B0A
:101B13005F12027379F8120231790112023179A34B
:101B2300120231792612023179811202317920129F
:101B3300023179C012023179A112023179A612025F
:101B43003179AF1202317A147B0012027379401299
:101B53000231120243D083D08202010B1202737945
:101B63002F1202317A027B0022D2A0D29290040B70
:101B7300E0F5907F0202052174F71204B57EB0EE02
:101B8300121B9D7F8079001202371FEF70F70EEE54
:101B9300C394B840EA7F01020521F9120231121BF6
:101BA300A522791012023179041202312274F01243
:101BB30004B58B0DE9C33324AEF508EA333333544C
:101BC300F82404F50CC4540F4410FE740F550CFF95
:101BD30074E0250DC394604003750D20850D0AE55F
:101BE3000A24E0F50AE434FFF50B7404780A1204BE
:101BF3004B850A0E850B0F121C42A9081202317580
:101C03000A0080117408650A700B74012508F91223
:101C13000231121C427465250EF5827406350FF5E8
:101C230083E493F9120237E50E2401F50EE50F3430
:101C330000F50F050AE50AC3941040C8021DC4EE5F
:101C4300F9120231EFF91202312274F21204B5E9EA
:101C5300FE8A088C0C8D0DAA0CAB0D1202E5EAF579
:101C6300097F0080158F0AE50C250AF582E50D1220
:101C73001C8DE0FBE508121D940FEFC3950940E5A9
:101C83007F060205217F070205213400F5832274B4
:101C9300F21204B5890AEAFE8B0B8C088D09EB70EE
:101CA300337F00AA08AB09E4121D1D8011FB121D2E
:101CB30013850C82850D83A385820C85830D850C8A
:101CC30082850D83E070E6EFC3940550407B2012BC
:101CD3001D1380F37401650B70338C0C8D0D740C24
:101CE300780C12043C74A1250CF5827405121C8D2A
:101CF300E0FB120249E509121DBE121D27121DA8A1
:101D03007402121D27121DA97403121D2D021C83B8
:101D1300EE2FFAA90A1202490F22FCFD1202D98AF8
:101D23000C8B0D22121D2DE508222EFAA90A120290
:101D3300492274F11204B5E9FEEAFF8B0E8C09EB1C
:101D43007034750800ECFAE4FB121D1D8011FB12C0
:101D53001D9C850C82850D83A385820C85830D854F
:101D63000C82850D83E070E6E508C39403501F7B66
:101D730020121D9C80F27401650E7012EC121DA8D6
:101D830012024985090AE50A121DBE121D94021C9E
:101D9300882FFAEEF912024922EF2508FAEEF9121A
:101DA3000249050822C4121DAD22540FF874A1285C
:101DB300F58274053400F583E0FB22121DAD740136
:101DC300227F08020521C082C0831202BB120201D6
:101DD30079017A8B7B031202A390038BE0C2E7F0B5
:101DE300640570347905121E9E5004D2F08002C23D
:101DF300F0A2F0E433900599F0900390E0A2E7405D
:101E030003021E9690038EE0F890030FE0686003D0
:101E1300021E96A37401807AE024F5900596F09053
:101E2300038BE0F9121E9E5004D2F08002C2F0A28E
:101E3300F0E433900599F0900393E0F8A3E0F99070
:101E43000592E8F0A3E9F09005977495F0A3740365
:101E5300F0121EAC749528F8740339F988828983CB
:101E6300E090059AF088828983A3E0A2E7501C9052
:101E73000591E0F890038EE068601090038CE054C5
:101E8300DF6441700690059B7401F090038EE0902F
:101E93000591F01202071202C180187A8C7B03129B
:101EA30002A390038CE0A2E522900596E0F8339517
:101EB300E0F922D083D08202010B74F71204B5EA51
:101EC300FEEBFF12027FE9640170047901804E1278
:101ED3000207900316EEF0A3EFF0900597E4F0A34A
:101EE300F090031104F090059D1204079003121261
:101EF3000413121F25A3A3E0F912028B122024FA64
:101F0300A3E0FB120291121F25E0FAA3E0FB1202E9
:101F1300977AD77B011202C712020179007F01026F
:101F23000521121F2922900316E0F8A3E0F5838808
:101F330082A3A32274F41204B5EAFEEBFF8C088D8E
:101F430009890A900311E070031202AFE50AC394F2
:101F5300675005850A0B8003750B671202CD1202C9
:101F6300BB740B250B900318F012203190031960FA
:101F730004746180027441F0A37488F090030FE04D
:101F830090031BF0900317121F2FE0F8A3E0F990C2
:101F9300031CE8F0A3E9F0A3EEF0A3EFF012202472
:101FA300F8A3E0F9900320E8F0A3E9F07A00802198
:101FB3008A82A882E50828F582E5093400F583E0E2
:101FC300C0E0742228F58274033400F583D0E0F076
:101FD3000AEAC3950B40D9740A250BF97A187B03D7
:101FE30012029D1202C11202A91220316012900343
:101FF30010E4F07A4A7B0212026D900310E0600451
:102003007E0080027E01900311E070031202B5EEA0
:10201300A2E0400690030FE004F0EEF97F0402050E
:1020230021900316E0F8A3E0F5838882E022121FD3
:1020330029A3A3A3E02274F21204B58A088B0989A9
:102043000AECFEEDFF120207121EAC850A0CC3E870
:10205300950CE99400A2D265D033500AE0F50C3315
:1020630095E0F50D8003750D00780C12061E9005A2
:1020730097E0FCA3E0FDAA08AB091202DF74021289
:102083000474EE4F601E120285E9F50890059A125A
:102093001EAFE8C39508F8E99400F98E828F83E8B0
:1020A300F0A3E9F090059BE4F0120201121EAC8547
:1020B3000A08C3E89508E99400A2D265D033500416
:1020C300E0F98002A90A7F06020521C082C083903D
:1020D30003117401F01202AF021EB61201B97C00A3
:1020E3007D0079FF7A097B011201E9E960F0900133
:1020F30009E06405600DE0F91201BF900109E06495
:102103000570DB12027980D6C082C0839003097404
:1021130011F0A3F0A304F0A37401F01201F59003EE
:10212300077422F0A3F07A077B031201DD1201EF9B
:1021330090030D742CF0A37401F07C4A7D057A00A2
:10214300F912024F7C577D057A00790212024FD0B3
:1021530083D08202010B74F51204B590010AE07575
:10216300F064A490030DF0A3E5F0F0E91460061405
:1021730060590222511201C57C677D057A0C7901F1
:1021830012024F7E01EE12225FEEF91201D1EEFC34
:102193007B007A08790212025B75080012226D0532
:1021A30008E508C3940840F4790012026112226919
:1021B3007A01EEF91201CBE91222569464EF9400EE
:1021C300C365D033400302225180BA1201C57C6932
:1021D3007D057A0C790112024F7E007F00740B2E6D
:1021E300F50874013FF509850882F583E012225F43
:1021F300850882850983E0F91201D1850882850962
:1022030083E0FC7B007A08790212025B7508007593
:10221300090012226DE5082401F508E5093400F5EB
:1022230009C3E5089408E5099400A2D265D03340B8
:10223300E17A02EEF91201CBE9F508122269E50809
:10224300122256940AEF9400C365D033408F7F0364
:102253000205212401FEE43400FFEE22F91201B34A
:10226300900113E0FA2212227622A9081201AD127C
:1022730022762290030DE0FAA3E0FB12027322C040
:1022830082C0831202437C6B7D057A0079011202BE
:102293004F7C787D057A00790212024F90030DE09E
:1022A300FCA3E0FD7B007A0C790212025502215255
:1022B30074F71204B5E9FEEAFF7C007D0079FF7A2A
:1022C300097B011201E9E96042900109E06F701591
:1022D300A3E075F064A4F8A9F090030DE06870031F
:1022E300A3E06960247C817D057A00790112024FA5
:1022F3007A647B0012027374016F70047964800B3B
:1023030074026F700479088002EEF97F01020521DF
:1023130074F71204B5E9FE9002087401F0EEA3F01D
:1023230079FF7C087D027A337B331201E380DC740E
:10233300F01204B574FB12045E74011204A9EAF0EE
:10234300A3EBF0A3ECF0A3EDF07A3E7B057401124E
:1023530004A9C082C08390059D78081203E9D08345
:10236300D08278081202EB851082851183501C7489
:1023730001F01204A978081203E978081203D8744B
:10238300011204A978081203F88002E4F074011220
:1023930004A9780C1203E99005B178081203E978CF
:1023A3000C790812039AE50824308A828B83F0A300
:1023B300AA82AB8374011204A9780C1203E9900575
:1023C300B178081203E9780C790812039A740112A0
:1023D30004A9780C1203F874011204A978081203F3
:1023E300E9E5084509450A450B70A2851082851168
:1023F30083E0A2E0500B8A828B83742DF0A30AAB97
:10240300838A828B83E4122444783E7905801D8A73
:10241300828B83E0FC88828983E08A828B83122407
:1024230044EC88828983F0A3A882A983C3E89AE94C
:102433009B40DC7A3E7B0574051204747F08020519
:1024430021F0EA24FF1AEB34FFFB22C082C0839001
:102453006189E04460F090619074D5F09061FA7402
:1024630009F09061B27415F09061AEE4F01202C10C
:1024730079008004F0EBA3F0D083D08202010B79C2
:102483004902010BC082C08375F005E9A424D490EE
:10249300618F80E3C082C083EA90617480D6C0827A
:1024A300C083EA90617280CC74F61204B575E1EED4
:1024B3007591FD780080031224C7E8C39940F87F23
:1024C300020205218808EA2508F582EB3400F5832A
:1024D300E0F5D90822C082C083800DE5D98A828BBA
:1024E30083F0A3AA82AB8319E970F002247B7900FD
:1024F30002010B75E1E9E591A2E150FA7591FD80C6
:10250300ED75E1EC75E1E302010B75E1EF75E1ECCB
:1025130002010BC082C0839061A3E0C2E6F0539A2C
:10252300FE02247BC082C0839061A3E0D2E6F04325
:102533009A0102247BC082C083E5A8F8C2AF90044D
:1025430036EAF0A3EBF0E8A2E792AF02247BC08265
:10255300C083906193E0542270F802247BC082C050
:1025630083D2A4D2A37A027B0012026DC2A380029B
:10257300D2A47A027B0012026DC2A47A027B0012FB
:10258300026DD083D08202010BC082C083C2A37AC2
:10259300027B0012026DD2A47A027B0012026DD27A
:1025A300A380D8C082C083C2A380C574F71204B5C8
:1025B300E9FF7E08EFA2E75004D2A38002C2A3D2B0
:1025C300A4C333FF1225D51EEE70E980007F0102FC
:1025D30005217A027B0012026DC2A47A027B0012EB
:1025E300026D2274F71204B5E9FFEAFE1225FCEE30
:1025F300F912260F12021380D412020D79E012266B
:10260300137900122613EFF912261322122613222E
:1026130012021F12021922C082C0837A6279001249
:1026230002257AF779021202257A07790312022525
:102633007A0079041202257A0079051202257A308C
:10264300790E1202257A6A7900120225022585C0C5
:1026530082C08379001201FBD083D08202010BEB8D
:10266300C313FBEA13FAEAF8EBF9E824FFFAE934B7
:10267300FFFBE849601200000000000000000000BA
:1026830000000000000080DE02010B74F71204B5A5
:10269300EAFEEBFFEEF8EFF9E824FFFEE934FFFF73
:1026A300E84960097AE87B0312026D80E77F010243
:1026B300052143C90353C9FB43C90880FEC082C037
:1026C3008312026753F5EFD2A443FF1053F5F7D2F9
:1026D300A343FF0853F5F753FFF743F70853F5FEFA
:1026E300C2A043FF0153F3BFC28643FD4075F4000C
:1026F3007590FF75FEFF90040BE4F07590001202D5
:102703003D12022B1202D3120201D083D0820201A6
:102713000B74F61204B5740A1204A9E0FEA3E0FFD9
:10272300EAF8EBF980188C828D83E088828983F044
:10273300A3A882A9838C828D83A3AC82AD838E08E8
:102743008F09E50824FF1EE50934FFFFE508450965
:1027530070D47F02020521C082C08353F1FE43F38C
:102763000C53F2F375868075C48075C2D875C50B9A
:1027730075C402438640D2AA75C1009004B8E4F040
:10278300A3F090053BF0A3F09004BAF090053DF060
:10279300D083D08202010BE5C65480F853BEFBE51B
:1027A3009DA2E550FAE59DA2E240F4007401697030
:1027B30007744948F5C68005E9700288C6E5C6F87E
:1027C300E59E6870FB43BE0402010BC082C0838A8E
:1027D300828B838001A3E070FCE582C39AFAE583D0
:1027E3009BFBD083D08202010BD2AF02010BC2AF9D
:0827F30002010B899002010BA9
:04000005000000E314
:00000001FF
