:020000040000FA
:030000000200E318
:03001300020DC615
:03003300020D3784
:03003B00020E159D
:03006B00020C7113
:03007B00020CCAAA
:10008300020D8E00000080FB12013FB90003020045
:10009300CDE4900101784A79058002F0A3D8FCD918
:1000A300FA90054AAA82AB83900142786C79018069
:1000B30015E493A3AC82AD838A828B83F0A3AA82D7
:1000C300AB838C828D83D8E9D9E77582F67583205B
:1000D30074001200F575828675830074001200F5B2
:1000E30075D0007581BF751001751101759F0002F0
:1000F300008BC0F0F5F0E59F5407C0E0E59F54F88E
:1001030045F0D0F0F59FE473859FF053F0F8D0E00D
:1001130045F0F59F22D083D082E59F5407C0E0E4E9
:1001230093C0E0740193C0E07402935407C0F0F5E8
:10013300F0E59F54F845F0D0F0F59F22790122496C
:100143002E4F2E4C5F53797374656D00536C61763B
:10015300655F412052656164792E2E0031003200C3
:10016300536C6176655F413A4D6F64650050726F01
:100173006772616D3A00536C6176655F413A4E6513
:10018300774D6F646500FF00000000000000000071
:10019300000000000000303132333435363738394F
:1001A3004142434445460A000000120118670E000D
:1001B300120118860E001201182E21001201188157
:1001C30021001201189F2200120118D022001201EF
:1001D30018302300120118D51D00120118CA1E0081
:1001E300120118441F001201184620001201185171
:1001F3002000120118E62000120118A327001201A3
:10020300187D2800120118CF2800120118D42800E5
:100213001201187D2500120118A92500120118C327
:100223002500120118CB2500120118032600120124
:1002330018372600120118A11A00120118D11A004A
:10024300120118011B00120118871B00120118BCB0
:100253001B00120118591C001201189E1C001201E8
:1002630018411D001201186F2600120118DA26002A
:100273001201183B270012011840270012011850E1
:1002830027001201187C27001201186B24001201A9
:10029300189F2400120118A42400120118B424008A
:1002A300120118BE2400120118C82400120118F507
:1002B3002400120118132500120118212500120130
:1002C300182A2500120118332500120118442500AD
:1002D3001201185525001201186E25001201183D50
:1002E30028001201184F2300120118F727001201EA
:1002F30018B12800C3E09608A3E09608A3E0960887
:10030300A3E096A2D265D03322E4CFC0E0E4CEC00E
:10031300E0E4CDC0E0E4CCC0E075F020C3E633F602
:1003230008E633F608E633F608E633F6181818EC51
:1003330033FCED33FDEE33FEEF33FFC3EC9709EDF2
:100343009709EE9709EF97191919400FFFEC97FCDE
:1003530009ED97FD09EE97FE191906D5F0BEECF7E6
:1003630009EDF709EEF709EFF7191919D0E0FCD0F9
:10037300E0FDD0E0FED0E0FF221203E418181812CB
:10038300030C1203D3191919221203D319191908CB
:100393000808E618181820E7E012030C1203E41803
:1003A300181822090909E719191920E7DC080808B0
:1003B300E618181820E70302030C1203E4181818B0
:1003C30012030C1203E41818181203D31919192273
:1003D300E4C397F709E497F709E497F709E497F774
:1003E30022E4C396F608E496F608E496F608E49643
:1003F300F622E0F608A3E0F608A3E0F608A3E0F689
:1004030022E6F008A3E6F008A3E6F008A3E6F0224C
:10041300E0FAA3E0FBA3E0FCA3E0FD22EAF0A3EBF8
:10042300F0A3ECF0A3EDF022CAC0E0E6F0A308DAF3
:10043300FAD0E0FA22600D08C6A2E713C618C61365
:10044300C6D5E0F322600C08C6C313C618C613C68C
:10045300D5E0F422700422600D18C6C333C608C663
:1004630033C6D5E0F41822251010AF08F51040026A
:1004730015118008F51040021511D2AF22C0D02506
:100483001010AF08F510500205118008F510500246
:100493000511D2AFD0D0222510F58210AF08F51088
:1004A300400215118008F51040021511D2AF8511D5
:1004B30083222510F582E43511F58322E473251098
:1004C300C582C0E0E51134FFC583C0E0E510C395E4
:1004D3008224F810AF0885831185821080088583F4
:1004E30011858210D2AFCEF0A3E520F0A37808E601
:1004F30008F0A3DEFAEFF0A3E58124FAF8E608F0AA
:10050300A3E608F0A3E608F0A30808E608F0A3E6CC
:1005130008F0A315811581D0E0FED0E0F815811510
:10052300811581E8C0E0EEC0E02285118385108249
:10053300E0A3FEE0A3F5207808E0A3F608DFFAE0E5
:10054300A3FFE0A3C0E0E0A3C0E0E0A3C0E0E0A31A
:10055300C0E0E0A3C0E010AF08858210858311805E
:1005630008858210858311D2AFD083D08202010B1C
:10057300C0D02510C582C0E0E51134FFC583C0E0BB
:10058300E510C3958224F310AF088583118582108B
:100593008008858311858210D2AFC8F0A3E9F0A348
:1005A300EAF0A3EBF0A37908E709F0A3D8FAECF09B
:1005B300A3EDF0A3EEF0A3EFF0A3D0E0F0A3D0E01F
:1005C300F0A3D0E0F0A3E520F0A3E5F0F0A32285AB
:1005D3001183851082E0C0E0A3E0F9A3E0FAA3E071
:1005E300FBA37808E0F608A3DFFAE0FCA3E0FDA391
:1005F300E0FEA3E0FFA3E0C0E0A3E0C0E0A3E0F5DA
:10060300D0A3E0F520A3E0A3F5F010AF0885831194
:100613008582108008858311858210D2AFD082D065
:1006230083D0E0F8D0E03274028000C0E0F404121A
:10063300049AD0E012042B22D083D082C5F0E49335
:10064300A3C5F0C395F0F5F0E493A3C395F040057B
:10065300E5F0048001E475F002A42582F582E5F05B
:100663003583F583E493A3C0E0E493C0E022000064
:100673000000000000000000000000000000000077
:1006830070F8F87000000000000D0D000000001C61
:100693003C0000003C1C00000000000000000020A3
:1006A300F8F820F8F82000020F0F020F0F02007075
:1006B300F8888E8E983000060C0838380F070060D3
:1006C30060000080C06000080C0603010C0C0000F1
:1006D300B0F8C878B08000070F0809070F0800209A
:1006E3003C1C0000000000000000000000000000AF
:1006F300E0F018080000000003070C0800000000E9
:10070300000818F0E000000000080C07030080A0B8
:10071300E0C0C0E0A080000203010103020080806A
:1007230080F0F080808000000007070000000000D8
:100733000000000000000000101E0E00000080807A
:100743008080808080000000000000000000000026
:100753000000000000000000000C0C00000000007E
:100763000080C0603018000603010000000000F0A4
:10077300F888C868F8F000070F0908080F07000099
:100783002030F8F80000000008080F0F08080010D8
:10079300180888C87830000C0E0B09080C0C0010E0
:1007A30018888888F87000040C0808080F07008070
:1007B300C06030F8F80000010101090F0F0900F8CB
:1007C300F8888888880800040C0808080F0700E0E8
:1007D300F0988888800000070F0808080F070018A2
:1007E300180888C878380000000F0F000000007058
:1007F300F8888888F87000070F0808080F0700704A
:10080300F8888888F8F000000808080C070300003F
:100813000030300000000000000606000000000069
:100823000030300000000000080E060000000080C9
:10083300C0603018080000000103060C08000040E7
:100843004040404040000002020202020200000851
:10085300183060C0800000080C060301000000305F
:10086300380888C87830000000000D0D000000F043
:10087300F808C8C8F8F000070F080B0B0B0100C0FD
:10088300E0301830E0C0000F0F0101010F0F000826
:10089300F8F88888F87000080F0F08080F0700E0C1
:1008A300F018080818300003070C08080C060008A5
:1008B300F8F80818F0E000080F0F080C0703000809
:1008C300F8F888C8183800080F0F08090C0E00083C
:1008D300F8F888C8183800080F0F0801000000E076
:1008E300F018080818300003070C0909070F00F86F
:1008F300F8808080F8F8000F0F0000000F0F000051
:1009030008F8F80800000000080F0F0800000000B6
:10091300000008F8F80800060E08080F0700000892
:10092300F8F880E0781800080F0F00030F0C000898
:10093300F8F80800000000080F0F08080C0E00F874
:10094300F8306030F8F8000F0F0000000F0F00F8C8
:10095300F870E0C0F8F8000F0F0000010F0F00E07F
:10096300F0180818F0E00003070C080C0703000850
:10097300F8F88888F87000080F0F0800000000F0EE
:10098300F8080808F8F000030704071E1F130008FF
:10099300F8F88888F87000080F0F00010F0E003078
:1009A30078C88888383000060E0808090F0618082A
:1009B30008F8F80808180000080F0F08000000F8EE
:1009C300F8000000F8F800070F0808080F0700F800
:1009D300F8000000F8F8000103060C06030100F814
:1009E300F8000000F8F8000F0F0603060F0F003899
:1009F30078C080C07838000E0F0100010F0E003858
:100A030078C080C078380000080F0F0F0800003846
:100A13001888C8683818000E0F0908080C0E000063
:100A2300F8F80808000000000F0F0808000000385D
:100A330070E0C0800000000000000103070E00000A
:100A43000808F8F80000000008080F0F0000001065
:100A5300180C060C18100000000000000000000035
:100A630000000000000000202020202020000000C3
:100A730000060E0800000000000000000000000057
:100A8300404040C0800000060F0909070F08000816
:100A9300F8F840C0800000080F0708080F0700801F
:100AA300C0404040C08000070F0808080C04000045
:100AB30080C048F8F80000070F0808070F080080F7
:100AC300C0404040C08000070F0909090D050080A0
:100AD300F0F88898300000080F0F0800000000802D
:100AE300C0404080C04000133724243F1F0000084B
:100AF300F8F88040C08000080F0F00000F0F0000BF
:100B03000040D8D80000000000080F0F08000000C4
:100B1300000040D8D80000183820203F1F000008EC
:100B2300F8F80080C04000080F0F01030E0C00000E
:100B33000008F8F80000000000080F0F080000800C
:100B4300C0808080C080000F0F000F000F0F004097
:100B5300C0804040C08000000F0F00000F0F0080D6
:100B6300C0404040C08000070F0808080F0700403E
:100B7300C0804040C08000203F3F24040703008022
:100B8300C0404080C04000030704243F3F20004092
:100B9300C080C040C08000080F0F08000101008022
:100BA300C0404040C08000040D090B0A0E04004001
:100BB30040F0F8404000000000070F080C0400C09C
:100BC300C00000C0C00000070F0808070F0800C0DE
:100BD300C0000000C0C0000103060C06030100C0F2
:100BE300C0000000C0C000070F0C060C0F07004038
:100BF300C0800080C04000080C0703070C0800C039
:100C0300C0000000C0C00003272424341F0F00C00D
:100C1300C04040C0C04000080C0E0B090C0C008003
:100C230080F078080800000000070F0808000000A3
:100C33000078780000000000000F0F00000000089B
:100C43000878F08080000008080F070000000010FB
:100C53001808181018080000000000000000000029
:100C6300000E0A0E00000000000000000000C0E0BB
:100C730074F1120573C2C5E58960477E00750801EA
:100C8300750900EE7808120457AF08E5895F602BF9
:100C9300EEC333F8E433F9740C28F5827404120DAF
:100CA300206014EEC333F8E433F9740C28F582742E
:100CB30004120D2B1204BFEFF452890EEEC39408F5
:100CC30040BB7F020205D2C0E074F1120573C2EB90
:100CD300E58A60477E00750801750900EE78081201
:100CE3000457AF08E58A5F602BEEC333F8E433F9AA
:100CF300741C28F5827404120D206014EEC333F8BB
:100D0300E433F9741C28F5827404120D2B1204BF0A
:100D1300EFF4528A0EEEC3940840BB80A539F583E5
:100D2300E0F8A3E0F9E8492239F583E0F8A3E0F518
:100D330083888222C0E074F1120573C2E8E58B60F8
:100D4300477E00750801750900EE7808120457AF55
:100D530008E58B5F602BEEC333F8E433F9742C287A
:100D6300F5827404120D206014EEC333F8E433F9F2
:100D7300742C28F5827404120D2B1204BFEFF45265
:100D83008B0EEEC3940540BB020CC5C0E074F21297
:100D93000573A2AFE433FEC2AFE5E9A2E6501A90B1
:100DA3000436E0F8A3E0F9E8496008E0F5838882B7
:100DB3001204BF759B0053E9BFEEA2E092AF7F011F
:100DC3000205D2C0E0C0D0E8C0E0E9C0E0C082C004
:100DD30083E5C1C0E09004B9E0F8743828F5827463
:100DE300043400F583D0E0F09004B8E0F8A3E068A1
:100DF3007004E595A3F09004B9E004F0C394804037
:100E030002E4F0D083D082D0E0F9D0E0F8D0D0D0A3
:100E1300E032C0E0C0D0E8C0E0C008C009C082C072
:100E23008390053BE0F8A3E0687008539AFBA37432
:100E3300018026C2E990053BE0F50874012508F01E
:100E430074BB2508F58274043400F583E0F5C19082
:100E5300053BE0C394804002E4F0D083D082D00904
:100E6300D00880A674F61204C1E9FE8E0874012529
:100E730008F58274013400F583E0F91202737F02EE
:100E830002052DC082C083E912063B006354194159
:100E9300195A0F6A0F820F9C0FB30FD60FEC0FFE78
:100EA3000F0D101F10381054106A107C109D10B7CE
:100EB30010D610E81006112411421158117611971B
:100EC30011B411D511F311111232124D1268128996
:100ED300129F12C312E4120813261344135F137AEA
:100EE300139513B613CB13E9130A1423143F1458A1
:100EF3001471148E14A214B714C914DB14ED14FF67
:100F03001420153F155E1577159015AC15CA15E815
:100F1300150C162F164F1666167D168F16AA16B7C2
:100F230016C916E416F6160817231735174717625E
:100F33001779179017AB17C217D917E617F41706C7
:100F43001818182A1844185B186E188F18AD18CC87
:100F530018EF180B192A19900101121A7AF0A3E459
:100F6300F0A374FF0219539001017401F0A304125A
:100F73001A86121A637420121A5C74800219539031
:100F830001017480121A5C7420121A657408121A13
:100F9300867402F0A3140219531219C67407F0A33E
:100FA300740FF0A3741FF0A3743FF0A3747F80B099
:100FB3009001017480F0A374C0F0A374E0F0A374F3
:100FC300F0F0A374F8F0A374FCF0A374FEF0A30490
:100FD30002195390010174111219FA7444F0A3E435
:100FE300121A9CF0A3E40219539001017411121A0E
:100FF3003A7444121A267488020F639001017488AC
:101003001219E274221219A480D990010174881272
:101013001A267444121A3A7411020F639001017470
:1010230081F0A37442121A737418121A737442F083
:10103300A3748180AE9001017481F0A374C3F0A303
:1010430074E7121A2674E7F0A374C3F0A3748180C3
:101053009290010174131219A074231219A07443FE
:101063001219A0748380CC12199B742A1219A074CC
:101073004A1219A074A8020FE69001017471F0A33B
:101083007461F0A37451F0A37441F0A37431121985
:10109300897411F0A374010219539001017417F0BC
:1010A300A37427121A557447F0A37457121A4A747B
:1010B30087021953900101747AF0A3746BF0A3743F
:1010C3005CF0A3744DF0A3743EF0A3742FF0A374EB
:1010D3001080C090010174C1121A8D74A41219A05A
:1010E3007498020FE69001017467F0A37442F0A3B1
:1010F3007468121A4374691219BF7465F0A37430CB
:1011030002195390010174311219CB74321219B8B8
:101113007433F0A37409F0A37434F0A374120219A6
:10112300539001017435F0A374151219B174181298
:101133001A557421F0A37438F0A374240219539040
:10114300010174391219827441121A8674421219F8
:101153007B744380C590010174441219AA7445F04D
:10116300A37420F0A37446121A737447F0A374286F
:101173000219539001017448F0A37432F0A3744927
:101183001219B17451F0A37405F0A37452F0A3744F
:10119300100219539001017453F0A374151219BF6F
:1011A3007420F0A37455F0A37425F0A374560210B1
:1011B300FF9001017457F0A37435F0A37458121A09
:1011C3005C7459F0A37445F0A37461F0A374060230
:1011D30019539001017462F0A37412F0A3746312A3
:1011E300196D7464121A737471F0A374070219539E
:1011F3009001017472F0A37414F0A374731219892B
:1012030074741219747475F0A37435021953900130
:10121300017476F0A37442121A4E7449F0A37478E1
:10122300F0A37456F0A37479F0A374630219539076
:101233000101748112197B74821219AA7483121A20
:10124300737484F0A37432021953900101748512EC
:101253001A5C7486121A437487F0A37456121A9692
:1012630074640219539001017489F0A37472F0A39A
:101273007491F0A37409F0A3749212196D7493F02E
:10128300A3742702195390010174941219B1749530
:10129300121A4374961219BF7497808C90010174CB
:1012A30098F0A37472F0A37499F0A37481F0A374FB
:1012B300A1F0A3740AF0A374A2F0A374200219533B
:1012C30090010174A3F0A37430F0A374A4121A5C08
:1012D30074A5F0A37450F0A374A6F0A3746002196C
:1012E3005390010174A7F0A37470F0A374A8F0A342
:1012F3007480F0A374A9F0A37490F0A374B1F0A365
:10130300741102195390010174B21219F374B3F0FA
:10131300A37433F0A374B41219DB74B5F0A374553A
:1013230002195390010174B6F0A37466F0A374B765
:10133300121A4E74B8121A9674B9F0A3749902195A
:10134300539001017421121A6C7422121A867423A9
:101353001219B87424F0A37408021953900101748C
:1013630025121A657426F0A37412121982741412CA
:1013730019747416021953900101742912196D74AA
:101383002A12197B74C8F0A374761219CB747402F1
:1013930019539001017461F0A37450F0A3742DF0FC
:1013A300A374D5F0A3744B1219B87498F0A37434D2
:1013B3000219531219C67405F0A37407F0A3740934
:1013C30012199074150219539001017417F0A37444
:1013D300191219897423F0A374251219827429F040
:1013E300A374310219539001017433F0A3743512BD
:1013F3001A557439F0A37441F0A37443F0A37445F0
:10140300F0A374470219539001017451F0A374536C
:10141300F0A37455121A127463F0A374650219537E
:101423009001017467F0A3746912195BF0A37475DA
:10143300121A4E7479F0A374810219539001017446
:1014430083F0A37485121A037493F0A37495F0A325
:1014530074970219539001017499121A6C04F0A342
:101463007405F0A3740712199074170219539001AD
:10147300017419F0A37423F0A37429F0A374311237
:101483001A557441F0A3744302140390010174517B
:10149300F0A37453121A12746712195B0219539052
:1014A30001017477F0A37479F0A37483121A03749F
:1014B30097020FE690010174A1121A8D74C41219D8
:1014C300A074D8020FE6900101741A1219A0742BAC
:1014D3001219D2748D020FE690010174A1121A2A17
:1014E30074C4121A2674D8020F63121A21742B12B1
:1014F3001A26744C121A26748D020F63900101741C
:1015030019F0A37428121A557445F0A37455F0A367
:101513007464F0A37473F0A37482021953900101ED
:1015230074A1F0A374B0F0A374C2F0A374D0F0A3B9
:1015330074E4F0A374F0121A9C02119090010174E8
:101543001AF0A3740BF0A3742CF0A3740DF0A3741E
:101553004EF0A3740F121A9C02109690010174119D
:10156300F0A37401F0A37422121A6C7444F0A374F0
:101573001602126090010174761219BF7432121AA6
:10158300657401F0A304F0A374040211CE90010169
:10159300121A637412F0A374141219AA7418F0A324
:1015A3007420F0A374220219539001017424F0A350
:1015B30074261219747430F0A37432F0A3743412C5
:1015C30019B174380219539001017440F0A37442A5
:1015D3001219DB7446121A437450F0A37452F0A329
:1015E30074540219539001017456F0A37458F0A374
:1015F3007460F0A37462F0A37464F0A37468F0A33E
:101603007470F0A374720219539001017474F0A3FF
:101613007476F0A37478F0A37480F0A37482F0A3BB
:101623007484F0A37486121A9C02195390010174F6
:1016330090F0A37492F0A37494F0A37496F0A3743F
:1016430098F0A374A0F0A37482020FD090010174E8
:10165300C81219A074C41219A074C21219A074C1BB
:10166300020FE690010174C8121A2674C2121A26D8
:1016730074C4121A2674C8020F63900101741C12F9
:1016830019A0742C1219D2748C020FE69001017404
:1016930011F0A3740C1219F374C01219DB740C1239
:1016A3001A9674C002195312199B74A21219A074CA
:1016B300A4021074121A21742A121A26744A121AD6
:1016C30026748A020F639001017411F0A374A012AF
:1016D30019F3740A1219DB74A0121A96740A021908
:1016E3005390010174B1121A8D74B41219A074B815
:1016F300020FE690010174B1121A2A74B4121A2669
:1017030074B8020F639001017411F0A374B012193D
:10171300F3740B1219DB74B0121A96740B0219537B
:1017230090010174D11219A074D21219A074D402B9
:1017330014C190010174D1121A2674D2121A26749C
:10174300D40214E59001017411F0A374D01219F3BB
:10175300740D1219DB74D0121A96740D021953907A
:10176300010174E11219A074E21219A074E41219B0
:10177300A074E8020FE690010174E1121A2674E2E4
:10178300121A2674E4121A2674E8020F63900101F8
:101793007411F0A374E01219F3740E1219DB74E0E0
:1017A300121A96740E02195390010174F11219A0C2
:1017B30074F21219A074F41219A074F8020FE690CF
:1017C3000101741F1219A0742F1219A0744F12195A
:1017D300A0748F020FE690010174FFF0A3121A7A2E
:1017E300020FE690010174111219A41219A4021038
:1017F3000890010174221219FA74221219A074229A
:10180300020FE690010174441219E274441219A004
:101813007444020FE69001017488F0A3E4121A964F
:10182300E4121A9C020FE09001017410121A7374EF
:1018330005F0A37412121A6C7456F0A3740102110A
:101843006F900101E4F0A374641219A07432F0A341
:10185300E41219AAE4021358900101E4121A86E46F
:10186300121A6CE4F0A374FF020FE3900101749366
:10187300F0A37439F0A37484121A437475F0A3743B
:1018830057F0A37465F0A3745602195390010174C1
:1018930094F0A37449F0A37485F0A37458121964E7
:1018A300F0A304F0A374860219539001017431F07C
:1018B300A37413F0A37425F0A37452F0A374C8F0B7
:1018C300A3748C12196402195390010174D8F0A304
:1018D300748DF0A374B7F0A3747BF0A3746AF0A3C0
:1018E30074A6F0A3745FF0A374F58064900101748F
:1018F300E4F0A3744EF0A374A8F0A3749C121A4AE4
:101903007496F0A3745380489001017498F0A37403
:1019130089F0A314F0A37486F0A37440121A86749A
:1019230069F0A37496802990010174701219B87438
:1019330050121A867430121A6C74100213589001E4
:1019430001E4F0A3F0A3F0A3F0A3F0A3F0A3F0A3AA
:10195300F0D083D08202010BF0A37471F0A37473EF
:1019630022F0A37476F0A3746722F0A37418F0A393
:1019730022F0A37428F0A322F0A37408F0A322F0AA
:10198300A37427F0A322F0A37421F0A322F0A3747D
:1019930011F0A37413F0A32290010174A11219EDA5
:1019A300221219ED741122F0A37416F0A322F0A3EE
:1019B3007436F0A322F0A37406F0A322F0A37454A8
:1019C300F0A3229001017401F0A37403F0A3221287
:1019D30019ED744C1219ED22F0A37444F0A32212F2
:1019E30019ED74441219ED2274FFF0A3E4F0A3225D
:1019F300F0A37422F0A3221219ED74221219ED221E
:101A0300F0A37487F0A37489F0A37491F0A322F078
:101A1300A37457F0A37459F0A37461F0A322900147
:101A230001741A121A3322121A3374B2121A33229D
:101A3300F0A374FFF0A322121A337422121A332272
:101A4300F0A37448F0A322F0A37467F0A37477F0B3
:101A5300A322F0A37437F0A322F0A37440F0A322CF
:101A63007408F0A37410F0A322F0A37402F0A3226D
:101A7300F0A37424F0A322E4F0A31219EB1219EBE0
:101A830074FF22F0A37404F0A3221219ED74B212AE
:101A930019ED22121A9CF0A322F0A374882274F683
:101AA3001204C1C290C2A07A00750880750900EAC9
:101AB3007808120438E508596004D2928002C29271
:101AC300C291D2910AEAC3940840DE021B7874F6ED
:101AD3001204C1D290C2A07A00750880750900EA89
:101AE3007808120438E508596004D2928002C29241
:101AF300C291D2910AEAC3940840DE021B78C082E5
:101B0300C08379E21202377A057B0012028579E2FB
:101B13001202377A057B00121B6B121B6B120285B4
:101B230079F8120237790112023779A31202377951
:101B3300261202377981120237792012023779C0CF
:101B430012023779A112023779A612023779AF123E
:101B530002377A147B00120285794012023712028F
:101B630049D083D08202010B120285792F120237EA
:101B73007A027B0022D2A0D29290040BE0F5907FF0
:101B83000202052D74F71204C17EB0EE121BA97F69
:101B930080790012023D1FEF70F70EEEC394B84038
:101BA300EA7F0102052DF9120237121BB1227910C7
:101BB30012023779041202372274F01204C18B0D1A
:101BC300E9C33324AEF508EA33333354F82404F578
:101BD3000CC4540F4410FE740F550CFF74E0250D14
:101BE300C394604003750D20850D0AE50A24E0F5D2
:101BF3000AE434FFF50B7404780A120457850A0EBD
:101C0300850B0F121C4EA908120237750A008011AA
:101C13007408650A700B74012508F9120237121C47
:101C23004E7471250EF5827406350FF583E493F92E
:101C330012023DE50E2401F50EE50F3400F50F0504
:101C43000AE50AC3941040C8021DD0EEF912023708
:101C5300EFF91202372274F21204C1E9FE8A088CEA
:101C63000C8D0DAA0CAB0D1202F1EAF5097F008071
:101C7300158F0AE50C250AF582E50D121C99E0FB88
:101C8300E508121DA00FEFC3950940E57F06020585
:101C93002D7F0702052D3400F5832274F21204C14F
:101CA300890AEAFE8B0B8C088D09EB70337F00AA3F
:101CB30008AB09E4121D298011FB121D1F850C823C
:101CC300850D83A385820C85830D850C82850D8309
:101CD300E070E6EFC3940550407B20121D1F80F394
:101CE3007401650B70338C0C8D0D740C780C12041D
:101CF3004874A1250CF5827405121C99E0FB1202AD
:101D03004FE509121DCA121D33121DB47402121DB0
:101D130033121DB57403121D39021C8FEE2FFAA95D
:101D23000A12024F0F22FCFD1202E58A0C8B0D22D0
:101D3300121D39E508222EFAA90A12024F2274F164
:101D43001204C1E9FEEAFF8B0E8C09EB70347508AF
:101D530000ECFAE4FB121D298011FB121DA8850C6F
:101D630082850D83A385820C85830D850C82850D69
:101D730083E070E6E508C39403501F7B20121DA87F
:101D830080F27401650E7012EC121DB412024F85BD
:101D9300090AE50A121DCA121DA0021C942FFAEEAD
:101DA300F912024F22EF2508FAEEF912024F050845
:101DB30022C4121DB922540FF874A128F5827405A8
:101DC3003400F583E0FB22121DB97401227F08025F
:101DD300052DC082C0831202C712020779017A8BD4
:101DE3007B031202AF90038BE0C2E7F0640570340B
:101DF3007905121EAA5004D2F08002C2F0A2F0E4C8
:101E030033900599F0900390E0A2E74003021EA2ED
:101E130090038EE0F890030FE0686003021EA2A314
:101E23007401807AE024F5900596F090038BE0F935
:101E3300121EAA5004D2F08002C2F0A2F0E4339042
:101E43000599F0900393E0F8A3E0F9900592E8F088
:101E5300A3E9F09005977495F0A37403F0121EB8EC
:101E6300749528F8740339F988828983E090059A78
:101E7300F088828983A3E0A2E7501C900591E0F8E3
:101E830090038EE068601090038CE054DF6441702F
:101E93000690059B7401F090038EE0900591F0127B
:101EA300020D1202CD80197A8C7B031202AF9003CC
:101EB3008CE0A2E522900596E0F83395E0F922F94B
:101EC300D083D08202010B74F71204C1EAFEEBFF48
:101ED30012028BE9640170047901804E12020D90A5
:101EE3000316EEF0A3EFF0900597E4F0A3F0900350
:101EF3001104F090059D12041390031212041F1293
:101F03001F32A3A3E0F9120297122031FAA3E0FBD8
:101F130012029D121F32E0FAA3E0FB1202A37AD74A
:101F23007B011202D312020779007F0102052D12F1
:101F33001F3622900316E0F8A3E0F5838882A3A35B
:101F43002274F41204C1EAFEEBFF8C088D09890A9E
:101F5300900311E070031202BBE50AC394675005B6
:101F6300850A0B8003750B671202D91202C7740B23
:101F7300250B900318F012203E900319600474613E
:101F830080027441F0A37488F090030FE090031B68
:101F9300F0900317121F3CE0F8A3E0F990031CE84C
:101FA300F0A3E9F0A3EEF0A3EFF0122031F8A3E0E1
:101FB300F9900320E8F0A3E9F07A0080218A82A84F
:101FC30082E50828F582E5093400F583E0C0E07472
:101FD3002228F58274033400F583D0E0F00AEAC3C3
:101FE300950B40D9740A250BF97A187B031202A9C1
:101FF3001202CD1202B512203E6012900310E4F0DB
:102003007A4A7B0212027F900310E060047E008014
:10201300027E01900311E070031202C1EEA2E040C0
:102023000690030FE004F0EEF97F0402052D900300
:1020330016E0F8A3E0F5838882E022121F36A3A3FB
:10204300A3E022C082C08390059BE0021EC274F20B
:102053001204C18A088B09890AECFEEDFF12020DF6
:10206300121EB8850A0CC3E8950CE99400A2D26548
:10207300D033500AE0F50C3395E0F50D8003750D70
:1020830000780C12062A900597E0FCA3E0FDAA084D
:10209300AB091202EB7402120480EE4F601E1202AF
:1020A30091E9F50890059A121EBBE8C39508F8E973
:1020B3009400F98E828F83E8F0A3E9F090059BE406
:1020C300F0120207121EB8850A08C3E89508E994BE
:1020D30000A2D265D0335004E0F98002A90A7F063A
:1020E30002052DC082C0839003117401F01202BB5C
:1020F300021EC31201B980061221211221211201ED
:10210300E9E960F47C007D0079FF7A097B01120123
:10211300EFE960EA900109E0F91201BF80E679076F
:1021230012026D7A0A7B0012028522C082C083905C
:1021330003097411F0A3F0A304F0A37401F01201D6
:10214300FB79081202679003077422F0A3F07A0761
:102153007B031201DD1201F590030D742CF0A374BF
:1021630001F07C4A7D057A00F91202557C577D0502
:102173007A007902120255D083D08202010B74F5E2
:102183001204C190010AE075F064A490030DF0A35A
:10219300E5F0F0E91460061460520222791201C5D9
:1021A3007C677D057A0C79011202557E00EE1222BE
:1021B3007EEEF91201D1EEFC7B007A08790212025D
:1021C300617F00EFF91222940FEFC3940840F47972
:1021D300001202731222887A01EEF91201CBE9FE92
:1021E3000E04C39464400302227980C11201C57CAA
:1021F300697D057A0C79011202557E007F00740B0C
:102203002EF50874013FF509850882F583E0122253
:102213007E850882850983E0F91201D185088285CC
:102223000983E0FC7B007A087902120261750800D9
:10223300750900A908122294E5082401F508E509A7
:102243003400F509C3E5089408E5099400A2D265B2
:10225300D03340DF7A02EEF91201CBE9F5081222FE
:1022630088E5082401FEE43400FFEE9408EF9400AF
:10227300C365D03340887F0302052DF91201B39063
:102283000113E0FA2290030DE0FAA3E0FB120285AA
:10229300221201AD7AFA7B0012028522C082C0832A
:1022A3001202497C6B7D057A0079011202557C7814
:1022B3007D057A00790212025590030DE0FCA3E03C
:1022C300FD7B007A0C790212025B02217A74F71209
:1022D30004C1E9FEEAFF7C007D0079FF7A097B01F6
:1022E3001201EFE96042900109E06F7015A3E075F8
:1022F300F064A4F8A9F090030DE0687003A3E0690B
:1023030060247C817D057A0079011202557A647B11
:102313000012028574016F70047964800B74026F7C
:10232300700479088002EEF97F0102052D74F7121B
:1023330004C1E9FE9002087401F0EEA3F079FF7C7A
:10234300087D027A337B331201E380DC74F01204DC
:10235300C174FB12046A74011204B5EAF0A3EBF032
:10236300A3ECF0A3EDF07A3E7B0574011204B5C033
:1023730082C08390059D78081203F5D083D08278BC
:10238300081202F7851082851183501C7401F01224
:1023930004B578081203F578081203E474011204F3
:1023A300B578081204048002E4F074011204B578CD
:1023B3000C1203F59005B178081203F5780C79082F
:1023C3001203A6E50824308A828B83F0A3AA82AB8A
:1023D3008374011204B5780C1203F59005B17808E3
:1023E3001203F5780C79081203A674011204B57868
:1023F3000C12040474011204B578081203F5E508FD
:102403004509450A450B70A2851082851183E0A218
:10241300E0500B8A828B83742DF0A30AAB838A82EC
:102423008B83E4122461783E7905801D8A828B8335
:10243300E0FC88828983E08A828B83122461EC88A2
:10244300828983F0A3A882A983C3E89AE99B40DC2D
:102453007A3E7B0574051204807F0802052DF0EA9D
:1024630024FF1AEB34FFFB22C082C083906189E012
:102473004460F090619074D5F09061FA7409F09023
:1024830061B27415F09061AEE4F01202CD79008070
:1024930004F0EBA3F0D083D08202010B794902014F
:1024A3000BC082C08375F005E9A424D490618F80AA
:1024B300E3C082C083EA90617480D6C082C083EA9D
:1024C30090617280CC74F61204C175E1EE7591FDD2
:1024D300780080031224E4E8C39940F87F020205E0
:1024E3002D8808EA2508F582EB3400F583E0F5D959
:1024F3000822C082C083800DE5D98A828B83F0A332
:10250300AA82AB8319E970F0022498790002010BC7
:1025130075E1E9E591A2E150FA7591FD80ED75E170
:10252300EC75E1E302010B75E1EF75E1EC02010BE0
:10253300C082C0839061A3E0C2E6F0539AFE0224F6
:1025430098C082C0839061A3E0D2E6F0439A01026F
:102553002498C082C083E5A8F8C2AF900436EAF09D
:10256300A3EBF0E8A2E792AF022498C082C0839065
:102573006193E0542270F8022498C082C083D2A4ED
:10258300D2A37A027B0012027FC2A38002D2A47A72
:10259300027B0012027FC2A47A027B0012027FD068
:1025A30083D08202010BC082C083C2A37A027B0064
:1025B30012027FD2A47A027B0012027FD2A380D8B8
:1025C300C082C083C2A380C574F71204C1E9FF7E31
:1025D30008EFA2E75004D2A38002C2A3D2A4C3335C
:1025E300FF1225F21EEE70E980007F0102052D7AAD
:1025F300027B0012027FC2A47A027B0012027F22B6
:1026030074F71204C1E9FFEAFE122619EEF9122645
:102613002C12021980D412021379E01226307900A9
:10262300122630EFF912263022122630221202250A
:1026330012021F22C082C0837A62790012022B7AAF
:10264300F7790212022B7A07790312022B7A0079A7
:102653000412022B7A00790512022B7A30790E12BA
:10266300022B7A6A790012022B0225A2C082C08350
:10267300E914601714601C14602114602614602B85
:1026830014603014603514603A803F90040BE0D23C
:10269300E0803690040BE0D2E1802E90040BE0D270
:1026A300E2802690040BE0D2E3801E90040BE0D27C
:1026B300E4801690040BE0D2E5800E90040BE0D288
:1026C300E6800690040BE0D2E7F090040BE0F5906F
:1026D300D083D08202010BC082C083E91460171437
:1026E300601C14602114602614602B146030146085
:1026F3003514603A803F90040BE064018036900407
:102703000BE06402802E90040BE0640480269004A6
:102713000BE06408801E90040BE0641080169004A4
:102723000BE06420800E90040BE06440800690046C
:102733000BE06480F00226CD899002010BC082C0B9
:10274300837900120201D083D08202010BEBC31301
:10275300FBEA13FAEAF8EBF9E824FFFAE934FFFBA2
:10276300E8496012000000000000000000000000C3
:102773000000000080DE02010B74F71204C1EAFEC0
:10278300EBFFEEF8EFF9E824FFFEE934FFFFE84939
:1027930060097AE87B0312027F80E77F0102052D3F
:1027A300C082C08312027953F5EFD2A443FF1053C2
:1027B300F5F7D2A343FF0853F5F753FFF743F708A1
:1027C30053F5FEC2A043FF0153F3BFC28643FD404E
:1027D30075F4007590FF75FEFF90040BE4F075909F
:1027E300001202431202311202DF120207D083D019
:1027F3008202010B74F61204C1740A1204B5E0FEDE
:10280300A3E0FFEAF8EBF980188C828D83E08882DD
:102813008983F0A3A882A9838C828D83A3AC82AD24
:10282300838E088F09E50824FF1EE50934FFFFE5C1
:1028330008450970D47F0202052DC082C08353F17D
:10284300FE43F30C53F2F375868075C48075C2D8CA
:1028530075C50B75C402438640D2AA75C1009004A6
:10286300B8E4F0A3F090053BF0A3F09004BAF09025
:10287300053DF0D083D08202010BE5C65480F853A6
:10288300BEFBE59DA2E550FAE59DA2E240F400748B
:1028930001697007744948F5C68005E9700288C666
:1028A300E5C6F8E59E6870FB43BE0402010BC082D7
:1028B300C0838A828B838001A3E070FCE582C39A84
:1028C300FAE5839BFBD083D08202010BD2AF0201D6
:0628D3000BC2AF02010B75
:04000005000000E314
:00000001FF
