:020000040000FA
:030000000200E318
:03001300020D9E3D
:03003300020D0FAC
:03003B00020DEDC6
:03006B00020C493B
:03007B00020CA2D2
:10008300020D6600000080FB12013FB9000302006D
:10009300CDE490010178E179038002F0A3D8FCD983
:1000A300FA9003E1AA82AB83900142786E790180D2
:1000B30015E493A3AC82AD838A828B83F0A3AA82D7
:1000C300AB838C828D83D8E9D9E77582AD75831DA7
:1000D30074001200F575828675830074001200F5B2
:1000E30075D0007581BF751001751101759F0002F0
:1000F300008BC0F0F5F0E59F5407C0E0E59F54F88E
:1001030045F0D0F0F59FE473859FF053F0F8D0E00D
:1001130045F0F59F22D083D082E59F5407C0E0E4E9
:1001230093C0E0740193C0E07402935407C0F0F5E8
:10013300F0E59F54F845F0D0F0F59F22790122496C
:100143002E4F2E4C5F53797374656D00536C61763B
:10015300655F412052656164792E2E0031003200C3
:100163003300536C6176655F413A4D6F64650050AF
:10017300726F6772616D3A00536C6176655F413AE5
:100183004E65774D6F646500FF00000000000000BE
:1001930000000000000000003031323334353637C0
:1001A30038394142434445460A0000001201183FD2
:1001B3000E001201185E0E00120118281E00120113
:1001C30018DC1F001201181520001201186020000E
:1001D300120118552100120118DC2100120118E741
:1001E30021001201187C2200120118882600120136
:1001F30018622700120118B42700120118B927004A
:10020300120118A82300120118D42300120118EEBA
:100213002300120118F623001201182E24001201E4
:1002230018622400120118791A00120118A91A0081
:10023300120118D91A001201185F1B001201189439
:100243001B00120118311C00120118761C00120148
:1002530018191D001201189A24001201180525000F
:1002630012011866250012011825260012011835FF
:1002730026001201186126001201186B25001201D5
:10028300189F2500120118A42500120118B4250097
:10029300120118BE2500120118C82500120118E129
:1002A3002500120118EA2500120118FB250012018E
:1002B300180C26001201182227001201188C2200A4
:1002C300120118DC2600120118962700C3E09608D5
:1002D300A3E09608A3E09608A3E096A2D265D033E4
:1002E30022E4CFC0E0E4CEC0E0E4CDC0E0E4CCC083
:1002F300E075F020C3E633F608E633F608E633F696
:1003030008E633F6181818EC33FCED33FDEE33FE34
:10031300EF33FFC3EC9709ED9709EE9709EF9719B0
:100323001919400FFFEC97FC09ED97FD09EE97FEB5
:10033300191906D5F0BEECF709EDF709EEF709EF49
:10034300F7191919D0E0FCD0E0FDD0E0FED0E0FFB2
:10035300221203BC1818181202E41203AB1919195C
:10036300221203AB191919080808E618181820E710
:10037300E01202E41203BC18181822090909E7194C
:10038300191920E7DC080808E618181820E7030203
:1003930002E41203BC1818181202E41203BC181862
:1003A300181203AB19191922E4C397F709E497F755
:1003B30009E497F709E497F722E4C396F608E4966D
:1003C300F608E496F608E496F622E0F608A3E0F6CB
:1003D30008A3E0F608A3E0F622E6F008A3E6F00897
:1003E300A3E6F008A3E6F022E0FAA3E0FBA3E0FC17
:1003F300A3E0FD22EAF0A3EBF0A3ECF0A3EDF022DF
:10040300CAC0E0E6F0A308DAFAD0E0FA22600D08E9
:10041300C6A2E713C618C613C6D5E0F322600C08BC
:10042300C6C313C618C613C6D5E0F42270042260EF
:100433000D18C6C333C608C633C6D5E0F418222543
:100443001010AF08F510400215118008F510400296
:100453001511D2AF22C0D0251010AF08F5105002ED
:1004630005118008F51050020511D2AFD0D0222516
:1004730010F58210AF08F510400215118008F51031
:1004830040021511D2AF851183222510F582E43580
:1004930011F58322E4732510C582C0E0E51134FF12
:1004A300C583C0E0E510C3958224F810AF088583A7
:1004B300118582108008858311858210D2AFCEF01A
:1004C300A3E520F0A37808E608F0A3DEFAEFF0A393
:1004D300E58124FAF8E608F0A3E608F0A3E608F0BD
:1004E300A30808E608F0A3E608F0A315811581D058
:1004F300E0FED0E0F8158115811581E8C0E0EEC07B
:10050300E022851183851082E0A3FEE0A3F5207825
:1005130008E0A3F608DFFAE0A3FFE0A3C0E0E0A34E
:10052300C0E0E0A3C0E0E0A3C0E0E0A3C0E010AF00
:10053300088582108583118008858210858311D2F6
:10054300AFD083D08202010BC0D02510C582C0E09A
:10055300E51134FFC583C0E0E510C3958224F31091
:10056300AF088583118582108008858311858210E9
:10057300D2AFC8F0A3E9F0A3EAF0A3EBF0A37908A4
:10058300E709F0A3D8FAECF0A3EDF0A3EEF0A3EFA4
:10059300F0A3D0E0F0A3D0E0F0A3D0E0F0A3E520F7
:1005A300F0A3E5F0F0A322851183851082E0C0E07B
:1005B300A3E0F9A3E0FAA3E0FBA37808E0F608A31D
:1005C300DFFAE0FCA3E0FDA3E0FEA3E0FFA3E0C0AD
:1005D300E0A3E0C0E0A3E0F5D0A3E0F520A3E0A30F
:1005E300F5F010AF0885831185821080088583118B
:1005F300858210D2AFD082D083D0E0F8D0E03274BD
:10060300028000C0E0F404120472D0E0120403225A
:10061300D083D082C5F0E493A3C5F0C395F0F5F081
:10062300E493A3C395F04005E5F0048001E475F07D
:1006330002A42582F582E5F03583F583E493A3C014
:10064300E0E493C0E022000000000000000000008E
:10065300000000000000000070F8F87000000000C7
:10066300000D0D000000001C3C0000003C1C0000BD
:100673000000000000000020F8F820F8F820000235
:100683000F0F020F0F020070F8888E8E983000064D
:100693000C0838380F07006060000080C060000855
:1006A3000C0603010C0C0000B0F8C878B0800007FA
:1006B3000F0809070F0800203C1C00000000000081
:1006C3000000000000000000E0F018080000000037
:1006D30003070C0800000000000818F0E000000009
:1006E30000080C07030080A0E0C0C0E0A080000267
:1006F300030101030200808080F0F080808000000D
:1007030000070700000000000000000000000000D8
:10071300101E0E000000808080808080800000001A
:1007230000000000000000000000000000000000C6
:10073300000C0C00000000000080C06030180006B0
:1007430003010000000000F0F888C868F8F0000713
:100753000F0908080F0700002030F8F80000000018
:1007630008080F0F08080010180888C87830000C14
:100773000E0B09080C0C001018888888F870000408
:100783000C0808080F070080C06030F8F80000016B
:100793000101090F0F0900F8F88888888808000408
:1007A3000C0808080F0700E0F0988888800000070D
:1007B3000F0808080F070018180888C878380000C1
:1007C300000F0F0000000070F8888888F870000799
:1007D3000F0808080F070070F8888888F8F00000F1
:1007E3000808080C07030000003030000000000078
:1007F300000606000000000000303000000000008A
:10080300080E060000000080C060301808000000D9
:100813000103060C08000040404040404000000235
:100823000202020202000008183060C080000008C3
:100833000C06030100000030380888C87830000037
:1008430000000D0D000000F0F808C8C8F8F000071C
:100853000F080B0B0B0100C0E0301830E0C0000F95
:100863000F0101010F0F0008F8F88888F8700008DD
:100873000F0F08080F0700E0F018080818300003EE
:10088300070C08080C060008F8F80818F0E0000840
:100893000F0F080C07030008F8F888C81838000879
:1008A3000F0F08090C0E0008F8F888C8183800085C
:1008B3000F0F0801000000E0F018080818300003CB
:1008C300070C0909070F00F8F8808080F8F8000F7B
:1008D3000F0000000F0F000008F8F80800000000E8
:1008E300080F0F0800000000000008F8F8080006D1
:1008F3000E08080F07000008F8F880E078180008D1
:100903000F0F00030F0C0008F8F8080000000008A0
:100913000F0F08080C0E00F8F8306030F8F8000FDD
:100923000F0000000F0F00F8F870E0C0F8F8000F98
:100933000F0000010F0F00E0F0180818F0E00003AB
:10094300070C080C07030008F8F88888F8700008FB
:100953000F0F0800000000F0F8080808F8F0000383
:100963000704071E1F130008F8F88888F8700008AA
:100973000F0F00010F0E003078C88888383000064A
:100983000E0808090F06180808F8F80808180000E8
:10099300080F0F08000000F8F8000000F8F800073F
:1009A3000F0808080F0700F8F8000000F8F8000126
:1009B30003060C06030100F8F8000000F8F8000F26
:1009C3000F0603060F0F003878C080C07838000E7A
:1009D3000F0100010F0E003878C080C07838000086
:1009E300080F0F0F080000381888C8683818000E61
:1009F3000F0908080C0E0000F8F8080800000000B2
:100A03000F0F08080000003870E0C08000000000ED
:100A130000000103070E00000808F8F800000000BA
:100A230008080F0F00000010180C060C1810000027
:100A33000000000000000000000000000000002093
:100A4300202020202000000000060E0800000000E7
:100A53000000000000000000404040C0800000068D
:100A63000F0909070F080008F8F840C080000008C4
:100A73000F0708080F070080C0404040C0800007F0
:100A83000F0808080C04000080C048F8F8000007AD
:100A93000F0808070F080080C0404040C0800007CF
:100AA3000F0909090D050080F0F888983000000847
:100AB3000F0F080000000080C0404080C0400013BA
:100AC3003724243F1F000008F8F88040C080000846
:100AD3000F0F00000F0F00000040D8D800000000E7
:100AE30000080F0F08000000000040D8D8000018CD
:100AF3003820203F1F000008F8F80080C04000089D
:100B03000F0F01030E0C00000008F8F800000000AE
:100B130000080F0F08000080C0808080C080000F95
:100B23000F000F000F0F0040C0804040C080000046
:100B33000F0F00000F0F0080C0404040C08000072F
:100B43000F0808080F070040C0804040C080002005
:100B53003F3F240407030080C0404080C04000039F
:100B63000704243F3F200040C080C040C0800008ED
:100B73000F0F080001010080C0404040C080000406
:100B83000D090B0A0E04004040F0F840400000003D
:100B930000070F080C0400C0C00000C0C00000071D
:100BA3000F0808070F0800C0C0000000C0C0000104
:100BB30003060C06030100C0C0000000C0C000070C
:100BC3000F0C060C0F070040C0800080C0400008D7
:100BD3000C0703070C0800C0C0000000C0C00003DE
:100BE300272424341F0F00C0C04040C0C040000869
:100BF3000C0E0B090C0C008080F078080800000034
:100C030000070F08080000000078780000000000CB
:100C1300000F0F00000000080878F0808000000833
:100C2300080F07000000001018081810180800002B
:100C33000000000000000000000E0A0E000000008B
:100C4300000000000000C0E074F112054BC2C5E5CE
:100C53008960477E00750801750900EE7808120463
:100C63002FAF08E5895F602BEEC333F8E433F974E3
:100C7300A328F5827402120CF86014EEC333F8E46F
:100C830033F974A328F5827402120D03120497EF4B
:100C9300F452890EEEC3940840BB7F020205AAC03A
:100CA300E074F112054BC2EBE58A60477E007508DC
:100CB30001750900EE780812042FAF08E58A5F601A
:100CC3002BEEC333F8E433F974B328F582740212BC
:100CD3000CF86014EEC333F8E433F974B328F582E7
:100CE3007402120D03120497EFF4528A0EEEC394AA
:100CF3000840BB80A539F583E0F8A3E0F9E8492271
:100D030039F583E0F8A3E0F583888222C0E074F12B
:100D130012054BC2E8E58B60477E00750801750933
:100D230000EE780812042FAF08E58B5F602BEEC34B
:100D330033F8E433F974C328F5827402120CF860B3
:100D430014EEC333F8E433F974C328F58274021242
:100D53000D03120497EFF4528B0EEEC3940540BBC0
:100D6300020C9DC0E074F212054BA2AFE433FEC245
:100D7300AFE5E9A2E6501A9002CDE0F8A3E0F9E866
:100D8300496008E0F5838882120497759B0053E954
:100D9300BFEEA2E092AF7F010205AAC0E0C0D0E897
:100DA300C0E0E9C0E0C082C083E5C1C0E090035069
:100DB300E0F874CF28F58274023400F583D0E0F0B4
:100DC30090034FE0F8A3E0687004E595A3F0900367
:100DD30050E004F0C394804002E4F0D083D082D08A
:100DE300E0F9D0E0F8D0D0D0E032C0E0C0D0E8C025
:100DF300E0C008C009C082C0839003D2E0F8A3E03A
:100E0300687008539AFBA374018026C2E99003D249
:100E1300E0F50874012508F074522508F58274037F
:100E23003400F583E0F5C19003D2E0C3948040021F
:100E3300E4F0D083D082D009D00880A674F61204DF
:100E430099E9FE8E0874012508F58274013400F5D2
:100E530083E0F91202637F02020505C082C083E9C1
:100E630012061300632C191919320F420F5A0F740B
:100E73000F8B0FAE0FC40FD60FE50FF70F10102C0B
:100E8300104210541075108F10AE10C010DE10FCFD
:100E9300101A1130114E116F118C11AD11CB11E9D4
:100EA300110A1225124012611277129B12BC12E032
:100EB30012FE121C13371352136D138E13A313C197
:100EC30013E213FB1317143014491466147A148FA6
:100ED30014A114B314C514D714F814171536154FE9
:100EE3001568158415A215C015E415071627163EB7
:100EF300165516671682168F16A116BC16CE16E067
:100F030016FB160D171F173A175117681783179AF1
:100F130017B117BE17CC17DE17F01702181C1833BA
:100F230018461867188518A418C718E318021990EB
:100F33000101121A52F0A3E4F0A374FF02192B90DB
:100F430001017401F0A304121A5E121A3B742012F9
:100F53001A34748002192B9001017480121A3474AC
:100F630020121A3D7408121A5E7402F0A3140219B7
:100F73002B12199E7407F0A3740FF0A3741FF0A330
:100F8300743FF0A3747F80B09001017480F0A37468
:100F9300C0F0A374E0F0A374F0F0A374F8F0A374AA
:100FA300FCF0A374FEF0A30402192B900101741149
:100FB3001219D27444F0A3E4121A74F0A3E40219D0
:100FC3002B9001017411121A1274441219FE7488C1
:100FD300020F3B90010174881219BA742212197C12
:100FE30080D990010174881219FE7444121A127484
:100FF30011020F3B9001017481F0A37442121A4B4A
:101003007418121A4B7442F0A3748180AE900101DC
:101013007481F0A374C3F0A374E71219FE74E7F0AC
:10102300A374C3F0A3748180929001017413121905
:101033007874231219787443121978748380CC124C
:101043001973742A121978744A12197874A8020F42
:10105300BE9001017471F0A37461F0A37451F0A305
:101063007441F0A374311219617411F0A374010275
:10107300192B9001017417F0A37427121A2D7447CA
:10108300F0A37457121A22748702192B900101746A
:101093007AF0A3746BF0A3745CF0A3744DF0A374A3
:1010A3003EF0A3742FF0A3741080C090010174C1AB
:1010B300121A6574A41219787498020FBE90010174
:1010C3007467F0A37442F0A37468121A1B74691254
:1010D30019977465F0A3743002192B9001017431D0
:1010E3001219A374321219907433F0A37409F0A384
:1010F3007434F0A3741202192B9001017435F0A318
:1011030074151219897418121A2D7421F0A37438E6
:10111300F0A3742402192B900101743912195A7423
:1011230041121A5E7442121953744380C59001012F
:1011330074441219827445F0A37420F0A374461208
:101143001A4B7447F0A3742802192B9001017448B9
:10115300F0A37432F0A374491219897451F0A37483
:1011630005F0A37452F0A3741002192B90010174BB
:1011730053F0A374151219977420F0A37455F0A3B8
:101183007425F0A374560210D79001017457F0A38D
:101193007435F0A37458121A347459F0A37445F0DB
:1011A300A37461F0A3740602192B9001017462F019
:1011B300A37412F0A374631219457464121A4B7466
:1011C30071F0A3740702192B9001017472F0A374D8
:1011D30014F0A37473121961747412194C7475F0BA
:1011E300A3743502192B9001017476F0A374421293
:1011F3001A267449F0A37478F0A37456F0A3747993
:10120300F0A3746302192B900101748112195374B2
:10121300821219827483121A4B7484F0A3743202FB
:10122300192B9001017485121A347486121A1B74D7
:1012330087F0A37456121A6E746402192B9001017D
:101243007489F0A37472F0A37491F0A37409F0A3EA
:1012530074921219457493F0A3742702192B900109
:101263000174941219897495121A1B7496121997A2
:101273007497808C9001017498F0A37472F0A37436
:1012830099F0A37481F0A374A1F0A3740AF0A3747A
:10129300A2F0A3742002192B90010174A3F0A3748C
:1012A30030F0A374A4121A3474A5F0A37450F0A3FD
:1012B30074A6F0A3746002192B90010174A7F0A324
:1012C3007470F0A374A8F0A37480F0A374A9F0A3BE
:1012D3007490F0A374B1F0A3741102192B9001015F
:1012E30074B21219CB74B3F0A37433F0A374B412B1
:1012F30019B374B5F0A3745502192B90010174B698
:10130300F0A37466F0A374B7121A2674B8121A6E97
:1013130074B9F0A3749902192B9001017421121A64
:10132300447422121A5E74231219907424F0A37465
:101333000802192B9001017425121A3D7426F0A39B
:10134300741212195A741412194C741602192B9030
:1013530001017429121945742A12195374C8F0A390
:1013630074761219A3747402192B9001017461F03D
:10137300A37450F0A3742DF0A374D5F0A3744B128F
:1013830019907498F0A3743402192B12199E7405E2
:10139300F0A37407F0A37409121968741502192BCA
:1013A3009001017417F0A374191219617423F0A347
:1013B300742512195A7429F0A3743102192B900160
:1013C300017433F0A37435121A2D7439F0A37441E8
:1013D300F0A37443F0A37445F0A3744702192B9050
:1013E30001017451F0A37453F0A374551219EA74F4
:1013F30063F0A3746502192B9001017467F0A37461
:1014030069121933F0A37475121A267479F0A37450
:101413008102192B9001017483F0A374851219DBE7
:101423007493F0A37495F0A3749702192B900101A0
:101433007499121A4404F0A37405F0A374071219E3
:1014430068741702192B9001017419F0A37423F027
:10145300A37429F0A37431121A2D7441F0A37443B9
:101463000213DB9001017451F0A374531219EA744F
:101473006712193302192B9001017477F0A3747961
:10148300F0A374831219DB7497020FBE90010174E9
:10149300A1121A6574C412197874D8020FBE900190
:1014A30001741A121978742B1219AA748D020FBEC3
:1014B30090010174A1121A0274C41219FE74D802A5
:1014C3000F3B1219F9742B1219FE744C1219FE7486
:1014D3008D020F3B9001017419F0A37428121A2D89
:1014E3007445F0A37455F0A37464F0A37473F0A36C
:1014F300748202192B90010174A1F0A374B0F0A3BC
:1015030074C2F0A374D0F0A374E4F0A374F0121ABD
:1015130074021168900101741AF0A3740BF0A374A0
:101523002CF0A3740DF0A3744EF0A3740F121A746D
:1015330002106E9001017411F0A37401F0A37422E0
:10154300121A447444F0A374160212389001017401
:10155300761219977432121A3D7401F0A304F0A3A2
:1015630074040211A6900101121A3B7412F0A374C1
:10157300141219827418F0A37420F0A374220219B0
:101583002B9001017424F0A3742612194C7430F0CB
:10159300A37432F0A37434121989743802192B908E
:1015A30001017440F0A374421219B37446121A1B5A
:1015B3007450F0A37452F0A3745402192B900101D8
:1015C3007456F0A37458F0A37460F0A37462F0A38C
:1015D3007464F0A37468F0A37470F0A374720219B6
:1015E3002B9001017474F0A37476F0A37478F0A3C4
:1015F3007480F0A37482F0A37484F0A37486121A27
:101603007402192B9001017490F0A37492F0A374E7
:1016130094F0A37496F0A37498F0A374A0F0A37449
:1016230082020FA890010174C812197874C41219A8
:101633007874C212197874C1020FBE90010174C884
:101643001219FE74C21219FE74C41219FE74C80270
:101653000F3B900101741C121978742C1219AA748F
:101663008C020FBE9001017411F0A3740C1219CBFC
:1016730074C01219B3740C121A6E74C002192B12AF
:10168300197374A212197874A402104C1219F97404
:101693002A1219FE744A1219FE748A020F3B900132
:1016A300017411F0A374A01219CB740A1219B37444
:1016B300A0121A6E740A02192B90010174B1121A46
:1016C3006574B412197874B8020FBE90010174B135
:1016D300121A0274B41219FE74B8020F3B9001017E
:1016E3007411F0A374B01219CB740B1219B374B044
:1016F300121A6E740B02192B90010174D11219780E
:1017030074D212197874D402149990010174D1120D
:1017130019FE74D21219FE74D40214BD900101741F
:1017230011F0A374D01219CB740D1219B374D01223
:101733001A6E740D02192B90010174E11219787459
:10174300E212197874E412197874E8020FBE90015A
:101753000174E11219FE74E21219FE74E41219FE07
:1017630074E8020F3B9001017411F0A374E01219A5
:10177300CB740E1219B374E0121A6E740E02192B85
:1017830090010174F112197874F212197874F41239
:10179300197874F8020FBE900101741F121978743E
:1017A3002F121978744F121978748F020FBE90019B
:1017B3000174FFF0A3121A52020FBE9001017411BB
:1017C30012197C12197C020FE09001017422121984
:1017D300D274221219787422020FBE90010174444C
:1017E3001219BA74441219787444020FBE9001019D
:1017F3007488F0A3E4121A6EE4121A74020FB890FC
:1018030001017410121A4B7405F0A37412121A44D6
:101813007456F0A37401021147900101E4F0A3741C
:10182300641219787432F0A3E4121982E4021330BB
:10183300900101E4121A5EE4121A44E4F0A374FF67
:10184300020FBB9001017493F0A37439F0A3748465
:10185300121A1B7475F0A37457F0A37465F0A37484
:101863005602192B9001017494F0A37449F0A374E8
:1018730085F0A3745812193CF0A304F0A3748602F4
:10188300192B9001017431F0A37413F0A37425F0A4
:10189300A37452F0A374C8F0A3748C12193C0219F8
:1018A3002B90010174D8F0A3748DF0A374B7F0A347
:1018B300747BF0A3746AF0A374A6F0A3745FF0A31F
:1018C30074F5806490010174E4F0A3744EF0A37482
:1018D300A8F0A3749C121A227496F0A37453804840
:1018E3009001017498F0A37489F0A314F0A3748693
:1018F300F0A37440121A5E7469F0A3749680299061
:10190300010174701219907450121A5E7430121A15
:10191300447410021330900101E4F0A3F0A3F0A388
:10192300F0A3F0A3F0A3F0A3F0D083D08202010BC5
:10193300F0A37471F0A3747322F0A37476F0A3740C
:101943006722F0A37418F0A322F0A37428F0A32253
:10195300F0A37408F0A322F0A37427F0A322F0A34A
:101963007421F0A322F0A37411F0A37413F0A32243
:1019730090010174A11219C5221219C5741122F024
:10198300A37416F0A322F0A37436F0A322F0A37479
:1019930006F0A322F0A37454F0A322900101740172
:1019A300F0A37403F0A3221219C5744C1219C522B3
:1019B300F0A37444F0A3221219C574441219C5226A
:1019C30074FFF0A3E4F0A322F0A37422F0A3221285
:1019D30019C574221219C522F0A37487F0A3748960
:1019E300F0A37491F0A322F0A37457F0A37459F0F9
:1019F300A37461F0A322900101741A121A0B22122C
:101A03001A0B74B2121A0B22F0A374FFF0A3221262
:101A13001A0B7422121A0B22F0A37448F0A322F0BB
:101A2300A37467F0A37477F0A322F0A37437F0A331
:101A330022F0A37440F0A3227408F0A37410F0A35F
:101A430022F0A37402F0A322F0A37424F0A322E4EF
:101A5300F0A31219C31219C374FF22F0A37404F084
:101A6300A3221219C574B21219C522121A74F0A353
:101A730022F0A374882274F6120499C290C2A07A49
:101A830000750880750900EA7808120410E5085902
:101A93006004D2928002C292C291D2910AEAC394A4
:101AA3000840DE021B5074F6120499D290C2A07A49
:101AB30000750880750900EA7808120410E50859D2
:101AC3006004D2928002C292C291D2910AEAC39474
:101AD3000840DE021B50C082C08379E21202277ADB
:101AE300057B0012027579E21202277A057B001248
:101AF3001B43121B4312027579F812022779011254
:101B0300022779A31202277926120227798112026A
:101B130027792012022779C012022779A1120227FE
:101B230079A612022779AF1202277A147B001202D8
:101B3300757940120227120239D083D08202010B39
:101B4300120275792F1202277A027B0022D2A0D2C9
:101B5300929002A2E0F5907F0202050574F7120449
:101B6300997EB0EE121B817F80790012022D1FEF48
:101B730070F70EEEC394B840EA7F01020505F9122F
:101B83000227121B892279101202277904120227D5
:101B93002274F01204998B0DE9C33324AEF508EADD
:101BA30033333354F82404F50CC4540F4410FE7437
:101BB3000F550CFF74E0250DC394604003750D2091
:101BC300850D0AE50A24E0F50AE434FFF50B7404F5
:101BD300780A12042F850A0E850B0F121C26A908FA
:101BE300120227750A0080117408650A700B7401CC
:101BF3002508F9120227121C267449250EF5827452
:101C030006350FF583E493F912022DE50E2401F551
:101C13000EE50F3400F50F050AE50AC3941040C81A
:101C2300021DA8EEF9120227EFF91202272274F21D
:101C3300120499E9FE8A088C0C8D0DAA0CAB0D12C7
:101C430002C9EAF5097F0080158F0AE50C250AF51C
:101C530082E50D121C71E0FBE508121D780FEFC33E
:101C6300950940E57F060205057F07020505340057
:101C7300F5832274F2120499890AEAFE8B0B8C080D
:101C83008D09EB70337F00AA08AB09E4121D0180B4
:101C930011FB121CF7850C82850D83A385820C85AD
:101CA300830D850C82850D83E070E6EFC3940550A8
:101CB300407B20121CF780F37401650B70338C0C8E
:101CC3008D0D740C780C120420743A250CF5827473
:101CD30004121C71E0FB12023FE509121DA2121D42
:101CE3000B121D8C7402121D0B121D8D7403121D19
:101CF30011021C67EE2FFAA90A12023F0F22FCFD04
:101D03001202BD8A0C8B0D22121D11E508222EFA38
:101D1300A90A12023F2274F1120499E9FEEAFF8B29
:101D23000E8C09EB7034750800ECFAE4FB121D010C
:101D33008011FB121D80850C82850D83A385820C87
:101D430085830D850C82850D83E070E6E508C394D9
:101D530003501F7B20121D8080F27401650E7012E8
:101D6300EC121D8C12023F85090AE50A121DA2120C
:101D73001D78021C6C2FFAEEF912023F22EF2508A0
:101D8300FAEEF912023F050822C4121D9122540FE4
:101D9300F8743A28F58274043400F583E0FB2212C8
:101DA3001D917401227F0802050590020A7411F047
:101DB300A3F0A304F0A37401F01201EB790812025B
:101DC300579002087422F0A3F07A087B021201D321
:101DD3001201E590020E742CF0A37401F09002102E
:101DE300E4F07CE17D03FA79011202457CEE7D0388
:101DF3007A007901120245800C790712025D7A0A92
:101E03007B001202751201D9E960EE7C007D007936
:101E1300FF7A097B011201DFE960EA90010AE0F928
:101E23001201BB80E674F5120499E914600C146086
:101E33005A147003021F25021FC09002107401F090
:101E43001201C17CFE7D037A0C79011202457E00EA
:101E5300EEF91201B5EEFC7B007A08790212025109
:101E63007F00EFF9121FD10FEFC3940840F47900FC
:101E7300120263121FC57A01EEF91201C7E9FE0EC1
:101E830004C394644003021FC080C590021074020F
:101E9300F01201C17C007D047A0C79011202457EA7
:101EA300007F00740B2EF50874013FF50985088245
:101EB300F583E0F91201B5850882850983E0FC7496
:101EC300112EF58274023FF583ECF07B007A0879DA
:101ED30002120251750800750900A908121FD1E505
:101EE300082401F508E5093400F509C3E508940859
:101EF300E5099400A2D265D03340DF7A02EEF912ED
:101F030001C7E9F508121FC5E5082401FEE4340002
:101F1300FFEE9408EF9400C365D0334003021FC063
:101F230080811201C17C027D047A0C790112024581
:101F330090010BE0F875F0E8A4C8AAF075F003A4CB
:101F43002AF9A3E075F064A4FAABF0E82AF8E93BB8
:101F5300F9A3E075F00AA4FAABF0E82AF8E93BF933
:101F6300A3E0FAE82AF8E93400F990020EE8F0A3B6
:101F7300E9F0122003900210E064016003E07006B0
:101F830090010A7401F0900210E06402702F900136
:101F93000A7402F07A008A82A882741128F5827486
:101FA300023400F583E0C0E0740B28F58274013439
:101FB30000F583D0E0F00AEAC3940840D97F030216
:101FC300050590020EE0FAA3E0FB1202752212014E
:101FD300AF7AFA7B0012027522C082C083120239E3
:101FE3007C047D047A0079011202457C117D047A18
:101FF300007902120245122003D083D08202010B22
:1020030090020EE0FCA3E0FD7B007A0C7902120241
:102013004B2274F7120499E9FEEAFF7C007D0079F4
:10202300FF7A097B011201DFE9602D900109E06F5E
:1020330060247C1A7D047A0079011202457A647B5C
:102043000012027574016F70047964800B74026F5F
:10205300700479088002EEF97F01020505C082C091
:10206300831202A51201F779017A227B02120299E7
:10207300900222E0C2E7F06405703479051221353D
:102083005004D2F08002C2F0A2F0E433900432F0A4
:10209300900227E0A2E7400302212D900225E0F8F9
:1020A300900219E068600302212DA37401807AE095
:1020B30024F590042FF0900222E0F9122135500408
:1020C300D2F08002C2F0A2F0E433900432F0900226
:1020D3002AE0F8A3E0F990042BE8F0A3E9F09004D8
:1020E30030742CF0A37402F0122143742C28F8747A
:1020F3000239F988828983E0900433F088828983E6
:10210300A3E0A2E7501C90042AE0F8900225E068BF
:102113006010900223E054DF64417006900434742D
:1021230001F0900225E090042AF01201FD1202ABA7
:1021330080197A237B02120299900223E0A2E522FE
:1021430090042FE0F83395E0F922F9D083D082028E
:10215300010B74F7120499EAFEEBFF12027BE964A8
:102163000170047901804E1201FD900220EEF0A36C
:10217300EFF0900430E4F0A3F090021B04F090041D
:10218300361203EB90021C1203F71221BDA3A3E046
:10219300F91202871221CFFAA3E0FB12028D12215A
:1021A300BDE0FAA3E0FB1202937ACD7B011202B1E8
:1021B3001201F779007F010205051221C122900265
:1021C30020E0F8A3E0F5838882A3A322900220E015
:1021D300F8A3E0F5838882E022C082C083900434B0
:1021E300E002214D74F21204998A088B09890AECE2
:1021F300FEEDFF1201FD122143850A0CC3E8950C85
:10220300E99400A2D265D033500AE0F50C3395E08F
:10221300F50D8003750D00780C120602900430E072
:10222300FCA3E0FDAA08AB091202C374021204580E
:10223300EE4F601E120281E9F50890043312214625
:10224300E8C39508F8E99400F98E828F83E8F0A338
:10225300E9F0900434E4F01201F7122143850A08EF
:10226300C3E89508E99400A2D265D0335004E0F99D
:102273008002A90A7F06020505C082C08390021B63
:102283007401F012029F02214E74F012049974FB40
:10229300120442740112048DEAF0A3EBF0A3ECF0F4
:1022A300A3EDF07AD57B03740112048DC082C08341
:1022B30090043678081203CDD083D08278081202B6
:1022C300CF851082851183501C7401F012048D7820
:1022D300081203CD78081203BC740112048D780828
:1022E3001203DC8002E4F0740112048D780C1203F3
:1022F300CD90044A78081203CD780C790812037E36
:10230300E50824308A828B83F0A3AA82AB8374010D
:1023130012048D780C1203CD90044A78081203CD71
:10232300780C790812037E740112048D780C120361
:10233300DC740112048D78081203CDE508450945C4
:102343000A450B70A2851082851183E0A2E0500B31
:102353008A828B83742DF0A30AAB838A828B83E4F6
:1023630012239E78D57903801D8A828B83E0FC88B3
:10237300828983E08A828B8312239EEC88828983FD
:10238300F0A3A882A983C3E89AE99B40DC7AD57BB2
:102393000374051204587F08020505F0EA24FF1AA6
:1023A300EB34FFFB22C082C083D2A4D2A37A027B88
:1023B3000012026FC2A38002D2A47A027B0012022F
:1023C3006FC2A47A027B0012026FD083D082020113
:1023D3000BC082C083C2A37A027B0012026FD2A415
:1023E3007A027B0012026FD2A380D8C082C083C25C
:1023F300A380C574F7120499E9FF7E08EFA2E750A2
:1024030004D2A38002C2A3D2A4C333FF12241D1E8D
:10241300EE70E980007F010205057A027B0012025B
:102423006FC2A47A027B0012026F2274F71204991E
:10243300E9FFEAFE122444EEF9122457120209803E
:10244300D412020379E012245B790012245BEFF9C2
:1024530012245B2212245B2212021512020F22C0E5
:1024630082C0837A62790012021B7AF77902120220
:102473001B7A07790312021B7A00790412021B7A72
:1024830000790512021B7A30790E12021B7A6A79DF
:102493000012021B0223CDC082C083E9146017140B
:1024A300601C14602114602614602B1460301460C7
:1024B3003514603A803F9002A2E0D2E08036900269
:1024C300A2E0D2E1802E9002A2E0D2E28026900226
:1024D300A2E0D2E3801E9002A2E0D2E48016900232
:1024E300A2E0D2E5800E9002A2E0D2E6800690023E
:1024F300A2E0D2E7F09002A2E0F590D083D082026E
:10250300010BC082C083E914601714601C1460219E
:1025130014602614602B14603014603514603A8004
:102523003F9002A2E0640180369002A2E064028040
:102533002E9002A2E0640480269002A2E064088048
:102543001E9002A2E0641080169002A2E064208034
:102553000E9002A2E0644080069002A2E06480F044
:102563000224F8899002010BC082C083906189E044
:102573004460F090619074D5F09061FA7409F09022
:1025830061B27415F09061AEE4F01202AB79008091
:1025930004F0EBA3F0D083D08202010B794902014E
:1025A3000BC082C08375F005E9A424D490618F80A9
:1025B300E3C082C083EA90617480D6C082C083EA9C
:1025C30090617280CCC082C083800DE5D98A828BF2
:1025D30083F0A3AA82AB8319E970F002259875E111
:1025E300EC75E1E302010BC082C0839061A3E0C2FA
:1025F300E6F0539AFE022598C082C0839061A3E05F
:10260300D2E6F0439A01022598C082C083E5A8F878
:10261300C2AF9002CDEAF0A3EBF0E8A2E792AF02DB
:102623002598C082C08379001201F1D083D0820241
:10263300010BEBC313FBEA13FAEAF8EBF9E824FF07
:10264300FAE934FFFBE849601200000000000000D3
:1026530000000000000000000080DE02010B74F7A0
:10266300120499EAFEEBFFEEF8EFF9E824FFFEE926
:1026730034FFFFE84960097AE87B0312026F80E7C1
:102683007F01020505C082C08312026953F5EFD2B0
:10269300A443FF1053F5F7D2A343FF0853F5F753B1
:1026A300FFF743F70853F5FEC2A043FF0153F3BFFF
:1026B300C28643FD4075F4007590FF75FEFF9002DE
:1026C300A2E4F07590001202331202211202B71233
:1026D30001F7D083D08202010B74F6120499740AB5
:1026E30012048DE0FEA3E0FFEAF8EBF980188C8278
:1026F3008D83E088828983F0A3A882A9838C828D4D
:1027030083A3AC82AD838E088F09E50824FF1EE501
:102713000934FFFFE508450970D47F02020505C0AF
:1027230082C08353F1FE43F30C53F2F37586807535
:10273300C48075C2D875C50B75C402438640D2AA3E
:1027430075C10090034FE4F0A3F09003D2F0A3F01F
:10275300900351F09003D4F0D083D08202010BE5B3
:10276300C65480F853BEFBE59DA2E550FAE59DA251
:10277300E240F4007401697007744948F5C68005A6
:10278300E9700288C6E5C6F8E59E6870FB43BE049F
:1027930002010BC082C0838A828B838001A3E07015
:1027A300FCE582C39AFAE5839BFBD083D0820201C6
:0B27B3000BD2AF02010BC2AF02010B02
:04000005000000E314
:00000001FF
