:020000040000FA
:030000000200E318
:03001300020E4A90
:03003300020DBB00
:03003B00020E9919
:03006B00020CF58F
:03007B00020D4E25
:10008300020E1200000080FB12013FB900030200C0
:10009300CDE4900101786479038002F0A3D8FCD900
:1000A300FA900364AA82AB83900142788B79018032
:1000B30015E493A3AC82AD838A828B83F0A3AA82D7
:1000C300AB838C828D83D8E9D9E77582EB75830E78
:1000D30074001200F575828675830074001200F5B2
:1000E30075D0007581BF751001751101759F0002F0
:1000F300008BC0F0F5F0E59F5407C0E0E59F54F88E
:1001030045F0D0F0F59FE473859FF053F0F8D0E00D
:1001130045F0F59F22D083D082E59F5407C0E0E4E9
:1001230093C0E0740193C0E07402935407C0F0F5E8
:10013300F0E59F54F845F0D0F0F59F22790122496C
:100143002E4F2E4C5F53797374656D3A535F4300A2
:100153004D6F6465002C50726F6772616D0042725F
:1001630065616B00496E7075743A00496E70757401
:100173002044656C61793A202020003030303020F3
:100183006D73202020202020202020004E6F7468D3
:10019300696E67005365745F74696D655F5375635A
:1001A3006573732100FF00000000000000000000E1
:1001B30000000000003031323334353637383941EE
:1001C30042434445460A000000120118631000121E
:1001D3000118D81100120118951200120118071303
:1001E300001201186C18001201186119001201188D
:1001F300E81900120118F31900120118881A0012E5
:100203000118A21D00120118D81E00120118DB1ECE
:1002130000120118DE1E001201187C1E00120118C4
:10022300CE1E00120118D31E001201180C16001264
:1002330001183816001201185216001201185A1626
:10024300001201186216001201188B160012011811
:10025300D816001201180117001201184F170012C7
:100263000118871700120118711300120118A11346
:1002730000120118D11300120118571400120118AB
:100283008C14001201182915001201187815001298
:100293000118B41B001201181F1C00120118801C46
:1002A300001201183F1D001201184F1D0012011802
:1002B3007B1D00120118851C00120118B91C0012C5
:1002C3000118BE1C00120118CE1C00120118D81C04
:1002D30000120118E21C00120118FB1C0012011885
:1002E300041D00120118151D00120118261D00120D
:1002F30001183C1E00120118981A00120118F61D6D
:1003030000120118B01E00C3E09608A3E09608A3EC
:10031300E09608A3E096A2D265D03322E4CFC0E0F2
:10032300E4CEC0E0E4CDC0E0E4CCC0E075F020C38F
:10033300E633F608E633F608E633F608E633F6184E
:100343001818EC33FCED33FDEE33FEEF33FFC3EC53
:100353009709ED9709EE9709EF97191919400FFFC0
:10036300EC97FC09ED97FD09EE97FE191906D5F0F8
:10037300BEECF709EDF709EEF709EFF7191919D0F4
:10038300E0FCD0E0FDD0E0FED0E0FF221203F7183E
:10039300181812031F1203E6191919221203E6197A
:1003A3001919080808E618181820E7E012031F12A5
:1003B30003F718181822090909E719191920E7DCA6
:1003C300080808E618181820E70302031F1203F7AA
:1003D30018181812031F1203F71818181203E61936
:1003E300191922E4C397F709E497F709E497F70982
:1003F300E497F722E4C396F608E496F608E496F643
:1004030008E496F622E0F608A3E0F608A3E0F6086F
:10041300A3E0F622E6F008A3E6F008A3E6F008A3BB
:10042300E6F022E0FAA3E0FBA3E0FCA3E0FD22EA6E
:10043300F0A3EBF0A3ECF0A3EDF022CAC0E0E6F0EA
:10044300A308DAFAD0E0FA22600D08C6A2E713C6C1
:1004530018C613C6D5E0F322700422600D18C6C374
:1004630033C608C633C6D5E0F41822251010AF08EA
:10047300F510400215118008F51040021511D2AF96
:1004830022C0D0251010AF08F510500205118008C6
:10049300F51050020511D2AFD0D0222510F58210ED
:1004A300AF08F510400215118008F5104002151130
:1004B300D2AF851183222510F582E43511F583220D
:1004C300E4732510C582C0E0E51134FFC583C0E0A5
:1004D300E510C3958224F810AF0885831185821037
:1004E3008008858311858210D2AFCEF0A3E520F07A
:1004F300A37808E608F0A3DEFAEFF0A3E58124FA77
:10050300F8E608F0A3E608F0A3E608F0A30808E677
:1005130008F0A3E608F0A315811581D0E0FED0E032
:10052300F8158115811581E8C0E0EEC0E022851140
:1005330083851082E0A3FEE0A3F5207808E0A3F60C
:1005430008DFFAE0A3FFE0A3C0E0E0A3C0E0E0A37C
:10055300C0E0E0A3C0E0E0A3C0E010AF08858210D4
:100563008583118008858210858311D2AFD083D013
:100573008202010BC0D02510C582C0E0E51134FF13
:10058300C583C0E0E510C3958224F310AF088583CB
:10059300118582108008858311858210D2AFC8F03F
:1005A300A3E9F0A3EAF0A3EBF0A37908E709F0A32A
:1005B300D8FAECF0A3EDF0A3EEF0A3EFF0A3D0E0B4
:1005C300F0A3D0E0F0A3D0E0F0A3E520F0A3E5F0A2
:1005D300F0A322851183851082E0C0E0A3E0F9A394
:1005E300E0FAA3E0FBA37808E0F608A3DFFAE0FC57
:1005F300A3E0FDA3E0FEA3E0FFA3E0C0E0A3E0C00F
:10060300E0A3E0F5D0A3E0F520A3E0A3F5F010AF5D
:10061300088583118582108008858311858210D215
:10062300AFD082D083D0E0F8D0E03274028000C033
:10063300E0F40412049ED0E012043E22D083D08260
:10064300ECC0E0EDC0E0E493A3FCE493A3FDED4C28
:10065300600D12068BEC24FFFCED34FFFD80EFE40C
:1006630093A3FCE493A3FDED4C600D1206CAEC24A6
:10067300FFFCED34FFFD80EFD0E0FDD0E0FCE49320
:10068300A3C0E0E493C0E022C0E0C3E493960874FF
:1006930001939618400FE4936670080874019366FB
:1006A3001870007019A3A3C3E4939608740193967A
:1006B30018A3A3400DD0E0D0E0D0E002067BA3A3B3
:1006C300A3A3A3A3D0E022C0E0C0F088F0E4936624
:1006D30070080874019366187000A8F0A3A3700B48
:1006E300D0F0D0E0D0E0D0E002067BA3A3D0F0D0DE
:1006F300E0220000000000000000000000000000F5
:100703000000000070F8F87000000000000D0D00FC
:100713000000001C3C0000003C1C00000000000026
:1007230000000020F8F820F8F82000020F0F020F55
:100733000F020070F8888E8E983000060C08383847
:100743000F07006060000080C06000080C06030112
:100753000C0C0000B0F8C878B08000070F08090738
:100763000F0800203C1C00000000000000000000F7
:1007730000000000E0F018080000000003070C0868
:1007830000000000000818F0E000000000080C075B
:10079300030080A0E0C0C0E0A080000203010103C9
:1007A3000200808080F0F080808000000007070056
:1007B300000000000000000000000000101E0E00FA
:1007C30000008080808080808000000000000000A6
:1007D300000000000000000000000000000C0C00FE
:1007E300000000000080C060301800060301000014
:1007F300000000F0F888C868F8F000070F0908083F
:100803000F0700002030F8F80000000008080F0F61
:1008130008080010180888C87830000C0E0B090867
:100823000C0C001018888888F87000040C0808085D
:100833000F070080C06030F8F80000010101090FC4
:100843000F0900F8F8888888880800040C0808084D
:100853000F0700E0F0988888800000070F08080859
:100863000F070018180888C878380000000F0F0019
:1008730000000070F8888888F87000070F080808DF
:100883000F070070F8888888F8F000000808080C43
:1008930007030000003030000000000000060600DF
:1008A300000000000030300000000000080E0600C9
:1008B30000000080C0603018080000000103060C2F
:1008C3000800004040404040400000020202020293
:1008D30002000008183060C0800000080C06030105
:1008E30000000030380888C87830000000000D0D83
:1008F300000000F0F808C8C8F8F000070F080B0B59
:100903000B0100C0E0301830E0C0000F0F010101FF
:100913000F0F0008F8F88888F87000080F0F080810
:100923000F0700E0F018080818300003070C080848
:100933000C060008F8F80818F0E000080F0F080C80
:1009430007030008F8F888C8183800080F0F0809CB
:100953000C0E0008F8F888C8183800080F0F0801B3
:10096300000000E0F018080818300003070C09091C
:10097300070F00F8F8808080F8F8000F0F000000E0
:100983000F0F000008F8F80800000000080F0F0818
:1009930000000000000008F8F80800060E08080F21
:1009A30007000008F8F880E0781800080F0F00032C
:1009B3000F0C0008F8F80800000000080F0F0808E3
:1009C3000C0E00F8F8306030F8F8000F0F0000004C
:1009D3000F0F00F8F870E0C0F8F8000F0F000001E7
:1009E3000F0F00E0F0180818F0E00003070C080CE4
:1009F30007030008F8F88888F87000080F0F08004C
:100A0300000000F0F8080808F8F000030704071EC8
:100A13001F130008F8F88888F87000080F0F00010A
:100A23000F0E003078C88888383000060E08080991
:100A33000F06180808F8F80808180000080F0F0830
:100A4300000000F8F8000000F8F800070F08080895
:100A53000F0700F8F8000000F8F8000103060C0681
:100A6300030100F8F8000000F8F8000F0F06030672
:100A73000F0F003878C080C07838000E0F010001D6
:100A83000F0E003878C080C078380000080F0F0FB1
:100A9300080000381888C8683818000E0F090808BD
:100AA3000C0E0000F8F80808000000000F0F0808FB
:100AB3000000003870E0C080000000000000010367
:100AC300070E00000808F8F80000000008080F0FE0
:100AD30000000010180C060C1810000000000000A5
:100AE3000000000000000000000000202020202063
:100AF3002000000000060E080000000000000000B7
:100B030000000000404040C0800000060F090907B4
:100B13000F080008F8F840C0800000080F07080815
:100B23000F070080C0404040C08000070F0808083E
:100B33000C04000080C048F8F80000070F080807FD
:100B43000F080080C0404040C08000070F0909091A
:100B53000D050080F0F88898300000080F0F08009A
:100B630000000080C0404080C04000133724243F71
:100B73001F000008F8F88040C08000080F0F000035
:100B83000F0F00000040D8D80000000000080F0F2E
:100B930008000000000040D8D80000183820203F8B
:100BA3001F000008F8F80080C04000080F0F010381
:100BB3000E0C00000008F8F80000000000080F0FFA
:100BC30008000080C0808080C080000F0F000F00ED
:100BD3000F0F0040C0804040C08000000F0F000096
:100BE3000F0F0080C0404040C08000070F08080876
:100BF3000F070040C0804040C08000203F3F2404D6
:100C030007030080C0404080C04000030704243F26
:100C13003F200040C080C040C08000080F0F080084
:100C230001010080C0404040C08000040D090B0A50
:100C33000E04004040F0F8404000000000070F0899
:100C43000C0400C0C00000C0C00000070F08080764
:100C53000F0800C0C0000000C0C0000103060C065E
:100C6300030100C0C0000000C0C000070F0C060C49
:100C73000F070040C0800080C04000080C07030736
:100C83000C0800C0C0000000C0C0000327242434A7
:100C93001F0F00C0C04040C0C04000080C0E0B092D
:100CA3000C0C008080F078080800000000070F0893
:100CB300080000000078780000000000000F0F001B
:100CC300000000080878F08080000008080F070083
:100CD3000000001018081810180800000000000099
:100CE30000000000000E0A0E0000000000000000DB
:100CF3000000C0E074F1120577C2C5E58960477E44
:100D030000750801750900EE780812045BAF08E569
:100D1300895F602BEEC333F8E433F9742528F58239
:100D23007402120DA46014EEC333F8E433F974258E
:100D330028F5827402120DAF1204C3EFF452890E28
:100D4300EEC3940840BB7F020205D6C0E074F112E3
:100D53000577C2EBE58A60477E00750801750900D7
:100D6300EE780812045BAF08E58A5F602BEEC333AD
:100D7300F8E433F9743528F5827402120DA4601473
:100D8300EEC333F8E433F9743528F5827402120D97
:100D9300AF1204C3EFF4528A0EEEC3940840BB8033
:100DA300A539F583E0F8A3E0F9E8492239F583E0B2
:100DB300F8A3E0F583888222C0E074F1120577C2BC
:100DC300E8E58B60477E00750801750900EE780839
:100DD30012045BAF08E58B5F602BEEC333F8E4339B
:100DE300F9744528F5827402120DA46014EEC3331E
:100DF300F8E433F9744528F5827402120DAF120436
:100E0300C3EFF4528B0EEEC3940540BB020D49C0F1
:100E1300E074F2120577A2AFE433FEC2AFE5E9A2B4
:100E2300E6501A900250E0F8A3E0F9E8496008E0C0
:100E3300F58388821204C3759B0053E9BFEEA2E0D9
:100E430092AF7F010205D6C0E0C0D0E8C0E0E9C0A0
:100E5300E0C082C083E5C1C0E09002D3E0F87452E1
:100E630028F58274023400F583D0E0F09002D2E0DA
:100E7300F8A3E0687004E595A3F09002D3E004F0D2
:100E8300C394804002E4F0D083D082D0E0F9D0E074
:100E9300F8D0D0D0E032C0E0C0D0E8C0E0C008C095
:100EA30009C082C083900355E0F8A3E0687008533B
:100EB3009AFBA374018026C2E9900355E0F50874F8
:100EC300012508F074D52508F58274023400F583F2
:100ED300E0F5C1900355E0C394804002E4F0D08371
:100EE300D082D009D00880A69001827411F0A3F0BB
:100EF300A304F0A37401F012020279081202927A99
:100F03002C7B011202149001807444F0A37422F02C
:100F13007A807B011201EA1201FC900199742CF092
:100F2300A37401F07C647D037A00F9120286120136
:100F3300F0E9701979071202987A0A7B001202B05D
:100F430080EC7CB17D037A0079011202867C007DFE
:100F530000797F7A017B011201F6E960D1900101EA
:100F6300E014600B146043147003020FF080D3127B
:100F7300102F7B31121050800579011201CC7C00B7
:100F83007D00797F7A017B011201F6E960BF900150
:100F930001E0640160E37C837D037A0A7902120233
:100FA300867AB87B0B1202B080A312102F7B321209
:100FB3001050900198E4F07C897D03FA79021202C3
:100FC300867A2C7B011202B01201D87C007D007955
:100FD3007F7A017B011201F6E97003020F50900141
:100FE30001E0640270B079021201CC80DE900198B6
:100FF300E4F07C907D03FA79011202867CA07D03E4
:101003007A0079021202867C007D00797F7A017B67
:10101300011201F6E97003020F50900101E064032D
:101023006003020F9979031201CC80DB7AFA7B000B
:1010330012021412103A2212027A7C757D037A008E
:10104300790112028622D083D08202010B7A0479BD
:10105300011202807C7A7D037A05790112028622CD
:1010630074F51204C5E914600C1460431470030290
:1010730011310211877E007F00EE04F91201D2754F
:10108300080075090074862508F582740135091274
:1010930011A712119794081211B640E91211C01248
:1010A300118C9404EF1211B8400302118780CA75A2
:1010B300080075090074922508F58274013509F555
:1010C30083E0F91201D27E007F0074862EF58274CC
:1010D300013F1211A712118C9408EF1211B840EAC4
:1010E3001211C012119794041211B6400302118712
:1010F30080C37A2C7B011202B01201DE1201DEE9F9
:10110300C3940A50291201DEE9FC900198E0F874B7
:101113008E28F58274013400F583E9F07B00900199
:1011230098E0FA790212028C900198E004F09001A1
:1011330098E0C3940440BB90018EE0F875F0E8A4F6
:10114300C8AAF075F003A42AF9A3E075F064A4FA21
:10115300ABF0E82AF8E93BF9A3E075F00AA4FAAB8F
:10116300F0E82AF8E93BF9A3E0FAE82AF8E93400C1
:10117300F9900199E8F0A3E9F07CB97D037A00794D
:10118300011202867F03020531EE24010EEF3400C3
:10119300FFC3EE22E5082401F508E5093400F5094B
:1011A300C3E50822F583E0F912029E7AFA7B001266
:1011B30002B022E5099400A2D265D033227AC87B1B
:1011C30000120214790012029E900199E0FAA3E042
:1011D300FB1202B02274F71204C5E914600C146008
:1011E3002D14604E14606B021277900196743112C5
:1011F300128D7403F0A37407F0A3740FF0A3741F8C
:10120300F0A3743FF0A3747FF0A374FF8065900193
:1012130096743212127C7411F0A3E4F0A37433F0C9
:10122300A3E4F0A37477F0A3E4F0A374FFF0A3E4C2
:101233008041900196743312127C7481F0A374423E
:10124300F0A37424F0A37418F0A3743CF0A3747E89
:1012530080D7900196743412128D04F0A37404F0B5
:10126300A37408F0A37410F0A37420F0A37440F0E7
:10127300A37480F07F0102053112128022F0FB7A01
:101283000D7901120280900186221212807401F0FE
:10129300A322C082C083802474346B70061212F6BA
:1012A3007404F0900198E02406FA79021202809007
:1012B3000198E004F07A2C7B011202B0900198E0CF
:1012C300C39404502B120262E9FB60E974316B7022
:1012D300071212F6740180CA74326B70071212F689
:1012E300740280BE74336B70AF1212F6740380B253
:1012F300021049900198E0F8749228F58274013441
:1013030000F58322C082C083120262E9900197F044
:101313006431700479018053E0643270047902808F
:101323004AE06433700479038041E06434700479E3
:10133300048038E0643570047905802FE0643670EA
:101343000479068026E0643770047907801DE06421
:1013530038700479088014E0643970047909800BCB
:10136300E06430700479008002790B02104974F64E
:101373001204C5C290C2A07A00750880750900EAFC
:10138300780812044BE508596004D2928002C29295
:10139300C291D2910AEAC3940840DE02144874F65B
:1013A3001204C5D290C2A07A00750880750900EABC
:1013B300780812044BE508596004D2928002C29265
:1013C300C291D2910AEAC3940840DE021448C08253
:1013D300C08379E21202687A057B001202B079E2D7
:1013E3001202687A057B0012143B12143B1202B0FE
:1013F30079F8120268790112026879A312026879F6
:10140300261202687981120268792012026879C073
:1014130012026879A112026879A612026879AF12E2
:1014230002687A147B001202B07940120268120239
:101433007AD083D08202010B1202B0792F12026894
:101443007A027B0022D2A0D292900224E0F5907F10
:101453000202053174F71204C57EB0EE1214797FCF
:1014630080790012026E1FEF70F70EEEC394B8403E
:10147300EA7F01020531F912026812148122791000
:1014830012026879041202682274F01204C58B0DEB
:10149300E9C33324AEF508EA33333354F82404F5AF
:1014A3000CC4540F4410FE740F550CFF74E0250D4B
:1014B300C394604003750D20850D0AE50A24E0F509
:1014C3000AE434FFF50B7404780A12045B850A0EF0
:1014D300850B0F12151EA908120268750A008011E8
:1014E3007408650A700B74012508F9120268121555
:1014F3001E74F5250EF5827406350FF583E493F912
:1015030012026EE50E2401F50EE50F3400F50F050A
:101513000AE50AC3941040C8021607EEF9120268DE
:10152300EFF91202682274F21204C5E9FE8A088CEC
:101533000C8D0DAA0CAB0D120304EAF5097F008094
:10154300158F0AE50C250AF582E50D121569E0FBF6
:10155300E5081215D70FEFC3950940E57F0602058D
:10156300317F070205313400F58322FCFD1202F8B6
:101573008A0C8B0D2274F11204C5E9FEEAFF8B0E6F
:101583008C09EB7034750800ECFAE4FB12156E80DD
:1015930011FB1215DF850C82850D83A385820C85D3
:1015A300830D850C82850D83E070E6E508C3940303
:1015B300501F7B201215DF80F27401650E7012EC50
:1015C3001215EB12028085090AE50A12160112159B
:1015D300D70215642FFAEEF912028022EF2508FADA
:1015E300EEF9120280050822C41215F022540FF8F6
:1015F30074DA28F58274033400F583E0FB221215B4
:10160300F07401227F08020531C082C083D2A4D2C4
:10161300A37A027B001202AAC2A38002D2A47A0296
:101623007B001202AAC2A47A027B001202AAD08310
:10163300D08202010BC082C083C2A37A027B001254
:1016430002AAD2A47A027B001202AAD2A380D8C033
:1016530082C083C2A380C5C082C083D2A380BD746D
:10166300F71204C5E9FF7E08EFA2E75004D2A38076
:1016730002C2A3D2A4C333FF1216C71EEE70E980C1
:1016830002EEF97F0102053174F71204C57E00D220
:10169300A353F5F753FFF753F7F753F77F7A027B1B
:1016A300001202AA7F08D2A4EEC333FEA2A3500302
:1016B300D2E0FE1216C71FEF70EC53F5F7D2A34327
:1016C300FF0880BD7A027B001202AAC2A47A027BC1
:1016D300001202AA2274F71204C5E9FFEAFE1216E9
:1016E300EEEEF9121733120232809812022C79E0CF
:1016F3001217377900121737EFF91217372274F6DA
:101703001204C512022C79E0121733790012173331
:10171300790812173312173E12023812024AE9F5FA
:101723000812023E120232EEAA08FB7F02020531C2
:101733001217372212024412023822120232120204
:101743002C79E112173712024AE9FE22C082C083C4
:101753007A6279001202507AF779021202507A07FC
:1017630079031202507A0079041202507A00790543
:101773001202507A30790E1202507A6A79001202FC
:101783005002163174F61204C51202568A088B09E8
:10179300780812063F000014008200F2178400F656
:1017A300178800FA1790001E18A0002A180201FEDD
:1017B3001704010218080106181001221820012E2F
:1017C3001802020A1804020E180802121810022640
:1017D3001820023218020416180404EE1708041A1B
:1017E300181004361820043A183E187E30804E7EB6
:1017F30031804A7E3280467E3380427E34803E7E14
:1018030035803A7E3680367E3780327E38802E7E33
:1018130039802A7E2A80267E2380227E41801E7E76
:1018230042801A7E4380167E4480127E45800E7E5F
:1018330046800A7E5580067E4E80027E0090024FCF
:10184300E004F0C394C94008E4F07A6AF912025044
:10185300EE60117AAA7B0A1202087A147B00120244
:10186300B012020EEEF902172EC082C0831202E0FC
:1018730012022079017AA47B011202D49001A4E020
:10188300C2E7F06405703479051219415004D2F0AF
:101893008002C2F0A2F0E4339003D2F09001A9E0F9
:1018A300A2E740030219399001A7E0F890019BE0F9
:1018B300686003021939A37401807AE024F5900368
:1018C300CFF09001A4E0F91219415004D2F0800244
:1018D300C2F0A2F0E4339003D2F09001ACE0F8A39D
:1018E300E0F99003CBE8F0A3E9F09003D074AEF0F5
:1018F300A37401F012194F74AE28F8740139F988F2
:10190300828983E09003D3F088828983A3E0A2E7EE
:10191300501C9003CAE0F89001A7E06860109001A2
:10192300A5E054DF644170069003D47401F0900184
:10193300A7E09003CAF01202261202E680197AA5E4
:101943007B011202D49001A5E0A2E5229003CFE02F
:10195300F83395E0F922F9D083D08202010B74F7B2
:101963001204C5EAFEEBFF1202B6E96401700479C2
:1019730001804E1202269001A2EEF0A3EFF0900335
:10198300D0E4F0A3F090019D04F09003D612042656
:1019930090019E1204321219C9A3A3E0F91202C2E4
:1019A3001219DBFAA3E0FB1202C81219C9E0FAA369
:1019B300E0FB1202CE7AE47B011202EC12022079E0
:1019C300007F010205311219CD229001A2E0F8A394
:1019D300E0F5838882A3A3229001A2E0F8A3E0F5B7
:1019E300838882E022C082C0839003D4E002195925
:1019F30074F21204C58A088B09890AECFEEDFF1202
:101A0300022612194F850A0CC3E8950CE99400A22B
:101A1300D265D033500AE0F50C3395E0F50D800321
:101A2300750D00780C12062E9003D0E0FCA3E0FDA8
:101A3300AA08AB091202FE7402120484EE4F601E60
:101A43001202BCE9F5089003D3121952E8C39508B2
:101A5300F8E99400F98E828F83E8F0A3E9F090030C
:101A6300D4E4F012022012194F850A08C3E895083E
:101A7300E99400A2D265D0335004E0F98002A90AA8
:101A83007F06020531C082C08390019D7401F0126C
:101A930002DA02195A74F01204C574FB12046E744C
:101AA300011204B9EAF0A3EBF0A3ECF0A3EDF07A92
:101AB300587B0374011204B9C082C0839003D678A3
:101AC30008120408D083D082780812030A85108292
:101AD300851183501C7401F01204B97808120408AC
:101AE30078081203F774011204B9780812041780F6
:101AF30002E4F074011204B9780C1204089003EAAA
:101B03007808120408780C79081203B9E508243020
:101B13008A828B83F0A3AA82AB8374011204B978FF
:101B23000C1204089003EA7808120408780C790868
:101B33001203B974011204B9780C12041774011258
:101B430004B97808120408E5084509450A450B70ED
:101B5300A2851082851183E0A2E0500B8A828B83D9
:101B6300742DF0A30AAB838A828B83E4121BAA78B9
:101B7300587903801D8A828B83E0FC88828983E005
:101B83008A828B83121BAAEC88828983F0A3A882A2
:101B9300A983C3E89AE99B40DC7A587B0374051256
:101BA30004847F08020531F0EA24FF1AEB34FFFBBB
:101BB30022C082C083E914601714601C14602114CE
:101BC300602614602B14603014603514603A803F33
:101BD300900224E0D2E08036900224E0D2E1802E0D
:101BE300900224E0D2E28026900224E0D2E3801E19
:101BF300900224E0D2E48016900224E0D2E5800E25
:101C0300900224E0D2E68006900224E0D2E7F0902E
:101C13000224E0F590D083D08202010BC082C083FE
:101C2300E914601714601C14602114602614602BDF
:101C330014603014603514603A803F900224E064ED
:101C4300018036900224E06402802E900224E06436
:101C5300048026900224E06408801E900224E0643D
:101C6300108016900224E06420800E900224E06429
:101C7300408006900224E06480F0021C12899002E6
:101C8300010BC082C083906189E04460F090619051
:101C930074D5F09061FA7409F09061B27415F09004
:101CA30061AEE4F01202E679008004F0EBA3F0D019
:101CB30083D08202010B794902010BC082C0837574
:101CC300F005E9A424D490618F80E3C082C083EA45
:101CD30090617480D6C082C083EA90617280CCC068
:101CE30082C083800DE5D98A828B83F0A3AA82AB5D
:101CF3008319E970F0021CB275E1EC75E1E30201AE
:101D03000BC082C0839061A3E0C2E6F0539AFE0247
:101D13001CB2C082C0839061A3E0D2E6F0439A0173
:101D2300021CB2C082C083E5A8F8C2AF900250EA99
:101D3300F0A3EBF0E8A2E792AF021CB2C082C0832B
:101D4300790012021AD083D08202010BEBC313FB7A
:101D5300EA13FAEAF8EBF9E824FFFAE934FFFBE8BF
:101D630049601200000000000000000000000000B5
:101D730000000080DE02010B74F71204C5EAFEEBDB
:101D8300FFEEF8EFF9E824FFFEE934FFFFE84960CE
:101D9300097AE87B031202AA80E77F01020531C0BA
:101DA30082C0831202A453F5EFD2A443FF1053F56C
:101DB300F7D2A343FF0853F5F753FFF743F708534D
:101DC300F5FEC2A043FF0153F3BFC28643FD407536
:101DD300F4007590FF75FEFF900224E4F075900007
:101DE30012027412025C1202F2120220D083D08219
:101DF30002010B74F61204C5740A1204B9E0FEA3BF
:101E0300E0FFEAF8EBF980188C828D83E088828901
:101E130083F0A3A882A9838C828D83A3AC82AD8334
:101E23008E088F09E50824FF1EE50934FFFFE50846
:101E3300450970D47F02020531C082C08353F1FE8D
:101E430043F30C53F2F375868075C48075C2D8755D
:101E5300C50B75C402438640D2AA75C1009002D255
:101E6300E4F0A3F0900355F0A3F09002D4F09003B4
:101E730057F0D083D08202010BE5C65480F853BEDD
:101E8300FBE59DA2E550FAE59DA2E240F400740152
:101E9300697007744948F5C68005E9700288C6E58C
:101EA300C6F8E59E6870FB43BE0402010BC082C006
:101EB300838A828B838001A3E070FCE582C39AFA54
:101EC300E5839BFBD083D08202010BD2AF02010BCF
:0E1ED300C2AF02010B02010B02010B02010B58
:04000005000000E314
:00000001FF
