:020000040000FA
:030000000200E318
:0300130002092DB2
:0300330002089E22
:03003B0002097C3B
:03006B000207D8B1
:03007B0002083147
:100083000208F500000080FB12013FB900030200E3
:10009300CDE4900101785679058002F0A3D8FCD90C
:1000A300FA900556AA82AB83900142780C790280BC
:1000B30015E493A3AC82AD838A828B83F0A3AA82D7
:1000C300AB838C828D83D8E9D9E77582CE7583099A
:1000D30074001200F575828675830074001200F5B2
:1000E30075D0007581BF751001751101759F0002F0
:1000F300008BC0F0F5F0E59F5407C0E0E59F54F88E
:1001030045F0D0F0F59FE473859FF053F0F8D0E00D
:1001130045F0F59F22D083D082E59F5407C0E0E4E9
:1001230093C0E0740193C0E07402935407C0F0F5E8
:10013300F0E59F54F845F0D0F0F59F22790122496C
:100143002E4F2E4C5F53797374656D3A4D5F4100AA
:100153005461726765743A4142435F5F5F00496E61
:100163007075742050726F6772616D5F31005F5FED
:10017300005072657373202A206F722023005F5F23
:10018300205072657373202A206F722023005F5FF3
:1001930030306D732044656C617920202020005439
:1001A3006172676574203A20312032203300536531
:1001B3006E645F5A6F6E65203A20535F412000538F
:1001C300656E645F5A6F6E65203A20535F4220006C
:1001D30053656E645F5A6F6E65203A20535F432008
:1001E3000053656E645F4D6F6465203A20312000D3
:1001F30053656E645F4D6F6465203A20322000536F
:10020300656E645F4D6F6465203A20332000536C44
:100213006176652020576F6B696E670050726F6758
:1002230072616D3A00410042004300546172676598
:10023300743A41424300FF00000000000000000048
:100243000000000000000A000000120118DF150082
:100253001201180B16001201182516001201182D91
:1002630016001201183516001201185E160012014D
:1002730018A61600120118C61600120118E316007C
:10028300120118EE09001201184E0A001201186B30
:100293000B00120118A10B00120118640C001201CB
:1002A30018D60C001201184D0D00120118BC0D00D8
:1002B300120118550E00120118B40E00120118177E
:1002C3000F001201180C1000120118861000120101
:1002D3001888110012011893110012011828120036
:1002E300120118751A00120118AB1B00120118AE87
:1002F3001B00120118B11B001201184F1B00120141
:1003030018A11B00120118A61B00120118381200B5
:100313001201186412001201187E120012011886CD
:1003230012001201188E1200120118B712001201E6
:10033300180413001201182D13001201187B130067
:10034300120118B31300120118981400120118A710
:100353001400120118B61400120118E2140012015D
:1003630018591500120118801500120118A715005D
:10037300120118461900120118B1190012011812BE
:100383001A00120118221A001201184E1A00120143
:10039300183418001201186818001201186D18009B
:1003A3001201187D18001201188718001201189104
:1003B3001800120118BE1800120118DC18001201EF
:1003C30018EA1800120118F31800120118FC18009B
:1003D3001201180D19001201181E19001201183705
:1003E30019001201180F1B0012011818170012012F
:1003F30018C91A00120118831B00C3E09608A3E072
:100403009608A3E09608A3E096A2D265D03322E42F
:10041300CFC0E0E4CEC0E0E4CDC0E0E4CCC0E07502
:10042300F020C3E633F608E633F608E633F608E6CB
:1004330033F6181818EC33FCED33FDEE33FEEF33CF
:10044300FFC3EC9709ED9709EE9709EF971919196F
:10045300400FFFEC97FC09ED97FD09EE97FE191984
:1004630006D5F0BEECF709EDF709EEF709EFF7193A
:100473001919D0E0FCD0E0FDD0E0FED0E0FF22125D
:1004830004EA1818181204121204D919191922129D
:1004930004D9191919080808E618181820E7E012F2
:1004A30004121204EA18181822090909E71919197C
:1004B30020E7DC080808E618181820E703020412EE
:1004C3001204EA1818181204121204EA181818125F
:1004D30004D919191922E4C397F709E497F709E432
:1004E30097F709E497F722E4C396F608E496F6082B
:1004F300E496F608E496F622E0F608A3E0F608A3ED
:10050300E0F608A3E0F622E6F008A3E6F008A3E687
:10051300F008A3E6F022E0FAA3E0FBA3E0FCA3E0EB
:10052300FD22EAF0A3EBF0A3ECF0A3EDF022CAC0A6
:10053300E0E6F0A308DAFAD0E0FA22700422600DB4
:1005430018C6C333C608C633C6D5E0F4182225102F
:1005530010AF08F510400215118008F51040021580
:1005630011D2AF22C0D0251010AF08F510500205EC
:10057300118008F51050020511D2AFD0D0222510FA
:10058300F58210AF08F510400215118008F51040F0
:10059300021511D2AF851183222510F582E435119E
:1005A300F58322E4732510C582C0E0E51134FFC54D
:1005B30083C0E0E510C3958224F810AF088583114A
:1005C3008582108008858311858210D2AFCEF0A377
:1005D300E520F0A37808E608F0A3DEFAEFF0A3E540
:1005E3008124FAF8E608F0A3E608F0A3E608F0A3EE
:1005F3000808E608F0A3E608F0A315811581D0E00A
:10060300FED0E0F8158115811581E8C0E0EEC0E069
:1006130022851183851082E0A3FEE0A3F5207808EC
:10062300E0A3F608DFFAE0A3FFE0A3C0E0E0A3C085
:10063300E0E0A3C0E0E0A3C0E0E0A3C0E010AF08A7
:100643008582108583118008858210858311D2AF3E
:10065300D083D08202010BC0D02510C582C0E0E553
:100663001134FFC583C0E0E510C3958224F310AFB6
:10067300088583118582108008858311858210D2B5
:10068300AFC8F0A3E9F0A3EAF0A3EBF0A37908E77E
:1006930009F0A3D8FAECF0A3EDF0A3EEF0A3EFF08A
:1006A300A3D0E0F0A3D0E0F0A3D0E0F0A3E520F0E6
:1006B300A3E5F0F0A322851183851082E0C0E0A3B7
:1006C300E0F9A3E0FAA3E0FBA37808E0F608A3DFD0
:1006D300FAE0FCA3E0FDA3E0FEA3E0FFA3E0C0E09B
:1006E300A3E0C0E0A3E0F5D0A3E0F520A3E0A3F5E9
:1006F300F010AF08858311858210800885831185EA
:100703008210D2AFD082D083D0E0F8D0E03274022E
:100713008000C0E0F404120581D0E012053122D03C
:1007230083D082ECC0E0EDC0E0E493A3FCE493A3A8
:10073300FDED4C600D12076EEC24FFFCED34FFFD64
:1007430080EFE493A3FCE493A3FDED4C600D12074B
:10075300ADEC24FFFCED34FFFD80EFD0E0FDD0E0F5
:10076300FCE493A3C0E0E493C0E022C0E0C3E493BD
:1007730096087401939618400FE493667008087402
:100783000193661870007019A3A3C3E493960874C9
:1007930001939618A3A3400DD0E0D0E0D0E0020768
:1007A3005EA3A3A3A3A3A3D0E022C0E0C0F088F07C
:1007B300E4936670080874019366187000A8F0A3A8
:1007C300A3700BD0F0D0E0D0E0D0E002075EA3A38B
:1007D300D0F0D0E022C0E074F112065AC2C5E58918
:1007E30060477E00750801750900EE780812053E22
:1007F300AF08E5895F602BEEC333F8E433F9741770
:1008030028F58274041208876014EEC333F8E433C6
:10081300F9741728F58274041208921205A6EFF4EE
:1008230052890EEEC3940840BB7F020206B9C0E0B2
:1008330074F112065AC2EBE58A60477E007508011F
:10084300750900EE780812053EAF08E58A5F602B54
:10085300EEC333F8E433F9742728F58274041208DD
:10086300876014EEC333F8E433F9742728F58274F0
:10087300041208921205A6EFF4528A0EEEC39408EE
:1008830040BB80A539F583E0F8A3E0F9E8492239B4
:10089300F583E0F8A3E0F583888222C0E074F112C7
:1008A300065AC2E8E58B60477E00750801750900AA
:1008B300EE780812053EAF08E58B5F602BEEC3337D
:1008C300F8E433F9743728F5827404120887601446
:1008D300EEC333F8E433F9743728F582740412084D
:1008E300921205A6EFF4528B0EEEC3940540BB02A1
:1008F300082CC0E074F212065AA2AFE433FEC2AF72
:10090300E5E9A2E6501A900442E0F8A3E0F9E849C9
:100913006008E0F58388821205A6759B0053E9BF42
:10092300EEA2E092AF7F010206B9C0E0C0D0E8C0FA
:10093300E0E9C0E0C082C083E5C1C0E09004C5E047
:10094300F8744428F58274043400F583D0E0F09001
:1009530004C4E0F8A3E0687004E595A3F09004C52F
:10096300E004F0C394804002E4F0D083D082D0E06E
:10097300F9D0E0F8D0D0D0E032C0E0C0D0E8C0E099
:10098300C008C009C082C083900547E0F8A3E068AF
:100993007008539AFBA374018026C2E9900547E0CF
:1009A300F50874012508F074C72508F5827404342A
:1009B30000F583E0F5C1900547E0C394804002E46D
:1009C300F0D083D082D009D00880A6120283120C03
:1009D300C96441600AE064426005E0644370031245
:1009E30002A17A2C7B0112038B80E3C082C0839027
:1009F30003017411F0A3F0A304F0A37401F0120235
:100A0300E312035B12027179081203737A2C7B01E0
:100A13001202F59002FF7433F0A3F07AFF7B021207
:100A230002C51202DD7C567D057A00790112036D41
:100A33007C677D057A00790212036D900317E4F059
:100A4300A3F0A3F0D083D08202010B74F61205A8A1
:100A530074FE120551900306E4F07F011203617ADC
:100A63002C7B0112038B7C757D057A0079011203BF
:100A73006D7C857D057A00790212036DEFFB7A0E9A
:100A8300790112028F802F12029BE9FA120C3F7434
:100A93000B6A601B120CC9FB900306E0FA79021281
:100AA30003677A647B001202F5900306E004F07A90
:100AB3002C7B0112038B900306E0C3940240C88F82
:100AC30082AA82EAC333F8E433F9740728F874037B
:100AD30039F9851082851183E075F00AA4FC85F04D
:100AE30008AD08740112059CE0F508EC2508FCED3F
:100AF3003400FD88828983ECF0A3EDF0888289833A
:100B0300E0C0E074022AF58274013400F583D0E07A
:100B1300F07C887D057A03790212036D120C39701B
:100B23000B7A647B001202F50F120B5B900305E056
:100B3300642A700A7A647B001202F5120B5B7A2C2A
:100B43007B0112038BEFC394095003020A7F7402E3
:100B53001205677F02020614900306E4F07C957D7C
:100B630005FA790212036D2274F41205A8E9FFEA6B
:100B7300FEEBFAE4FBFCFD1203EB8A0A8B0BAC0AD7
:100B8300AD0B74016F7006EEFA7901800974026F80
:100B93007007EEFA790212036D7F0402061474F7EC
:100BA3001205A874FE1205517CA57D057A00790211
:100BB30012036D900306E4F08024E0642A700F9022
:100BC3000306E4F07CA57D05FA790212036D7A2C05
:100BD3007B0112038B900306E0C39402502D7A2C01
:100BE3007B0112038B12029B12029BE9C3940A50EE
:100BF300E412029BE9FB120C3F900306E0FA790230
:100C030012028F900306E004F080CA120C3970AA16
:100C1300740112059CC082C08375F00A8510828519
:100C23001183E0A4D083D082F8E028900102F0740D
:100C3300021205678026120CCD642322900306E07E
:100C4300F8851082851183E58228F582E5833400D7
:100C5300F583E9F0227A00790212036D7F0102061F
:100C630014C082C083120CC96431700479018053AB
:100C7300E0643270047902804AE0643370047903DB
:100C83008041E06434700479048038E06435700492
:100C93007905802FE06436700479068026E0643796
:100CA30070047907801DE06438700479088014E0CB
:100CB300643970047909800BE06430700479008032
:100CC30002790B020A47120CCD22120343E9900367
:100CD30005F02274F71205A8E9FE7A647B0012027C
:100CE300F51203617CB67D057A00790212036DEE7D
:100CF30024BF600814601914602A803D7CC57D05FB
:100D03007A00790112036D79001202A77900802617
:100D13007CD67D057A00790112036D79011202A751
:100D2300790180127CE77D057A00790112036D79E0
:100D3300021202A779021202B97AE87B0312038B2B
:100D4300120E467C677D05020C5874F71205A8E95C
:100D5300FE12029BE9FF74FF2FC3940450F37A64DD
:100D63007B001202F5EF14600B14601C14602B144B
:100D7300603F80427CF87D057A00790212036D7A28
:100D830001EEF91202B3802E1202897C077D067AE6
:100D930000790212036D7A0280E71202957C167DB8
:100DA300067A00790212036D7A03EEF91202B38018
:100DB30005EEF91202AD020C5F74F71205A8E9FE05
:100DC3001203617C257D067A00790112036D7C3361
:100DD3007D067A00790212036DEE600814604914EF
:100DE300604C80557C3C7D067A05790112036D8049
:100DF3000C79071203797A0A7B0012038B1202D152
:100E0300E960EE7C007D0079FF7A007B021202D755
:100E1300E96026900201E0FB7A09790212028F123F
:100E23000CC9642A70DD80117C3E7D0680047C4001
:100E33007D067A05790112036D120E467C427D060A
:100E4300020C581203617C567D057A007901120366
:100E53006D2274F51205A8E9FF8A0A7401650A7008
:100E6300097A0175F00AEFA4803E7402650A7027BF
:100E73007A0275F00AEFA4F91202777E028E081245
:100E83000F0AE0FA75F00AEFA42EF91202770EEEBC
:100E9300C3940A501780E67403650A700F90010229
:100EA300E0FA75F00AEFA404F91202777F03020651
:100EB3001474F61205A8E9FF7E0075F00AEFA42E5C
:100EC300F912027D8E08120F040EEEC3940A40EA53
:100ED300EF700A79FF7C017D017A22801C74016F17
:100EE300700A79FF7C017D017A33800D74026F7083
:100EF3000D79FF7C017D017A447B221202CB020B28
:100F030056120F0AE9F02274012508F582740134A0
:100F130000F58322C082C0831203CD12030179013D
:100F23007A967B031203B5900396E0C2E7F064055B
:100F330070347905120FEC5004D2F08002C2F0A293
:100F4300F0E433900655F090039BE0A2E7400302E0
:100F53000FE4900399E0F890031AE0686003020F2E
:100F6300E4A37401807AE024F5900652F09003968E
:100F7300E0F9120FEC5004D2F08002C2F0A2F0E4C8
:100F830033900655F090039EE0F8A3E0F990064EE7
:100F9300E8F0A3E9F090065374A0F0A37403F012F1
:100FA3000FFA74A028F8740339F988828983E090D2
:100FB3000656F088828983A3E0A2E7501C90064D71
:100FC300E0F8900399E0686010900397E054DF64C1
:100FD3004170069006577401F0900399E090064D16
:100FE300F01203071203D380197A977B031203B518
:100FF300900397E0A2E522900652E0F83395E0F9DA
:1010030022F9D083D08202010B74F71205A8EAFEFD
:10101300EBFF120391E9640170047901804E12031E
:1010230007900321EEF0A3EFF0900653E4F0A3F052
:1010330090031C04F090065912051990031D120524
:1010430025121074A3A3E0F912039D121173FAA3DE
:10105300E0FB1203A3121074E0FAA3E0FB1203A94E
:101063007ABF7B021203D912030179007F010206C2
:101073001412107822900321E0F8A3E0F58388820C
:10108300A3A32274F41205A8EAFEEBFF8C088D09D2
:10109300890A90031CE070031203C1E50AC3946735
:1010A3005005850A0B8003750B671203DF1203CD0E
:1010B300740B250B900323F012118090032460041A
:1010C300746180027441F0A37488F090031AE09075
:1010D3000326F090032212107EE0F8A3E0F99003B8
:1010E30027E8F0A3E9F0A3EEF0A3EFF0121173F8F1
:1010F300A3E0F990032BE8F0A3E9F07A0080218ABA
:1011030082A882E50828F582E5093400F583E0C06A
:10111300E0742D28F58274033400F583D0E0F00ADF
:10112300EAC3950B40D9740A250BF97A237B031282
:1011330003AF1203D31203BB121180601290031B7F
:10114300E4F07A4A7B0212038590031BE060047E7D
:101153000080027E0190031CE070031203C7EEA21D
:10116300E0400690031AE004F0EEF97F040206144F
:10117300900321E0F8A3E0F5838882E0221210783F
:10118300A3A3A3E022C082C083900657E002100409
:1011930074F21205A88A088B09890AECFEEDFF1286
:1011A3000307120FFA850A0CC3E8950CE99400A211
:1011B300D265D033500AE0F50C3395E0F50D80038A
:1011C300750D00780C120711900653E0FCA3E0FDA7
:1011D300AA08AB091203F17402120567EE4F601EF1
:1011E300120397E9F508900656120FFDE8C3950818
:1011F300F8E99400F98E828F83E8F0A3E9F0900672
:1012030057E4F0120301120FFA850A08C3E89508A0
:10121300E99400A2D265D0335004E0F98002A90A10
:101223007F06020614C082C08390031C7401F0126F
:1012330003C1021005C082C083D2A4D2A37A027B69
:1012430000120385C2A38002D2A47A027B00120398
:1012530085C2A47A027B00120385D083D082020167
:101263000BC082C083C2A37A027B00120385D2A47F
:101273007A027B00120385D2A380D8C082C083C2C6
:10128300A380C5C082C083D2A380BD74F71205A812
:10129300E9FF7E08EFA2E75004D2A38002C2A3D2E3
:1012A300A4C333FF1212F31EEE70E98002EEF97F3E
:1012B3000102061474F71205A87E00D2A353F5F7B2
:1012C30053FFF753F7F753F77F7A027B0012038537
:1012D3007F08D2A4EEC333FEA2A35003D2E0FE12D2
:1012E30012F31FEF70EC53F5F7D2A343FF0880BD51
:1012F3007A027B00120385C2A47A027B0012038563
:101303002274F71205A8E9FFEAFE12131AEEF91286
:10131300135F120313809812030D79E0121363799C
:1013230000121363EFF91213632274F61205A81265
:10133300030D79E012135F790012135F790812131A
:101343005F12136A12031912032BE9F50812031F24
:10135300120313EEAA08FB7F020206141213632280
:101363001203251203192212031312030D79E1123A
:10137300136312032BE9FE22C082C0837A627900D1
:101383001203317AF779021203317A0779031203D0
:10139300317A0079041203317A0079051203317A24
:1013A30030790E1203317A6A790012033102125D29
:1013B30074F61205A81203378A088B0978081207F6
:1013C300220000140082001E1484002214880026C8
:1013D3001490004A14A000561402012A1404012E8A
:1013E300140801321410014E1420015A140202365B
:1013F3001404023A1408023E141002521420025E2E
:10140300140204421404041A140804461410046257
:1014130014200466146A147E30804E7E31804A7E26
:101423003280467E3380427E34803E7E35803A7EF3
:101433003680367E3780327E38802E7E39802A7E13
:101443002A80267E2380227E41801E7E42801A7E51
:101453004380167E4480127E45800E7E46800A7E3F
:101463005580067E4E80027E00900441E004F0C366
:1014730094C94008E4F07A6AF9120331EE60117AF4
:10148300AA7B0A1202E97A147B0012038B1202EF81
:10149300EEF902135A74F71205A8E9FE43FD40C2A0
:1014A3008602153A74F71205A8E9FE43FD40D28679
:1014B30002153A74F71205A8EAFEEBFF89088012B9
:1014C3008E828F83E0F912034F8E828F83A3AE82C5
:1014D300AF83A80874FF28F5080470E4021554C00C
:1014E30082C08343FD40C2A07A1E121524793012B4
:1014F30003497A0212152412151E12151E791012B1
:1015030003497906120349790112152012036179FF
:101513000C120349D083D08202010B793812152FA4
:10152300227B0012038B793012152F221203497A82
:10153300027B0012038B228E90D2A07A027B0012D0
:101543000385C2A07A507B00120385900416E0F550
:10155300907F0102061474F71205A87980120349DB
:101563007E10792012034F1EEE70F779C0120349E3
:101573007E10792012034F1EEE70F780D474F71299
:1015830005A8E9FF8A08EBFE74026F700874402512
:10159300084480800474804508F9120349EEF91267
:1015A300034F80AD74F61205A889088A09ECFEED95
:1015B300FF74026508700874402509448080047430
:1015C300804509F9120349EEFAEFFB1203F7EAF932
:1015D300EEFAEFFB1203557F02020614C082C083AA
:1015E300D285D2847A027B00120385C2848002D220
:1015F300857A027B00120385C2857A027B0012037F
:1016030085D083D08202010BC082C083C2847A0258
:101613007B00120385D2857A027B00120385D28474
:1016230080D8C082C083C28480C5C082C083D28474
:1016330080BD74F71205A8E9FF7E08EFA2E7500406
:10164300D2848002C284D285C333FF1216951EEE64
:1016530070E98002EEF97F0102061474F71205A8FF
:101663007E00D28453F3EF53FDEF538FEF53F7DF35
:101673007A027B001203857F08D285EEC333FEA274
:10168300845003D2E0FE1216951FEF70EC1216BDC4
:1016930080C27A027B00120385C2857A027B001224
:1016A300038522C082C0831216BD53F3DFD2854364
:1016B300FD20790012027D02160453F3EFD2844316
:1016C300FD102274F71205A8E9FFEAFE121703EED4
:1016D3001217101202537A057B0012038B0216595C
:1016E30074F71205A8E9FF12170312024D79A1122C
:1016F300171112026BE9FE12025F12025302165710
:1017030012024D79A0121711EF12171022F91202CB
:10171300651202592274F01205A874FB1205517464
:101723000112059CEAF0A3EBF0A3ECF0A3EDF07A31
:101733004A7B05740112059CC082C08390065978C8
:10174300081204FBD083D08278081203FD8510822F
:10175300851183501C7401F012059C78081204FB58
:1017630078081204EA740112059C780812050A80AD
:1017730002E4F0740112059C780C1204FB90065DE0
:1017830078081204FB780C79081204ACE5082430BD
:101793008A828B83F0A3AA82AB83740112059C789F
:1017A3000C1204FB90065D78081204FB780C790890
:1017B3001204AC740112059C780C12050A74011210
:1017C300059C78081204FBE5084509450A450B709A
:1017D300A2851082851183E0A2E0500B8A828B835D
:1017E300742DF0A30AAB838A828B83E412182A78C0
:1017F3004A7905801D8A828B83E0FC88828983E095
:101803008A828B8312182AEC88828983F0A3A882A8
:10181300A983C3E89AE99B40DC7A4A7B05740512E5
:1018230005677F08020614F0EA24FF1AEB34FFFB76
:1018330022C082C083906189E04460F0906190741B
:10184300D5F09061FA7409F09061B27415F090616B
:10185300AEE4F01203D379008004F0EBA3F0D0835D
:10186300D08202010B794902010BC082C08375F05B
:1018730005E9A424D490618F80E3C082C083EA90F9
:10188300617480D6C082C083EA90617280CC74F6A2
:101893001205A875E1EE7591FD780080031218AD6D
:1018A300E8C39940F87F020206148808EA2508F580
:1018B30082EB3400F583E0F5D90822C082C083802F
:1018C3000DE5D98A828B83F0A3AA82AB8319E970D1
:1018D300F0021861790002010B75E1E9E591A2E1DB
:1018E30050FA7591FD80ED75E1EC75E1E302010BB2
:1018F30075E1EF75E1EC02010BC082C0839061A337
:10190300E0C2E6F0539AFE021861C082C083906180
:10191300A3E0D2E6F0439A01021861C082C083E5D6
:10192300A8F8C2AF900442EAF0A3EBF0E8A2E79272
:10193300AF021861C082C083906193E0542270F8B3
:10194300021861C082C083E914601714601C14601C
:101953002114602614602B14603014603514603A2F
:10196300803F900416E0D2E08036900416E0D2E186
:10197300802E900416E0D2E28026900416E0D2E393
:10198300801E900416E0D2E48016900416E0D2E59F
:10199300800E900416E0D2E68006900416E0D2E7AB
:1019A300F0900416E0F590D083D08202010BC08240
:1019B300C083E914601714601C146021146026149A
:1019C300602B14603014603514603A803F90041625
:1019D300E064018036900416E06402802E900416C1
:1019E300E064048026900416E06408801E900416C8
:1019F300E064108016900416E06420800E900416B4
:101A0300E064408006900416E06480F00219A4C0EC
:101A130082C08379001202FBD083D08202010BEBD8
:101A2300C313FBEA13FAEAF8EBF9E824FFFAE93403
:101A3300FFFBE84960120000000000000000000006
:101A430000000000000080DE02010B74F71205A8FD
:101A5300EAFEEBFFEEF8EFF9E824FFFEE934FFFFBF
:101A6300E84960097AE87B0312038580E77F010276
:101A73000614C082C08312037F53F5EFD2A443FF41
:101A83001053F5F7D2A343FF0853F5F753FFF7437A
:101A9300F70853F5FEC2A043FF0153F3BFC28643C9
:101AA300FD4075F4007590FF75FEFF900416E4F099
:101AB30075900012035B12033D1203E5120301D07C
:101AC30083D08202010B74F61205A8740A12059CD6
:101AD300E0FEA3E0FFEAF8EBF980188C828D83E047
:101AE30088828983F0A3A882A9838C828D83A3AC87
:101AF30082AD838E088F09E50824FF1EE50934FFB4
:101B0300FFE508450970D47F02020614C082C08332
:101B130053F1FE43F30C53F2F375868075C480755D
:101B2300C2D875C50B75C402438640D2AA75C100DD
:101B33009004C4E4F0A3F0900547F0A3F09004C62A
:101B4300F0900549F0D083D08202010BE5C65480A2
:101B5300F853BEFBE59DA2E550FAE59DA2E240F4F1
:101B6300007401697007744948F5C68005E970027D
:101B730088C6E5C6F8E59E6870FB43BE0402010B08
:101B8300C082C0838A828B838001A3E070FCE582DC
:101B9300C39AFAE5839BFBD083D08202010BD2AFB9
:101BA30002010BC2AF02010B02010B02010B020186
:011BB3000B26
:04000005000000E314
:00000001FF
