:020000040000FA
:030000000200E318
:0300130002092FB0
:030033000208A020
:03003B0002097E39
:03006B000207DAAF
:03007B0002083345
:100083000208F700000080FB12013FB900030200E1
:10009300CDE4900101785979058002F0A3D8FCD909
:1000A300FA900559AA82AB83900142780E790280B7
:1000B30015E493A3AC82AD838A828B83F0A3AA82D7
:1000C300AB838C828D83D8E9D9E77582D075830998
:1000D30074001200F575828675830074001200F5B2
:1000E30075D0007581BF751001751101759F0002F0
:1000F300008BC0F0F5F0E59F5407C0E0E59F54F88E
:1001030045F0D0F0F59FE473859FF053F0F8D0E00D
:1001130045F0F59F22D083D082E59F5407C0E0E4E9
:1001230093C0E0740193C0E07402935407C0F0F5E8
:10013300F0E59F54F845F0D0F0F59F22790122496C
:100143002E4F2E4C5F53797374656D3A4D5F4100AA
:100153005461726765743A4142435F5F5F00496E61
:100163007075742050726F6772616D5F31005F5FED
:10017300005072657373202A206F722023005F5F23
:10018300205072657373202A206F722023005F5FF3
:1001930030306D732044656C617920202020005439
:1001A3006172676574203A20312032203320340095
:1001B30053656E645F5A6F6E65203A20535F41202A
:1001C3000053656E645F5A6F6E65203A20535F4239
:1001D300200053656E645F5A6F6E65203A20535F4B
:1001E30043200053656E645F4D6F6465203A203190
:1001F300200053656E645F4D6F6465203A203220A2
:100203000053656E645F4D6F6465203A20332000B0
:10021300536C6176652020576F6B696E670050726F
:100223006F6772616D3A004100420043005461728E
:100233006765743A41424300FF000000000000007C
:1002430000000000000000000A0000001201181165
:1002530016001201183D160012011857160012015C
:10026300185F160012011867160012011890160085
:10027300120118D81600120118F8160012011815E9
:100283001700120118F00900120118500A00120198
:10029300186D0B00120118A30B00120118660C0055
:1002A300120118D80C001201184F0D00120118BECC
:1002B3000D00120118870E00120118E60E0012013C
:1002C30018490F001201183E1000120118B810004F
:1002D300120118BA1100120118C511001201185A9F
:1002E3001200120118A71A00120118DD1B001201D7
:1002F30018E01B00120118E31B00120118811B00F8
:10030300120118D31B00120118D81B001201186A1E
:100313001200120118961200120118B012001201F5
:1003230018B81200120118C01200120118E91200C5
:100333001201183613001201185F1300120118ADD1
:100343001300120118E51300120118CA1400120158
:1003530018D91400120118E814001201181415001A
:100363001201188B1500120118B21500120118D9C9
:100373001500120118781900120118E3190012016F
:1003830018441A00120118541A00120118801A0096
:100393001201186618001201189A18001201189F0A
:1003A3001800120118AF1800120118B91800120131
:1003B30018C31800120118F018001201180E1900C2
:1003C3001201181C19001201182519001201182E08
:1003D30019001201183F19001201185019001201D7
:1003E30018691900120118411B001201184A17005D
:1003F300120118FB1A00120118B51B00C3E096087E
:10040300A3E09608A3E09608A3E096A2D265D033B2
:1004130022E4CFC0E0E4CEC0E0E4CDC0E0E4CCC051
:10042300E075F020C3E633F608E633F608E633F664
:1004330008E633F6181818EC33FCED33FDEE33FE03
:10044300EF33FFC3EC9709ED9709EE9709EF97197F
:100453001919400FFFEC97FC09ED97FD09EE97FE84
:10046300191906D5F0BEECF709EDF709EEF709EF18
:10047300F7191919D0E0FCD0E0FDD0E0FED0E0FF81
:10048300221204EC1818181204141204DB19191997
:10049300221204DB191919080808E618181820E7AE
:1004A300E01204141204EC18181822090909E719B8
:1004B300191920E7DC080808E618181820E70302D2
:1004C30004141204EC1818181204141204EC18186B
:1004D300181204DB19191922E4C397F709E497F7F3
:1004E30009E497F709E497F722E4C396F608E4963C
:1004F300F608E496F608E496F622E0F608A3E0F69A
:1005030008A3E0F608A3E0F622E6F008A3E6F00865
:10051300A3E6F008A3E6F022E0FAA3E0FBA3E0FCE5
:10052300A3E0FD22EAF0A3EBF0A3ECF0A3EDF022AD
:10053300CAC0E0E6F0A308DAFAD0E0FA2270042297
:10054300600D18C6C333C608C633C6D5E0F41822F7
:10055300251010AF08F510400215118008F5104062
:10056300021511D2AF22C0D0251010AF08F51050DC
:100573000205118008F51050020511D2AFD0D02228
:100583002510F58210AF08F510400215118008F50B
:100593001040021511D2AF851183222510F582E494
:1005A3003511F58322E4732510C582C0E0E51134CB
:1005B300FFC583C0E0E510C3958224F810AF08851A
:1005C30083118582108008858311858210D2AFCE76
:1005D300F0A3E520F0A37808E608F0A3DEFAEFF035
:1005E300A3E58124FAF8E608F0A3E608F0A3E608F9
:1005F300F0A30808E608F0A3E608F0A31581158127
:10060300D0E0FED0E0F8158115811581E8C0E0EE59
:10061300C0E022851183851082E0A3FEE0A3F520CC
:100623007808E0A3F608DFFAE0A3FFE0A3C0E0E068
:10063300A3C0E0E0A3C0E0E0A3C0E0E0A3C0E010FB
:10064300AF08858210858311800885821085831108
:10065300D2AFD083D08202010BC0D02510C582C097
:10066300E0E51134FFC583C0E0E510C3958224F3B0
:1006730010AF0885831185821080088583118582D8
:1006830010D2AFC8F0A3E9F0A3EAF0A3EBF0A3798B
:1006930008E709F0A3D8FAECF0A3EDF0A3EEF0A37A
:1006A300EFF0A3D0E0F0A3D0E0F0A3D0E0F0A3E517
:1006B30020F0A3E5F0F0A322851183851082E0C02A
:1006C300E0A3E0F9A3E0FAA3E0FBA37808E0F608CF
:1006D300A3DFFAE0FCA3E0FDA3E0FEA3E0FFA3E0B9
:1006E300C0E0A3E0C0E0A3E0F5D0A3E0F520A3E0E1
:1006F300A3F5F010AF0885831185821080088583E8
:1007030011858210D2AFD082D083D0E0F8D0E0320E
:1007130074028000C0E0F404120583D0E0120533B4
:1007230022D083D082ECC0E0EDC0E0E493A3FCE4EC
:1007330093A3FDED4C600D120770EC24FFFCED3428
:10074300FFFD80EFE493A3FCE493A3FDED4C600D68
:100753001207AFEC24FFFCED34FFFD80EFD0E0FD8A
:10076300D0E0FCE493A3C0E0E493C0E022C0E0C384
:10077300E49396087401939618400FE49366700807
:1007830008740193661870007019A3A3C3E49396C9
:10079300087401939618A3A3400DD0E0D0E0D0E0F5
:1007A300020760A3A3A3A3A3A3D0E022C0E0C0F0E9
:1007B30088F0E4936670080874019366187000A8C3
:1007C300F0A3A3700BD0F0D0E0D0E0D0E00207603C
:1007D300A3A3D0F0D0E022C0E074F112065CC2C53E
:1007E300E58960477E00750801750900EE780812F7
:1007F3000540AF08E5895F602BEEC333F8E433F9B6
:10080300741A28F58274041208896014EEC333F84D
:10081300E433F9741A28F58274041208941205A8B3
:10082300EFF452890EEEC3940840BB7F020206BB6D
:10083300C0E074F112065CC2EBE58A60477E007586
:100843000801750900EE7808120540AF08E58A5FD4
:10085300602BEEC333F8E433F9742A28F582740469
:100863001208896014EEC333F8E433F9742A28F5C7
:100873008274041208941205A8EFF4528A0EEEC390
:10088300940840BB80A539F583E0F8A3E0F9E84973
:100893002239F583E0F8A3E0F583888222C0E0746F
:1008A300F112065CC2E8E58B60477E0075080175AE
:1008B3000900EE7808120540AF08E58B5F602BEE68
:1008C300C333F8E433F9743A28F5827404120889BF
:1008D3006014EEC333F8E433F9743A28F5827404F0
:1008E3001208941205A8EFF4528B0EEEC394054040
:1008F300BB02082EC0E074F212065CA2AFE433FE22
:10090300C2AFE5E9A2E6501A900445E0F8A3E0F986
:10091300E8496008E0F58388821205A8759B0053B7
:10092300E9BFEEA2E092AF7F010206BBC0E0C0D0F8
:10093300E8C0E0E9C0E0C082C083E5C1C0E0900444
:10094300C8E0F8744728F58274043400F583D0E0D6
:10095300F09004C7E0F8A3E0687004E595A3F09075
:1009630004C8E004F0C394804002E4F0D083D08252
:10097300D0E0F9D0E0F8D0D0D0E032C0E0C0D0E889
:10098300C0E0C008C009C082C08390054AE0F8A354
:10099300E0687008539AFBA374018026C2E99005AE
:1009A3004AE0F50874012508F074CA2508F5827435
:1009B300043400F583E0F5C190054AE0C394804018
:1009C30002E4F0D083D082D009D00880A612028539
:1009D300120CCB6441600AE064426005E06443703A
:1009E300031202A37A2C7B0112038D80E3C082C021
:1009F300839003017411F0A3F0A304F0A37401F036
:100A03001202E512035D12027379081203757A2C40
:100A13007B011202F79002FF7433F0A3F07AFF7B9D
:100A2300021202C71202DF7C597D057A0079011296
:100A3300036F7C6A7D057A00790212036F900317B6
:100A4300E4F0A3F0A3F0D083D08202010B74F6127A
:100A530005AA74FE120553900306E4F07F01120306
:100A6300637A2C7B0112038D7C787D057A007901F2
:100A730012036F7C887D057A00790212036FEFFB06
:100A83007A0E7901120291802F12029DE9FA120C5B
:100A930041740B6A601B120CCBFB900306E0FA79DE
:100AA300021203697A647B001202F7900306E004E2
:100AB300F07A2C7B0112038D900306E0C39402406D
:100AC300C88F82AA82EAC333F8E433F9740728F89B
:100AD300740339F9851082851183E075F00AA4FC4B
:100AE30085F008AD08740112059EE0F508EC2508B1
:100AF300FCED3400FD88828983ECF0A3EDF088825D
:100B03008983E0C0E074022AF58274013400F5831E
:100B1300D0E0F07C8B7D057A03790212036F120C0F
:100B23003B700B7A647B001202F70F120B5D90038C
:100B330005E0642A700A7A647B001202F7120B5DE7
:100B43007A2C7B0112038DEFC394095003020A81AF
:100B530074021205697F02020616900306E4F07C14
:100B6300987D05FA790212036F2274F41205AAE93B
:100B7300FFEAFEEBFAE4FBFCFD1203ED8A0A8B0BA2
:100B8300AC0AAD0B74016F7006EEFA79018009743B
:100B9300026F7007EEFA790212036F7F04020616E2
:100BA30074F71205AA74FE1205537CA87D057A001A
:100BB300790212036F900306E4F08024E0642A7044
:100BC3000F900306E4F07CA87D05FA790212036F07
:100BD3007A2C7B0112038D900306E0C39402502DFF
:100BE3007A2C7B0112038D12029D12029DE9C3949C
:100BF3000A50E412029DE9FB120C41900306E0FA4D
:100C03007902120291900306E004F080CA120C3BB1
:100C130070AA740112059EC082C08375F00A851004
:100C230082851183E0A4D083D082F8E0289001026A
:100C3300F074021205698026120CCF6423229003FC
:100C430006E0F8851082851183E58228F582E58325
:100C53003400F583E9F0227A00790212036F7F01F1
:100C6300020616C082C083120CCB64317004790172
:100C73008053E0643270047902804AE06433700484
:100C830079038041E06434700479048038E064358A
:100C930070047905802FE06436700479068026E0BD
:100CA300643770047907801DE06438700479088024
:100CB30014E0643970047909800BE06430700479BE
:100CC300008002790B020A49120CCF22120345E974
:100CD300900305F02274F71205AAE9FE7A647B00FB
:100CE3001202F71203637CB97D057A0079021203BD
:100CF3006FEE24BF600814601914602A803D7CCA1B
:100D03007D057A00790112036F79001202A9790037
:100D130080267CDB7D057A00790112036F7901124D
:100D230002A9790180127CEC7D057A007901120316
:100D33006F79021202A979021202BB7AE87B0312CD
:100D4300038D120E787C6A7D05020C5A74F7120526
:100D5300AAE9FE12029DE9FF74FF2FC3940450F326
:100D63007A647B001202F7EF14600B14601C1460AA
:100D73002B14603F80427CFD7D057A0079021203CB
:100D83006F7A01EEF91202B5802E12028B7C0C7D74
:100D9300067A00790212036F7A0280E71202977CC7
:100DA3001B7D067A00790212036F7A03EEF91202B1
:100DB300B58005EEF91202AF020C6174F71205AAB1
:100DC300E9FE1203637C2A7D067A00790112036F20
:100DD3007C387D067A00790212036F800C79071242
:100DE300037B7A647B0012038D1202D3E960EE7CED
:100DF300007D0079FF7A007B021202D9E9606C90D2
:100E03000200E014600814600C1460108014A3E066
:100E130090031A800CA3E090031B8005A3E09003CA
:100E23001CF0EE600814601514602280377C417D4D
:100E3300067A05790112036F90031A801E7C437DA5
:100E4300067A05790112036F90031B800E7C457DA2
:100E5300067A05790112036F90031CE0FB7A097986
:100E630002120291120CCB642A7084120E787C4712
:100E73007D06020C5A1203637C597D057A007901C1
:100E830012036F2274F51205AAE9FF8A0A74016539
:100E93000A70097A0175F00AEFA4803E7402650AAC
:100EA30070277A0275F00AEFA4F91202797E028E96
:100EB30008120F3CE0FA75F00AEFA42EF91202793A
:100EC3000EEEC3940A501780E67403650A700F9000
:100ED3000102E0FA75F00AEFA404F91202797F0324
:100EE30002061674F61205AAE9FF7E0075F00AEFF2
:100EF300A42EF912027F8E08120F360EEEC3940A47
:100F030040EAEF700A79FF7C017D017A22801C742C
:100F1300016F700A79FF7C017D017A33800D7402C1
:100F23006F700D79FF7C017D017A447B221202CD23
:100F3300020B58120F3CE9F02274012508F5827464
:100F4300013400F58322C082C0831203CF1203034E
:100F530079017A997B031203B7900399E0C2E7F012
:100F630064057034790512101E5004D2F08002C259
:100F7300F0A2F0E43390065AF090039EE0A2E7401B
:100F83000302101690039CE0F890031DE0686003D1
:100F9300021016A37401807AE024F5900657F090AE
:100FA3000399E0F912101E5004D2F08002C2F0A29D
:100FB300F0E43390065AF09003A1E0F8A3E0F9902F
:100FC3000653E8F0A3E9F090065874A3F0A3740362
:100FD300F012102C74A328F8740339F988828983DA
:100FE300E090065BF088828983A3E0A2E7501C901F
:100FF3000652E0F890039CE068601090039AE05476
:10100300DF6441700690065C7401F090039CE090ED
:101013000652F01203091203D580197A9A7B031240
:1010230003B790039AE0A2E522900657E0F83395C0
:10103300E0F922F9D083D08202010B74F71205AADA
:10104300EAFEEBFF120393E9640170047901804E19
:10105300120309900324EEF0A3EFF0900658E4F096
:10106300A3F090031F04F090065E12051B9003206B
:101073001205271210A6A3A3E0F912039F1211A5CC
:10108300FAA3E0FB1203A51210A6E0FAA3E0FB12F9
:1010930003AB7AC17B021203DB12030379007F01E6
:1010A3000206161210AA22900324E0F8A3E0F583A7
:1010B3008882A3A32274F41205AAEAFEEBFF8C082C
:1010C3008D09890A90031FE070031203C3E50AC365
:1010D30094675005850A0B8003750B671203E112B1
:1010E30003CF740B250B900326F01211B290032744
:1010F3006004746180027441F0A37488F090031D4E
:10110300E0900329F09003251210B0E0F8A3E0F972
:1011130090032AE8F0A3E9F0A3EEF0A3EFF0121195
:10112300A5F8A3E0F990032EE8F0A3E9F07A008094
:10113300218A82A882E50828F582E5093400F5832F
:10114300E0C0E0743028F58274033400F583D0E006
:10115300F00AEAC3950B40D9740A250BF97A267B6A
:10116300031203B11203D51203BD1211B260129020
:10117300031EE4F07A4A7B0212038790031EE060A9
:10118300047E0080027E0190031FE070031203C9F6
:10119300EEA2E0400690031DE004F0EEF97F0402A6
:1011A3000616900324E0F8A3E0F5838882E0221278
:1011B30010AAA3A3A3E022C082C08390065CE0022E
:1011C300103674F21205AA8A088B09890AECFEED1F
:1011D300FF12030912102C850A0CC3E8950CE9943D
:1011E30000A2D265D033500AE0F50C3395E0F50D3B
:1011F3008003750D00780C120713900658E0FCA3CA
:10120300E0FDAA08AB091203F37402120569EE4F5D
:10121300601E120399E9F50890065B12102FE8C3CC
:101223009508F8E99400F98E828F83E8F0A3E9F03A
:1012330090065CE4F012030312102C850A08C3E83D
:101243009508E99400A2D265D0335004E0F98002F6
:10125300A90A7F06020616C082C08390031F740189
:10126300F01203C3021037C082C083D2A4D2A37A80
:10127300027B00120387C2A38002D2A47A027B00FE
:10128300120387C2A47A027B00120387D083D08221
:1012930002010BC082C083C2A37A027B00120387C0
:1012A300D2A47A027B00120387D2A380D8C082C063
:1012B30083C2A380C5C082C083D2A380BD74F7124A
:1012C30005AAE9FF7E08EFA2E75004D2A38002C279
:1012D300A3D2A4C333FF1213251EEE70E98002EEDE
:1012E300F97F0102061674F71205AA7E00D2A353F2
:1012F300F5F753FFF753F7F753F77F7A027B0012A3
:1013030003877F08D2A4EEC333FEA2A35003D2E027
:10131300FE1213251FEF70EC53F5F7D2A343FF081A
:1013230080BD7A027B00120387C2A47A027B00127B
:1013330003872274F71205AAE9FFEAFE12134CEEA3
:10134300F9121391120315809812030F79E0121307
:10135300957900121395EFF91213952274F612057D
:10136300AA12030F79E012139179001213917908ED
:1013730012139112139C12031B12032DE9F5081289
:101383000321120315EEAA08FB7F020206161213AD
:10139300952212032712031B2212031512030F793E
:1013A300E112139512032DE9FE22C082C0837A62F3
:1013B30079001203337AF779021203337A07790338
:1013C3001203337A0079041203337A007905120386
:1013D300337A30790E1203337A6A790012033302B7
:1013E300128F74F61205AA1203398A088B0978083A
:1013F300120724000014008200501484005414883F
:1014030000581490007C14A000881402015C14049A
:10141300016014080164141001801420018C14026B
:1014230002681404026C140802701410028414205D
:101433000290140204741404044C14080478141065
:10144300049414200498149C147E30804E7E3180C2
:101453004A7E3280467E3380427E34803E7E3580B3
:101463003A7E3680367E3780327E38802E7E3980D3
:101473002A7E2A80267E2380227E41801E7E428011
:101483001A7E4380167E4480127E45800E7E4680FF
:101493000A7E5580067E4E80027E00900444E0045E
:1014A300F0C394C94008E4F07A6AF9120333EE609A
:1014B300117AAA7B0A1202EB7A147B0012038D12B3
:1014C30002F1EEF902138C74F71205AAE9FE43FD4B
:1014D30040C28602156C74F71205AAE9FE43FD406B
:1014E300D28602156C74F71205AAEAFEEBFF89088F
:1014F30080128E828F83E0F91203518E828F83A331
:10150300AE82AF83A80874FF28F5080470E40215BF
:1015130086C082C08343FD40C2A07A1E121556794D
:101523003012034B7A0212155612155012155079C8
:101533001012034B790612034B7901121552120351
:1015430063790C12034BD083D08202010B793812DA
:101553001561227B0012038D79301215612212036B
:101563004B7A027B0012038D228E90D2A07A027BEB
:1015730000120387C2A07A507B00120387900419DC
:10158300E0F5907F0102061674F71205AA7980121E
:10159300034B7E1079201203511EEE70F779C012AF
:1015A300034B7E1079201203511EEE70F780D47422
:1015B300F71205AAE9FF8A08EBFE74026F7008743C
:1015C3004025084480800474804508F912034BEEDB
:1015D300F912035180AD74F61205AA89088A09EC41
:1015E300FEEDFF740265087008744025094480808D
:1015F3000474804509F912034BEEFAEFFB1203F969
:10160300EAF9EEFAEFFB1203577F02020616C082D5
:10161300C083D285D2847A027B00120387C284807E
:1016230002D2857A027B00120387C2857A027B008D
:10163300120387D083D08202010BC082C083C2848D
:101643007A027B00120387D2857A027B001203871A
:10165300D28480D8C082C083C28480C5C082C08344
:10166300D28480BD74F71205AAE9FF7E08EFA2E7D2
:101673005004D2848002C284D285C333FF1216C7BA
:101683001EEE70E98002EEF97F0102061674F7126E
:1016930005AA7E00D28453F3EF53FDEF538FEF532C
:1016A300F7DF7A027B001203877F08D285EEC3330C
:1016B300FEA2845003D2E0FE1216C71FEF70EC1295
:1016C30016EF80C27A027B00120387C2857A027BFF
:1016D3000012038722C082C0831216EF53F3DFD2B6
:1016E3008543FD20790012027F02163653F3EFD2B1
:1016F3008443FD102274F71205AAE9FFEAFE1217CC
:1017030035EE1217421202557A057B0012038D0241
:10171300168B74F71205AAE9FF12173512024F79D7
:10172300A112174312026DE9FE1202611202550261
:10173300168912024F79A0121743EF12174222F9AA
:1017430012026712025B2274F01205AA74FB1205DF
:1017530053740112059EEAF0A3EBF0A3ECF0A3EDA2
:10176300F07A4D7B05740112059EC082C0839006FA
:101773005E78081204FDD083D08278081203FF85B7
:101783001082851183501C7401F012059E78081293
:1017930004FD78081204EC740112059E7808120502
:1017A3000C8002E4F0740112059E780C1204FD9083
:1017B300066278081204FD780C79081204AEE50875
:1017C30024308A828B83F0A3AA82AB83740112052F
:1017D3009E780C1204FD90066278081204FD780CC2
:1017E30079081204AE740112059E780C12050C746C
:1017F3000112059E78081204FDE5084509450A45CE
:101803000B70A2851082851183E0A2E0500B8A82BF
:101813008B83742DF0A30AAB838A828B83E4121823
:101823005C784D7905801D8A828B83E0FC888289F0
:1018330083E08A828B8312185CEC88828983F0A30D
:10184300A882A983C3E89AE99B40DC7A4D7B05749F
:10185300051205697F08020616F0EA24FF1AEB3425
:10186300FFFB22C082C083906189E04460F09061F5
:101873009074D5F09061FA7409F09061B27415F028
:101883009061AEE4F01203D579008004F0EBA3F08D
:10189300D083D08202010B794902010BC082C0833D
:1018A30075F005E9A424D490618F80E3C082C083DE
:1018B300EA90617480D6C082C083EA90617280CC62
:1018C30074F61205AA75E1EE7591FD780080031296
:1018D30018DFE8C39940F87F020206168808EA2554
:1018E30008F582EB3400F583E0F5D90822C082C005
:1018F30083800DE5D98A828B83F0A3AA82AB8319F7
:10190300E970F0021893790002010B75E1E9E591A2
:10191300A2E150FA7591FD80ED75E1EC75E1E3020A
:10192300010B75E1EF75E1EC02010BC082C08390FE
:1019330061A3E0C2E6F0539AFE021893C082C0830B
:101943009061A3E0D2E6F0439A01021893C082C0EB
:1019530083E5A8F8C2AF900445EAF0A3EBF0E8A250
:10196300E792AF021893C082C083906193E0542240
:1019730070F8021893C082C083E914601714601CC6
:1019830014602114602614602B1460301460351425
:10199300603A803F900419E0D2E08036900419E069
:1019A300D2E1802E900419E0D2E28026900419E05F
:1019B300D2E3801E900419E0D2E48016900419E06B
:1019C300D2E5800E900419E0D2E68006900419E077
:1019D300D2E7F0900419E0F590D083D08202010B96
:1019E300C082C083E914601714601C146021146062
:1019F3002614602B14603014603514603A803F90D5
:101A03000419E064018036900419E06402802E908A
:101A13000419E064048026900419E06408801E9091
:101A23000419E064108016900419E06420800E907D
:101A33000419E064408006900419E06480F0021900
:101A4300D6C082C08379001202FDD083D082020106
:101A53000BEBC313FBEA13FAEAF8EBF9E824FFFAFA
:101A6300E934FFFBE84960120000000000000000B9
:101A7300000000000000000080DE02010B74F7127A
:101A830005AAEAFEEBFFEEF8EFF9E824FFFEE934DE
:101A9300FFFFE84960097AE87B0312038780E77F49
:101AA30001020616C082C08312038153F5EFD2A44C
:101AB30043FF1053F5F7D2A343FF0853F5F753FF42
:101AC300F743F70853F5FEC2A043FF0153F3BFC228
:101AD3008643FD4075F4007590FF75FEFF90041971
:101AE300E4F075900012035D12033F1203E7120343
:101AF30003D083D08202010B74F61205AA740A1272
:101B0300059EE0FEA3E0FFEAF8EBF980188C828DD6
:101B130083E088828983F0A3A882A9838C828D8342
:101B2300A3AC82AD838E088F09E50824FF1EE50967
:101B330034FFFFE508450970D47F02020616C08210
:101B4300C08353F1FE43F30C53F2F375868075C4DF
:101B53008075C2D875C50B75C402438640D2AA7579
:101B6300C1009004C7E4F0A3F090054AF0A3F090FD
:101B730004C9F090054CF0D083D08202010BE5C676
:101B83005480F853BEFBE59DA2E550FAE59DA2E221
:101B930040F4007401697007744948F5C68005E98B
:101BA300700288C6E5C6F8E59E6870FB43BE040272
:101BB300010BC082C0838A828B838001A3E070FC07
:101BC300E582C39AFAE5839BFBD083D08202010BA3
:101BD300D2AF02010BC2AF02010B02010B02010BD8
:031BE30002010BF1
:04000005000000E314
:00000001FF
