:020000040000FA
:030000000200E318
:030013000209DC03
:0300330002094D72
:03003B00020A2B8B
:03006B0002088701
:03007B000208E098
:100083000209A400000080FB120113B9000302005F
:10009300CDE4900101787279058002F0A3D8FCD9F0
:1000A300FA900572AA82AB83900116789379028045
:1000B30015E493A3AC82AD838A828B83F0A3AA82D7
:1000C300AB838C828D83D8E9D9E77582B7758316A4
:1000D30074001200F575828675830074001200F5B2
:1000E30075D0007581BF751001751101759F0002F0
:1000F300008BC09FF59FE473D09F22D083D082C032
:100103009FE493C0E0740193C0E0740293F59F22CF
:10011300790122492E4F2E4C5F53797374656D3AE2
:100123004D5F41005461726765743A412042204338
:1001330000496E7075742050726F6772616D5F3124
:10014300005F5F005072657373202A206F72202353
:10015300005F5F205072657373202A206F72202323
:10016300005F5F30306D732044656C61792020201F
:100173002000546172676574203A203120322033A5
:1001830020340053656E645F5A6F6E65203A2053C6
:100193005F41200053656E645F5A6F6E65203A209D
:1001A300535F42200053656E645F5A6F6E65203A59
:1001B30020535F43200053656E645F4D6F64652079
:1001C3003A203120202020200053656E645F4D6F5C
:1001D3006465203A203220202020200053656E647D
:1001E3005F4D6F6465203A20332020202020005388
:1001F3006C61766520576F726B696E670050726F22
:100203006772616D3A20202020202020300030309A
:10021300003000536C6176652052657475726E20F0
:100223003000536C617665204E6F20576F726B0000
:10023300536C61766520576F726B696E672020205F
:1002430000576169742E2E2E2E2E00444D00524FFE
:100253004D00526573657420536C61766500496E79
:100263007075742050726F6772616D3A00496E70D9
:10027300757420317E38005365742073756363652C
:1002830073732100526573657420524F4D2E2E2EC9
:1002930000FF00000000000000000000000000005C
:1002A300000A0000001200FE3C26001200FE682631
:1002B300001200FE8226001200FE8A26001200FEB3
:1002C3009226001200FEBB26001200FE0327001236
:1002D30000FE2327001200FE4027001200FEDF1657
:1002E300001200FE1717001200FE7018001200FE25
:1002F300A318001200FE5B19001200FECD190012B4
:1003030000FE2C1A001200FED71A001200FED71CA2
:10031300001200FE3D1D001200FEE31D001200FE50
:10032300531E001200FEA61E001200FE041F001240
:1003330000FE7D0A001200FE9C0A001200FE801FD0
:10034300001200FE7420001200FEEE20001200FED8
:10035300F021001200FE8522001200FEEB2A00129B
:1003630000FEE12B001200FEE42B001200FEE72B3F
:10037300001200FE852B001200FED72B001200FE98
:10038300DC2B001200FE9522001200FEC122001297
:1003930000FEDB22001200FEE322001200FEEB222D
:1003A300001200FE1423001200FE6123001200FE5F
:1003B3008A23001200FED823001200FE102400122C
:1003C30000FEF524001200FE0425001200FE132592
:1003D300001200FE3F25001200FEB625001200FEAB
:1003E300DD25001200FE0426001200FEEA2B001297
:1003F30000FE882A001200FE982A001200FEC42A7A
:10040300001200FE9128001200FEC528001200FE13
:10041300CA28001200FEDA28001200FEE4280012A7
:1004230000FEEE28001200FE1B29001200FE3929EF
:10043300001200FE4729001200FE5029001200FEA0
:100443005929001200FE6A29001200FE7B290012BE
:1004530000FE9429001200FEA329001200FEE829E1
:10046300001200FE7527001200FE3F2B001200FE53
:10047300B92B00C3E09608A3E09608A3E09608A36F
:10048300E096A2D265D03322E4CFC0E0E4CEC0E050
:10049300E4CDC0E0E4CCC0E075F020C3E633F60859
:1004A300E633F608E633F608E633F6181818EC33A5
:1004B300FCED33FDEE33FEEF33FFC3EC9709ED970D
:1004C30009EE9709EF97191919400FFFEC97FC09EB
:1004D300ED97FD09EE97FE191906D5F0BEECF70965
:1004E300EDF709EEF709EFF7191919D0E0FCD0E0A1
:1004F300FDD0E0FED0E0FF221205631818181204A5
:100503008B120552191919221205521919190808C3
:1005130008E618181820E7E012048B120563181870
:100523001822090909E719191920E7DC080808E660
:1005330018181820E70302048B1205631818181201
:10054300048B12056318181812055219191922E49D
:10055300C397F709E497F709E497F709E497F722B4
:10056300E4C396F608E496F608E496F608E496F6ED
:1005730022E0F608A3E0F608A3E0F608A3E0F622DB
:10058300E6F008A3E6F008A3E6F008A3E6F022E00D
:10059300FAA3E0FBA3E0FCA3E0FD22EAF0A3EBF067
:1005A300A3ECF0A3EDF022CAC0E0E6F0A308DAFA68
:1005B300D0E0FA22700422600D18C6C333C608C601
:1005C30033C6D5E0F41822251010AF08F510400209
:1005D30015118008F51040021511D2AF22C0D025A5
:1005E3001010AF08F510500205118008F5105002E5
:1005F3000511D2AFD0D0222510F58210AF08F51027
:10060300400215118008F51040021511D2AF851173
:1006130083222510F582E43511F58322E473251036
:10062300C582C0E0E51134FFC583C0E0E510C39582
:100633008224F810AF088583118582108008858392
:1006430011858210D2AFCEF0A3E520F0A37808E69F
:1006530008F0A3DEFAEFF0A3E58124FAF8E608F048
:10066300A3E608F0A3E608F0A30808E608F0A3E66B
:1006730008F0A315811581D0E0FED0E0F8158115AF
:10068300811581E8C0E0EEC0E022851183851082E8
:10069300E0A3FEE0A3F5207808E0A3F608DFFAE084
:1006A300A3FFE0A3C0E0E0A3C0E0E0A3C0E0E0A3B9
:1006B300C0E0E0A3C0E010AF0885821085831180FD
:1006C30008858210858311D2AFD083D0820200FBCC
:1006D300C0D02510C582C0E0E51134FFC583C0E05A
:1006E300E510C3958224F310AF088583118582102A
:1006F3008008858311858210D2AFC8F0A3E9F0A3E7
:10070300EAF0A3EBF0A37908E709F0A3D8FAECF039
:10071300A3EDF0A3EEF0A3EFF0A3D0E0F0A3D0E0BD
:10072300F0A3D0E0F0A3E520F0A3E5F0F0A3228549
:100733001183851082E0C0E0A3E0F9A3E0FAA3E00F
:10074300FBA37808E0F608A3DFFAE0FCA3E0FDA32F
:10075300E0FEA3E0FFA3E0C0E0A3E0C0E0A3E0F578
:10076300D0A3E0F520A3E0A3F5F010AF0885831133
:100773008582108008858311858210D2AFD082D004
:1007830083D0E0F8D0E03274028000C0E0F40412B9
:1007930005FAD0E01205AA22D083D082C5F0E493F3
:1007A300A3C5F0C395F0F5F0E493A3C395F040051A
:1007B300E5F0048001E475F002A42582F582E5F0FA
:1007C3003583F583E493A3C0E0E493C0E022D083B0
:1007D300D082ECC0E0EDC0E0E493A3FCE493A3FD7E
:1007E300ED4C600D12081DEC24FFFCED34FFFD8081
:1007F300EFE493A3FCE493A3FDED4C600D12085CBE
:10080300EC24FFFCED34FFFD80EFD0E0FDD0E0FCF5
:10081300E493A3C0E0E493C0E022C0E0C3E4939672
:10082300087401939618400FE493667008087401E6
:1008330093661870007019A3A3C3E4939608740118
:10084300939618A3A3400DD0E0D0E0D0E002080DAA
:10085300A3A3A3A3A3A3D0E022C0E0C0F088F0E445
:10086300936670080874019366187000A8F0A3A338
:10087300700BD0F0D0E0D0E0D0E002080DA3A3D0FD
:10088300F0D0E022C0E074F11206D3C2C5E589605E
:10089300477E00750801750900EE78081205B7AFA9
:1008A30008E5895F602BEEC333F8E433F97433282A
:1008B300F58274041209366014EEC333F8E433F995
:1008C300743328F582740412094112061FEFF4529F
:1008D300890EEEC3940840BB7F02020732C0E07466
:1008E300F11206D3C2EBE58A60477E0075080175F5
:1008F3000900EE78081205B7AF08E58A5F602BEEB2
:10090300C333F8E433F9744328F5827404120936C7
:100913006014EEC333F8E433F9744328F5827404A6
:1009230012094112061FEFF4528A0EEEC3940840D7
:10093300BB80A539F583E0F8A3E0F9E8492239F54E
:1009430083E0F8A3E0F583888222C0E074F1120605
:10095300D3C2E8E58B60477E00750801750900EE98
:1009630078081205B7AF08E58B5F602BEEC333F849
:10097300E433F9745328F58274041209366014EED3
:10098300C333F8E433F9745328F58274041209412C
:1009930012061FEFF4528B0EEEC3940540BB020800
:1009A300DBC0E074F21206D3A2AFE433FEC2AFE5BC
:1009B300E9A2E6501A90045EE0F8A3E0F9E8496082
:1009C30008E0F583888212061F759B0053E9BFEE8A
:1009D300A2E092AF7F01020732C0E0C0D0E8C0E0DE
:1009E300E9C0E0C082C083E5C1C0E09004E1E0F863
:1009F300746028F58274043400F583D0E0F0900429
:100A0300E0E0F8A3E0687004E595A3F09004E1E06A
:100A130004F0C394804002E4F0D083D082D0E0F9A4
:100A2300D0E0F8D0D0D0E032C0E0C0D0E8C0E0C021
:100A330008C009C082C083900563E0F8A3E0687032
:100A430008539AFBA374018026C2E9900563E0F57D
:100A53000874012508F074E32508F5827404340052
:100A6300F583E0F5C1900563E0C394804002E4F0B0
:100A7300D083D082D009D00880A674F6120621E96B
:100A8300FE8E08742E2508F58274033400F583E086
:100A9300F91203EC7F0202068DC082C083E91207BC
:100AA3009B00636A155715700B800B980BB20BC92B
:100AB3000BEC0B020C140C230C350C4E0C6A0C8043
:100AC3000C920CB30CCD0CEC0CFE0C1C0D3A0D5817
:100AD3000D6E0D8C0DAD0DCA0DEB0D090E270E48D5
:100AE3000E630E7E0E9F0EB50ED90EFA0E1E0F3C30
:100AF3000F5A0F750F900FAB0FCC0FE10FFF0F20A5
:100B030010391055106E108710A410B810CD10DFD7
:100B130010F110031115113611551174118D11A611
:100B230011C211E011FE112212451265127C1293BB
:100B330012A512C012CD12DF12FA120C131E1339B2
:100B4300134B135D1378138F13A613C113D813EF2D
:100B530013FC130A141C142E1440145A1471148415
:100B630014A514C314E21405152115401590032E82
:100B7300121690F0A3E4F0A374FF02156990032EFC
:100B83007401F0A30412169C1216797420121672C3
:100B9300748002156990032E7480121672742012E9
:100BA300167B740812169C7402F0A31402156912C2
:100BB30015DC7407F0A3740FF0A3741FF0A3743F44
:100BC300F0A3747F80B090032E7480F0A374C0F000
:100BD300A374E0F0A374F0F0A374F8F0A374FCF032
:100BE300A374FEF0A30402156990032E7411121668
:100BF300107444F0A3E41216B2F0A3E40215699052
:100C0300032E7411121650744412163C7488020B8E
:100C13007990032E74881215F874221215BA80D9AC
:100C230090032E748812163C7444121650741102E9
:100C33000B7990032E7481F0A374421216897418F1
:100C43001216897442F0A3748180AE90032E7481CE
:100C5300F0A374C3F0A374E712163C74E7F0A37413
:100C6300C3F0A37481809290032E74131215B6748B
:100C7300231215B674431215B6748380CC1215B1C2
:100C8300742A1215B6744A1215B674A8020BFC9096
:100C9300032E7471F0A37461F0A37451F0A3744133
:100CA300F0A3743112159F7411F0A3740102156936
:100CB30090032E7417F0A3742712166B7447F0A3D6
:100CC3007457121660748702156990032E747AF0B4
:100CD300A3746BF0A3745CF0A3744DF0A3743EF0A3
:100CE300A3742FF0A3741080C090032E74C1121646
:100CF300A374A41215B67498020BFC90032E7467A8
:100D0300F0A37442F0A3746812165974691215D5CE
:100D13007465F0A3743002156990032E74311215B3
:100D2300E174321215CE7433F0A37409F0A3743452
:100D3300F0A3741202156990032E7435F0A3741591
:100D43001215C7741812166B7421F0A37438F0A32C
:100D5300742402156990032E743912159874411284
:100D6300169C7442121591744380C590032E7444EB
:100D73001215C07445F0A37420F0A37446121689AB
:100D83007447F0A3742802156990032E7448F0A3E6
:100D93007432F0A374491215C77451F0A37405F0AB
:100DA300A37452F0A3741002156990032E7453F0C8
:100DB300A374151215D57420F0A37455F0A37425EC
:100DC300F0A37456020D1590032E7457F0A37435D7
:100DD300F0A374581216727459F0A37445F0A374F7
:100DE30061F0A3740602156990032E7462F0A37474
:100DF30012F0A3746312158374641216897471F06C
:100E0300A3740702156990032E7472F0A37414F08F
:100E1300A3747312159F747412158A7475F0A374F6
:100E23003502156990032E7476F0A374421216648A
:100E33007449F0A37478F0A37456F0A37479F0A303
:100E4300746302156990032E7481121591748212D2
:100E530015C074831216897484F0A3743202156961
:100E630090032E748512167274861216597487F0C5
:100E7300A374561216AC746402156990032E748918
:100E8300F0A37472F0A37491F0A37409F0A37492A5
:100E93001215837493F0A3742702156990032E74BB
:100EA300941215C7749512165974961215D5749722
:100EB300808C90032E7498F0A37472F0A37499F04D
:100EC300A37481F0A374A1F0A3740AF0A374A2F035
:100ED300A3742002156990032E74A3F0A37430F059
:100EE300A374A412167274A5F0A37450F0A374A68D
:100EF300F0A3746002156990032E74A7F0A37470B5
:100F0300F0A374A8F0A37480F0A374A9F0A3749061
:100F1300F0A374B1F0A3741102156990032E74B297
:100F230012160974B3F0A37433F0A374B41215F159
:100F330074B5F0A3745502156990032E74B6F0A32B
:100F43007466F0A374B712166474B81216AC74B94D
:100F5300F0A3749902156990032E742112168274FA
:100F63002212169C74231215CE7424F0A374080263
:100F7300156990032E742512167B7426F0A3741240
:100F8300121598741412158A741602156990032E9B
:100F93007429121583742A12159174C8F0A37476F8
:100FA3001215E1747402156990032E7461F0A37431
:100FB30050F0A3742DF0A374D5F0A3744B1215CE87
:100FC3007498F0A374340215691215DC7405F0A348
:100FD3007407F0A374091215A6741502156990031A
:100FE3002E7417F0A3741912159F7423F0A374259C
:100FF3001215987429F0A3743102156990032E74A5
:1010030033F0A3743512166B7439F0A37441F0A353
:101013007443F0A37445F0A3744702156990032E3B
:101023007451F0A37453F0A374551216287463F02B
:10103300A3746502156990032E7467F0A374691293
:101043001571F0A374751216647479F0A374810298
:10105300156990032E7483F0A37485121619749383
:10106300F0A37495F0A3749702156990032E7499F5
:1010730012168204F0A37405F0A374071215A67464
:101083001702156990032E7419F0A37423F0A37447
:1010930029F0A3743112166B7441F0A37443021048
:1010A3001990032E7451F0A3745312162874671207
:1010B300157102156990032E7477F0A37479F0A368
:1010C30074831216197497020BFC90032E74A112E9
:1010D30016A374C41215B674D8020BFC90032E74B5
:1010E3001A1215B6742B1215E8748D020BFC9003BB
:1010F3002E74A112164074C412163C74D8020B79D4
:10110300121637742B12163C744C12163C748D0253
:101113000B7990032E7419F0A3742812166B74457F
:10112300F0A37455F0A37464F0A37473F0A37482F2
:1011330002156990032E74A1F0A374B0F0A374C2D6
:10114300F0A374D0F0A374E4F0A374F01216B20207
:101153000DA690032E741AF0A3740BF0A3742CF055
:10116300A3740DF0A3744EF0A3740F1216B2020C05
:10117300AC90032E7411F0A37401F0A37422121621
:10118300827444F0A37416020E7690032E747612C2
:1011930015D5743212167B7401F0A304F0A3740402
:1011A300020DE490032E1216797412F0A374141234
:1011B30015C07418F0A37420F0A37422021569906B
:1011C300032E7424F0A3742612158A7430F0A374CA
:1011D30032F0A374341215C7743802156990032EC4
:1011E3007440F0A374421215F174461216597450E8
:1011F300F0A37452F0A3745402156990032E74562D
:10120300F0A37458F0A37460F0A37462F0A3746441
:10121300F0A37468F0A37470F0A37472021569905C
:10122300032E7474F0A37476F0A37478F0A374801F
:10123300F0A37482F0A37484F0A374861216B2022E
:10124300156990032E7490F0A37492F0A37494F034
:10125300A37496F0A37498F0A374A0F0A37482020D
:101263000BE690032E74C81215B674C41215B67427
:10127300C21215B674C1020BFC90032E74C8121669
:101283003C74C212163C74C412163C74C8020B7927
:1012930090032E741C1215B6742C1215E8748C026C
:1012A3000BFC90032E7411F0A3740C12160974C076
:1012B3001215F1740C1216AC74C00215691215B133
:1012C30074A21215B674A4020C8A121637742A1269
:1012D300163C744A12163C748A020B7990032E74DE
:1012E30011F0A374A0121609740A1215F174A01256
:1012F30016AC740A02156990032E74B11216A37406
:10130300B41215B674B8020BFC90032E74B1121606
:101313004074B412163C74B8020B7990032E741106
:10132300F0A374B0121609740B1215F174B01216EF
:10133300AC740B02156990032E74D11215B674D2D6
:101343001215B674D40210D790032E74D112163C22
:1013530074D212163C74D40210FB90032E7411F055
:10136300A374D0121609740D1215F174D01216ACB1
:10137300740D02156990032E74E11215B674E2120E
:1013830015B674E41215B674E8020BFC90032E74C0
:10139300E112163C74E212163C74E412163C74E833
:1013A300020B7990032E7411F0A374E012160974E2
:1013B3000E1215F174E01216AC740E021569900347
:1013C3002E74F11215B674F21215B674F41215B622
:1013D30074F8020BFC90032E741F1215B6742F12AF
:1013E30015B6744F1215B6748F020BFC90032E744E
:1013F300FFF0A3121690020BFC90032E741112152A
:10140300BA1215BA020C1E90032E7422121610740F
:10141300221215B67422020BFC90032E744412158B
:10142300F874441215B67444020BFC90032E7488AE
:10143300F0A3E41216ACE41216B2020BF690032EDC
:1014430074101216897405F0A3741212168274565E
:10145300F0A37401020D8590032EE4F0A3746412CB
:1014630015B67432F0A3E41215C0E4020F6E9003B4
:101473002EE412169CE4121682E4F0A374FF020B0E
:10148300F990032E7493F0A37439F0A374841216A5
:10149300597475F0A37457F0A37465F0A3745602DE
:1014A300156990032E7494F0A37449F0A37485F026
:1014B300A3745812157AF0A304F0A3748602156975
:1014C30090032E7431F0A37413F0A37425F0A37466
:1014D30052F0A374C8F0A3748C12157A02156990A4
:1014E300032E74D8F0A3748DF0A374B7F0A3747BA8
:1014F300F0A3746AF0A374A6F0A3745FF0A374F569
:10150300806490032E74E4F0A3744EF0A374A8F0E7
:10151300A3749C1216607496F0A3745380489003CE
:101523002E7498F0A37489F0A314F0A37486F0A327
:10153300744012169C7469F0A37496802990032E4C
:1015430074701215CE745012169C74301216827475
:1015530010020F6E90032EE4F0A3F0A3F0A3F0A308
:10156300F0A3F0A3F0A3F0D083D0820200FBF0A39A
:101573007471F0A3747322F0A37476F0A3746722DA
:10158300F0A37418F0A322F0A37428F0A322F0A30D
:101593007408F0A322F0A37427F0A322F0A374210C
:1015A300F0A322F0A37411F0A37413F0A322900309
:1015B3002E74A112160322121603741122F0A374BF
:1015C30016F0A322F0A37436F0A322F0A37406F05E
:1015D300A322F0A37454F0A32290032E7401F0A36A
:1015E3007403F0A322121603744C12160322F0A301
:1015F3007444F0A32212160374441216032274FFD8
:10160300F0A3E4F0A322F0A37422F0A322121603A2
:10161300742212160322F0A37487F0A37489F0A333
:101623007491F0A322F0A37457F0A37459F0A37438
:1016330061F0A32290032E741A121649221216493E
:1016430074B212164922F0A374FFF0A322121649B2
:10165300742212164922F0A37448F0A322F0A37453
:1016630067F0A37477F0A322F0A37437F0A322F0FA
:10167300A37440F0A3227408F0A37410F0A322F023
:10168300A37402F0A322F0A37424F0A322E4F0A332
:1016930012160112160174FF22F0A37404F0A322A0
:1016A30012160374B2121603221216B2F0A322F01A
:1016B300A37488221202DE1203141219C06441605B
:1016C3000FE06442600AE064436005E0644670032F
:1016D3001202FC7A2C7B011203FE80DEC082C083DF
:1016E3009003017411F0A3F0A304F0A37401F012AA
:1016F300035C1203D41202CC9002FF7433F0A3F004
:101703007AFF7B02120344120356121AC0D083D00D
:10171300820200FB74F412062174FE1205CA890BBF
:10172300900306E4F0750801741E250B121CD1F515
:10173300091203DA7A2C7B011203FE7C907D057A71
:101743000079011203E67CA07D057A007902120379
:10175300E60218431202F6E9FA12193C740B6A60A6
:10176300141219C0FB900306E0FA79021203E09009
:101773000306E004F07A2C7B011203FE900306E0DB
:10178300C3940240CF850882E582C333F8E433F97A
:10179300740728F8740339F9851082851183E0757D
:1017A300F00AA4FA7401120615E0FCEA2CFAE5F03B
:1017B3003400FB88828983EAF0A3EBF08882898373
:1017C300E0F91203387E007F00EEF91203327AFA51
:1017D3007B001203FEEE24010EEF3400FFC3EE94F0
:1017E30008EF9400A2D265D03340DE850882A88238
:1017F300E8C333FAE433FB74072AF58274033BF539
:1018030083E0C0E0740228F58274013400F583D0CC
:10181300E0F07CA37D057A0379021203E6121955E1
:1018230070050508121860900305E0642A700A7AAF
:10183300647B0012036E1218607A2C7B011203FE84
:10184300E509C39508400CAB087A0E79011202EA48
:1018530002177F74021205E07F0402068D900306CF
:10186300E4F07CB07D05FA79021203E62274F412E7
:101873000621E9FFEAFEEBFAE4FBFCFD1204648AAD
:101883000A8B0BAC0AAD0B74016F7006EEFA79018B
:10189300800974026F7007EEFA79021203E680B8CA
:1018A30074F712062174FE1205CA7CC07D057A0006
:1018B30079021203E6900306E4F08024E0642A70C0
:1018C3000F900306E4F07CC07D05FA79021203E66B
:1018D3007A2C7B011203FE900306E0C39402502D81
:1018E3007A2C7B011203FE1202F61202F6E9C3946C
:1018F3000A50E41202F6E9FB12193C900306E0FADF
:1019030079021202EA900306E004F080CA12195524
:1019130070AA7401120615C082C08375F00A85107F
:1019230082851183E0A4D083D082F8E0289001025D
:10193300F074021205E0021ABB900306E0F885106A
:1019430082851183E58228F582E5833400F583E9F6
:10195300F0221219C4642322C082C0831219C06406
:1019630031700479018053E0643270047902804A53
:10197300E06433700479038041E0643470047904D3
:101983008038E0643570047905802FE06436700494
:1019930079068026E0643770047907801DE0643897
:1019A300700479088014E0643970047909800BE0CD
:1019B3006430700479008002790B0217101219C485
:1019C300221203BCE9900305F02274F7120621E901
:1019D300FE1203DA7CD17D057A0079021203E6EE6A
:1019E30024BF600C14601B14602724FD603580360F
:1019F3007CE27D057A0079011203E6790012030285
:101A030080247CF37D057A0079011203E679018055
:101A1300EC7C047D067A0079011203E67902120355
:101A230002800312032C021AAE74F7120621E9FE98
:101A33001202F6E9F874FF28C3940650F3E8146021
:101A430011146033146044146026146050146054FD
:101A530080577C157D067A0079021203E67A01EE3F
:101A6300F912030EEEF912031A7AE87B031203FE4E
:101A7300EEF91203088032EEF91202E47C287D06A7
:101A83007A0079021203E67A0280D41202F07C3BD8
:101A93007D067A0079021203E67A0380C2EEF91218
:101AA30003208005EEF9120326800D7AE87B0312EA
:101AB30003FE1203DA121AC07F0102068D7C727DC7
:101AC300057A0079011203E67C837D057A007902A9
:101AD3001203E62274F6120621E9FF1203DA7C4EA2
:101AE3007D067A0079011203E67C5C7D067A007933
:101AF300021203E67C007D0079FF7A007B02120369
:101B030050900200E014600814600C1460108014FC
:101B1300A3E0900317800CA3E09003188005A3E0D3
:101B2300900319F07C6D7D067A0E79021203E6EFBD
:101B3300600C146057147003021BD9021C2C900311
:101B430017E0C3940A50147C707D067A0879021258
:101B530003E6900317E0FB7A098004E0FB7A08129E
:101B63001C93C0F07901121CD2D0F084FB7A0C795B
:101B7300021202EA7901121CAA740AF0900317E018
:101B830090031BF07901121CBE021C2C900318E079
:101B9300C3940A50147C707D067A0879021203E616
:101BA300900318E0FB7A098004E0FB7A08121C9387
:101BB300C0F0790B121CD2D0F084FB7A0C7902129C
:101BC30002EA790B121CAA740BF0900318E090033D
:101BD3001BF0790B80B0900319E0C3940A50147C76
:101BE300707D067A0879021203E6900319E0FB7A06
:101BF300098004E0FB7A08121C93C0F07915121CCB
:101C0300D2D0F084FB7A0C79021202EA7915121C05
:101C1300AA740CF0900319E090031BF07915121CC1
:101C2300BE900319E0F91203388F08121C9C70123E
:101C3300EEC3940650110E7C727D067A0079011270
:101C430003E6121C9C7011EEC39406401B7C817D3D
:101C5300067A0079011203E6121C9C600B7C8F7DCF
:101C6300067A0079011203E61219C0642A6003029E
:101C73001AF71203DA7C727D057A0079011203E602
:101C83007CA07D067A0079021203E67F0202068DAC
:101C930079021202EA75F00A2274172508F5827494
:101CA300033400F583E022121CD275F00A84ABF0F2
:101CB3007A0D79021202EA90031A22121CD29003BF
:101CC3001CF07C037D007A1A7B0312045E22F91256
:101CD30002D8E92274F5120621E9FF8A0A74016524
:101CE3000A70097A0175F00AEFA480457402650A47
:101CF300702E7A0275F00AEFA4F91202D27E028ED8
:101D03000874012508F5827401121CA4FA75F00AFF
:101D1300EFA42EF91202D20EEEC3940A501780DFFD
:101D23007403650A700F900102E0FA75F00AEFA4DC
:101D330004F91202D27F0302068D74F61206217E85
:101D4300001219C0EEFB7A0E79021202EA90030523
:101D5300E06441600FE06442600AE064436005E0D0
:101D630064467007E0F91202FC8020E06430700DD5
:101D73007CAA7D067A0E79021203E6800E7AE87B4E
:101D8300031203FE0EEEC3940A40B6740A6E704D3E
:101D93007E007F0075F00AEE121E3740F7EE700AE0
:101DA30079FF7C017D017A22801C74016E700A79AF
:101DB300FF7C017D017A33800D74026E700D79FF13
:101DC3007C017D017A447B2212034A0EEEC3940305
:101DD30040C07CAD7D067A0D79021203E6021C8EAB
:101DE30074F5120621890A741E250AFE7F0075F018
:101DF3000AE50A121E3740F6EE121CD190010BF0D1
:101E0300E50A700A79FF7C017D017A22801E740144
:101E1300650A700A79FF7C017D017A33800E7402B2
:101E2300650A700D79FF7C017D017A447B221203E0
:101E33004A021D38A42FF91202D88F08740125080D
:101E4300F58274013400F583E9F00FEFC3940A229D
:101E530074F7120621E9FE9001017405F0EE700A91
:101E630079FF7C017D017A22801C74016E700A79EE
:101E7300FF7C017D017A33800D74026E700D79FF52
:101E83007C017D017A447B2212034A1203DA7CB17E
:101E93007D067A0079011203E67AE87B031203FEDA
:101EA300021ABB74F7120621E9FF741E2FFE1203F8
:101EB300DA7CBD7D067A0079011203E67CCC7D06CF
:101EC3007A0079021203E67AE87B0380047A967B30
:101ED300001203FE1202F6E9FA740B6A60EF74094A
:101EE3006A60EAEA60E7EEF91202D21203BCE9FB88
:101EF3007A0E79011203E07CD67D067A007902809E
:101F03009574F71206211203DA7CE37D067A0079D1
:101F1300011203E67A0179001202D27A01790A12D8
:101F230002D27A0179141202D27E007F027A00EE85
:101F33002FF91202D20FEFC3940A40F1740A2EFE56
:101F4300C3941E40E67A0A79011202D27A0A790B07
:101F53001202D27A0A79161202D27A02791E120278
:101F6300D27A02791F1202D27A0279201202D27C2B
:101F7300D67D067A0079021203E6021AAEC082C049
:101F83008312044012037A79017AB27B0312042884
:101F93009003B2E0C2E7F06405703479051220556E
:101FA3005004D2F08002C2F0A2F0E4339006F8F0BD
:101FB3009003B7E0A2E7400302204D9003B5E0F899
:101FC300900336E068600302204DA37401807AE039
:101FD30024F59006F5F09003B2E0F9122055500471
:101FE300D2F08002C2F0A2F0E4339006F8F090033E
:101FF300BAE0F8A3E0F99006F1E8F0A3E9F090065F
:10200300F674BCF0A37403F012206374BC28F87454
:102013000339F988828983E09006F9F088828983FD
:10202300A3E0A2E7501C9006F0E0F89003B5E06847
:1020330060109003B3E054DF644170069006FA74B5
:1020430001F09003B5E09006F0F01203801204460D
:1020530080187AB37B031204289003B3E0A2E5222D
:102063009006F5E0F83395E0F922D083D0820200A0
:10207300FB74F7120621EAFEEBFF120404E9640184
:1020830070047901804E12038090033DEEF0A3EFBC
:10209300F09006F6E4F0A3F090033804F09006FC09
:1020A30012059290033912059E1220DCA3A3E0F9D6
:1020B3001204101221DBFAA3E0FB1204161220DC37
:1020C300E0FAA3E0FB12041C7A3E7B0312044C12D9
:1020D300037A79007F0102068D1220E02290033DEE
:1020E300E0F8A3E0F5838882A3A32274F412062107
:1020F300EAFEEBFF8C088D09890A900338E0700330
:10210300120434E50AC394675005850A0B800375EE
:102113000B67120452120440740B250B90033FF01B
:102123001221E89003406004746180027441F0A3BB
:102133007488F0900336E0900342F090033E12203F
:10214300E6E0F8A3E0F9900343E8F0A3E9F0A3EE97
:10215300F0A3EFF01221DBF8A3E0F9900347E8F0D6
:10216300A3E9F07A0080218A82A882E50828F58213
:10217300E5093400F583E0C0E0744928F58274036F
:102183003400F583D0E0F00AEAC3950B40D9740A12
:10219300250BF97A3F7B0312042212044612042E04
:1021A3001221E86012900337E4F07A4A7B021203AB
:1021B300F8900337E060047E0080027E01900338CC
:1021C300E0700312043AEEA2E04006900336E00406
:1021D300F0EEF97F0402068D90033DE0F8A3E0F5ED
:1021E300838882E0221220E0A3A3A3E02274F212E8
:1021F30006218A088B09890AECFEEDFF120380127F
:102203002063850A0CC3E8950CE99400A2D265D03B
:1022130033500AE0F50C3395E0F50D8003750D009E
:10222300780C12078A9006F6E0FCA3E0FDAA08AB3F
:102233000912046A74021205E0EE4F601E12040ACA
:10224300E9F5089006F9122066E8C39508F8E994C1
:1022530000F98E828F83E8F0A3E9F09006FAE4F0A8
:1022630012037A122063850A08C3E89508E99400EB
:10227300A2D265D0335004E0F98002A90A7F060296
:10228300068DC082C0839003387401F012043402B7
:10229300206DC082C083D2A4D2A37A027B00120332
:1022A300F8C2A38002D2A47A027B001203F8C2A46C
:1022B3007A027B001203F8D083D0820200FBC08233
:1022C300C083C2A37A027B001203F8D2A47A027BF2
:1022D300001203F8D2A380D8C082C083C2A380C5F2
:1022E300C082C083D2A380BD74F7120621E9FF7EAA
:1022F30008EFA2E75004D2A38002C2A3D2A4C3333F
:10230300FF1223501EEE70E98002EEF97F010206F0
:102313008D74F71206217E00D2A353F5F753FFF70E
:1023230053F7F753F77F7A027B001203F87F08D243
:10233300A4EEC333FEA2A35003D2E0FE1223501F28
:10234300EF70EC53F5F7D2A343FF0880BD7A027B0D
:10235300001203F8C2A47A027B001203F82274F776
:10236300120621E9FFEAFE122377EEF91223BC12CB
:10237300038C809812038679E01223C0790012231C
:10238300C0EFF91223C02274F612062112038679D4
:10239300E01223BC79001223BC79081223BC122358
:1023A300C71203921203A4E9F50812039812038CCF
:1023B300EEAA08FB7F0202068D1223C02212039E9F
:1023C3001203922212038C12038679E11223C012A4
:1023D30003A4E9FE22C082C0837A6279001203AAB1
:1023E3007AF779021203AA7A0779031203AA7A0009
:1023F30079041203AA7A0079051203AA7A30790EB6
:102403001203AA7A6A79001203AA0222BA74F61294
:1024130006211203B08A088B0978081207D100003D
:10242300140082007B2484007F248800832490008E
:10243300A724A000B3240201872404018B240801EC
:102443008F241001AB242001B72402029324040239
:10245300972408029B241002AF242002BB24020409
:102463009F24040477240804A3241004BF24200415
:10247300C324C7247E30804E7E31804A7E3280461C
:102483007E3380427E34803E7E35803A7E3680368F
:102493007E3780327E38802E7E39802A7E2A8026BF
:1024A3007E2380227E41801E7E42801A7E438016D8
:1024B3007E4480127E45800E7E46800A7E558006CD
:1024C3007E4E80027E0090045DE004F0C394C94018
:1024D30008E4F07A6AF91203AAEE60117AAA7B0A79
:1024E3001203627A147B001203FE120368EEF902F0
:1024F30023B774F7120621E9FE43FD40C286022585
:102503009774F7120621E9FE43FD40D28602259710
:1025130074F7120621EAFEEBFF890880128E828F80
:1025230083E0F91203C88E828F83A3AE82AF83A8A0
:102533000874FF28F5080470E40225B1C082C08343
:1025430043FD40C2A07A1E12258179301203C27A5C
:102553000212258112257B12257B79101203C27981
:10256300061203C2790112257D1203DA790C1203D4
:10257300C2D083D0820200FB793812258C227B00E3
:102583001203FE793012258C221203C27A027B00D9
:102593001203FE228E90D2A07A027B001203F8C2AD
:1025A300A07A507B001203F8900432E0F5907F018B
:1025B30002068D74F712062179801203C27E107908
:1025C300201203C81EEE70F779C01203C27E107981
:1025D300201203C81EEE70F780D474F7120621E9A7
:1025E300FF8A08EBFE74026F70087440250844806C
:1025F300800474804508F91203C2EEF91203C880FF
:10260300AD74F612062189088A09ECFEEDFF740207
:102613006508700874402509448080047480450966
:10262300F91203C2EEFAEFFB120470EAF9EEFAEFC5
:10263300FB1203CE7F0202068DC082C083D285D2F5
:10264300847A027B001203F8C2848002D2857A0264
:102653007B001203F8C2857A027B001203F8D08351
:10266300D0820200FBC082C083C2847A027B001244
:1026730003F8D2857A027B001203F8D28480D8C093
:1026830082C083C28480C5C082C083D28480BD746B
:10269300F7120621E9FF7E08EFA2E75004D28480F7
:1026A30002C284D285C333FF1226F21EEE70E98084
:1026B30002EEF97F0102068D74F71206217E00D225
:1026C3008453F3EF53FDEF538FEF53F7DF7A027B1E
:1026D300001203F87F08D285EEC333FEA2845003B1
:1026E300D2E0FE1226F21FEF70EC12271A80C27A94
:1026F300027B001203F8C2857A027B001203F822E0
:10270300C082C08312271A53F3DFD28543FD207999
:10271300001202D802266153F3EFD28443FD102244
:1027230074F7120621E9FFEAFE122760EE12276D05
:102733001202AE7A057B001203FE0226B674F7126C
:102743000621E9FF1227601202A879A112276E124F
:1027530002C6E9FE1202BA1202AE0226B41202A89F
:1027630079A012276EEF12276D22F91202C012020E
:10277300B42274F012062174FB1205CA7401120606
:1027830015EAF0A3EBF0A3ECF0A3EDF07A667B057A
:102793007401120615C082C0839006FC78081205E6
:1027A30074D083D0827808120476851082851183D1
:1027B300501C7401F012061578081205747808127B
:1027C3000563740112061578081205838002E4F08C
:1027D3007401120615780C1205749007007808121C
:1027E3000574780C7908120525E50824308A828B54
:1027F30083F0A3AA82AB837401120615780C120529
:10280300749007007808120574780C79081205256E
:102813007401120615780C120583740112061578DB
:1028230008120574E5084509450A450B70A2851091
:1028330082851183E0A2E0500B8A828B83742DF092
:10284300A30AAB838A828B83E4122887786679058F
:10285300801D8A828B83E0FC88828983E08A828B55
:1028630083122887EC88828983F0A3A882A983C373
:10287300E89AE99B40DC7A667B0574051205E07FE4
:102883000802068DF0EA24FF1AEB34FFFB22C08214
:10289300C083906189E04460F090619074D5F090BA
:1028A30061FA7409F09061B27415F09061AEE4F0CE
:1028B30012044679008004F0EBA3F0D083D08202A7
:1028C30000FB79490200FBC082C08375F005E9A4CF
:1028D30024D490618F80E3C082C083EA90617480C6
:1028E300D6C082C083EA90617280CC74F61206214E
:1028F30075E1EE7591FD7800800312290AE8C3990A
:1029030040F87F0202068D8808EA2508F582EB3439
:1029130000F583E0F5D90822C082C083800DE5D994
:102923008A828B83F0A3AA82AB8319E970F0022811
:10293300BE79000200FB75E1E9E591A2E150FA7569
:1029430091FD80ED75E1EC75E1E30200FB75E1EFCC
:1029530075E1EC0200FBC082C0839061A3E0C2E694
:10296300F0539AFE0228BEC082C0839061A3E0D2D6
:10297300E6F0439A010228BEC082C083E5A8F8C2EC
:10298300AF90045EEAF0A3EBF0E8A2E792AF02286F
:10299300BEC082C083906193E0542270F80228BEC7
:1029A300C082C08353F1FE43F30C53F2F375868068
:1029B30075C48075C2D875C50B75C402438640D2F1
:1029C300AA75C1009004E0E4F0A3F0900563F0A3BE
:1029D300F09004E2F0900565F0D083D0820200FB12
:1029E3007F0102068D74F7120621900563E0F8A3B8
:1029F300E0C398900563E0F8A3E0FEE85018C39E97
:102A0300F895E0F9E824FF18E934FFF9E849701B69
:102A1300780079008029C39EF895E0F9E8247FF8CF
:102A2300E93400F9C3E89CE99D50E57A007B008016
:102A330046E004F0439A04E8240108E93400F9C3AA
:102A4300E89CE99D502D8A828B83E0C0E090056469
:102A5300E0FE74E32EF58274043400F583D0E012B3
:102A63002A7D900565E4F0900564E0C3947F40C13E
:102A7300E480C0E8FAE9FB0229E3F08A828B83A3AE
:102A8300AA82AB8322C082C0837900120374D083ED
:102A9300D0820200FBEBC313FBEA13FAEAF8EBF96B
:102AA300E824FFFAE934FFFBE84960120000000064
:102AB30000000000000000000000000080DE0200B3
:102AC300FB74F7120621EAFEEBFFEEF8EFF9E824B8
:102AD300FFFEE934FFFFE84960097AE87B0312034C
:102AE300F880E77F0102068DC082C0831203F25390
:102AF300F5EFD2A443FF1053F5F7D2A343FF0853D6
:102B0300F5F753FFF743F70853F5FEC2A043FF0160
:102B130053F3BFC28643FD4075F4007590FF75FE05
:102B2300FF900432E4F07590001203D41203B6123E
:102B3300045812037AD083D0820200FB74F6120683
:102B430021740A120615E0FEA3E0FFEAF8EBF98010
:102B5300188C828D83E088828983F0A3A882A9835D
:102B63008C828D83A3AC82AD838E088F09E5082404
:102B7300FF1EE50934FFFFE508450970D47F020213
:102B8300068DE5C65480F853BEFBE59DA2E550FAD9
:102B9300E59DA2E240F4007401697007744948F5A9
:102BA300C68005E9700288C6E5C6F8E59E6870FB35
:102BB30043BE040200FBC082C0838A828B838001F0
:102BC300A3E070FCE582C39AFAE5839BFBD083D034
:102BD300820200FBD2AF0200FBC2AF0200FB020085
:0C2BE300FB0200FB0200FB89900200FBDB
:04000005000000E314
:00000001FF
