:020000040000FA
:030000000200E318
:03001300020935AA
:030033000208A61A
:03003B0002098433
:03006B000207E0A9
:03007B000208393F
:100083000208FD00000080FB12013FB900030200DB
:10009300CDE4900101785B79058002F0A3D8FCD907
:1000A300FA90055BAA82AB83900142780E790280B5
:1000B30015E493A3AC82AD838A828B83F0A3AA82D7
:1000C300AB838C828D83D8E9D9E77582D675830992
:1000D30074001200F575828675830074001200F5B2
:1000E30075D0007581BF751001751101759F0002F0
:1000F300008BC0F0F5F0E59F5407C0E0E59F54F88E
:1001030045F0D0F0F59FE473859FF053F0F8D0E00D
:1001130045F0F59F22D083D082E59F5407C0E0E4E9
:1001230093C0E0740193C0E07402935407C0F0F5E8
:10013300F0E59F54F845F0D0F0F59F22790122496C
:100143002E4F2E4C5F53797374656D3A4D5F4100AA
:100153005461726765743A4142435F5F5F00496E61
:100163007075742050726F6772616D5F31005F5FED
:10017300005072657373202A206F722023005F5F23
:10018300205072657373202A206F722023005F5FF3
:1001930030306D732044656C617920202020005439
:1001A3006172676574203A20312032203320340095
:1001B30053656E645F5A6F6E65203A20535F41202A
:1001C3000053656E645F5A6F6E65203A20535F4239
:1001D300200053656E645F5A6F6E65203A20535F4B
:1001E30043200053656E645F4D6F6465203A203190
:1001F300200053656E645F4D6F6465203A203220A2
:100203000053656E645F4D6F6465203A20332000B0
:10021300536C6176652020576F6B696E670050726F
:100223006F6772616D3A004100420043005461728E
:100233006765743A41424300FF000000000000007C
:1002430000000000000000000A00000012011886F0
:100253001600120118B21600120118CC1600120172
:1002630018D41600120118DC160012011805170025
:100273001201184D17001201186D17001201188A88
:100283001700120118F909001201185D0A00120182
:10029300187A0B00120118B00B00120118730C002E
:1002A300120118E50C001201185C0D00120118CBA5
:1002B3000D00120118940E00120118F30E00120122
:1002C30018560F00120118BE0F00120118B31000C8
:1002D3001201182D11001201182F12001201183AE1
:1002E3001200120118CF12001201181C1B00120178
:1002F30018521C00120118551C00120118581C003A
:10030300120118F61B00120118481C001201184DA7
:100313001C00120118DF12001201180B1300120146
:10032300182513001201182D13001201183513009C
:100333001201185E1300120118AB1300120118D436
:1003430013001201182214001201185A140012018A
:10035300183F15001201184E15001201185D150003
:10036300120118891500120118001600120118272E
:1003730016001201184E1600120118ED1900120191
:1003830018581A00120118B91A00120118C91A00D4
:10039300120118F51A00120118DB18001201180FC8
:1003A300190012011814190012011824190012015E
:1003B300182E1900120118381900120118651900B6
:1003C3001201188319001201189119001201189AC9
:1003D3001900120118A31900120118B4190012010F
:1003E30018C51900120118DE1900120118B61B00F6
:1003F300120118BF1700120118701B001201182AEE
:100403001C00C3E09608A3E09608A3E09608A3E0C7
:1004130096A2D265D03322E4CFC0E0E4CEC0E0E4BC
:10042300CDC0E0E4CCC0E075F020C3E633F608E6C7
:1004330033F608E633F608E633F6181818EC33FCFF
:10044300ED33FDEE33FEEF33FFC3EC9709ED970970
:10045300EE9709EF97191919400FFFEC97FC09ED77
:1004630097FD09EE97FE191906D5F0BEECF709EDD5
:10047300F709EEF709EFF7191919D0E0FCD0E0FD01
:10048300D0E0FED0E0FF221204F218181812041A6A
:100493001204E1191919221204E11919190808089B
:1004A300E618181820E7E012041A1204F2181818B4
:1004B30022090909E719191920E7DC080808E618D1
:1004C300181820E70302041A1204F2181818120469
:1004D3001A1204F21818181204E119191922E4C3A4
:1004E30097F709E497F709E497F709E497F722E404
:1004F300C396F608E496F608E496F608E496F62220
:10050300E0F608A3E0F608A3E0F608A3E0F622E687
:10051300F008A3E6F008A3E6F008A3E6F022E0FA69
:10052300A3E0FBA3E0FCA3E0FD22EAF0A3EBF0A32E
:10053300ECF0A3EDF022CAC0E0E6F0A308DAFAD0AB
:10054300E0FA22700422600D18C6C333C608C6330E
:10055300C6D5E0F41822251010AF08F51040021597
:10056300118008F51040021511D2AF22C0D025101A
:1005730010AF08F510500205118008F51050020560
:1005830011D2AFD0D0222510F58210AF08F510405C
:100593000215118008F51040021511D2AF851183A1
:1005A300222510F582E43511F58322E4732510C565
:1005B30082C0E0E51134FFC583C0E0E510C3958236
:1005C30024F810AF08858311858210800885831174
:1005D300858210D2AFCEF0A3E520F0A37808E60819
:1005E300F0A3DEFAEFF0A3E58124FAF8E608F0A31E
:1005F300E608F0A3E608F0A30808E608F0A3E60877
:10060300F0A315811581D0E0FED0E0F815811581A6
:100613001581E8C0E0EEC0E022851183851082E0F9
:10062300A3FEE0A3F5207808E0A3F608DFFAE0A331
:10063300FFE0A3C0E0E0A3C0E0E0A3C0E0E0A3C00C
:10064300E0E0A3C0E010AF08858210858311800825
:10065300858210858311D2AFD083D08202010BC073
:10066300D02510C582C0E0E51134FFC583C0E0E5A5
:1006730010C3958224F310AF0885831185821080FF
:1006830008858311858210D2AFC8F0A3E9F0A3EAED
:10069300F0A3EBF0A37908E709F0A3D8FAECF0A3F1
:1006A300EDF0A3EEF0A3EFF0A3D0E0F0A3D0E0F0E1
:1006B300A3D0E0F0A3E520F0A3E5F0F0A322851199
:1006C30083851082E0C0E0A3E0F9A3E0FAA3E0FB96
:1006D300A37808E0F608A3DFFAE0FCA3E0FDA3E0BB
:1006E300FEA3E0FFA3E0C0E0A3E0C0E0A3E0F5D0F9
:1006F300A3E0F520A3E0A3F5F010AF0885831185EF
:1007030082108008858311858210D2AFD082D08376
:10071300D0E0F8D0E03274028000C0E0F4041205A7
:1007230089D0E012053922D083D082ECC0E0EDC03D
:10073300E0E493A3FCE493A3FDED4C600D12077674
:10074300EC24FFFCED34FFFD80EFE493A3FCE49382
:10075300A3FDED4C600D1207B5EC24FFFCED34FF57
:10076300FD80EFD0E0FDD0E0FCE493A3C0E0E49390
:10077300C0E022C0E0C3E493960874019396184046
:100783000FE493667008087401936618700070197B
:10079300A3A3C3E49396087401939618A3A3400DEF
:1007A300D0E0D0E0D0E0020766A3A3A3A3A3A3D025
:1007B300E022C0E0C0F088F0E4936670080874019A
:1007C3009366187000A8F0A3A3700BD0F0D0E0D00C
:1007D300E0D0E0020766A3A3D0F0D0E022C0E0742B
:1007E300F1120662C2C5E58960477E00750801758E
:1007F3000900EE7808120546AF08E5895F602BEE25
:10080300C333F8E433F9741C28F582740412088F97
:100813006014EEC333F8E433F9741C28F5827404CE
:1008230012089A1205AEEFF452890EEEC3940840F3
:10083300BB7F020206C1C0E074F1120662C2EBE59F
:100843008A60477E00750801750900EE7808120575
:1008530046AF08E58A5F602BEEC333F8E433F974DF
:100863002C28F582740412088F6014EEC333F8E465
:1008730033F9742C28F582740412089A1205AEEF2A
:10088300F4528A0EEEC3940840BB80A539F583E089
:10089300F8A3E0F9E8492239F583E0F8A3E0F5830A
:1008A300888222C0E074F1120662C2E8E58B6047D9
:1008B3007E00750801750900EE7808120546AF0839
:1008C300E58B5F602BEEC333F8E433F9743C28F512
:1008D30082740412088F6014EEC333F8E433F9749E
:1008E3003C28F582740412089A1205AEEFF4528B79
:1008F3000EEEC3940540BB020834C0E074F2120646
:1009030062A2AFE433FEC2AFE5E9A2E6501A900457
:1009130047E0F8A3E0F9E8496008E0F5838882122C
:1009230005AE759B0053E9BFEEA2E092AF7F0102D3
:1009330006C1C0E0C0D0E8C0E0E9C0E0C082C08327
:10094300E5C1C0E09004CAE0F8744928F582740454
:100953003400F583D0E0F09004C9E0F8A3E06870B8
:1009630004E595A3F09004CAE004F0C39480400228
:10097300E4F0D083D082D0E0F9D0E0F8D0D0D0E05A
:1009830032C0E0C0D0E8C0E0C008C009C082C08364
:1009930090054CE0F8A3E0687008539AFBA3740138
:1009A3008026C2E990054CE0F50874012508F0742F
:1009B300CC2508F58274043400F583E0F5C1900575
:1009C3004CE0C394804002E4F0D083D082D009D0BD
:1009D3000880A61202851202C1120CD86441600A73
:1009E300E064426005E0644370031202A37A2C7B47
:1009F3000112039380E0C082C0839003017411F05D
:100A0300A3F0A304F0A37401F01202EB1203631228
:100A13000273790812037B7A2C7B011202FD900288
:100A2300FF7433F0A3F07AFF7B021202CD1202E5CA
:100A33007C5B7D057A0079011203757C6C7D057AF8
:100A430000790212037590031DE4F0900317F0A3DD
:100A5300F0A3F0D083D08202010B74F61205B074B8
:100A6300FE120559900306E4F07F011203697A2C04
:100A73007B011203937C7A7D057A00790112037559
:100A83007C8A7D057A007902120375EFFB7A0E7971
:100A930001120291802F12029DE9FA120C4E740B7F
:100AA3006A601B120CD8FB900306E0FA790212036A
:100AB3006F7A647B001202FD900306E004F07A2C47
:100AC3007B01120393900306E0C3940240C88F8214
:100AD300AA82EAC333F8E433F9740728F8740339B4
:100AE300F9851082851183E075F00AA4FC85F0086E
:100AF300AD0874011205A4E0F508EC2508FCED34FB
:100B030000FD88828983ECF0A3EDF088828983E07D
:100B1300C0E074022AF58274013400F583D0E0F05A
:100B23007C8D7D057A037902120375120C48700BD4
:100B33007A647B001202FD0F120B6A900305E064D6
:100B43002A700A7A647B001202FD120B6A7A2C7BEC
:100B530001120393EFC394095003020A8E74021225
:100B6300056F7F0202061C900306E4F07C9A7D0564
:100B7300FA79021203752274F41205B0E9FFEAFE52
:100B8300EBFAE4FBFCFD1203F38A0A8B0BAC0AAD10
:100B93000B74016F7006EEFA7901800974026F70AD
:100BA30007EEFA79021203757F0402061C74F7122A
:100BB30005B074FE1205597CAA7D057A00790212EC
:100BC3000375900306E4F08024E0642A700F900319
:100BD30006E4F07CAA7D05FA79021203757A2C7B70
:100BE30001120393900306E0C39402502D7A2C7BE9
:100BF3000112039312029D12029DE9C3940A50E469
:100C030012029DE9FB120C4E900306E0FA790212E0
:100C13000291900306E004F080CA120C4870AA7493
:100C2300011205A4C082C08375F00A851082851164
:100C330083E0A4D083D082F8E028900102F074020C
:100C430012056F8026120CDC642322900306E0F861
:100C5300851082851183E58228F582E5833400F5CA
:100C630083E9F0227A0079021203757F0102061CE0
:100C7300C082C083120CD86431700479018053E0C0
:100C8300643270047902804AE0643370047903802B
:100C930041E06434700479048038E0643570047989
:100CA30005802FE06436700479068026E06437708F
:100CB300047907801DE06438700479088014E064C7
:100CC3003970047909800BE0643070047900800284
:100CD300790B020A56120CDC2212034BE99003052E
:100CE300F02274F71205B0E9FE7A647B001202FD6C
:100CF3001203697CBB7D057A007902120375EE2429
:100D0300BF600814601914602A803D7CCC7D057A8D
:100D130000790112037579001202A9790080267CFB
:100D2300DD7D057A00790112037579011202A97933
:100D33000180127CEE7D057A007901120375790238
:100D43001202A979021202BB7AE87B0312039312FF
:100D53000E857C6C7D05020C6774F71205B0E9FE05
:100D630012029DE9FF74FF2FC3940450F37A647B4E
:100D7300001202FDEF14600B14601C14602B14604E
:100D83003F80427CFF7D057A0079021203757A0168
:100D9300EEF91202B5802E12028B7C0E7D067A00CC
:100DA30079021203757A0280E71202977C1D7D0691
:100DB3007A0079021203757A03EEF91202B58005FF
:100DC300EEF91202AF020C6E74F71205B0E9FE12CF
:100DD30003697C2C7D067A0079011203757C3A7DC8
:100DE300067A007902120375800C79071203817A5F
:100DF300647B001203931202D9E960EE7C007D004C
:100E030079FF7A007B021202DFE9606C900200E056
:100E130014600814600C1460108014A3E090031A8B
:100E2300800CA3E090031B8005A3E090031CF0EE6D
:100E3300600814601514602280377C437D067A05B0
:100E4300790112037590031A801E7C457D067A058D
:100E5300790112037590031B800E7C477D067A058A
:100E6300790112037590031CE0FB7A0979021202DF
:100E730091120CD8642A7084120E857C497D060277
:100E83000C671203697C5B7D057A00790112037597
:100E93002274F51205B0E9FF8A0A7401650A700924
:100EA3007A0175F00AEFA4803E7402650A70277A0E
:100EB3000275F00AEFA4F91202797E028E08120F6E
:100EC30049E0FA75F00AEFA42EF91202790EEEC387
:100ED300940A501780E67403650A700F900102E0CC
:100EE300FA75F00AEFA404F91202797F0302061CD3
:100EF30074F61205B0E9FF7E0075F00AEFA42EF92F
:100F030012027F8E08120F430EEEC3940A40EAEFDB
:100F1300700A79FF7C017D017A22801C74016F7055
:100F23000A79FF7C017D017A33800D74026F700DA5
:100F330079FF7C017D017A447B221202D3020B6587
:100F4300120F49E9F02274012508F5827401340077
:100F5300F58322C082C0837C007D0079FF7A007B09
:100F6300021202DFE96051900201E0F4704A90033B
:100F73001DE0F8741E28F874033400F9E8FAE9FB5D
:100F8300900200E08A828B83F0900201E4F09003E8
:100F93001DE00490010BF0A374FFF0F97C017D01C7
:100FA3008A828B83E0FA7B001202D390031DE00454
:100FB300F090010BE4F0A3F0020A56C082C0831242
:100FC30003D512030979017A9B7B031203BD9003B6
:100FD3009BE0C2E7F0640570347905121093500466
:100FE300D2F08002C2F0A2F0E43390065CF09003EA
:100FF300A0E0A2E7400302108B90039EE0F8900369
:101003001FE068600302108BA37401807AE024F56B
:10101300900659F090039BE0F91210935004D2F01C
:101023008002C2F0A2F0E43390065CF09003A3E0E8
:10103300F8A3E0F9900655E8F0A3E9F090065A7496
:10104300A5F0A37403F01210A174A528F874033952
:10105300F988828983E090065DF088828983A3E022
:10106300A2E7501C900654E0F890039EE0686010DD
:1010730090039CE054DF6441700690065E7401F0B7
:1010830090039EE0900654F012030F1203DB8019C5
:101093007A9C7B031203BD90039CE0A2E522900699
:1010A30059E0F83395E0F922F9D083D08202010B9D
:1010B30074F71205B0EAFEEBFF120399E9640170BD
:1010C300047901804E12030F900326EEF0A3EFF094
:1010D30090065AE4F0A3F090032104F09006601206
:1010E300052190032212052D12111BA3A3E0F9126F
:1010F30003A512121AFAA3E0FB1203AB12111BE0B1
:10110300FAA3E0FB1203B17AC77B021203E11203D5
:101113000979007F0102061C12111F22900326E0A9
:10112300F8A3E0F5838882A3A32274F41205B0EA3E
:10113300FEEBFF8C088D09890A900321E0700312EE
:1011430003C9E50AC394675005850A0B8003750B31
:10115300671203E71203D5740B250B900328F012D3
:1011630012279003296004746180027441F0A37410
:1011730088F090031FE090032BF0900327121125B2
:10118300E0F8A3E0F990032CE8F0A3E9F0A3EEF074
:10119300A3EFF012121AF8A3E0F9900330E8F0A3DA
:1011A300E9F07A0080218A82A882E50828F582E5A1
:1011B300093400F583E0C0E0743228F58274033407
:1011C30000F583D0E0F00AEAC3950B40D9740A25F1
:1011D3000BF97A287B031203B71203DB1203C31242
:1011E30012276012900320E4F07A4A7B0212038DE7
:1011F300900320E060047E0080027E01900321E0E2
:1012030070031203CFEEA2E0400690031FE004F048
:10121300EEF97F0402061C900326E0F8A3E0F583B1
:101223008882E02212111FA3A3A3E022C082C083FD
:1012330090065EE00210AB74F21205B08A088B09C7
:10124300890AECFEEDFF12030F1210A1850A0CC3ED
:10125300E8950CE99400A2D265D033500AE0F50C6E
:101263003395E0F50D8003750D00780C1207199086
:10127300065AE0FCA3E0FDAA08AB091203F97402C5
:1012830012056FEE4F601E12039FE9F50890065D8D
:101293001210A4E8C39508F8E99400F98E828F83AD
:1012A300E8F0A3E9F090065EE4F01203091210A13E
:1012B300850A08C3E89508E99400A2D265D03350A3
:1012C30004E0F98002A90A7F0602061CC082C083DB
:1012D3009003217401F01203C90210ACC082C083D1
:1012E300D2A4D2A37A027B0012038DC2A38002D2BE
:1012F300A47A027B0012038DC2A47A027B0012033C
:101303008DD083D08202010BC082C083C2A37A0234
:101313007B0012038DD2A47A027B0012038DD2A329
:1013230080D8C082C083C2A380C5C082C083D2A339
:1013330080BD74F71205B0E9FF7E08EFA2E7500401
:10134300D2A38002C2A3D2A4C333FF12139A1EEE08
:1013530070E98002EEF97F0102061C74F71205B0F2
:101363007E00D2A353F5F753FFF753F7F753F77FF5
:101373007A027B0012038D7F08D2A4EEC333FEA250
:10138300A35003D2E0FE12139A1FEF70EC53F5F74C
:10139300D2A343FF0880BD7A027B0012038DC2A44F
:1013A3007A027B0012038D2274F71205B0E9FFEA7B
:1013B300FE1213C1EEF912140612031B80981203D6
:1013C3001579E012140A790012140AEFF912140ABB
:1013D3002274F61205B012031579E012140679008F
:1013E300121406790812140612141112032112039F
:1013F30033E9F50812032712031BEEAA08FB7F0249
:1014030002061C12140A2212032D120321221203B4
:101413001B12031579E112140A120333E9FE22C0E9
:1014230082C0837A6279001203397AF77902120350
:10143300397A0779031203397A0079041203397A66
:101443000079051203397A30790E1203397A6A79F1
:101453000012033902130474F61205B012033F8A13
:10146300088B09780812072A000014008200C514AB
:101473008400C9148800CD149000F114A000FD1459
:101483000201D1140401D5140801D9141001F51473
:10149300200101150202DD140402E1140802E5141F
:1014A3001002F914200205150204E9140404C114FE
:1014B3000804ED141004091520040D1511157E30D0
:1014C300804E7E31804A7E3280467E3380427E3437
:1014D300803E7E35803A7E3680367E3780327E3857
:1014E300802E7E39802A7E2A80267E2380227E419A
:1014F300801E7E42801A7E4380167E4480127E4583
:10150300800E7E46800A7E5580067E4E80027E00D7
:10151300900446E004F0C394C94008E4F07A6AF901
:10152300120339EE60117AAA7B0A1202F17A147B54
:10153300001203931202F7EEF902140174F7120575
:10154300B0E9FE43FD40C2860215E174F71205B00F
:10155300E9FE43FD40D2860215E174F71205B0EAB5
:10156300FEEBFF890880128E828F83E0F912035706
:101573008E828F83A3AE82AF83A80874FF28F508F9
:101583000470E40215FBC082C08343FD40C2A07A0D
:101593001E1215CB79301203517A021215CB121594
:1015A300C51215C579101203517906120351790139
:1015B3001215C7120369790C120351D083D082022A
:1015C300010B79381215D6227B001203937930125E
:1015D30015D6221203517A027B00120393228E90B6
:1015E300D2A07A027B0012038DC2A07A507B001234
:1015F300038D90041BE0F5907F0102061C74F71223
:1016030005B079801203517E1079201203571EEE24
:1016130070F779C01203517E1079201203571EEE22
:1016230070F780D474F71205B0E9FF8A08EBFE74F3
:10163300026F700874402508448080047480450854
:10164300F9120351EEF912035780AD74F61205B087
:1016530089088A09ECFEEDFF74026508700874407E
:1016630025094480800474804509F9120351EEFA78
:10167300EFFB1203FFEAF9EEFAEFFB12035D7F02C1
:1016830002061CC082C083D285D2847A027B0012F8
:10169300038DC2848002D2857A027B0012038DC23D
:1016A300857A027B0012038DD083D08202010BC0A6
:1016B30082C083C2847A027B0012038DD2857A02B0
:1016C3007B0012038DD28480D8C082C083C2848001
:1016D300C5C082C083D28480BD74F71205B0E9FF10
:1016E3007E08EFA2E75004D2848002C284D285C36D
:1016F30033FF12173C1EEE70E98002EEF97F010200
:10170300061C74F71205B07E00D28453F3EF53FD29
:10171300EF538FEF53F7DF7A027B0012038D7F08BD
:10172300D285EEC333FEA2845003D2E0FE12173CEF
:101733001FEF70EC12176480C27A027B0012038DD4
:10174300C2857A027B0012038D22C082C0831217E6
:101753006453F3DFD28543FD20790012027F021622
:10176300AB53F3EFD28443FD102274F71205B0E9B3
:10177300FFEAFE1217AAEE1217B71202557A057B7B
:101783000012039302170074F71205B0E9FF121752
:10179300AA12024F79A11217B812026DE9FE1202C2
:1017A300611202550216FE12024F79A01217B8EF0A
:1017B3001217B722F912026712025B2274F01205A4
:1017C300B074FB12055974011205A4EAF0A3EBF0FF
:1017D300A3ECF0A3EDF07A4F7B0574011205A4C0CE
:1017E30082C0839006607808120503D083D0827884
:1017F30008120405851082851183501C7401F012B0
:1018030005A4780812050378081204F2740112057E
:10181300A478081205128002E4F074011205A4787A
:101823000C1205039006647808120503780C7908F6
:101833001204B4E50824308A828B83F0A3AA82AB16
:101843008374011205A4780C1205039006647808CA
:10185300120503780C79081204B474011205A478F4
:101863000C12051274011205A47808120503E50889
:101873004509450A450B70A2851082851183E0A2B4
:10188300E0500B8A828B83742DF0A30AAB838A8288
:101893008B83E41218D1784F7905801D8A828B835C
:1018A300E0FC88828983E08A828B831218D1EC88DA
:1018B300828983F0A3A882A983C3E89AE99B40DCC9
:1018C3007A4F7B05740512056F7F0802061CF0EA48
:1018D30024FF1AEB34FFFB22C082C083906189E0AE
:1018E3004460F090619074D5F09061FA7409F090BF
:1018F30061B27415F09061AEE4F01203DB790080FD
:1019030004F0EBA3F0D083D08202010B79490201EA
:101913000BC082C08375F005E9A424D490618F8045
:10192300E3C082C083EA90617480D6C082C083EA38
:1019330090617280CC74F61205B075E1EE7591FD7D
:1019430078008003121954E8C39940F87F02020615
:101953001C8808EA2508F582EB3400F583E0F5D905
:101963000822C082C083800DE5D98A828B83F0A3CD
:10197300AA82AB8319E970F0021908790002010BFE
:1019830075E1E9E591A2E150FA7591FD80ED75E10C
:10199300EC75E1E302010B75E1EF75E1EC02010B7C
:1019A300C082C0839061A3E0C2E6F0539AFE02199D
:1019B30008C082C0839061A3E0D2E6F0439A01029B
:1019C3001908C082C083E5A8F8C2AF900447EAF0C3
:1019D300A3EBF0E8A2E792AF021908C082C083909C
:1019E3006193E0542270F8021908C082C083E9149D
:1019F300601714601C14602114602614602B14609B
:101A03003014603514603A803F90041BE0D2E080CC
:101A13003690041BE0D2E1802E90041BE0D2E280DA
:101A23002690041BE0D2E3801E90041BE0D2E480E6
:101A33001690041BE0D2E5800E90041BE0D2E680F2
:101A43000690041BE0D2E7F090041BE0F590D083EE
:101A5300D08202010BC082C083E914601714601C9A
:101A630014602114602614602B1460301460351444
:101A7300603A803F90041BE06401803690041BE0D1
:101A83006402802E90041BE06404802690041BE013
:101A93006408801E90041BE06410801690041BE011
:101AA3006420800E90041BE06440800690041BE0D9
:101AB3006480F0021A4BC082C0837900120303D002
:101AC30083D08202010BEBC313FBEA13FAEAF8EBB0
:101AD300F9E824FFFAE934FFFBE84960120000004B
:101AE3000000000000000000000000000080DE0293
:101AF300010B74F71205B0EAFEEBFFEEF8EFF9E81D
:101B030024FFFEE934FFFFE84960097AE87B03120A
:101B1300038D80E77F0102061CC082C08312038706
:101B230053F5EFD2A443FF1053F5F7D2A343FF08B5
:101B330053F5F753FFF743F70853F5FEC2A043FFEE
:101B43000153F3BFC28643FD4075F4007590FF75E2
:101B5300FEFF90041BE4F07590001203631203452B
:101B63001203ED120309D083D08202010B74F61223
:101B730005B0740A1205A4E0FEA3E0FFEAF8EBF94E
:101B830080188C828D83E088828983F0A3A882A940
:101B9300838C828D83A3AC82AD838E088F09E50885
:101BA30024FF1EE50934FFFFE508450970D47F02D1
:101BB30002061CC082C08353F1FE43F30C53F2F3BD
:101BC30075868075C48075C2D875C50B75C402430C
:101BD3008640D2AA75C1009004C9E4F0A3F0900531
:101BE3004CF0A3F09004CBF090054EF0D083D0825C
:101BF30002010BE5C65480F853BEFBE59DA2E550F8
:101C0300FAE59DA2E240F400740169700774494843
:101C1300F5C68005E9700288C6E5C6F8E59E6870DA
:101C2300FB43BE0402010BC082C0838A828B838084
:101C330001A3E070FCE582C39AFAE5839BFBD083A2
:101C4300D08202010BD2AF02010BC2AF02010B0221
:081C5300010B02010B02010B61
:04000005000000E314
:00000001FF
