:020000040000FA
:030000000200E318
:030013000209A53A
:03003300020916A9
:03003B000209F4C3
:03006B0002085038
:03007B000208A9CF
:1000830002096D00000080FB12013FB9000302006A
:10009300CDE4900101785E79058002F0A3D8FCD904
:1000A300FA90055EAA82AB83900142784E79028072
:1000B30015E493A3AC82AD838A828B83F0A3AA82D7
:1000C300AB838C828D83D8E9D9E7758280758316DB
:1000D30074001200F575828675830074001200F5B2
:1000E30075D0007581BF751001751101759F0002F0
:1000F300008BC0F0F5F0E59F5407C0E0E59F54F88E
:1001030045F0D0F0F59FE473859FF053F0F8D0E00D
:1001130045F0F59F22D083D082E59F5407C0E0E4E9
:1001230093C0E0740193C0E07402935407C0F0F5E8
:10013300F0E59F54F845F0D0F0F59F22790122496C
:100143002E4F2E4C5F53797374656D3A4D5F4100AA
:100153005461726765743A4142435F5F5F00496E61
:100163007075742050726F6772616D5F31005F5FED
:10017300005072657373202A206F722023005F5F23
:10018300205072657373202A206F722023005F5FF3
:1001930030306D732044656C617920202020005439
:1001A3006172676574203A20312032203320340095
:1001B30053656E645F5A6F6E65203A20535F41202A
:1001C3000053656E645F5A6F6E65203A20535F4239
:1001D300200053656E645F5A6F6E65203A20535F4B
:1001E30043200053656E645F4D6F6465203A203190
:1001F30020202020200053656E645F4D6F646520CE
:100203003A203220202020200053656E645F4D6F1A
:100213006465203A2033202020202000536C61762F
:100223006520576F726B696E670050726F677261FA
:100233006D3A202020202020203000303000536CE5
:100243006176652052657475726E203000536C615F
:1002530076654E6F436F6E6E65637400536C6176A3
:100263006520576F726B696E67202020005461729E
:100273006765743A41424300FF000000000000003C
:1002830000000000000000000A000000120118181E
:1002930023001201184423001201185E23001201E7
:1002A300186623001201186E230012011897230009
:1002B300120118DF2300120118FF23001201181C7A
:1002C3002400120118A01600120118D816001201FA
:1002D300182518001201185B1800120118151900CF
:1002E300120118871900120118FE19001201186F64
:1002F3001A00120118871B00120118E61B001201D5
:1003030018460A00120118650A001201185C1C0045
:10031300120118501D00120118CA1D00120118CC39
:100323001E00120118611F00120118E226001201BB
:10033300181828001201181B28001201181E280083
:10034300120118BC27001201180E280012011813FD
:100353002800120118711F001201189D1F001201BD
:1003630018B71F00120118BF1F00120118C71F0082
:10037300120118F01F001201183D20001201186627
:100383002000120118B42000120118EC2000120101
:1003930018D12100120118E02100120118EF2100E9
:1003A3001201181B2200120118922200120118B91F
:1003B3002200120118E02200120118212800120164
:1003C300187F26001201188F2600120118BB260081
:1003D3001201186D2500120118A12500120118A69B
:1003E3002500120118B62500120118C025001201BC
:1003F30018CA2500120118F7250012011815260046
:100403001201182326001201182C26001201183598
:100413002600120118462600120118572600120161
:10042300187026001201187C2700120118512400AD
:10043300120118362700120118F02700C3E09608AE
:10044300A3E09608A3E09608A3E096A2D265D03372
:1004530022E4CFC0E0E4CEC0E0E4CDC0E0E4CCC011
:10046300E075F020C3E633F608E633F608E633F624
:1004730008E633F6181818EC33FCED33FDEE33FEC3
:10048300EF33FFC3EC9709ED9709EE9709EF97193F
:100493001919400FFFEC97FC09ED97FD09EE97FE44
:1004A300191906D5F0BEECF709EDF709EEF709EFD8
:1004B300F7191919D0E0FCD0E0FDD0E0FED0E0FF41
:1004C3002212052C18181812045412051B19191995
:1004D3002212051B191919080808E618181820E72D
:1004E300E012045412052C18181822090909E719F7
:1004F300191920E7DC080808E618181820E7030292
:10050300045412052C18181812045412052C181828
:100513001812051B19191922E4C397F709E497F771
:1005230009E497F709E497F722E4C396F608E496FB
:10053300F608E496F608E496F622E0F608A3E0F659
:1005430008A3E0F608A3E0F622E6F008A3E6F00825
:10055300A3E6F008A3E6F022E0FAA3E0FBA3E0FCA5
:10056300A3E0FD22EAF0A3EBF0A3ECF0A3EDF0226D
:10057300CAC0E0E6F0A308DAFAD0E0FA2270042257
:10058300600D18C6C333C608C633C6D5E0F41822B7
:10059300251010AF08F510400215118008F5104022
:1005A300021511D2AF22C0D0251010AF08F510509C
:1005B3000205118008F51050020511D2AFD0D022E8
:1005C3002510F58210AF08F510400215118008F5CB
:1005D3001040021511D2AF851183222510F582E454
:1005E3003511F58322E4732510C582C0E0E511348B
:1005F300FFC583C0E0E510C3958224F810AF0885DA
:1006030083118582108008858311858210D2AFCE35
:10061300F0A3E520F0A37808E608F0A3DEFAEFF0F4
:10062300A3E58124FAF8E608F0A3E608F0A3E608B8
:10063300F0A30808E608F0A3E608F0A315811581E6
:10064300D0E0FED0E0F8158115811581E8C0E0EE19
:10065300C0E022851183851082E0A3FEE0A3F5208C
:100663007808E0A3F608DFFAE0A3FFE0A3C0E0E028
:10067300A3C0E0E0A3C0E0E0A3C0E0E0A3C0E010BB
:10068300AF088582108583118008858210858311C8
:10069300D2AFD083D08202010BC0D02510C582C057
:1006A300E0E51134FFC583C0E0E510C3958224F370
:1006B30010AF088583118582108008858311858298
:1006C30010D2AFC8F0A3E9F0A3EAF0A3EBF0A3794B
:1006D30008E709F0A3D8FAECF0A3EDF0A3EEF0A33A
:1006E300EFF0A3D0E0F0A3D0E0F0A3D0E0F0A3E5D7
:1006F30020F0A3E5F0F0A322851183851082E0C0EA
:10070300E0A3E0F9A3E0FAA3E0FBA37808E0F6088E
:10071300A3DFFAE0FCA3E0FDA3E0FEA3E0FFA3E078
:10072300C0E0A3E0C0E0A3E0F5D0A3E0F520A3E0A0
:10073300A3F5F010AF0885831185821080088583A7
:1007430011858210D2AFD082D083D0E0F8D0E032CE
:1007530074028000C0E0F4041205C3D0E0120573F4
:1007630022D083D082C5F0E493A3C5F0C395F0F5FE
:10077300F0E493A3C395F04005E5F0048001E4752C
:10078300F002A42582F582E5F03583F583E493A393
:10079300C0E0E493C0E022D083D082ECC0E0EDC09F
:1007A300E0E493A3FCE493A3FDED4C600D1207E694
:1007B300EC24FFFCED34FFFD80EFE493A3FCE49312
:1007C300A3FDED4C600D120825EC24FFFCED34FF76
:1007D300FD80EFD0E0FDD0E0FCE493A3C0E0E49320
:1007E300C0E022C0E0C3E4939608740193961840D6
:1007F3000FE493667008087401936618700070190B
:10080300A3A3C3E49396087401939618A3A3400D7E
:10081300D0E0D0E0D0E00207D6A3A3A3A3A3A3D044
:10082300E022C0E0C0F088F0E49366700808740129
:100833009366187000A8F0A3A3700BD0F0D0E0D09B
:10084300E0D0E00207D6A3A3D0F0D0E022C0E0744A
:10085300F112069CC2C5E58960477E0075080175E3
:100863000900EE7808120580AF08E5895F602BEE7A
:10087300C333F8E433F9741F28F58274041208FFB4
:100883006014EEC333F8E433F9741F28F58274045B
:1008930012090A1205E8EFF452890EEEC3940840D8
:1008A300BB7F020206FBC0E074F112069CC2EBE5BB
:1008B3008A60477E00750801750900EE7808120505
:1008C30080AF08E58A5F602BEEC333F8E433F97435
:1008D3002F28F58274041208FF6014EEC333F8E482
:1008E30033F9742F28F582740412090A1205E8EF0C
:1008F300F4528A0EEEC3940840BB80A539F583E019
:10090300F8A3E0F9E8492239F583E0F8A3E0F58399
:10091300888222C0E074F112069CC2E8E58B60472E
:100923007E00750801750900EE7808120580AF088E
:10093300E58B5F602BEEC333F8E433F9743F28F59E
:100943008274041208FF6014EEC333F8E433F974BD
:100953003F28F582740412090A1205E8EFF4528B5A
:100963000EEEC3940540BB0208A4C0E074F2120665
:100973009CA2AFE433FEC2AFE5E9A2E6501A9004AD
:100983004AE0F8A3E0F9E8496008E0F583888212B9
:1009930005E8759B0053E9BFEEA2E092AF7F010229
:1009A30006FBC0E0C0D0E8C0E0E9C0E0C082C0837D
:1009B300E5C1C0E09004CDE0F8744C28F5827404DE
:1009C3003400F583D0E0F09004CCE0F8A3E0687045
:1009D30004E595A3F09004CDE004F0C394804002B5
:1009E300E4F0D083D082D0E0F9D0E0F8D0D0D0E0EA
:1009F30032C0E0C0D0E8C0E0C008C009C082C083F4
:100A030090054FE0F8A3E0687008539AFBA37401C4
:100A13008026C2E990054FE0F50874012508F074BB
:100A2300CF2508F58274043400F583E0F5C1900501
:100A33004FE0C394804002E4F0D083D082D009D049
:100A43000880A674F61205EAE9FE8E08741A2508D2
:100A5300F58274033400F583E0F91203BB7F0202CD
:100A63000656C082C083E91207640063331520155C
:100A7300390B490B610B7B0B920BB50BCB0BDD0BCE
:100A8300EC0BFE0B170C330C490C5B0C7C0C960C1B
:100A9300B50CC70CE50C030D210D370D550D760D67
:100AA300930DB40DD20DF00D110E2C0E470E680EE2
:100AB3007E0EA20EC30EE70E050F230F3E0F590F36
:100AC300740F950FAA0FC80FE90F02101E103710ED
:100AD30050106D1081109610A810BA10CC10DE10B3
:100AE300FF101E113D1156116F118B11A911C71162
:100AF300EB110E122E1245125C126E12891296120F
:100B0300A812C312D512E7120213141326134113AA
:100B130058136F138A13A113B813C513D313E51313
:100B2300F713091423143A144D146E148C14AB14D4
:100B3300CE14EA14091590031A121659F0A3E4F01F
:100B4300A374FF02153290031A7401F0A304121662
:100B530065121642742012163B74800215329003FC
:100B63001A748012163B7420121644740812166508
:100B73007402F0A3140215321215A57407F0A374BE
:100B83000FF0A3741FF0A3743FF0A3747F80B090A1
:100B9300031A7480F0A374C0F0A374E0F0A374F09C
:100BA300F0A374F8F0A374FCF0A374FEF0A30402A2
:100BB300153290031A74111215D97444F0A3E41278
:100BC300167BF0A3E402153290031A74111216195E
:100BD30074441216057488020B4290031A74881227
:100BE30015C1742212158380D990031A74881216C2
:100BF3000574441216197411020B4290031A74817E
:100C0300F0A3744212165274181216527442F0A3CF
:100C1300748180AE90031A7481F0A374C3F0A3743B
:100C2300E712160574E7F0A374C3F0A374818092EE
:100C330090031A741312157F742312157F744312D1
:100C4300157F748380CC12157A742A12157F744A27
:100C530012157F74A8020BC590031A7471F0A37464
:100C630061F0A37451F0A37441F0A37431121568B9
:100C73007411F0A3740102153290031A7417F0A3D0
:100C830074271216347447F0A37457121629748705
:100C930002153290031A747AF0A3746BF0A3745C98
:100CA300F0A3744DF0A3743EF0A3742FF0A374105B
:100CB30080C090031A74C112166C74A412157F7449
:100CC30098020BC590031A7467F0A37442F0A374DF
:100CD30068121622746912159E7465F0A3743002AB
:100CE300153290031A74311215AA743212159774BF
:100CF30033F0A37409F0A37434F0A3741202153211
:100D030090031A7435F0A374151215907418121603
:100D1300347421F0A37438F0A374240215329003C1
:100D23001A74391215617441121665744212155AF8
:100D3300744380C590031A74441215897445F0A353
:100D43007420F0A374461216527447F0A374280259
:100D5300153290031A7448F0A37432F0A374491245
:100D630015907451F0A37405F0A37452F0A374109A
:100D730002153290031A7453F0A3741512159E745E
:100D830020F0A37455F0A37425F0A37456020CDE6F
:100D930090031A7457F0A37435F0A3745812163BDA
:100DA3007459F0A37445F0A37461F0A3740602159B
:100DB3003290031A7462F0A37412F0A374631215D1
:100DC3004C74641216527471F0A3740702153290B6
:100DD300031A7472F0A37414F0A374731215687475
:100DE300741215537475F0A3743502153290031AF7
:100DF3007476F0A3744212162D7449F0A37478F03C
:100E0300A37456F0A37479F0A374630215329003AC
:100E13001A748112155A7482121589748312165228
:100E23007484F0A3743202153290031A7485121677
:100E33003B74861216227487F0A3745612167574C7
:100E43006402153290031A7489F0A37472F0A374C8
:100E530091F0A37409F0A3749212154C7493F0A348
:100E6300742702153290031A749412159074951214
:100E73001622749612159E7497808C90031A749898
:100E8300F0A37472F0A37499F0A37481F0A374A116
:100E9300F0A3740AF0A374A2F0A374200215329095
:100EA300031A74A3F0A37430F0A374A412163B7452
:100EB300A5F0A37450F0A374A6F0A37460021532D6
:100EC30090031A74A7F0A37470F0A374A8F0A3742A
:100ED30080F0A374A9F0A37490F0A374B1F0A37489
:100EE3001102153290031A74B21215D274B3F0A31F
:100EF3007433F0A374B41215BA74B5F0A374550225
:100F0300153290031A74B6F0A37466F0A374B71283
:100F1300162D74B812167574B9F0A37499021532AC
:100F230090031A742112164B74221216657423123D
:100F330015977424F0A3740802153290031A7425CC
:100F43001216447426F0A374121215617414121548
:100F530053741602153290031A742912154C742A0D
:100F630012155A74C8F0A374761215AA7474021574
:100F73003290031A7461F0A37450F0A3742DF0A39C
:100F830074D5F0A3744B1215977498F0A3743402BC
:100F930015321215A57405F0A37407F0A374091292
:100FA300156F741502153290031A7417F0A3741990
:100FB3001215687423F0A374251215617429F0A324
:100FC300743102153290031A7433F0A37435121678
:100FD300347439F0A37441F0A37443F0A37445F05F
:100FE300A3744702153290031A7451F0A37453F09B
:100FF300A374551215F17463F0A37465021532904E
:10100300031A7467F0A3746912153AF0A374751286
:10101300162D7479F0A3748102153290031A748328
:10102300F0A374851215E27493F0A37495F0A3747E
:101033009702153290031A749912164B04F0A37495
:1010430005F0A3740712156F741702153290031A73
:101053007419F0A37423F0A37429F0A37431121646
:10106300347441F0A37443020FE290031A7451F0F5
:10107300A374531215F1746712153A0215329003D3
:101083001A7477F0A37479F0A374831215E274973A
:10109300020BC590031A74A112166C74C412157F47
:1010A30074D8020BC590031A741A12157F742B128D
:1010B30015B1748D020BC590031A74A1121609742D
:1010C300C412160574D8020B42121600742B1216A2
:1010D30005744C121605748D020B4290031A741991
:1010E300F0A374281216347445F0A37455F0A37456
:1010F30064F0A37473F0A3748202153290031A741C
:10110300A1F0A374B0F0A374C2F0A374D0F0A374DD
:10111300E4F0A374F012167B020D6F90031A741A95
:10112300F0A3740BF0A3742CF0A3740DF0A3744E0E
:10113300F0A3740F12167B020C7590031A7411F04E
:10114300A37401F0A3742212164B7444F0A3741613
:10115300020E3F90031A747612159E7432121644CF
:101163007401F0A304F0A37404020DAD90031A12EA
:1011730016427412F0A374141215897418F0A37430
:1011830020F0A3742202153290031A7424F0A3747E
:10119300261215537430F0A37432F0A3743412156D
:1011A30090743802153290031A7440F0A3744212FB
:1011B30015BA74461216227450F0A37452F0A37435
:1011C3005402153290031A7456F0A37458F0A374A2
:1011D30060F0A37462F0A37464F0A37468F0A37462
:1011E30070F0A3747202153290031A7474F0A3742E
:1011F30076F0A37478F0A37480F0A37482F0A374E0
:1012030084F0A3748612167B02153290031A74902D
:10121300F0A37492F0A37494F0A37496F0A374985B
:10122300F0A374A0F0A37482020BAF90031A74C8E6
:1012330012157F74C412157F74C212157F74C10214
:101243000BC590031A74C812160574C212160574DE
:10125300C412160574C8020B4290031A741C1215AB
:101263007F742C1215B1748C020BC590031A741180
:10127300F0A3740C1215D274C01215BA740C1216A2
:101283007574C002153212157A74A212157F74A4F4
:10129300020C53121600742A121605744A1216050C
:1012A300748A020B4290031A7411F0A374A01215EE
:1012B300D2740A1215BA74A0121675740A02153282
:1012C30090031A74B112166C74B412157F74B802B9
:1012D3000BC590031A74B112160974B4121605746F
:1012E300B8020B4290031A7411F0A374B01215D212
:1012F300740B1215BA74B0121675740B0215329072
:10130300031A74D112157F74D212157F74D402108C
:10131300A090031A74D112160574D212160574D450
:101323000210C490031A7411F0A374D01215D2746E
:101333000D1215BA74D0121675740D02153290037E
:101343001A74E112157F74E212157F74E412157F8B
:1013530074E8020BC590031A74E112160574E212C5
:10136300160574E412160574E8020B4290031A740E
:1013730011F0A374E01215D2740E1215BA74E012B0
:101383001675740E02153290031A74F112157F74D8
:10139300F212157F74F412157F74F8020BC59003D3
:1013A3001A741F12157F742F12157F744F12157F35
:1013B300748F020BC590031A74FFF0A3121659021F
:1013C3000BC590031A7411121583121583020BE7D0
:1013D30090031A74221215D9742212157F742202F3
:1013E3000BC590031A74441215C1744412157F740B
:1013F30044020BC590031A7488F0A3E4121675E433
:1014030012167B020BBF90031A7410121652740546
:10141300F0A3741212164B7456F0A37401020D4E0E
:1014230090031AE4F0A3746412157F7432F0A3E4FA
:10143300121589E4020F3790031AE4121665E412B9
:10144300164BE4F0A374FF020BC290031A7493F0DB
:10145300A37439F0A374841216227475F0A374571D
:10146300F0A37465F0A3745602153290031A7494B2
:10147300F0A37449F0A37485F0A37458121543F0D4
:10148300A304F0A3748602153290031A7431F0A3F7
:101493007413F0A37425F0A37452F0A374C8F0A3DB
:1014A300748C12154302153290031A74D8F0A37486
:1014B3008DF0A374B7F0A3747BF0A3746AF0A374E4
:1014C300A6F0A3745FF0A374F5806490031A74E428
:1014D300F0A3744EF0A374A8F0A3749C121629749D
:1014E30096F0A37453804890031A7498F0A37489F8
:1014F300F0A314F0A37486F0A37440121665746904
:10150300F0A37496802990031A747012159774507F
:10151300121665743012164B7410020F3790031AAB
:10152300E4F0A3F0A3F0A3F0A3F0A3F0A3F0A3F0DF
:10153300D083D08202010BF0A37471F0A3747322E1
:10154300F0A37476F0A3746722F0A37418F0A322B7
:10155300F0A37428F0A322F0A37408F0A322F0A34D
:101563007427F0A322F0A37421F0A322F0A3741133
:10157300F0A37413F0A32290031A74A11215CC22C2
:101583001215CC741122F0A37416F0A322F0A374E5
:1015930036F0A322F0A37406F0A322F0A37454F050
:1015A300A32290031A7401F0A37403F0A32212156B
:1015B300CC744C1215CC22F0A37444F0A322121560
:1015C300CC74441215CC2274FFF0A3E4F0A322F0F0
:1015D300A37422F0A3221215CC74221215CC22F08C
:1015E300A37487F0A37489F0A37491F0A322F0A3EA
:1015F3007457F0A37459F0A37461F0A32290031AF3
:10160300741A1216122212161274B212161222F041
:10161300A374FFF0A322121612742212161222F0E0
:10162300A37448F0A322F0A37467F0A37477F0A324
:1016330022F0A37437F0A322F0A37440F0A3227422
:1016430008F0A37410F0A322F0A37402F0A322F015
:10165300A37424F0A322E4F0A31215CA1215CA74CA
:10166300FF22F0A37404F0A3221215CC74B2121556
:10167300CC2212167BF0A322F0A37488221202C597
:1016830012197A6441600AE064426005E0644370C1
:10169300031202E37A2C7B011203CD80E3C082C0E4
:1016A300839003017411F0A3F0A304F0A37401F079
:1016B30012032B1203A31202B39002FF7433F0A39D
:1016C300F07AFF7B021203131203251219E7D0836A
:1016D300D08202010B74F61205EA74FE1205939090
:1016E3000306E4F07509011203A97A2C7B011203A6
:1016F300CD7C7D7D057A0079011203B57C8D7D0556
:101703007A0079021203B5AB097A0E79011202D17C
:1017130080281202DDE9FA1218FC740B6A601412B5
:10172300197AFB900306E0FA79021203AF900306DD
:10173300E004F07A2C7B011203CD900306E0C394FE
:101743000240CF850982E582C333F8E433F9740795
:1017530028F8740339F9851082851183E075F00A3E
:10176300A4FA74011205DEE0FCEA2CFAE5F0340079
:10177300FB88828983EAF0A3EBF088828983E0F90E
:101783001203077E007F00EEF91203017AFA7B0051
:101793001203CDEE24010EEF3400FFC3EE9408EFE5
:1017A3009400A2D265D03340DE850982A882E8C3C3
:1017B30033FAE433FB74072AF58274033BF583E0C1
:1017C300C0E0740228F58274013400F583D0E0F0A0
:1017D3007C907D057A0379021203B51218F6700521
:1017E3000509121815900305E0642A700A7A647BD0
:1017F3000012033D1218157A2C7B011203CDE50963
:10180300C39409500302170A74021205A97F020246
:101813000656900306E4F07C9D7D05FA79021203D7
:10182300B52274F41205EAE9FFEAFEEBFAE4FBFCE5
:10183300FD12042D8A0A8B0BAC0AAD0B74016F7079
:1018430006EEFA7901800974026F7007EEFA7902E5
:101853001203B57F0402065674F71205EA74FE12EA
:1018630005937CAD7D057A0079021203B5900306DA
:10187300E4F08024E0642A700F900306E4F07CAD6A
:101883007D05FA79021203B57A2C7B011203CD9000
:101893000306E0C39402502D7A2C7B011203CD1270
:1018A30002DD1202DDE9C3940A50E41202DDE9FB12
:1018B3001218FC900306E0FA79021202D190030693
:1018C300E004F080CA1218F670AA74011205DEC093
:1018D30082C08375F00A851082851183E0A4D083CA
:1018E300D082F8E028900102F074021205A97F016A
:1018F30002065612197E642322900306E0F885102F
:1019030082851183E58228F582E5833400F583E936
:10191300F022C082C08312197A6431700479018085
:1019230053E0643270047902804AE06433700479CE
:10193300038041E06434700479048038E0643570D6
:10194300047905802FE06436700479068026E0640C
:101953003770047907801DE06438700479088014B7
:10196300E0643970047909800BE064307004790015
:101973008002790B0216D112197E2212038BE99091
:101983000305F02274F71205EAE9FE1203A97CBEEF
:101993007D057A0079021203B5EE24BF6008146056
:1019A30014146020802E7CCF7D057A007901120308
:1019B300B57900801C7CE07D057A0079011203B5BE
:1019C3007901800D7CF17D057A0079011203B579E7
:1019D300021202E97AE87B031203CD1203A912195A
:1019E300E70218F17C5E7D057A0079011203B57C6C
:1019F3006F7D057A0079021203B52274F71205EAA6
:101A0300E9FE1202DDE9F874FF28C39404E84004F8
:101A130070F0805514600B14601714602614604432
:101A230080477C027D067A0079021203B57A018031
:101A3300221202CB7C157D067A0079021203B57A55
:101A43000280101202D77C287D067A0079021203E5
:101A5300B57A03EEF91202F5EEF91202FB7AE87B8E
:101A6300031203CDEEF91202EF0218F174F6120518
:101A7300EAE9FF1203A97C3B7D067A007901120390
:101A8300B57C497D067A0079021203B57C007D009E
:101A930079FF7A007B0212031F900200E0146008B2
:101AA30014600C1460108014A3E0900317800CA33F
:101AB300E09003188005A3E0900319F07C5A7D069B
:101AC3007A0E79021203B5EF600814600A14600CF1
:101AD300803F90031780089003188003900319E058
:101AE300FB7A0879021202D175F00AC0F07901126B
:101AF30002BFE9D0F084FB7A0C79021202D179019A
:101B03001202BFE975F00A84ABF07A0D7902120272
:101B1300D18F08121B797012EEC3940650110E7CFC
:101B23005D7D067A0079011203B5121B797011EEFF
:101B3300C39406401B7C6C7D067A0079011203B5C1
:101B4300121B79600B7C7B7D067A0079011203B549
:101B530012197A642A6003021A8F1203A97C5E7D2C
:101B6300057A0079011203B57C8C7D067A0079022F
:101B73001203B502181074172508F5827403340094
:101B8300F583E02274F51205EAE9FF8A0A74016518
:101B93000A70097A0175F00AEFA4803E7402650A9F
:101BA30070277A0275F00AEFA4F91202B97E028E49
:101BB30008121C4FE0FA75F00AEFA42EF91202B9CD
:101BC3000EEEC3940A501780E67403650A700F90F3
:101BD3000102E0FA75F00AEFA404F91202B97F03D7
:101BE30002065674F51205EA890A741E250AFE7F59
:101BF3000075F00AE50A121C3C40F6EEF91202BF2A
:101C0300E990010BF0E50A700A79FF7C017D017A06
:101C130022801E7401650A700A79FF7C017D017AB6
:101C230033800E7402650A700D79FF7C017D017AA1
:101C3300447B22120319021BE1A42FF91202BF8F66
:101C430008121C4FE9F00FEFC3940A227401250810
:101C5300F58274013400F58322C082C08312040F1D
:101C630012034979017A9E7B031203F790039EE0E6
:101C7300C2E7F0640570347905121D315004D2F0C7
:101C83008002C2F0A2F0E43390069FF09003A3E039
:101C9300A2E74003021D299003A1E0F8900322E08C
:101CA300686003021D29A37401807AE024F590067D
:101CB3009CF090039EE0F9121D315004D2F0800293
:101CC300C2F0A2F0E43390069FF09003A6E0F8A3DD
:101CD300E0F9900698E8F0A3E9F090069D74A8F067
:101CE300A37403F0121D3F74A828F8740339F9880C
:101CF300828983E09006A0F088828983A3E0A2E72B
:101D0300501C900697E0F89003A1E06860109003E0
:101D13009FE054DF644170069006A17401F09003C4
:101D2300A1E0900697F012034F12041580187A9FD2
:101D33007B031203F790039FE0A2E52290069CE049
:101D4300F83395E0F922D083D08202010B74F712A5
:101D530005EAEAFEEBFF1203D3E96401700479019B
:101D6300804E12034F900329EEF0A3EFF090069DEF
:101D7300E4F0A3F090032404F09006A312055B9013
:101D83000325120567121DB8A3A3E0F91203DF129E
:101D93001EB7FAA3E0FB1203E5121DB8E0FAA3E0B5
:101DA300FB1203EB7A0D7B0312041B120349790028
:101DB3007F01020656121DBC22900329E0F8A3E01E
:101DC300F5838882A3A32274F41205EAEAFEEBFFEB
:101DD3008C088D09890A900324E07003120403E53B
:101DE3000AC394675005850A0B8003750B671204B9
:101DF3002112040F740B250B90032BF0121EC490B9
:101E0300032C6004746180027441F0A37488F09021
:101E13000322E090032EF090032A121DC2E0F8A3E0
:101E2300E0F990032FE8F0A3E9F0A3EEF0A3EFF0BD
:101E3300121EB7F8A3E0F9900333E8F0A3E9F07AB0
:101E43000080218A82A882E50828F582E50934000A
:101E5300F583E0C0E0743528F58274033400F5831C
:101E6300D0E0F00AEAC3950B40D9740A250BF97A3E
:101E73002B7B031203F11204151203FD121EC4601F
:101E830012900323E4F07A4A7B021203C7900323E0
:101E9300E060047E0080027E01900324E070031260
:101EA3000409EEA2E04006900322E004F0EEF97F7D
:101EB30004020656900329E0F8A3E0F5838882E044
:101EC30022121DBCA3A3A3E02274F21205EA8A081E
:101ED3008B09890AECFEEDFF12034F121D3F850AA1
:101EE3000CC3E8950CE99400A2D265D033500AE004
:101EF300F50C3395E0F50D8003750D00780C120792
:101F03005390069DE0FCA3E0FDAA08AB091204333D
:101F130074021205A9EE4F601E1203D9E9F5089069
:101F230006A0121D42E8C39508F8E99400F98E82D1
:101F33008F83E8F0A3E9F09006A1E4F012034912BD
:101F43001D3F850A08C3E89508E99400A2D265D02D
:101F5300335004E0F98002A90A7F06020656C082C4
:101F6300C0839003247401F0120403021D49C0824C
:101F7300C083D2A4D2A37A027B001203C7C2A38078
:101F830002D2A47A027B001203C7C2A47A027B00A6
:101F93001203C7D083D08202010BC082C083C2A3C5
:101FA3007A027B001203C7D2A47A027B001203C712
:101FB300D2A380D8C082C083C2A380C5C082C0839D
:101FC300D2A380BD74F71205EAE9FF7E08EFA2E70A
:101FD3005004D2A38002C2A3D2A4C333FF12202C85
:101FE3001EEE70E98002EEF97F0102065674F712C5
:101FF30005EA7E00D2A353F5F753FFF753F7F753E0
:10200300F77F7A027B001203C77F08D2A4EEC333A3
:10201300FEA2A35003D2E0FE12202C1FEF70EC535C
:10202300F5F7D2A343FF0880BD7A027B001203C7F2
:10203300C2A47A027B001203C72274F71205EAE9ED
:10204300FFEAFE122053EEF912209812035B8098E8
:1020530012035579E012209C790012209CEFF912AB
:10206300209C2274F61205EA12035579E012209897
:10207300790012209879081220981220A312036184
:10208300120373E9F50812036712035BEEAA08FB58
:102093007F0202065612209C2212036D1203612254
:1020A30012035B12035579E112209C120373E9FEBC
:1020B30022C082C0837A6279001203797AF77902A7
:1020C3001203797A0779031203797A0079041203E8
:1020D300797A0079051203797A30790E1203797AC5
:1020E3006A7900120379021F9674F61205EA120345
:1020F3007F8A088B09780812079A0000140082006F
:10210300572184005B2188005F2190008321A00078
:102113008F21020163210401672108016B21100152
:1021230087212001932102026F21040273210802F7
:10213300772110028B212002972102047B210404C2
:10214300532108047F2110049B2120049F21A321F4
:102153007E30804E7E31804A7E3280467E3380429E
:102163007E34803E7E35803A7E3680367E378032BE
:102173007E38802E7E39802A7E2A80267E23802206
:102183007E41801E7E42801A7E4380167E448012EA
:102193007E45800E7E46800A7E5580067E4E8002F6
:1021A3007E00900449E004F0C394C94008E4F07A47
:1021B3006AF9120379EE60117AAA7B0A1203317A63
:1021C300147B001203CD120337EEF902209374F748
:1021D3001205EAE9FE43FD40C28602227374F71238
:1021E30005EAE9FE43FD40D28602227374F7120525
:1021F300EAEAFEEBFF890880128E828F83E0F912F0
:1022030003978E828F83A3AE82AF83A80874FF28BF
:10221300F5080470E402228DC082C08343FD40C2EE
:10222300A07A1E12225D79301203917A0212225D86
:102233001222571222577910120391790612039131
:1022430079011222591203A9790C120391D083D078
:102253008202010B7938122268227B001203CD79A6
:1022630030122268221203917A027B001203CD22DC
:102273008E90D2A07A027B001203C7C2A07A507B51
:10228300001203C790041EE0F5907F010206567406
:10229300F71205EA79801203917E107920120397D1
:1022A3001EEE70F779C01203917E10792012039706
:1022B3001EEE70F780D474F71205EAE9FF8A08EB83
:1022C300FE74026F70087440250844808004748093
:1022D3004508F9120391EEF912039780AD74F612D3
:1022E30005EA89088A09ECFEEDFF740265087008A7
:1022F300744025094480800474804509F9120391D0
:10230300EEFAEFFB120439EAF9EEFAEFFB12039D42
:102313007F02020656C082C083D285D2847A027BB2
:10232300001203C7C2848002D2857A027B001203A3
:10233300C7C2857A027B001203C7D083D082020111
:102343000BC082C083C2847A027B001203C7D2858A
:102353007A027B001203C7D28480D8C082C083C2B2
:102363008480C5C082C083D28480BD74F71205EA1D
:10237300E9FF7E08EFA2E75004D2848002C284D230
:1023830085C333FF1223CE1EEE70E98002EEF97F80
:102393000102065674F71205EA7E00D28453F3EF66
:1023A30053FDEF538FEF53F7DF7A027B001203C71E
:1023B3007F08D285EEC333FEA2845003D2E0FE121F
:1023C30023CE1FEF70EC1223F680C27A027B001239
:1023D30003C7C2857A027B001203C722C082C0836F
:1023E3001223F653F3DFD28543FD2079001202BF97
:1023F30002233D53F3EFD28443FD102274F71205F9
:10240300EAE9FFEAFE12243CEE1224491202957A0D
:10241300057B001203CD02239274F71205EAE9FF4C
:1024230012243C12028F79A112244A1202ADE9FE52
:102433001202A112029502239012028F79A0122494
:102443004AEF12244922F91202A712029B2274F0C6
:102453001205EA74FB12059374011205DEEAF0A378
:10246300EBF0A3ECF0A3EDF07A527B0574011205B7
:10247300DEC082C0839006A3780812053DD083D0C6
:1024830082780812043F851082851183501C7401E1
:10249300F01205DE780812053D780812052C740148
:1024A3001205DE780812054C8002E4F0740112056F
:1024B300DE780C12053D9006A7780812053D780CCE
:1024C30079081204EEE50824308A828B83F0A3AAEC
:1024D30082AB8374011205DE780C12053D9006A7CA
:1024E300780812053D780C79081204EE7401120580
:1024F300DE780C12054C74011205DE780812053DD6
:10250300E5084509450A450B70A2851082851183AC
:10251300E0A2E0500B8A828B83742DF0A30AAB8375
:102523008A828B83E412256378527905801D8A821F
:102533008B83E0FC88828983E08A828B8312256304
:10254300EC88828983F0A3A882A983C3E89AE99BD4
:1025530040DC7A527B0574051205A97F08020656F2
:10256300F0EA24FF1AEB34FFFB22C082C0839061A0
:1025730089E04460F090619074D5F09061FA740939
:10258300F09061B27415F09061AEE4F01204157925
:10259300008004F0EBA3F0D083D08202010B7949D1
:1025A30002010BC082C08375F005E9A424D49061B5
:1025B3008F80E3C082C083EA90617480D6C082C0FA
:1025C30083EA90617280CC74F61205EA75E1EE75C8
:1025D30091FD780080031225E6E8C39940F87F0255
:1025E3000206568808EA2508F582EB3400F583E0F5
:1025F300F5D90822C082C083800DE5D98A828B83F6
:10260300F0A3AA82AB8319E970F002259A7900023C
:10261300010B75E1E9E591A2E150FA7591FD80EDB9
:1026230075E1EC75E1E302010B75E1EF75E1EC0295
:10263300010BC082C0839061A3E0C2E6F0539AFE0F
:1026430002259AC082C0839061A3E0D2E6F0439A48
:102653000102259AC082C083E5A8F8C2AF90044A5C
:10266300EAF0A3EBF0E8A2E792AF02259AC082C09A
:1026730083906193E0542270F802259AC082C0834C
:102683007900120343D083D08202010BEBC313FB07
:10269300EA13FAEAF8EBF9E824FFFAE934FFFBE876
:1026A300496012000000000000000000000000006C
:1026B30000000080DE02010B74F71205EAEAFEEB6C
:1026C300FFEEF8EFF9E824FFFEE934FFFFE8496085
:1026D300097AE87B031203C780E77F01020656C02D
:1026E30082C0831203C153F5EFD2A443FF1053F505
:1026F300F7D2A343FF0853F5F753FFF743F7085304
:10270300F5FEC2A043FF0153F3BFC28643FD4075EC
:10271300F4007590FF75FEFF90041EE4F0759000C1
:102723001203A3120385120427120349D083D08214
:1027330002010B74F61205EA740A1205DEE0FEA329
:10274300E0FFEAF8EBF980188C828D83E0888289B8
:1027530083F0A3A882A9838C828D83A3AC82AD83EB
:102763008E088F09E50824FF1EE50934FFFFE508FD
:10277300450970D47F02020656C082C08353F1FE1E
:1027830043F30C53F2F375868075C48075C2D87514
:10279300C50B75C402438640D2AA75C1009004CC10
:1027A300E4F0A3F090054FF0A3F09004CEF0900571
:1027B30051F0D083D08202010BE5C65480F853BE9A
:1027C300FBE59DA2E550FAE59DA2E240F400740109
:1027D300697007744948F5C68005E9700288C6E543
:1027E300C6F8E59E6870FB43BE0402010BC082C0BD
:1027F300838A828B838001A3E070FCE582C39AFA0B
:10280300E5839BFBD083D08202010BD2AF02010B85
:10281300C2AF02010B02010B02010B02010B8990F3
:0328230002010BA4
:04000005000000E314
:00000001FF
