:020000040000FA
:030000000200E318
:03001300020901DE
:030033000208724E
:03003B0002095067
:03006B000207ACDD
:03007B0002080573
:100083000208C900000080FB12013FB9000302000F
:10009300CDE4900101785779048002F0A3D8FCD90C
:1000A300FA900457AA82AB839001427806790280C2
:1000B30015E493A3AC82AD838A828B83F0A3AA82D7
:1000C300AB838C828D83D8E9D9E77582A2758309C6
:1000D30074001200F575828675830074001200F5B2
:1000E30075D0007581BF751001751101759F0002F0
:1000F300008BC0F0F5F0E59F5407C0E0E59F54F88E
:1001030045F0D0F0F59FE473859FF053F0F8D0E00D
:1001130045F0F59F22D083D082E59F5407C0E0E4E9
:1001230093C0E0740193C0E07402935407C0F0F5E8
:10013300F0E59F54F845F0D0F0F59F22790122496C
:100143002E4F2E4C5F53797374656D3A4D5F4100AA
:100153005461726765743A4142435F5F5F00524F77
:100163004D00496E7075742050726F6772616D5FD8
:1001730031005F5F005072657373202A206F722015
:1001830023005F5F205072657373202A206F7220F3
:1001930023005F5F5F5F6D732044656C617920208E
:1001A300202000546172676574203A203120322088
:1001B300330053656E645F5A6F6E65203A20535F58
:1001C30041200053656E645F5A6F6E65203A205379
:1001D3005F42200053656E645F5A6F6E65203A205C
:1001E300535F43200053656E645F4D6F6465203A2F
:1001F3002031200053656E645F4D6F6465203A20A3
:1002030032200053656E645F4D6F6465203A20337E
:10021300200053686F77205A6F6E653A4D6F64659F
:1002230000535F413A00535F423A00535F433A0041
:10023300FF000000000000000000000000000000BC
:100243000A0000001201182E17001201185A170095
:100253001201187417001201187C17001201188478
:100263001700120118AD1700120118F5170012013B
:10027300181518001201183218001201187A0A0012
:10028300120118B80B00120118EB0B00120118F33E
:100293000C00120118690D00120118280E0012013A
:1002A30018CE0E00120118280F00120118101000AA
:1002B300120118081100120118FC1100120118761E
:1002C30012001201187813001201185E1B001201AC
:1002D300184E1C00120118511C00120118541C0066
:1002E300120118F21B00120118441C0012011849D4
:1002F3001C00120118871300120118B31300120116
:1003030018CD1300120118D51300120118DD1300C4
:100313001201180614001201185314001201187C5C
:100323001400120118CA1400120118021500120158
:1003330018E71500120118F615001201180516002A
:10034300120118311600120118A81600120118CF55
:100353001600120118F61600120118901A00120165
:1003630018FB1A001201180B1B00120118371B008F
:10037300120118831900120118B71900120118C7C6
:100383001900120118D11900120118DB190012010A
:1003930018081A00120118261A00120118341A003C
:1003A3001201183D1A00120118461A0012011857BB
:1003B3001A00120118681A00120118811A0012019A
:1003C30018B21B00120118671800120118261C002E
:1003D300C3E09608A3E09608A3E09608A3E096A2DC
:1003E300D265D03322E4CFC0E0E4CEC0E0E4CDC098
:1003F300E0E4CCC0E075F020C3E633F608E633F65C
:1004030008E633F608E633F6181818EC33FCED3338
:10041300FDEE33FEEF33FFC3EC9709ED9709EE973B
:1004230009EF97191919400FFFEC97FC09ED97FD98
:1004330009EE97FE191906D5F0BEECF709EDF70999
:10044300EEF709EFF7191919D0E0FCD0E0FDD0E081
:10045300FED0E0FF221204C01818181203E8120499
:10046300AF191919221204AF191919080808E61847
:10047300181820E7E01203E81204C018181822091C
:100483000909E719191920E7DC080808E6181818FC
:1004930020E7030203E81204C01818181203E81235
:1004A30004C01818181204AF19191922E4C397F7D6
:1004B30009E497F709E497F709E497F722E4C39669
:1004C300F608E496F608E496F608E496F622E0F6D3
:1004D30008A3E0F608A3E0F608A3E0F622E6F00896
:1004E300A3E6F008A3E6F008A3E6F022E0FAA3E00F
:1004F300FBA3E0FCA3E0FD22EAF0A3EBF0A3ECF006
:10050300A3EDF022CAC0E0E6F0A308DAFAD0E0FADD
:1005130022700422600D18C6C333C608C633C6D57D
:10052300E0F41822251010AF08F5104002151180D1
:1005330008F51040021511D2AF22C0D0251010AF1C
:1005430008F510500205118008F51050020511D26C
:10055300AFD0D0222510F58210AF08F51040021558
:10056300118008F51040021511D2AF8511832225A1
:1005730010F582E43511F58322E4732510C582C09A
:10058300E0E51134FFC583C0E0E510C3958224F88C
:1005930010AF0885831185821080088583118582B9
:1005A30010D2AFCEF0A3E520F0A37808E608F0A3BD
:1005B300DEFAEFF0A3E58124FAF8E608F0A3E608F3
:1005C300F0A3E608F0A30808E608F0A3E608F0A302
:1005D30015811581D0E0FED0E0F8158115811581D4
:1005E300E8C0E0EEC0E022851183851082E0A3FE1F
:1005F300E0A3F5207808E0A3F608DFFAE0A3FFE024
:10060300A3C0E0E0A3C0E0E0A3C0E0E0A3C0E0E05B
:10061300A3C0E010AF08858210858311800885820E
:1006230010858311D2AFD083D08202010BC0D025B5
:1006330010C582C0E0E51134FFC583C0E0E510C3F7
:10064300958224F310AF0885831185821080088575
:100653008311858210D2AFC8F0A3E9F0A3EAF0A317
:10066300EBF0A37908E709F0A3D8FAECF0A3EDF0D7
:10067300A3EEF0A3EFF0A3D0E0F0A3D0E0F0A3D07B
:10068300E0F0A3E520F0A3E5F0F0A3228511838534
:100693001082E0C0E0A3E0F9A3E0FAA3E0FBA378B3
:1006A30008E0F608A3DFFAE0FCA3E0FDA3E0FEA365
:1006B300E0FFA3E0C0E0A3E0C0E0A3E0F5D0A3E047
:1006C300F520A3E0A3F5F010AF0885831185821010
:1006D3008008858311858210D2AFD082D083D0E089
:1006E300F8D0E0327401C0E0F404120557D0E012F0
:1006F300050722D083D082ECC0E0EDC0E0E493A3F1
:10070300FCE493A3FDED4C600D120742EC24FFFCC7
:10071300ED34FFFD80EFE493A3FCE493A3FDED4CE4
:10072300600D120781EC24FFFCED34FFFD80EFD058
:10073300E0FDD0E0FCE493A3C0E0E493C0E022C07A
:10074300E0C3E49396087401939618400FE493660C
:10075300700808740193661870007019A3A3C3E4AA
:100763009396087401939618A3A3400DD0E0D0E0AC
:10077300D0E0020732A3A3A3A3A3A3D0E022C0E047
:10078300C0F088F0E49366700808740193661870EB
:1007930000A8F0A3A3700BD0F0D0E0D0E0D0E0022B
:1007A3000732A3A3D0F0D0E022C0E074F1120630E8
:1007B300C2C5E58960477E00750801750900EE78BA
:1007C30008120514AF08E5895F602BEEC333F8E424
:1007D30033F9741828F582740312085B6014EEC3AE
:1007E30033F8E433F9741828F58274031208661297
:1007F300057CEFF452890EEEC3940840BB7F0202DE
:10080300068FC0E074F1120630C2EBE58A60477EC2
:1008130000750801750900EE7808120514AF08E5A4
:100823008A5F602BEEC333F8E433F9742828F5822A
:10083300740312085B6014EEC333F8E433F97428CD
:1008430028F582740312086612057CEFF4528A0EAF
:10085300EEC3940840BB80A539F583E0F8A3E0F923
:10086300E8492239F583E0F8A3E0F583888222C0C2
:10087300E074F1120630C2E8E58B60477E0075082C
:1008830001750900EE7808120514AF08E58B5F6067
:100893002BEEC333F8E433F9743828F5827403126A
:1008A300085B6014EEC333F8E433F9743828F58237
:1008B300740312086612057CEFF4528B0EEEC39498
:1008C3000540BB020800C0E074F2120630A2AFE498
:1008D30033FEC2AFE5E9A2E6501A900343E0F8A362
:1008E300E0F9E8496008E0F583888212057C759B8E
:1008F3000053E9BFEEA2E092AF7F0102068FC0E092
:10090300C0D0E8C0E0E9C0E0C082C083E5C1C0E078
:100913009003C6E0F8744528F58274033400F58328
:10092300D0E0F09003C5E0F8A3E0687004E595A378
:10093300F09003C6E004F0C394804002E4F0D08357
:10094300D082D0E0F9D0E0F8D0D0D0E032C0E0C01F
:10095300D0E8C0E0C008C009C082C083900448E06A
:10096300F8A3E0687008539AFBA374018026C2E9D8
:10097300900448E0F50874012508F074C82508F5CB
:100983008274033400F583E0F5C1900448E0C39416
:10099300804002E4F0D083D082D009D00880A690B2
:1009A30002027411F0A3F0A304F0A37401F0120285
:1009B300CB12034312026B790812035B7A2C7B017F
:1009C3001202DD9002007422F0A3120A7190020059
:1009D3007433120A699002007444120A691202C540
:1009E3007C577D047A0079011203557C687D047A73
:1009F300007902120355900218E4F0A3F0A3F0FE6D
:100A03008011EEFB7A0E79021202837AE87B0312DD
:100A1300036D0E120A63600AE064426005E06443FA
:100A230070051202958013740A6E70D67C767D046D
:100A33007A0D79021203551202A7120A63600AE0C3
:100A430064426005E064437003120295900206E07D
:100A5300643070031202A17A2C7B0112036D80DAD9
:100A6300120D60644122F0A37422120A7122F07AFB
:100A7300007B021202B92274F412057E74FE120581
:100A830027E9FF900207E4F07E011203497A2C7BE9
:100A93000112036D7C7A7D047A0079011203557C7F
:100AA3008A7D047A007902120355EEFB7A0E7901EE
:100AB300120283804412028FE9FA900207E0F8855C
:100AC3001082851183E58228F582E5833400F5835E
:100AD300E9F0740B6A601B120D5CFB900207E0FAED
:100AE300790212034F7A647B001202DD900207E061
:100AF30004F07A2C7B0112036D900207E0C3940289
:100B030040B38E82AA82EAC333F8E433F974082827
:100B1300F8740239F9851082851183E075F00AA40F
:100B2300FC85F0097401120572E0F50AEC250AFC54
:100B3300E5093400FD88828983ECF0A3EDF07402AB
:100B43002AFA74013400FB88828983E08A828B83CA
:100B5300F0FA75F00AEFA42E2409F91202717C8DC4
:100B63007D047A037902120355120CED700B7A643B
:100B73007B001202DD0E120BA8900206E0642A70BD
:100B83000A7A647B001202DD120BA87A2C7B011215
:100B9300036DEEC394095003020AAD740212053DBE
:100BA3007F040205EA900207E4F07C9A7D04FA7957
:100BB300021203552274F412057EE9FFEAFEEBFAF2
:100BC300E4FBFCFD1203C78A0A8B0BAC0AAD0B7462
:100BD300016F7006EEFA7901800974026F7007EEF7
:100BE300FA790212035580B874F712057E74F8126D
:100BF3000527E9FE7CAA7D047A0079021203559049
:100C03000207E4F0801AE0642A7005900207E4F01A
:100C13007A2C7B0112036D900207E0C39404504BBE
:100C23007A2C7B0112036D12028F12028FE9C39497
:100C33000A50E412028FE9F8900207E0C333FAE4A2
:100C430033FB851082851183E5822AF582E5833B98
:100C5300F583E8F0A3E4F0E8FB900207E0FA7902F9
:100C6300120283900207E004F080AC120CED709640
:100C7300851082851183E0900103F07402120572DE
:100C8300E0900104F07404120572E0900105F07421
:100C930006120572E0900106F07F00EE146008145E
:100CA300600C1460108018120CD37428800C120C82
:100CB300D374328005120CD3743C2FF91202710FD6
:100CC300EFC3940440D5740812053D7F010205EA81
:100CD300EFC333F8E433F9851082851183E5822865
:100CE300F582E58339F583E0FA22120D606423224D
:100CF300C082C083120D5C6431700479018053E0BB
:100D0300643270047902804AE064337004790380AA
:100D130041E06434700479048038E0643570047908
:100D230005802FE06436700479068026E06437700E
:100D3300047907801DE06438700479088014E06446
:100D43003970047909800BE0643070047900800203
:100D5300790BD083D08202010B120D602212032B78
:100D6300E9900206F02274F712057EE9FE7A647BAD
:100D7300001202DD1203497CBB7D047A0079021262
:100D83000355EE24BF600814602A14604C80727C03
:100D9300CA7D047A0079011203557901120E1B6092
:100DA30005E0900218F0900102E0FA7900120E11AA
:100DB3007A2280487CDB7D047A007901120355791D
:100DC30002120E1B6005E0900219F0900102E0FA96
:100DD3007901120E117A3380237CEC7D047A007939
:100DE300011203557903120E1B6005E090021AF0FD
:100DF300900102E0FA7902120E117A447B22120268
:100E0300BF7AE87B0312036D1202A1020CCE120219
:100E13007179FF7C017D012212029BE9F8900102A6
:100E2300F07403682274F712057EE9FE12028FE95B
:100E3300FF74FF2FC3940350F37A647B001202DD27
:100E4300EF14600814602B146055807C74016E707D
:100E5300089001017401F0800A74026E60F3740358
:100E63006E60EE7CFD7D047A0079021203557901F0
:100E7300805674FF2EF912027D74016E7008900182
:100E8300017402F0800A74026E60F374036E60EE04
:100E93007C0C7D057A00790212035579028029EED4
:100EA300F912028974016E70089001017403F080D5
:100EB3000A74026E60F374036E60EE7C1B7D057A28
:100EC3000079021203557903020CCEC082C083124B
:100ED30003497C2A7D057A0079011203557C397D0B
:100EE300057A0079021203557C3E7D057A05790265
:100EF3001203557C437D057A0A7902120355900249
:100F030018E0FB7A047902120283900219E0FB7A5B
:100F130009790212028390021AE0FB7A0E79021217
:100F23000283020D5574F212057E74F112052775C2
:100F33000800A908120277120FFAE9F07E0075F093
:100F43000A74042508A42EF9120277E9C0E08E0A78
:100F530085080C750D007402780C120514740312C5
:100F63000572E582250CF8E583350DF9E8250AF5C8
:100F730082E93400F583D0E0F00EEEC3940440BE62
:100F8300120FFAE0605B850882AE82750B00740273
:100F9300780A1205147403120572E582250AFAE928
:100FA300FB8A828B83A3A3A3E0F50978091206E7E2
:100FB3008A828B83A3A3E0FD8A828B83A3E0FC8ACE
:100FC300828B83E0FB7401120572E5822EF582E5C4
:100FD300833400F583E0FAA9081202AD7401120507
:100FE3003D0508E508C394035003020F35740F123F
:100FF300053D7F060205EA85080A8510828511836F
:10100300E582250AF582E5833400F5832274F21222
:10101300057EE9FEEAFF740E120572E0F890010BFB
:101023007401F0EBA3F0ECA3F0EDA3F0E8A3F074EC
:10103300016F70419001027401F0EE6008146017B3
:1010430014602380301210E97A227B221202BF90AF
:10105300021874010210E51210E97A337B2212029E
:10106300BF90021980EC1210E97A447B221202BF6E
:1010730090021A80DD74026F70699001027402F0AD
:10108300750D0075F00A74012EA4250DF91202776F
:10109300850D0A7403250AF58274013400F583E98A
:1010A300F0050DE50DC3940840D9EE6008146014F3
:1010B300146020802E1210F67A227B221202BF9037
:1010C3000218801C1210F67A337B221202BF9002A0
:1010D30019800D1210F67A447B221202BF90021A75
:1010E3007402F0020FF59001017401F079FF7C01A5
:1010F3007D01229001017402F090011004F079FF48
:101103007C017D0122C082C0831203A91202E97906
:10111300017A977B02120391900297E0C2E7F06491
:1011230005703479051211DD5004D2F08002C2F04B
:10113300A2F0E433900550F090029CE0A2E7400354
:101143000211D590029AE0F890021BE06860030256
:1011530011D5A37401807AE024F590054DF0900237
:1011630097E0F91211DD5004D2F08002C2F0A2F030
:10117300E433900550F090029FE0F8A3E0F9900566
:1011830049E8F0A3E9F090054E74A1F0A37402F0CE
:101193001211EB74A128F8740239F988828983E06B
:1011A300900551F088828983A3E0A2E7501C900543
:1011B30048E0F890029AE0686010900298E054DFEB
:1011C300644170069005527401F090029AE0900514
:1011D30048F01202EF1203AF80187A987B021203D1
:1011E30091900298E0A2E52290054DE0F83395E056
:1011F300F922D083D08202010B74F712057EEAFE36
:10120300EBFF120373E9640170047901804E12024B
:10121300EF900222EEF0A3EFF090054EE4F0A3F07E
:1012230090021D04F09005541204EF90021E120464
:10123300FB121264A3A3E0F9120379121363FAA356
:10124300E0FB12037F121264E0FAA3E0FB120385B2
:101253007AB37B021203B51202E979007F0102051A
:10126300EA12126822900222E0F8A3E0F583888252
:10127300A3A32274F412057EEAFEEBFF8C088D090A
:10128300890A90021DE0700312039DE50AC3946767
:101293005005850A0B8003750B671203BB1203A964
:1012A300740B250B900224F0121370900225600436
:1012B300746180027441F0A37488F090021BE09083
:1012C3000227F090022312126EE0F8A3E0F99002D5
:1012D30028E8F0A3E9F0A3EEF0A3EFF0121363F80C
:1012E300A3E0F990022CE8F0A3E9F07A0080218AC8
:1012F30082A882E50828F582E5093400F583E0C079
:10130300E0742E28F58274023400F583D0E0F00AED
:10131300EAC3950B40D9740A250BF97A247B021290
:10132300038B1203AF120397121370601290021C07
:10133300E4F07A4A7B0212036790021CE060047EA9
:101343000080027E0190021DE070031203A3EEA24F
:10135300E0400690021BE004F0EEF97F040205EA88
:10136300900222E0F8A3E0F5838882E0221212685B
:10137300A3A3A3E022C082C08390021DE4F0120362
:10138300A30211F5C082C083D2A4D2A37A027B0048
:10139300120367C2A38002D2A47A027B00120367FE
:1013A300C2A47A027B00120367D083D08202010BAE
:1013B300C082C083C2A37A027B00120367D2A47ADD
:1013C300027B00120367D2A380D8C082C083C2A36A
:1013D30080C5C082C083D2A380BD74F712057EE9A5
:1013E300FF7E08EFA2E75004D2A38002C2A3D2A4D7
:1013F300C333FF1214421EEE70E98002EEF97F013F
:101403000205EA74F712057E7E00D2A353F5F75363
:10141300FFF753F7F753F77F7A027B001203677FD7
:1014230008D2A4EEC333FEA2A35003D2E0FE1214EB
:10143300421FEF70EC53F5F7D2A343FF0880BD7A48
:10144300027B00120367C2A47A027B0012036722A5
:1014530074F712057EE9FFEAFE121469EEF912141D
:10146300AE1202FB80981202F579E01214B27900F1
:101473001214B2EFF91214B22274F612057E12029C
:10148300F579E01214AE79001214AE79081214AE95
:101493001214B9120301120313E9F5081203071218
:1014A30002FBEEAA08FB7F020205EA1214B2221223
:1014B300030D120301221202FB1202F579E1121449
:1014C300B2120313E9FE22C082C0837A627900124A
:1014D30003197AF779021203197A077903120319A8
:1014E3007A0079041203197A0079051203197A3004
:1014F300790E1203197A6A79001203190213AC7474
:10150300F612057E12031F8A088B0978081206F665
:101513000000140082006D15840071158800751594
:1015230090009915A000A5150201791504017D15F8
:101533000801811510019D152001A91502028515C9
:101543000402891508028D151002A1152002AD159C
:101553000204911504046915080495151004B115C6
:101563002004B515B9157E30804E7E31804A7E3217
:1015730080467E3380427E34803E7E35803A7E369E
:1015830080367E3780327E38802E7E39802A7E2ACE
:1015930080267E2380227E41801E7E42801A7E43E7
:1015A30080167E4480127E45800E7E46800A7E55DC
:1015B30080067E4E80027E00900342E004F0C394D6
:1015C300C94008E4F07A6AF9120319EE60117AAAA5
:1015D3007B0A1202D17A147B0012036D1202D7EE3A
:1015E300F90214A974F712057EE9FE43FD40C28691
:1015F30002168974F712057EE9FE43FD40D2860286
:10160300168974F712057EEAFEEBFF890880128EB5
:10161300828F83E0F91203378E828F83A3AE82AF6A
:1016230083A80874FF28F5080470E40216A3C08297
:10163300C08343FD40C2A07A1E1216737930120391
:10164300317A0212167312166D12166D7910120387
:10165300317906120331790112166F120349790C9D
:10166300120331D083D08202010B793812167E2205
:101673007B0012036D793012167E221203317A0237
:101683007B0012036D228E90D2A07A027B0012039C
:1016930067C2A07A507B00120367900317E0F590AE
:1016A3007F010205EA74F712057E79801203317E09
:1016B3001079201203371EEE70F779C01203317EC2
:1016C3001079201203371EEE70F780D474F71205D9
:1016D3007EE9FF8A08EBFE74026F700874402508E8
:1016E3004480800474804508F9120331EEF9120333
:1016F3003780AD74F612057E89088A09ECFEEDFF8A
:10170300740265087008744025094480800474805D
:101713004509F9120331EEFAEFFB1203CDEAF9EEB4
:10172300FAEFFB12033D7F020205EAC082C083D2B7
:1017330085D2847A027B00120367C2848002D28539
:101743007A027B00120367C2857A027B0012036769
:10175300D083D08202010BC082C083C2847A027B11
:1017630000120367D2857A027B00120367D284805A
:10177300D8C082C083C28480C5C082C083D2848023
:10178300BD74F712057EE9FF7E08EFA2E75004D28D
:10179300848002C284D285C333FF1217E41EEE7025
:1017A300E98002EEF97F010205EA74F712057E7EF5
:1017B30000D28453F3EF53FDEF538FEF53F7DF7AE8
:1017C300027B001203677F08D285EEC333FEA28437
:1017D3005003D2E0FE1217E41FEF70EC12180C80D6
:1017E300C27A027B00120367C2857A027B0012036E
:1017F3006722C082C08312180C53F3DFD28543FDE6
:1018030020790012027702175353F3EFD28443FD7A
:10181300102274F712057EE9FFEAFE121852EE1247
:10182300185F12024D7A057B0012036D0217A8742C
:10183300F712057EE9FF12185212024779A1121816
:1018430060120265E9FE12025912024D0217A61236
:10185300024779A0121860EF12185F22F912025F93
:101863001202532274F012057E74FB1205277401D1
:10187300120572EAF0A3EBF0A3ECF0A3EDF07A4BC0
:101883007B047401120572C082C0839005547808EA
:101893001204D1D083D08278081203D385108285B5
:1018A3001183501C7401F012057278081204D17868
:1018B300081204C0740112057278081204E0800251
:1018C300E4F07401120572780C1204D19005587873
:1018D300081204D1780C7908120482E50824308AAE
:1018E300828B83F0A3AA82AB837401120572780CF6
:1018F3001204D190055878081204D1780C79081293
:1019030004827401120572780C1204E0740112054A
:101913007278081204D1E5084509450A450B70A2FF
:10192300851082851183E0A2E0500B8A828B837439
:101933002DF0A30AAB838A828B83E4121979784B47
:101943007904801D8A828B83E0FC88828983E08A04
:10195300828B83121979EC88828983F0A3A882A9E8
:1019630083C3E89AE99B40DC7A4B7B047405120538
:101973003D7F080205EAF0EA24FF1AEB34FFFB225D
:10198300C082C083906189E04460F090619074D517
:10199300F09061FA7409F09061B27415F09061AE41
:1019A300E4F01203AF79008004F0EBA3F0D083D00E
:1019B3008202010BC082C08375F005E9A424D49090
:1019C300618F80E8C082C083EA90617480DBC0824B
:1019D300C083EA90617280D174F612057E75E1EEE0
:1019E3007591FD780080031219F7E8C39940F87FD9
:1019F300020205EA8808EA2508F582EB3400F5833C
:101A0300E0F5D90822C082C083800DE5D98A828B94
:101A130083F0A3AA82AB8319E970F00219B07900AD
:101A230002010B75E1E9E591A2E150FA7591FD80A0
:101A3300ED75E1EC75E1E302010B75E1EF75E1ECA6
:101A430002010BC082C0839061A3E0C2E6F0539A07
:101A5300FE0219B0C082C0839061A3E0D2E6F043D6
:101A63009A010219B0C082C083E5A8F8C2AF9003FF
:101A730043EAF0A3EBF0E8A2E792AF0219B0C08209
:101A8300C083906193E0542270F80219B0C082C001
:101A930083E914601714601C146021146026146019
:101AA3002B14603014603514603A803F900317E0C4
:101AB300D2E08036900317E0D2E1802E900317E046
:101AC300D2E28026900317E0D2E3801E900317E052
:101AD300D2E48016900317E0D2E5800E900317E05E
:101AE300D2E68006900317E0D2E7F0900317E0F503
:101AF30090D083D08202010BC082C083790012028E
:101B0300E3D083D08202010BEBC313FBEA13FAEA9F
:101B1300F8EBF9E824FFFAE934FFFBE84960120027
:101B23000000000000000000000000000000008032
:101B3300DE02010B74F712057EEAFEEBFFEEF8EF0F
:101B4300F9E824FFFEE934FFFFE84960097AE87BFE
:101B53000312036780E77F010205EAC082C0831294
:101B6300036153F5EFD2A443FF1053F5F7D2A34318
:101B7300FF0853F5F753FFF743F70853F5FEC2A0E9
:101B830043FF0153F3BFC28643FD4075F4007590D4
:101B9300FF75FEFF900317E4F075900012034312E4
:101BA30003251203C11202E9D083D08202010BC0C4
:101BB30082C08353F1FE43F30C53F2F375868075B1
:101BC300C48075C2D875C50B75C402438640D2AABA
:101BD30075C1009003C5E4F0A3F0900448F0A3F0AE
:101BE3009003C7F090044AF0D083D08202010BE542
:101BF300C65480F853BEFBE59DA2E550FAE59DA2CD
:101C0300E240F4007401697007744948F5C6800521
:101C1300E9700288C6E5C6F8E59E6870FB43BE041A
:101C230002010BC082C0838A828B838001A3E07090
:101C3300FCE582C39AFAE5839BFBD083D082020141
:101C43000BD2AF02010BC2AF02010B02010B020167
:041C53000B02010B74
:04000005000000E314
:00000001FF
