:020000040000FA
:030000000200E318
:030013000209BC23
:0300330002092D92
:03003B00020A0BAB
:03006B0002086721
:03007B000208C0B8
:1000830002098400000080FB12013FB90003020053
:10009300CDE4900101787279058002F0A3D8FCD9F0
:1000A300FA900572AA82AB83900142785979028053
:1000B30015E493A3AC82AD838A828B83F0A3AA82D7
:1000C300AB838C828D83D8E9D9E7758297758316C4
:1000D30074001200F575828675830074001200F5B2
:1000E30075D0007581BF751001751101759F0002F0
:1000F300008BC0F0F5F0E59F5407C0E0E59F54F88E
:1001030045F0D0F0F59FE473859FF053F0F8D0E00D
:1001130045F0F59F22D083D082E59F5407C0E0E4E9
:1001230093C0E0740193C0E07402935407C0F0F5E8
:10013300F0E59F54F845F0D0F0F59F22790122496C
:100143002E4F2E4C5F53797374656D3A4D5F4100AA
:100153005461726765743A412042204300496E70CE
:1001630075742050726F6772616D5F31005F5F005D
:100173005072657373202A206F722023005F5F2003
:100183005072657373202A206F722023005F5F30E3
:10019300306D732044656C61792020202000546108
:1001A30072676574203A20312032203320340053A3
:1001B300656E645F5A6F6E65203A20535F4120007D
:1001C30053656E645F5A6F6E65203A20535F422019
:1001D3000053656E645F5A6F6E65203A20535F4328
:1001E300200053656E645F4D6F6465203A203120B3
:1001F300202020200053656E645F4D6F6465203AB4
:10020300203220202020200053656E645F4D6F64F0
:1002130065203A2033202020202000536C6176652E
:1002230020576F726B696E670050726F6772616DF2
:100233003A2020202020202030003030003000538E
:100243006C6176652052657475726E203000536C54
:10025300617665204E6F20576F726B00536C617629
:100263006520576F726B696E6720202000576169A4
:10027300742E2E2E2E2E00526573657420536C61DE
:10028300766500FF00000000000000000000000091
:100293000000000A00000012011867240012011870
:1002A300932400120118AD2400120118B524001282
:1002B3000118BD2400120118E624001201182E258E
:1002C300001201184E25001201186B2500120118A7
:1002D300B71600120118EF16001201183C1800128D
:1002E30001187218001201182A19001201189C191A
:1002F30000120118131A001201188C1A00120118A7
:10030300811C00120118E71C00120118581D00126D
:1003130001185D0A001201187C0A00120118AB1DB6
:10032300001201189F1E00120118191F0012011854
:100333001B2000120118B020001201181629001208
:1003430001180C2A001201180F2A00120118122A90
:1003530000120118B02900120118022A0012011814
:10036300072A00120118C02000120118EC20001205
:1003730001180621001201180E210012011816217E
:10038300001201183F21001201188C2100120118DC
:10039300B521001201180322001201183B2200129A
:1003A30001182023001201182F23001201183E23E5
:1003B300001201186A2300120118E1230012011828
:1003C3000824001201182F2400120118152A001204
:1003D3000118B32800120118C32800120118EF28CE
:1003E30000120118BC2600120118F0260012011891
:1003F300F526001201180527001201180F27001215
:100403000118192700120118462700120118642742
:10041300001201187227001201187B27001201181D
:10042300842700120118952700120118A62700122D
:100433000118BF2700120118CE2700120118132834
:1004430000120118A025001201186A2900120118D0
:10045300E42900C3E09608A3E09608A3E09608A366
:10046300E096A2D265D03322E4CFC0E0E4CEC0E070
:10047300E4CDC0E0E4CCC0E075F020C3E633F60879
:10048300E633F608E633F608E633F6181818EC33C5
:10049300FCED33FDEE33FEEF33FFC3EC9709ED972D
:1004A30009EE9709EF97191919400FFFEC97FC090B
:1004B300ED97FD09EE97FE191906D5F0BEECF70985
:1004C300EDF709EEF709EFF7191919D0E0FCD0E0C1
:1004D300FDD0E0FED0E0FF221205431818181204E5
:1004E3006B12053219191922120532191919080844
:1004F30008E618181820E7E012046B1205431818D1
:100503001822090909E719191920E7DC080808E680
:1005130018181820E70302046B1205431818181261
:10052300046B12054318181812053219191922E41D
:10053300C397F709E497F709E497F709E497F722D4
:10054300E4C396F608E496F608E496F608E496F60D
:1005530022E0F608A3E0F608A3E0F608A3E0F622FB
:10056300E6F008A3E6F008A3E6F008A3E6F022E02D
:10057300FAA3E0FBA3E0FCA3E0FD22EAF0A3EBF087
:10058300A3ECF0A3EDF022CAC0E0E6F0A308DAFA88
:10059300D0E0FA22700422600D18C6C333C608C621
:1005A30033C6D5E0F41822251010AF08F510400229
:1005B30015118008F51040021511D2AF22C0D025C5
:1005C3001010AF08F510500205118008F510500205
:1005D3000511D2AFD0D0222510F58210AF08F51047
:1005E300400215118008F51040021511D2AF851194
:1005F30083222510F582E43511F58322E473251057
:10060300C582C0E0E51134FFC583C0E0E510C395A2
:100613008224F810AF0885831185821080088583B2
:1006230011858210D2AFCEF0A3E520F0A37808E6BF
:1006330008F0A3DEFAEFF0A3E58124FAF8E608F068
:10064300A3E608F0A3E608F0A30808E608F0A3E68B
:1006530008F0A315811581D0E0FED0E0F8158115CF
:10066300811581E8C0E0EEC0E02285118385108208
:10067300E0A3FEE0A3F5207808E0A3F608DFFAE0A4
:10068300A3FFE0A3C0E0E0A3C0E0E0A3C0E0E0A3D9
:10069300C0E0E0A3C0E010AF08858210858311801D
:1006A30008858210858311D2AFD083D08202010BDB
:1006B300C0D02510C582C0E0E51134FFC583C0E07A
:1006C300E510C3958224F310AF088583118582104A
:1006D3008008858311858210D2AFC8F0A3E9F0A307
:1006E300EAF0A3EBF0A37908E709F0A3D8FAECF05A
:1006F300A3EDF0A3EEF0A3EFF0A3D0E0F0A3D0E0DE
:10070300F0A3D0E0F0A3E520F0A3E5F0F0A3228569
:100713001183851082E0C0E0A3E0F9A3E0FAA3E02F
:10072300FBA37808E0F608A3DFFAE0FCA3E0FDA34F
:10073300E0FEA3E0FFA3E0C0E0A3E0C0E0A3E0F598
:10074300D0A3E0F520A3E0A3F5F010AF0885831153
:100753008582108008858311858210D2AFD082D024
:1007630083D0E0F8D0E03274028000C0E0F40412D9
:1007730005DAD0E012058A22D083D082C5F0E49353
:10078300A3C5F0C395F0F5F0E493A3C395F040053A
:10079300E5F0048001E475F002A42582F582E5F01A
:1007A3003583F583E493A3C0E0E493C0E022D083D0
:1007B300D082ECC0E0EDC0E0E493A3FCE493A3FD9E
:1007C300ED4C600D1207FDEC24FFFCED34FFFD80C2
:1007D300EFE493A3FCE493A3FDED4C600D12083CFE
:1007E300EC24FFFCED34FFFD80EFD0E0FDD0E0FC16
:1007F300E493A3C0E0E493C0E022C0E0C3E4939693
:10080300087401939618400FE49366700808740106
:1008130093661870007019A3A3C3E4939608740138
:10082300939618A3A3400DD0E0D0E0D0E00207EDEB
:10083300A3A3A3A3A3A3D0E022C0E0C0F088F0E465
:10084300936670080874019366187000A8F0A3A358
:10085300700BD0F0D0E0D0E0D0E00207EDA3A3D03E
:10086300F0D0E022C0E074F11206B3C2C5E589609E
:10087300477E00750801750900EE7808120597AFE9
:1008830008E5895F602BEEC333F8E433F97433284A
:10089300F58274041209166014EEC333F8E433F9D5
:1008A300743328F58274041209211205FFEFF45200
:1008B300890EEEC3940840BB7F02020712C0E074A6
:1008C300F11206B3C2EBE58A60477E007508017535
:1008D3000900EE7808120597AF08E58A5F602BEEF2
:1008E300C333F8E433F9744328F582740412091608
:1008F3006014EEC333F8E433F9744328F5827404C7
:100903001209211205FFEFF4528A0EEEC394084038
:10091300BB80A539F583E0F8A3E0F9E8492239F56E
:1009230083E0F8A3E0F583888222C0E074F1120625
:10093300B3C2E8E58B60477E00750801750900EED8
:100943007808120597AF08E58B5F602BEEC333F889
:10095300E433F9745328F58274041209166014EE13
:10096300C333F8E433F9745328F58274041209216C
:100973001205FFEFF4528B0EEEC3940540BB020841
:10098300BBC0E074F21206B3A2AFE433FEC2AFE51C
:10099300E9A2E6501A90045EE0F8A3E0F9E84960A2
:1009A30008E0F58388821205FF759B0053E9BFEECB
:1009B300A2E092AF7F01020712C0E0C0D0E8C0E01E
:1009C300E9C0E0C082C083E5C1C0E09004E1E0F883
:1009D300746028F58274043400F583D0E0F0900449
:1009E300E0E0F8A3E0687004E595A3F09004E1E08B
:1009F30004F0C394804002E4F0D083D082D0E0F9C5
:100A0300D0E0F8D0D0D0E032C0E0C0D0E8C0E0C041
:100A130008C009C082C083900563E0F8A3E0687052
:100A230008539AFBA374018026C2E9900563E0F59D
:100A33000874012508F074E32508F5827404340072
:100A4300F583E0F5C1900563E0C394804002E4F0D0
:100A5300D083D082D009D00880A674F6120601E9AB
:100A6300FE8E08742E2508F58274033400F583E0A6
:100A7300F91203CC7F0202066DC082C083E912071C
:100A83007B00634A153715500B600B780B920BA94B
:100A93000BCC0BE20BF40B030C150C2E0C4A0C6065
:100AA3000C720C930CAD0CCC0CDE0CFC0C1A0D3838
:100AB3000D4E0D6C0D8D0DAA0DCB0DE90D070E28F6
:100AC3000E430E5E0E7F0E950EB90EDA0EFE0E1C51
:100AD3000F3A0F550F700F8B0FAC0FC10FDF0F00C5
:100AE30010191035104E10671084109810AD10BFF8
:100AF30010D110E310F5101611351154116D118634
:100B030011A211C011DE110212251245125C1273DB
:100B1300128512A012AD12BF12DA12EC12FE1219D4
:100B2300132B133D1358136F138613A113B813CF4D
:100B330013DC13EA13FC130E1420143A1451146437
:100B4300148514A314C214E5140115201590032E63
:100B5300121670F0A3E4F0A374FF02154990032E5C
:100B63007401F0A30412167C121659742012165243
:100B7300748002154990032E748012165274201249
:100B8300165B740812167C7402F0A3140215491242
:100B930015BC7407F0A3740FF0A3741FF0A3743F84
:100BA300F0A3747F80B090032E7480F0A374C0F020
:100BB300A374E0F0A374F0F0A374F8F0A374FCF052
:100BC300A374FEF0A30402154990032E74111215A9
:100BD300F07444F0A3E4121692F0A3E402154990D2
:100BE300032E7411121630744412161C7488020BEF
:100BF3005990032E74881215D8742212159A80D92D
:100C030090032E748812161C744412163074110249
:100C13000B5990032E7481F0A37442121669741851
:100C23001216697442F0A3748180AE90032E74810E
:100C3300F0A374C3F0A374E712161C74E7F0A37453
:100C4300C3F0A37481809290032E741312159674CB
:100C5300231215967443121596748380CC12159142
:100C6300742A121596744A12159674A8020BDC9016
:100C7300032E7471F0A37461F0A37451F0A3744153
:100C8300F0A3743112157F7411F0A3740102154996
:100C930090032E7417F0A3742712164B7447F0A316
:100CA3007457121640748702154990032E747AF014
:100CB300A3746BF0A3745CF0A3744DF0A3743EF0C3
:100CC300A3742FF0A3741080C090032E74C1121666
:100CD3008374A41215967498020BDC90032E746728
:100CE300F0A37442F0A3746812163974691215B52F
:100CF3007465F0A3743002154990032E74311215F4
:100D0300C174321215AE7433F0A37409F0A37434B2
:100D1300F0A3741202154990032E7435F0A37415D1
:100D23001215A7741812164B7421F0A37438F0A38C
:100D3300742402154990032E7439121578744112E4
:100D4300167C7442121571744380C590032E74444B
:100D53001215A07445F0A37420F0A374461216690B
:100D63007447F0A3742802154990032E7448F0A326
:100D73007432F0A374491215A77451F0A37405F0EB
:100D8300A37452F0A3741002154990032E7453F008
:100D9300A374151215B57420F0A37455F0A374252C
:100DA300F0A37456020CF590032E7457F0A3743518
:100DB300F0A374581216527459F0A37445F0A37437
:100DC30061F0A3740602154990032E7462F0A374B4
:100DD30012F0A3746312156374641216697471F0CC
:100DE300A3740702154990032E7472F0A37414F0D0
:100DF300A3747312157F747412156A7475F0A37457
:100E03003502154990032E7476F0A37442121644EA
:100E13007449F0A37478F0A37456F0A37479F0A323
:100E2300746302154990032E748112157174821232
:100E330015A074831216697484F0A37432021549E1
:100E430090032E748512165274861216397487F025
:100E5300A3745612168C746402154990032E748978
:100E6300F0A37472F0A37491F0A37409F0A37492C5
:100E73001215637493F0A3742702154990032E741B
:100E8300941215A7749512163974961215B57497A2
:100E9300808C90032E7498F0A37472F0A37499F06D
:100EA300A37481F0A374A1F0A3740AF0A374A2F055
:100EB300A3742002154990032E74A3F0A37430F099
:100EC300A374A412165274A5F0A37450F0A374A6CD
:100ED300F0A3746002154990032E74A7F0A37470F5
:100EE300F0A374A8F0A37480F0A374A9F0A3749082
:100EF300F0A374B1F0A3741102154990032E74B2D8
:100F03001215E974B3F0A37433F0A374B41215D1BA
:100F130074B5F0A3745502154990032E74B6F0A36B
:100F23007466F0A374B712164474B812168C74B9AD
:100F3300F0A3749902154990032E7421121662745A
:100F43002212167C74231215AE7424F0A3740802C3
:100F5300154990032E742512165B7426F0A37412A0
:100F6300121578741412156A741602154990032E1B
:100F73007429121563742A12157174C8F0A3747658
:100F83001215C1747402154990032E7461F0A37491
:100F930050F0A3742DF0A374D5F0A3744B1215AEC7
:100FA3007498F0A374340215491215BC7405F0A3A8
:100FB3007407F0A37409121586741502154990037A
:100FC3002E7417F0A3741912157F7423F0A37425DC
:100FD3001215787429F0A3743102154990032E7405
:100FE30033F0A3743512164B7439F0A37441F0A394
:100FF3007443F0A37445F0A3744702154990032E7C
:101003007451F0A37453F0A374551216087463F06B
:10101300A3746502154990032E7467F0A3746912D3
:101023001551F0A374751216447479F0A3748102F8
:10103300154990032E7483F0A374851215F97493E4
:10104300F0A37495F0A3749702154990032E749935
:1010530012166204F0A37405F0A3740712158674C4
:101063001702154990032E7419F0A37423F0A37487
:1010730029F0A3743112164B7441F0A37443020F89
:10108300F990032E7451F0A3745312160874671267
:10109300155102154990032E7477F0A37479F0A3C8
:1010A30074831215F97497020BDC90032E74A1124A
:1010B300168374C412159674D8020BDC90032E7435
:1010C3001A121596742B1215C8748D020BDC90033B
:1010D3002E74A112162074C412161C74D8020B5954
:1010E300121617742B12161C744C12161C748D02D4
:1010F3000B5990032E7419F0A3742812164B7445E0
:10110300F0A37455F0A37464F0A37473F0A3748212
:1011130002154990032E74A1F0A374B0F0A374C216
:10112300F0A374D0F0A374E4F0A374F01216920247
:101133000D8690032E741AF0A3740BF0A3742CF095
:10114300A3740DF0A3744EF0A3740F121692020C45
:101153008C90032E7411F0A37401F0A37422121661
:10116300627444F0A37416020E5690032E74761222
:1011730015B5743212165B7401F0A304F0A3740462
:10118300020DC490032E1216597412F0A374141294
:1011930015A07418F0A37420F0A3742202154990CB
:1011A300032E7424F0A3742612156A7430F0A3740A
:1011B30032F0A374341215A7743802154990032E24
:1011C3007440F0A374421215D17446121639745048
:1011D300F0A37452F0A3745402154990032E74566D
:1011E300F0A37458F0A37460F0A37462F0A3746462
:1011F300F0A37468F0A37470F0A37472021549909D
:10120300032E7474F0A37476F0A37478F0A374803F
:10121300F0A37482F0A37484F0A37486121692026E
:10122300154990032E7490F0A37492F0A37494F074
:10123300A37496F0A37498F0A374A0F0A37482022D
:101243000BC690032E74C812159674C412159674A7
:10125300C212159674C1020BDC90032E74C81216C9
:101263001C74C212161C74C412161C74C8020B59C7
:1012730090032E741C121596742C1215C8748C02CC
:101283000BDC90032E7411F0A3740C1215E974C0D7
:101293001215D1740C12168C74C0021549121591D3
:1012A30074A212159674A4020C6A121617742A12E9
:1012B300161C744A12161C748A020B5990032E745E
:1012C30011F0A374A01215E9740A1215D174A012B7
:1012D300168C740A02154990032E74B11216837486
:1012E300B412159674B8020BDC90032E74B1121667
:1012F3002074B412161C74B8020B5990032E741187
:10130300F0A374B01215E9740B1215D174B0121650
:101313008C740B02154990032E74D112159674D256
:1013230012159674D40210B790032E74D112161CA2
:1013330074D212161C74D40210DB90032E7411F0B5
:10134300A374D01215E9740D1215D174D012168C32
:10135300740D02154990032E74E112159674E2126E
:10136300159674E412159674E8020BDC90032E7440
:10137300E112161C74E212161C74E412161C74E8B3
:10138300020B5990032E7411F0A374E01215E97443
:101393000E1215D174E012168C740E0215499003C7
:1013A3002E74F112159674F212159674F4121596A2
:1013B30074F8020BDC90032E741F121596742F120F
:1013C3001596744F121596748F020BDC90032E74CE
:1013D300FFF0A3121670020BDC90032E741112158A
:1013E3009A12159A020BFE90032E74221215F074B2
:1013F300221215967422020BDC90032E74441215EC
:10140300D874441215967444020BDC90032E74882E
:10141300F0A3E412168CE4121692020BD690032E5C
:1014230074101216697405F0A374121216627456BE
:10143300F0A37401020D6590032EE4F0A37464120B
:1014430015967432F0A3E41215A0E4020F4E900334
:101453002EE412167CE4121662E4F0A374FF020B6E
:10146300D990032E7493F0A37439F0A374841216E5
:10147300397475F0A37457F0A37465F0A37456021E
:10148300154990032E7494F0A37449F0A37485F066
:10149300A3745812155AF0A304F0A37486021549D5
:1014A30090032E7431F0A37413F0A37425F0A37486
:1014B30052F0A374C8F0A3748C12155A0215499004
:1014C300032E74D8F0A3748DF0A374B7F0A3747BC8
:1014D300F0A3746AF0A374A6F0A3745FF0A374F589
:1014E300806490032E74E4F0A3744EF0A374A8F008
:1014F300A3749C1216407496F0A37453804890030F
:101503002E7498F0A37489F0A314F0A37486F0A347
:10151300744012167C7469F0A37496802990032E8C
:1015230074701215AE745012167C743012166274F5
:1015330010020F4E90032EE4F0A3F0A3F0A3F0A348
:10154300F0A3F0A3F0A3F0D083D08202010BF0A3A9
:101553007471F0A3747322F0A37476F0A3746722FA
:10156300F0A37418F0A322F0A37428F0A322F0A32D
:101573007408F0A322F0A37427F0A322F0A374212C
:10158300F0A322F0A37411F0A37413F0A322900329
:101593002E74A11215E3221215E3741122F0A37421
:1015A30016F0A322F0A37436F0A322F0A37406F07E
:1015B300A322F0A37454F0A32290032E7401F0A38A
:1015C3007403F0A3221215E3744C1215E322F0A363
:1015D3007444F0A3221215E374441215E32274FF3A
:1015E300F0A3E4F0A322F0A37422F0A3221215E3E4
:1015F30074221215E322F0A37487F0A37489F0A375
:101603007491F0A322F0A37457F0A37459F0A37458
:1016130061F0A32290032E741A121629221216299E
:1016230074B212162922F0A374FFF0A32212162912
:10163300742212162922F0A37448F0A322F0A37493
:1016430067F0A37477F0A322F0A37437F0A322F01A
:10165300A37440F0A3227408F0A37410F0A322F043
:10166300A37402F0A322F0A37424F0A322E4F0A352
:101673001215E11215E174FF22F0A37404F0A32202
:101683001215E374B21215E322121692F0A322F09C
:10169300A37488221202D012198F6441600AE06495
:1016A300426005E0644370031202EE7A2C7B011260
:1016B30003DE80E3C082C0839003017411F0A3F0C2
:1016C300A304F0A37401F012033C1203B41202BE8C
:1016D3009002FF7433F0A3F07AFF7B02120324120B
:1016E30003361219FCD083D08202010B74F6120662
:1016F3000174FE1205AA900306E4F07509011203B2
:10170300BA7A2C7B011203DE7C907D057A00790185
:101713001203C67CA07D057A0079021203C6AB09C9
:101723007A0E79011202DC80281202E8E9FA121912
:1017330011740B6A601412198FFB900306E0FA7997
:10174300021203C0900306E004F07A2C7B0112031B
:10175300DE900306E0C3940240CF850982E582C38D
:1017630033F8E433F9740728F8740339F9851082E0
:10177300851183E075F00AA4FA74011205F5E0FC03
:10178300EA2CFAE5F03400FB88828983EAF0A3EBC4
:10179300F088828983E0F91203187E007F00EEF956
:1017A3001203127AFA7B001203DEEE24010EEF34E9
:1017B30000FFC3EE9408EF9400A2D265D03340DE5D
:1017C300850982A882E8C333FAE433FB74072AF558
:1017D3008274033BF583E0C0E0740228F582740150
:1017E3003400F583D0E0F07CA37D057A03790212FF
:1017F30003C612190B7005050912182C900305E096
:10180300642A700A7A647B0012034E12182C7A2C15
:101813007B011203DEE509C3940950030217217407
:10182300021205C07F0202066D900306E4F07CB04D
:101833007D05FA79021203C62274F4120601E9FF48
:10184300EAFEEBFAE4FBFCFD1204448A0A8B0BACC0
:101853000AAD0B74016F7006EEFA79018009740208
:101863006F7007EEFA79021203C67F0402066D74E5
:10187300F712060174FE1205AA7CC07D057A007971
:10188300021203C6900306E4F08024E0642A700F7A
:10189300900306E4F07CC07D05FA79021203C67A50
:1018A3002C7B011203DE900306E0C39402502D7AD1
:1018B3002C7B011203DE1202E81202E8E9C3940A48
:1018C30050E41202E8E9FB121911900306E0FA79D9
:1018D300021202DC900306E004F080CA12190B70B6
:1018E300AA74011205F5C082C08375F00A851082BF
:1018F300851183E0A4D083D082F8E028900102F020
:1019030074021205C0021A871219936423229003EA
:1019130006E0F8851082851183E58228F582E58348
:101923003400F583E9F022C082C08312198F643139
:10193300700479018053E0643270047902804AE0D4
:101943006433700479038041E06434700479048063
:1019530038E0643570047905802FE06436700479CB
:10196300068026E0643770047907801DE0643870D0
:101973000479088014E0643970047909800BE06409
:1019830030700479008002790B0216E81219932251
:1019930012039CE9900305F02274F7120601E9FE95
:1019A3001203BA7CD17D057A0079021203C6EE24B4
:1019B300BF6008146014146020802E7CE27D057AD9
:1019C3000079011203C67900801C7CF37D057A003F
:1019D30079011203C67901800D7C047D067A0079B2
:1019E300011203C679021202F47AE87B031203DEC2
:1019F3001203BA1219FC021A877C727D057A0079E8
:101A0300011203C67C837D057A0079021203C62284
:101A130074F7120601E9FE1202E8E9F874FF28C31D
:101A2300940550F3E814600E14603014603F1460A2
:101A33002314604B804E7C157D067A0079021203D5
:101A4300C67A01EEF9120300EEF91203067AE87B77
:101A5300031203DEEEF91202FA80291202D67C2861
:101A63007D067A0079021203C67A0280D61202E258
:101A73007C3B7D067A0079021203C67A0380C4EEAA
:101A8300F912030C7F0102066D74F6120601E9FFD9
:101A93001203BA7C4E7D067A0079011203C67C5C80
:101AA3007D067A0079021203C67C007D0079FF7AF5
:101AB300007B02120330900200E014600814600CF3
:101AC3001460108014A3E0900317800CA3E090032C
:101AD300188005A3E0900319F07C6D7D067A0E79DA
:101AE300021203C6EF600C146054147003021B8BC4
:101AF300021BEC900317E0C3940A50147C707D061C
:101B03007A0879021203C6900317E0FB7A0980046E
:101B1300E0FB7A08121C78C0F07901121C73D0F034
:101B230084FB7A0C79021202DC7901121C5F740ABD
:101B3300F0900317E090031BF07901021BD390038D
:101B430018E0C3940A50147C707D067A0879021257
:101B530003C6900318E0FB7A098004E0FB7A0812BD
:101B63001C78C0F0790B121C73D0F084FB7A0C79CB
:101B7300021202DC790B121C5F740BF0900318E065
:101B830090031BF0790B8048900319E0C3940A502B
:101B9300147C707D067A0879021203C6900319E05B
:101BA300FB7A098004E0FB7A08121C78C0F07915EF
:101BB300121C73D0F084FB7A0C79021202DC7915C3
:101BC300121C5F740CF0900319E090031BF079155D
:101BD300121C7390031CF07C037D007A1A7B0312A2
:101BE300043E7AE87B031203DE8F08121C51701245
:101BF300EEC3940650110E7C727D067A00790112B1
:101C030003C6121C517011EEC39406401B7C817DE8
:101C1300067A0079011203C6121C51600B7C8F7D7A
:101C2300067A0079011203C612198F642A6003022F
:101C33001AAC1203BA7C727D057A0079011203C6CD
:101C43007CA07D067A0079021203C6021827741756
:101C53002508F58274033400F583E022121C7375A2
:101C6300F00A84ABF07A0D79021202DC90031A2297
:101C73001202CAE92279021202DC75F00A2274F513
:101C8300120601E9FF8A0A7401650A70097A01756F
:101C9300F00AEFA480457402650A702E7A0275F08B
:101CA3000AEFA4F91202C47E028E0874012508F516
:101CB300827401121C59FA75F00AEFA42EF912026C
:101CC300C40EEEC3940A501780DF7403650A700FC5
:101CD300900102E0FA75F00AEFA404F91202C47F3E
:101CE3000302066D74F5120601890A741E250AFEA5
:101CF3007F0075F00AE50A121D3C40F6EEF9121C4E
:101D03007390010BF0E50A700A79FF7C017D017A7B
:101D130022801E7401650A700A79FF7C017D017AB5
:101D230033800E7402650A700D79FF7C017D017AA0
:101D3300447B2212032A021CE2A42FF91202CA8F47
:101D43000874012508F58274013400F583E9F00F66
:101D5300EFC3940A2274F7120601E9FE900101749D
:101D630005F0EE700A79FF7C017D017A22801C74F4
:101D7300016E700A79FF7C017D017A33800D740254
:101D83006E700D79FF7C017D017A447B2212032A58
:101D93001203BA7CAA7D067A0079011203C67AE897
:101DA3007B031203DE021A87C082C083120420124F
:101DB300035A79017AB27B031204089003B2E0C29A
:101DC300E7F0640570347905121E805004D2F08068
:101DD30002C2F0A2F0E4339006BEF09003B7E0A293
:101DE300E74003021E789003B5E0F8900336E068FD
:101DF3006003021E78A37401807AE024F59006BB89
:101E0300F09003B2E0F9121E805004D2F08002C2B7
:101E1300F0A2F0E4339006BEF09003BAE0F8A3E03A
:101E2300F99006B7E8F0A3E9F09006BC74BCF0A300
:101E33007403F0121E8E74BC28F8740339F9888277
:101E43008983E09006BFF088828983A3E0A2E750EC
:101E53001C9006B6E0F89003B5E06860109003B3F9
:101E6300E054DF644170069006C07401F09003B53E
:101E7300E09006B6F012036012042680187AB37B52
:101E8300031204089003B3E0A2E5229006BBE0F836
:101E93003395E0F922D083D08202010B74F7120646
:101EA30001EAFEEBFF1203E4E964017004790180A7
:101EB3004E12036090033DEEF0A3EFF09006BCE4F6
:101EC300F0A3F090033804F09006C2120572900359
:101ED3003912057E121F07A3A3E0F91203F01220A3
:101EE30006FAA3E0FB1203F6121F07E0FAA3E0FBD6
:101EF3001203FC7A1E7B0312042C12035A79007F0F
:101F03000102066D121F0B2290033DE0F8A3E0F5DA
:101F1300838882A3A32274F4120601EAFEEBFF8CEA
:101F2300088D09890A900338E07003120414E50A46
:101F3300C394675005850A0B8003750B671204323F
:101F4300120420740B250B90033FF012201390030F
:101F5300406004746180027441F0A37488F09003BC
:101F630036E0900342F090033E121F11E0F8A3E025
:101F7300F9900343E8F0A3E9F0A3EEF0A3EFF01226
:101F83002006F8A3E0F9900347E8F0A3E9F07A000C
:101F930080218A82A882E50828F582E5093400F5C4
:101FA30083E0C0E0744928F58274033400F583D0DC
:101FB300E0F00AEAC3950B40D9740A250BF97A3F7E
:101FC3007B0312040212042612040E122013601261
:101FD300900337E4F07A4A7B021203D8900337E088
:101FE30060047E0080027E01900338E070031204D7
:101FF3001AEEA2E04006900336E004F0EEF97F0407
:1020030002066D90033DE0F8A3E0F5838882E022A9
:10201300121F0BA3A3A3E02274F21206018A088BFA
:1020230009890AECFEEDFF120360121E8E850A0C6D
:10203300C3E8950CE99400A2D265D033500AE0F5C9
:102043000C3395E0F50D8003750D00780C12076ACB
:102053009006BCE0FCA3E0FDAA08AB0912044A7495
:10206300021205C0EE4F601E1203EAE9F50890065E
:10207300BF121E91E8C39508F8E99400F98E828F88
:1020830083E8F0A3E9F09006C0E4F012035A121EAD
:102093008E850A08C3E89508E99400A2D265D03377
:1020A3005004E0F98002A90A7F0602066DC082C0CF
:1020B300839003387401F0120414021E98C082C086
:1020C30083D2A4D2A37A027B001203D8C2A38002D4
:1020D300D2A47A027B001203D8C2A47A027B001234
:1020E30003D8D083D08202010BC082C083C2A37AFB
:1020F300027B001203D8D2A47A027B001203D8D247
:10210300A380D8C082C083C2A380C5C082C083D24B
:10211300A380BD74F7120601E9FF7E08EFA2E75022
:1021230004D2A38002C2A3D2A4C333FF12217B1E15
:10213300EE70E98002EEF97F0102066D74F7120674
:10214300017E00D2A353F5F753FFF753F7F753F785
:102153007F7A027B001203D87F08D2A4EEC333FE3A
:10216300A2A35003D2E0FE12217B1FEF70EC53F5C4
:10217300F7D2A343FF0880BD7A027B001203D8C2C3
:10218300A47A027B001203D82274F7120601E9FF36
:10219300EAFE1221A2EEF91221E712036C809812D3
:1021A300036679E01221EB79001221EBEFF912219A
:1021B300EB2274F612060112036679E01221E77925
:1021C300001221E779081221E71221F21203721299
:1021D3000384E9F50812037812036CEEAA08FB7F67
:1021E3000202066D1221EB2212037E1203722212E7
:1021F300036C12036679E11221EB120384E9FE22D8
:10220300C082C0837A62790012038A7AF779021254
:10221300038A7A07790312038A7A00790412038AFC
:102223007A00790512038A7A30790E12038A7A6A60
:10223300790012038A0220E574F612060112039054
:102243008A088B0978081207B1000014008200A6DF
:10225300228400AA228800AE229000D222A000DEAF
:10226300220201B2220401B6220801BA221001D6C9
:10227300222001E2220202BE220402C2220802C676
:10228300221002DA222002E6220204CA220404A255
:10229300220804CE221004EA222004EE22F2227E37
:1022A30030804E7E31804A7E3280467E3380427E4D
:1022B30034803E7E35803A7E3680367E3780327E6D
:1022C30038802E7E39802A7E2A80267E2380227EB5
:1022D30041801E7E42801A7E4380167E4480127E99
:1022E30045800E7E46800A7E5580067E4E80027EA5
:1022F3000090045DE004F0C394C94008E4F07A6AF6
:10230300F912038AEE60117AAA7B0A1203427A1445
:102313007B001203DE120348EEF90221E274F71286
:102323000601E9FE43FD40C2860223C274F712068A
:1023330001E9FE43FD40D2860223C274F71206016F
:10234300EAFEEBFF890880128E828F83E0F9120385
:10235300A88E828F83A3AE82AF83A80874FF28F56B
:10236300080470E40223DCC082C08343FD40C2A0A2
:102373007A1E1223AC79301203A27A021223AC1212
:1023830023A61223A679101203A279061203A279B7
:10239300011223A81203BA790C1203A2D083D082AC
:1023A30002010B79381223B7227B001203DE793046
:1023B3001223B7221203A27A027B001203DE228EBB
:1023C30090D2A07A027B001203D8C2A07A507B007D
:1023D3001203D8900432E0F5907F0102066D74F782
:1023E30012060179801203A27E1079201203A81E1F
:1023F300EE70F779C01203A27E1079201203A81E93
:10240300EE70F780D474F7120601E9FF8A08EBFE39
:1024130074026F70087440250844808004748045FA
:1024230008F91203A2EEF91203A880AD74F612069E
:102433000189088A09ECFEEDFF74026508700874CF
:102443004025094480800474804509F91203A2EEF3
:10245300FAEFFB120450EAF9EEFAEFFB1203AE7F38
:102463000202066DC082C083D285D2847A027B00C9
:102473001203D8C2848002D2857A027B001203D869
:10248300C2857A027B001203D8D083D08202010B6B
:10249300C082C083C2847A027B001203D8D2857AB9
:1024A300027B001203D8D28480D8C082C083C28446
:1024B30080C5C082C083D28480BD74F7120601E94F
:1024C300FF7E08EFA2E75004D2848002C284D28543
:1024D300C333FF12251D1EEE70E98002EEF97F0162
:1024E30002066D74F71206017E00D28453F3EF5394
:1024F300FDEF538FEF53F7DF7A027B001203D87F90
:1025030008D285EEC333FEA2845003D2E0FE122527
:102513001D1FEF70EC12254580C27A027B00120367
:10252300D8C2857A027B001203D822C082C08312EC
:10253300254553F3DFD28543FD2079001202CA02F9
:10254300248C53F3EFD28443FD102274F712060157
:10255300E9FFEAFE12258BEE1225981202A07A05F6
:102563007B001203DE0224E174F7120601E9FF1275
:10257300258B12029A79A11225991202B8E9FE124B
:1025830002AC1202A00224DF12029A79A01225994A
:10259300EF12259822F91202B21202A62274F01247
:1025A300060174FB1205AA74011205F5EAF0A3EB08
:1025B300F0A3ECF0A3EDF07A667B0574011205F548
:1025C300C082C0839006C27808120554D083D0829B
:1025D3007808120456851082851183501C7401F00B
:1025E3001205F57808120554780812054374011290
:1025F30005F578081205638002E4F074011205F50D
:10260300780C1205549006C67808120554780C7994
:1026130008120505E50824308A828B83F0A3AA8279
:10262300AB8374011205F5780C1205549006C67835
:1026330008120554780C790812050574011205F582
:10264300780C12056374011205F57808120554E538
:10265300084509450A450B70A2851082851183E060
:10266300A2E0500B8A828B83742DF0A30AAB838A7A
:10267300828B83E41226B278667905801D8A828B69
:1026830083E0FC88828983E08A828B831226B2EC02
:1026930088828983F0A3A882A983C3E89AE99B402F
:1026A300DC7A667B0574051205C07F0802066DF0AF
:1026B300EA24FF1AEB34FFFB22C082C083906189B6
:1026C300E04460F090619074D5F09061FA7409F081
:1026D3009061B27415F09061AEE4F01204267900B3
:1026E3008004F0EBA3F0D083D08202010B7949027E
:1026F300010BC082C08375F005E9A424D490618FD7
:1027030080E3C082C083EA90617480D6C082C083B4
:10271300EA90617280CC74F612060175E1EE759150
:10272300FD78008003122735E8C39940F87F020241
:10273300066D8808EA2508F582EB3400F583E0F599
:10274300D90822C082C083800DE5D98A828B83F0A9
:10275300A3AA82AB8319E970F00226E9790002018A
:102763000B75E1E9E591A2E150FA7591FD80ED75F4
:10277300E1EC75E1E302010B75E1EF75E1EC0201B8
:102783000BC082C0839061A3E0C2E6F0539AFE02BD
:1027930026E9C082C0839061A3E0D2E6F0439A01A8
:1027A3000226E9C082C083E5A8F8C2AF90045EEABE
:1027B300F0A3EBF0E8A2E792AF0226E9C082C08360
:1027C300906193E0542270F80226E9C082C08353DB
:1027D300F1FE43F30C53F2F375868075C48075C222
:1027E300D875C50B75C402438640D2AA75C1009043
:1027F30004E0E4F0A3F0900563F0A3F09004E2F0AA
:10280300900565F0D083D08202010B7F0102066D33
:1028130074F7120601900563E0F8A3E0C3989005EE
:1028230063E0F8A3E0FEE85018C39EF895E0F9E8EA
:1028330024FF18E934FFF9E849701B780079008018
:1028430029C39EF895E0F9E8247FF8E93400F9C339
:10285300E89CE99D50E57A007B008046E004F04364
:102863009A04E8240108E93400F9C3E89CE99D507F
:102873002D8A828B83E0C0E0900564E0FE74E32E32
:10288300F58274043400F583D0E01228A89005651E
:10289300E4F0900564E0C3947F40C1E480C0E8FAAB
:1028A300E9FB02280EF08A828B83A3AA82AB8322E0
:1028B300C082C0837900120354D083D08202010BFB
:1028C300EBC313FBEA13FAEAF8EBF9E824FFFAE99E
:1028D30034FFFBE849601200000000000000000024
:1028E3000000000000000080DE02010B74F71206F6
:1028F30001EAFEEBFFEEF8EFF9E824FFFEE934FF0F
:10290300FFE84960097AE87B031203D880E77F0177
:1029130002066DC082C0831203D253F5EFD2A443E3
:10292300FF1053F5F7D2A343FF0853F5F753FFF70F
:1029330043F70853F5FEC2A043FF0153F3BFC2861A
:1029430043FD4075F4007590FF75FEFF900432E47B
:10295300F07590001203B412039612043812035A4E
:10296300D083D08202010B74F6120601740A120599
:10297300F5E0FEA3E0FFEAF8EBF980188C828D8383
:10298300E088828983F0A3A882A9838C828D83A3A4
:10299300AC82AD838E088F09E50824FF1EE5093458
:1029A300FFFFE508450970D47F0202066DE5C654B2
:1029B30080F853BEFBE59DA2E550FAE59DA2E240F7
:1029C300F4007401697007744948F5C68005E9701D
:1029D3000288C6E5C6F8E59E6870FB43BE040201A3
:1029E3000BC082C0838A828B838001A3E070FCE5E5
:1029F30082C39AFAE5839BFBD083D08202010BD278
:102A0300AF02010BC2AF02010B02010B02010B0269
:072A1300010B899002010B89
:04000005000000E314
:00000001FF
