:020000040000FA
:030000000200E318
:0300130002099D42
:0300330002090EB1
:03003B000209ECCB
:03006B0002084840
:03007B000208A1D7
:1000830002096500000080FB120113B9000302009E
:10009300CDE4900101787279058002F0A3D8FCD9F0
:1000A300FA900572AA82AB83900116786079028078
:1000B30015E493A3AC82AD838A828B83F0A3AA82D7
:1000C300AB838C828D83D8E9D9E7758278758316E3
:1000D30074001200F575828675830074001200F5B2
:1000E30075D0007581BF751001751101759F0002F0
:1000F300008BC09FF59FE473D09F22D083D082C032
:100103009FE493C0E0740193C0E0740293F59F22CF
:10011300790122492E4F2E4C5F53797374656D3AE2
:100123004D5F41005461726765743A412042204338
:1001330000496E7075742050726F6772616D5F3124
:10014300005F5F005072657373202A206F72202353
:10015300005F5F205072657373202A206F72202323
:10016300005F5F30306D732044656C61792020201F
:100173002000546172676574203A203120322033A5
:1001830020340053656E645F5A6F6E65203A2053C6
:100193005F41200053656E645F5A6F6E65203A209D
:1001A300535F42200053656E645F5A6F6E65203A59
:1001B30020535F43200053656E645F4D6F64652079
:1001C3003A203120202020200053656E645F4D6F5C
:1001D3006465203A203220202020200053656E647D
:1001E3005F4D6F6465203A20332020202020005388
:1001F3006C61766520576F726B696E670050726F22
:100203006772616D3A20202020202020300030309A
:10021300003000536C6176652052657475726E20F0
:100223003000536C617665204E6F20576F726B0000
:10023300536C61766520576F726B696E672020205F
:1002430000576169742E2E2E2E2E00444D00524FFE
:100253004D00526573657420536C61766500FF0031
:1002630000000000000000000000000000000A0081
:1002730000001200FEE524001200FE11250012000A
:10028300FE2B25001200FE3325001200FE3B250045
:100293001200FE6425001200FEAC25001200FECC05
:1002A30025001200FEE925001200FE9B1600120035
:1002B300FED316001200FE2018001200FE5618008E
:1002C3001200FE0E19001200FE8019001200FEF744
:1002D30019001200FE701A001200FE5E1C001200CC
:1002E300FEC41C001200FE651D001200FED61D0098
:1002F3001200FE3E0A001200FE5D0A001200FE29F3
:100303001E001200FE1D1F001200FE971F001200A8
:10031300FE9920001200FE2E21001200FE942900F7
:100323001200FE8A2A001200FE8D2A001200FE909F
:100333002A001200FE2E2A001200FE802A0012005C
:10034300FE852A001200FE3E21001200FE6A2100F3
:100353001200FE8421001200FE8C21001200FE9484
:1003630021001200FEBD21001200FE0A220012002D
:10037300FE3322001200FE8122001200FEB9220089
:100383001200FE9E23001200FEAD23001200FEBCED
:1003930023001200FEE823001200FE5F2400120077
:1003A300FE8624001200FEAD24001200FE932A00F4
:1003B3001200FE3129001200FE4129001200FE6DD9
:1003C30029001200FE3A27001200FE6E27001200D9
:1003D300FE7327001200FE8327001200FE8D270004
:1003E3001200FE9727001200FEC427001200FEE24F
:1003F30027001200FEF027001200FEF9270012006A
:10040300FE0228001200FE1328001200FE2428001A
:100413001200FE3D28001200FE4C28001200FE913F
:1004230028001200FE1E26001200FEE8290012001A
:10043300FE622A00C3E09608A3E09608A3E09608AC
:10044300A3E096A2D265D03322E4CFC0E0E4CEC0CD
:10045300E0E4CDC0E0E4CCC0E075F020C3E633F6C1
:1004630008E633F608E633F608E633F6181818EC10
:1004730033FCED33FDEE33FEEF33FFC3EC9709EDB1
:100483009709EE9709EF97191919400FFFEC97FC9D
:1004930009ED97FD09EE97FE191906D5F0BEECF7A5
:1004A30009EDF709EEF709EFF7191919D0E0FCD0B8
:1004B300E0FDD0E0FED0E0FF221205241818181248
:1004C300044C1205131919192212051319191908C5
:1004D3000808E618181820E7E012044C120524183F
:1004E300181822090909E719191920E7DC0808086F
:1004F300E618181820E70302044C120524181818EC
:1005030012044C120524181818120513191919226C
:10051300E4C397F709E497F709E497F709E497F732
:1005230022E4C396F608E496F608E496F608E49601
:10053300F622E0F608A3E0F608A3E0F608A3E0F647
:1005430022E6F008A3E6F008A3E6F008A3E6F0220B
:10055300E0FAA3E0FBA3E0FCA3E0FD22EAF0A3EBB7
:10056300F0A3ECF0A3EDF022CAC0E0E6F0A308DAB2
:10057300FAD0E0FA22700422600D18C6C333C6080D
:10058300C633C6D5E0F41822251010AF08F5104085
:100593000215118008F51040021511D2AF22C0D008
:1005A300251010AF08F510500205118008F5105002
:1005B300020511D2AFD0D0222510F58210AF08F575
:1005C30010400215118008F51040021511D2AF85B5
:1005D3001183222510F582E43511F58322E4732576
:1005E30010C582C0E0E51134FFC583C0E0E510C348
:1005F300958224F810AF08858311858210800885C1
:100603008311858210D2AFCEF0A3E520F0A3780842
:10061300E608F0A3DEFAEFF0A3E58124FAF8E60892
:10062300F0A3E608F0A3E608F0A30808E608F0A3A1
:10063300E608F0A315811581D0E0FED0E0F815811E
:1006430015811581E8C0E0EEC0E022851183851095
:1006530082E0A3FEE0A3F5207808E0A3F608DFFA22
:10066300E0A3FFE0A3C0E0E0A3C0E0E0A3C0E0E0BC
:10067300A3C0E0E0A3C0E010AF088582108583111A
:100683008008858210858311D2AFD083D082020087
:10069300FBC0D02510C582C0E0E51134FFC583C07F
:1006A300E0E510C3958224F310AF0885831185829A
:1006B300108008858311858210D2AFC8F0A3E9F0BA
:1006C300A3EAF0A3EBF0A37908E709F0A3D8FAECC7
:1006D300F0A3EDF0A3EEF0A3EFF0A3D0E0F0A3D0EE
:1006E300E0F0A3D0E0F0A3E520F0A3E5F0F0A3222F
:1006F300851183851082E0C0E0A3E0F9A3E0FAA3AB
:10070300E0FBA37808E0F608A3DFFAE0FCA3E0FD32
:10071300A3E0FEA3E0FFA3E0C0E0A3E0C0E0A3E00A
:10072300F5D0A3E0F520A3E0A3F5F010AF0885838F
:10073300118582108008858311858210D2AFD08203
:10074300D083D0E0F8D0E03274028000C0E0F4043B
:100753001205BBD0E012056B22D083D082C5F0E432
:1007630093A3C5F0C395F0F5F0E493A3C395F040CC
:1007730005E5F0048001E475F002A42582F582E525
:10078300F03583F583E493A3C0E0E493C0E022D083
:1007930083D082ECC0E0EDC0E0E493A3FCE493A338
:1007A300FDED4C600D1207DEEC24FFFCED34FFFD84
:1007B30080EFE493A3FCE493A3FDED4C600D1208DA
:1007C3001DEC24FFFCED34FFFD80EFD0E0FDD0E015
:1007D300FCE493A3C0E0E493C0E022C0E0C3E4934D
:1007E30096087401939618400FE493667008087492
:1007F3000193661870007019A3A3C3E49396087459
:1008030001939618A3A3400DD0E0D0E0D0E00207F7
:10081300CEA3A3A3A3A3A3D0E022C0E0C0F088F09B
:10082300E4936670080874019366187000A8F0A337
:10083300A3700BD0F0D0E0D0E0D0E00207CEA3A3AA
:10084300D0F0D0E022C0E074F1120694C2C5E5896D
:1008530060477E00750801750900EE780812057877
:10086300AF08E5895F602BEEC333F8E433F97433E3
:1008730028F58274041208F76014EEC333F8E433E6
:10088300F9743328F58274041209021205E0EFF4B7
:1008930052890EEEC3940840BB7F020206F3C0E008
:1008A30074F1120694C2EBE58A60477E0075080175
:1008B300750900EE7808120578AF08E58A5F602BAA
:1008C300EEC333F8E433F9744328F5827404120851
:1008D300F76014EEC333F8E433F9744328F58274F4
:1008E300041209021205E0EFF4528A0EEEC39408D3
:1008F30040BB80A539F583E0F8A3E0F9E849223944
:10090300F583E0F8A3E0F583888222C0E074F11256
:100913000694C2E8E58B60477E00750801750900FF
:10092300EE7808120578AF08E58B5F602BEEC333D2
:10093300F8E433F9745328F58274041208F7601449
:10094300EEC333F8E433F9745328F58274041209BF
:10095300021205E0EFF4528B0EEEC3940540BB0286
:10096300089CC0E074F2120694A2AFE433FEC2AF57
:10097300E5E9A2E6501A90045EE0F8A3E0F9E8493D
:100983006008E0F58388821205E0759B0053E9BF98
:10099300EEA2E092AF7F010206F3C0E0C0D0E8C050
:1009A300E0E9C0E0C082C083E5C1C0E09004E1E0BB
:1009B300F8746028F58274043400F583D0E0F09075
:1009C30004E0E0F8A3E0687004E595A3F09004E187
:1009D300E004F0C394804002E4F0D083D082D0E0FE
:1009E300F9D0E0F8D0D0D0E032C0E0C0D0E8C0E029
:1009F300C008C009C082C083900563E0F8A3E06823
:100A03007008539AFBA374018026C2E9900563E042
:100A1300F50874012508F074E32508F5827404349D
:100A230000F583E0F5C1900563E0C394804002E4E0
:100A3300F0D083D082D009D00880A674F61205E2E4
:100A4300E9FE8E08742E2508F58274033400F583BD
:100A5300E0F91203AD7F0202064EC082C083E912A1
:100A6300075C00632B151815310B410B590B730BE6
:100A73008A0BAD0BC30BD50BE40BF60B0F0C2B0C36
:100A8300410C530C740C8E0CAD0CBF0CDD0CFB0C29
:100A9300190D2F0D4D0D6E0D8B0DAC0DCA0DE80DFF
:100AA300090E240E3F0E600E760E9A0EBB0EDF0E5D
:100AB300FD0E1B0F360F510F6C0F8D0FA20FC00FC2
:100AC300E10FFA0F16102F104810651079108E10D1
:100AD300A010B210C410D610F710161135114E1114
:100AE30067118311A111BF11E311061226123D12E2
:100AF3005412661281128E12A012BB12CD12DF1293
:100B0300FA120C131E13391350136713821399131C
:100B1300B013BD13CB13DD13EF1301141B143214E5
:100B2300451466148414A314C614E2140115900327
:100B33002E121651F0A3E4F0A374FF02152A9003BA
:100B43002E7401F0A30412165D12163A74201216C5
:100B530033748002152A90032E7480121633742086
:100B630012163C740812165D7402F0A31402152ABF
:100B730012159D7407F0A3740FF0A3741FF0A374F0
:100B83003FF0A3747F80B090032E7480F0A374C0F1
:100B9300F0A374E0F0A374F0F0A374F8F0A374FC72
:100BA300F0A374FEF0A30402152A90032E7411120D
:100BB30015D17444F0A3E4121673F0A3E402152ACA
:100BC30090032E741112161174441215FD748802C9
:100BD3000B3A90032E74881215B9742212157B8078
:100BE300D990032E74881215FD74441216117411D2
:100BF300020B3A90032E7481F0A3744212164A74C6
:100C03001812164A7442F0A3748180AE90032E74B6
:100C130081F0A374C3F0A374E71215FD74E7F0A386
:100C230074C3F0A37481809290032E74131215770A
:100C330074231215777443121577748380CC1215BD
:100C430072742A121577744A12157774A8020BBDB1
:100C530090032E7471F0A37461F0A37451F0A37424
:100C630041F0A374311215607411F0A374010215DD
:100C73002A90032E7417F0A3742712162C7447F0CE
:100C8300A37457121621748702152A90032E747ABF
:100C9300F0A3746BF0A3745CF0A3744DF0A3743EE3
:100CA300F0A3742FF0A3741080C090032E74C112AC
:100CB300166474A41215777498020BBD90032E74F6
:100CC30067F0A37442F0A3746812161A74691215BC
:100CD300967465F0A3743002152A90032E743112B2
:100CE30015A2743212158F7433F0A37409F0A37430
:100CF30034F0A3741202152A90032E7435F0A374F2
:100D030015121588741812162C7421F0A37438F078
:100D1300A3742402152A90032E74391215597441B1
:100D230012165D7442121552744380C590032E74DB
:100D3300441215817445F0A37420F0A3744612166F
:100D43004A7447F0A3742802152A90032E7448F0BE
:100D5300A37432F0A374491215887451F0A3740577
:100D6300F0A37452F0A3741002152A90032E745347
:100D7300F0A374151215967420F0A37455F0A374A0
:100D830025F0A37456020CD690032E7457F0A37467
:100D930035F0A374581216337459F0A37445F0A3B5
:100DA3007461F0A3740602152A90032E7462F0A3F3
:100DB3007412F0A37463121544746412164A7471A6
:100DC300F0A3740702152A90032E7472F0A374140F
:100DD300F0A37473121560747412154B7475F0A339
:100DE300743502152A90032E7476F0A374421216FA
:100DF300257449F0A37478F0A37456F0A37479F0C2
:100E0300A3746302152A90032E74811215527482FF
:100E1300121581748312164A7484F0A37432021576
:100E23002A90032E7485121633748612161A748749
:100E3300F0A3745612166D746402152A90032E746F
:100E430089F0A37472F0A37491F0A37409F0A374EE
:100E5300921215447493F0A3742702152A90032E5B
:100E63007494121588749512161A74961215967442
:100E730097808C90032E7498F0A37472F0A37499E6
:100E8300F0A37481F0A374A1F0A3740AF0A374A275
:100E9300F0A3742002152A90032E74A3F0A37430D8
:100EA300F0A374A412163374A5F0A37450F0A374C2
:100EB300A6F0A3746002152A90032E74A7F0A374FE
:100EC30070F0A374A8F0A37480F0A374A9F0A374C2
:100ED30090F0A374B1F0A3741102152A90032E7439
:100EE300B21215CA74B3F0A37433F0A374B4121519
:100EF300B274B5F0A3745502152A90032E74B6F09C
:100F0300A37466F0A374B712162574B812166D7421
:100F1300B9F0A3749902152A90032E742112164373
:100F2300742212165D742312158F7424F0A37408AF
:100F330002152A90032E742512163C7426F0A3740E
:100F430012121559741412154B741602152A9003B4
:100F53002E7429121544742A12155274C8F0A374FE
:100F6300761215A2747402152A90032E7461F0A3ED
:100F73007450F0A3742DF0A374D5F0A3744B121521
:100F83008F7498F0A3743402152A12159D7405F01A
:100F9300A37407F0A37409121567741502152A9038
:100FA300032E7417F0A374191215607423F0A3743D
:100FB300251215597429F0A3743102152A90032EB2
:100FC3007433F0A3743512162C7439F0A37441F002
:100FD300A37443F0A37445F0A3744702152A900346
:100FE3002E7451F0A37453F0A374551215E974636E
:100FF300F0A3746502152A90032E7467F0A3746935
:10100300121532F0A374751216257479F0A3748146
:1010130002152A90032E7483F0A374851215DA74D3
:1010230093F0A37495F0A3749702152A90032E747A
:101033009912164304F0A37405F0A37407121567FD
:10104300741702152A90032E7419F0A37423F0A3C6
:101053007429F0A3743112162C7441F0A374430263
:101063000FDA90032E7451F0A374531215E97467C9
:1010730012153202152A90032E7477F0A37479F0B7
:10108300A374831215DA7497020BBD90032E74A117
:1010930012166474C412157774D8020BBD90032E14
:1010A300741A121577742B1215A9748D020BBD9047
:1010B300032E74A112160174C41215FD74D8020B09
:1010C3003A1215F8742B1215FD744C1215FD748D1C
:1010D300020B3A90032E7419F0A3742812162C7481
:1010E30045F0A37455F0A37464F0A37473F0A37470
:1010F3008202152A90032E74A1F0A374B0F0A37496
:10110300C2F0A374D0F0A374E4F0A374F0121673C6
:10111300020D6790032E741AF0A3740BF0A3742CC2
:10112300F0A3740DF0A3744EF0A3740F12167302A0
:101133000C6D90032E7411F0A37401F0A3742212AA
:1011430016437444F0A37416020E3790032E74767C
:10115300121596743212163C7401F0A304F0A374B2
:1011630004020DA590032E12163A7412F0A3741400
:101173001215817418F0A37420F0A3742202152AA7
:1011830090032E7424F0A3742612154B7430F0A32D
:101193007432F0A37434121588743802152A90033C
:1011A3002E7440F0A374421215B2744612161A74C8
:1011B30050F0A37452F0A3745402152A90032E74B2
:1011C30056F0A37458F0A37460F0A37462F0A37490
:1011D30064F0A37468F0A37470F0A3747202152A08
:1011E30090032E7474F0A37476F0A37478F0A37450
:1011F30080F0A37482F0A37484F0A3748612167330
:1012030002152A90032E7490F0A37492F0A37494A1
:10121300F0A37496F0A37498F0A374A0F0A374825F
:10122300020BA790032E74C812157774C412157796
:1012330074C212157774C1020BBD90032E74C812C9
:1012430015FD74C21215FD74C41215FD74C8020B8A
:101253003A90032E741C121577742C1215A9748CF2
:10126300020BBD90032E7411F0A3740C1215CA74F3
:10127300C01215B2740C12166D74C002152A121521
:101283007274A212157774A4020C4B1215F8742A07
:101293001215FD744A1215FD748A020B3A90032E3F
:1012A3007411F0A374A01215CA740A1215B274A0B3
:1012B30012166D740A02152A90032E74B112166465
:1012C30074B412157774B8020BBD90032E74B11267
:1012D300160174B41215FD74B8020B3A90032E7400
:1012E30011F0A374B01215CA740B1215B274B012B4
:1012F300166D740B02152A90032E74D11215777490
:10130300D212157774D402109890032E74D112154B
:10131300FD74D21215FD74D40210BC90032E741107
:10132300F0A374D01215CA740D1215B274D012162C
:101333006D740D02152A90032E74E112157774E271
:1013430012157774E412157774E8020BBD90032E1F
:1013530074E11215FD74E21215FD74E41215FD74A7
:10136300E8020B3A90032E7411F0A374E01215CA2D
:10137300740E1215B274E012166D740E02152A90D3
:10138300032E74F112157774F212157774F4121593
:101393007774F8020BBD90032E741F121577742F08
:1013A300121577744F121577748F020BBD90032EAD
:1013B30074FFF0A3121651020BBD90032E74111289
:1013C300157B12157B020BDF90032E74221215D1AD
:1013D30074221215777422020BBD90032E744412EB
:1013E30015B974441215777444020BBD90032E741F
:1013F30088F0A3E412166DE4121673020BB7900380
:101403002E741012164A7405F0A374121216437444
:1014130056F0A37401020D4690032EE4F0A3746406
:101423001215777432F0A3E4121581E4020F2F90A2
:10143300032EE412165DE4121643E4F0A374FF02D4
:101443000BBA90032E7493F0A37439F0A37484122F
:10145300161A7475F0A37457F0A37465F0A3745649
:1014630002152A90032E7494F0A37449F0A3748593
:10147300F0A3745812153BF0A304F0A3748602156D
:101483002A90032E7431F0A37413F0A37425F0A3F0
:101493007452F0A374C8F0A3748C12153B02152A7E
:1014A30090032E74D8F0A3748DF0A374B7F0A374D3
:1014B3007BF0A3746AF0A374A6F0A3745FF0A37423
:1014C300F5806490032E74E4F0A3744EF0A374A823
:1014D300F0A3749C1216217496F0A3745380489061
:1014E300032E7498F0A37489F0A314F0A37486F008
:1014F300A3744012165D7469F0A374968029900357
:101503002E747012158F745012165D7430121643B8
:101513007410020F2F90032EE4F0A3F0A3F0A3F0B6
:10152300A3F0A3F0A3F0A3F0D083D0820200FBF0DA
:10153300A37471F0A3747322F0A37476F0A3746799
:1015430022F0A37418F0A322F0A37428F0A322F0CE
:10155300A37408F0A322F0A37427F0A322F0A374CA
:1015630021F0A322F0A37411F0A37413F0A322902B
:10157300032E74A11215C4221215C4741122F0A3F0
:101583007416F0A322F0A37436F0A322F0A374061A
:10159300F0A322F0A37454F0A32290032E7401F05D
:1015A300A37403F0A3221215C4744C1215C422F0C1
:1015B300A37444F0A3221215C474441215C42274F4
:1015C300FFF0A3E4F0A322F0A37422F0A3221215E8
:1015D300C474221215C422F0A37487F0A37489F093
:1015E300A37491F0A322F0A37457F0A37459F0A34A
:1015F3007461F0A32290032E741A12160A22121693
:101603000A74B212160A22F0A374FFF0A322121670
:101613000A742212160A22F0A37448F0A322F0A33C
:101623007467F0A37477F0A322F0A37437F0A322B6
:10163300F0A37440F0A3227408F0A37410F0A32263
:10164300F0A37402F0A322F0A37424F0A322E4F025
:10165300A31215C21215C274FF22F0A37404F0A3DF
:10166300221215C474B21215C422121673F0A322E7
:10167300F0A37488221202AB1202E11219736441BF
:10168300600AE064426005E0644370031202C97AB1
:101693002C7B011203BF80E3C082C08390030174DB
:1016A30011F0A3F0A304F0A37401F012031D1203BD
:1016B300951202999002FF7433F0A3F07AFF7B0234
:1016C3001203051203171219E0D083D0820200FB24
:1016D30074F61205E274FE12058B900306E4F075AE
:1016E300090112039B7A2C7B011203BF7C907D05B9
:1016F3007A0079011203A77CA07D057A0079021292
:1017030003A7AB097A0E79011202B780281202C32C
:10171300E9FA1218F5740B6A6014121973FB90033B
:1017230006E0FA79021203A1900306E004F07A2C92
:101733007B011203BF900306E0C3940240CF8509E7
:1017430082E582C333F8E433F9740728F874033964
:10175300F9851082851183E075F00AA4FA740112E9
:1017630005D6E0FCEA2CFAE5F03400FB8882898395
:10177300EAF0A3EBF088828983E0F91202F97E0094
:101783007F00EEF91202F37AFA7B001203BFEE2414
:10179300010EEF3400FFC3EE9408EF9400A2D2656C
:1017A300D03340DE850982A882E8C333FAE433FBF1
:1017B30074072AF58274033BF583E0C0E0740228C2
:1017C300F58274013400F583D0E0F07CA37D057AC3
:1017D3000379021203A71218EF70050509121810F6
:1017E300900305E0642A700A7A647B0012032F12C7
:1017F30018107A2C7B011203BFE509C3940350032D
:1018030002170574021205A17F0202064E90030619
:10181300E4F07CB07D05FA79021203A72274F41276
:1018230005E2E9FFEAFEEBFAE4FBFCFD1204258A7C
:101833000A8B0BAC0AAD0B74016F7006EEFA7901DB
:10184300800974026F7007EEFA79021203A77F040E
:1018530002064E74F71205E274FE12058B7CC07DFE
:10186300057A0079021203A7900306E4F08024E0CE
:10187300642A700F900306E4F07CC07D05FA7902B8
:101883001203A77A2C7B011203BF900306E0C394D3
:1018930002502D7A2C7B011203BF1202C31202C322
:1018A300E9C3940A50E41202C3E9FB1218F590034A
:1018B30006E0FA79021202B7900306E004F080CA48
:1018C3001218EF70AA74011205D6C082C08375F096
:1018D3000A851082851183E0A4D083D082F8E028A2
:1018E300900102F074021205A1021A6B12197764B7
:1018F3002322900306E0F8851082851183E5822870
:10190300F582E5833400F583E9F022C082C08312B7
:1019130019736431700479018053E064327004797F
:1019230002804AE06433700479038041E0643470D8
:101933000479048038E0643570047905802FE0640D
:1019430036700479068026E0643770047907801DB9
:10195300E06438700479088014E06439700479090C
:10196300800BE06430700479008002790B0216CC9E
:101973001219772212037DE9900305F02274F712FE
:1019830005E2E9FE12039B7CD17D057A0079021200
:1019930003A7EE24BF6008146014146020802E7C1B
:1019A300E27D057A0079011203A77900801C7CF39C
:1019B3007D057A0079011203A77901800D7C047DEE
:1019C300067A0079011203A779021202CF7AE87B23
:1019D300031203BF12039B1219E0021A6B7C727D80
:1019E300057A0079011203A77C837D057A007902C9
:1019F3001203A72274F71205E2E9FE1202C3E9F803
:101A030074FF28C3940550F3E814600E1460301477
:101A1300603F14602314604B804E7C157D067A0072
:101A230079021203A77A01EEF91202DBEEF9120230
:101A3300E77AE87B031203BFEEF91202D58029127D
:101A430002B17C287D067A0079021203A77A02800C
:101A5300D61202BD7C3B7D067A0079021203A77A77
:101A63000380C4EEF91202ED7F0102064E74F612F2
:101A730005E2E9FF12039B7C4E7D067A0079011291
:101A830003A77C5C7D067A0079021203A77C007DA4
:101A93000079FF7A007B02120311900200E01460C8
:101AA3000814600C1460108014A3E0900317800CDA
:101AB300A3E09003188005A3E0900319F07C6D7DEB
:101AC300067A0E79021203A7EF600C1460541470A7
:101AD30003021B6F021BC9900317E0C3940A50143F
:101AE3007C707D067A0879021203A7900317E0FB46
:101AF3007A098004E0FB7A08121C55C0F0790112C0
:101B03001C50D0F084FB7A0C79021202B7790112CF
:101B13001C3C740AF0900317E090031BF079010258
:101B23001BB7900318E0C3940A50147C707D067AA7
:101B33000879021203A7900318E0FB7A098004E0F6
:101B4300FB7A08121C55C0F0790B121C50D0F0849C
:101B5300FB7A0C79021202B7790B121C3C740BF05E
:101B6300900318E090031BF0790B8048900319E071
:101B7300C3940A50147C707D067A0879021203A775
:101B8300900319E0FB7A098004E0FB7A08121C55E4
:101B9300C0F07915121C50D0F084FB7A0C79021234
:101BA30002B77915121C3C740CF0900319E09003F2
:101BB3001BF07915121C5090031CF07C037D007AF6
:101BC3001A7B0312041F8F08121C2E7012EEC3948B
:101BD3000650110E7C727D067A0079011203A7125A
:101BE3001C2E7011EEC39406401B7C817D067A0087
:101BF30079011203A7121C2E600B7C8F7D067A00DD
:101C030079011203A7121973642A6003021A90124E
:101C1300039B7C727D057A0079011203A77CA07D6A
:101C2300067A0079021203A702180B74172508F528
:101C33008274033400F583E022121C5075F00A8489
:101C4300ABF07A0D79021202B790031A221202A5A1
:101C5300E92279021202B775F00A2274F51205E23D
:101C6300E9FF8A0A7401650A70097A0175F00AEFBF
:101C7300A480457402650A702E7A0275F00AEFA4F7
:101C8300F912029F7E028E0874012508F582740101
:101C9300121C36FA75F00AEFA42EF912029F0EEE0B
:101CA300C3940A501780DF7403650A700F90010212
:101CB300E0FA75F00AEFA404F912029F7F0302060B
:101CC3004E74F61205E27E00121973EEFB7A0E795A
:101CD300021202B7900305E06441600AE0644260C7
:101CE30005E064437007E0F91202C98020E0643024
:101CF300700D7CAA7D067A0E79021203A7800E7AF4
:101D0300E87B031203BF0EEEC3940A40BB740A6E52
:101D1300704D7E007F0075F00AEE121DBA40F7EE9B
:101D2300700A79FF7C017D017A22801C74016E7038
:101D33000A79FF7C017D017A33800D74026E700D88
:101D430079FF7C017D017A447B2212030B0EEEC3E3
:101D5300940340C07CAD7D067A0D79021203A7027D
:101D6300180B74F51205E2890A741E250AFE7F001A
:101D730075F00AE50A121DBA40F6EEF9121C5090EE
:101D8300010BF0E50A700A79FF7C017D017A22805C
:101D93001E7401650A700A79FF7C017D017A338024
:101DA3000E7402650A700D79FF7C017D017A447B14
:101DB3002212030B021CBFA42FF91202A58F087471
:101DC300012508F58274013400F583E9F00FEFC3B0
:101DD300940A2274F71205E2E9FE9001017405F0FA
:101DE300EE700A79FF7C017D017A22801C74016EFA
:101DF300700A79FF7C017D017A33800D74026E7065
:101E03000D79FF7C017D017A447B2212030B1203BF
:101E13009B7CB17D067A0079011203A77AE87B03E4
:101E23001203BF021A6BC082C08312040112033B68
:101E330079017AB27B031203E99003B2E0C2E7F0BF
:101E4300640570347905121EFE5004D2F08002C27C
:101E5300F0A2F0E4339006C5F09003B7E0A2E740A8
:101E630003021EF69003B5E0F8900336E0686003C2
:101E7300021EF6A37401807AE024F59006C2F09066
:101E830003B2E0F9121EFE5004D2F08002C2F0A2A7
:101E9300F0E4339006C5F09003BAE0F8A3E0F990BC
:101EA30006BEE8F0A3E9F09006C374BCF0A3740384
:101EB300F0121F0C74BC28F8740339F988828983E3
:101EC300E09006C6F088828983A3E0A2E7501C90C5
:101ED30006BDE0F89003B5E06860109003B3E054EA
:101EE300DF644170069006C77401F09003B5E0907B
:101EF30006BDF012034112040780187AB37B031264
:101F030003E99003B3E0A2E5229006C2E0F833951B
:101F1300E0F922D083D0820200FB74F71205E2EAD3
:101F2300FEEBFF1203C5E9640170047901804E12D0
:101F3300034190033DEEF0A3EFF09006C3E4F0A35A
:101F4300F090033804F09006C91205539003391238
:101F5300055F121F85A3A3E0F91203D1122084FAAF
:101F6300A3E0FB1203D7121F85E0FAA3E0FB1203E1
:101F7300DD7AFF7B0212040D12033B79007F01021D
:101F8300064E121F892290033DE0F8A3E0F58388F3
:101F930082A3A32274F41205E2EAFEEBFF8C088D00
:101FA30009890A900338E070031203F5E50AC39424
:101FB300675005850A0B8003750B6712041312041F
:101FC30001740B250B90033FF012209190034060A6
:101FD30004746180027441F0A37488F0900336E0C6
:101FE300900342F090033E121F8FE0F8A3E0F990B4
:101FF3000343E8F0A3E9F0A3EEF0A3EFF01220848B
:10200300F8A3E0F9900347E8F0A3E9F07A00802110
:102013008A82A882E50828F582E5093400F583E081
:10202300C0E0744928F58274033400F583D0E0F0EE
:102033000AEAC3950B40D9740A250BF97A3F7B034F
:102043001203E31204071203EF12209160129003AC
:1020530037E4F07A4A7B021203B9900337E0600455
:102063007E0080027E01900338E070031203FBEED2
:10207300A2E04006900336E004F0EEF97F04020686
:102083004E90033DE0F8A3E0F5838882E022121F1F
:1020930089A3A3A3E02274F21205E28A088B0989BB
:1020A3000AECFEEDFF120341121F0C850A0CC3E874
:1020B300950CE99400A2D265D033500AE0F50C33B5
:1020C30095E0F50D8003750D00780C12074B900613
:1020D300C3E0FCA3E0FDAA08AB0912042B740212AF
:1020E30005A1EE4F601E1203CBE9F5089006C61258
:1020F3001F0FE8C39508F8E99400F98E828F83E8EF
:10210300F0A3E9F09006C7E4F012033B121F0C851D
:102113000A08C3E89508E99400A2D265D0335004B5
:10212300E0F98002A90A7F0602064EC082C08390AE
:1021330003387401F01203F5021F16C082C083D264
:10214300A4D2A37A027B001203B9C2A38002D2A451
:102153007A027B001203B9C2A47A027B001203B98C
:10216300D083D0820200FBC082C083C2A37A027BE9
:10217300001203B9D2A47A027B001203B9D2A3805E
:10218300D8C082C083C2A380C5C082C083D2A380CB
:10219300BD74F71205E2E9FF7E08EFA2E75004D20F
:1021A300A38002C2A3D2A4C333FF1221F91EEE708F
:1021B300E98002EEF97F0102064E74F71205E27E12
:1021C30000D2A353F5F753FFF753F7F753F77F7A8B
:1021D300027B001203B97F08D2A4EEC333FEA2A38D
:1021E3005003D2E0FE1221F91FEF70EC53F5F7D242
:1021F300A343FF0880BD7A027B001203B9C2A47A0D
:10220300027B001203B92274F71205E2E9FFEAFE2A
:10221300122220EEF912226512034D809812034711
:1022230079E01222697900122269EFF912226922F8
:1022330074F61205E212034779E01222657900125F
:102243002265790812226512227012035312036564
:10225300E9F50812035912034DEEAA08FB7F0202A7
:10226300064E1222692212035F1203532212034DF8
:1022730012034779E1122269120365E9FE22C08243
:10228300C0837A62790012036B7AF7790212036BC7
:102293007A07790312036B7A00790412036B7A00CD
:1022A300790512036B7A30790E12036B7A6A79001F
:1022B30012036B02216374F61205E21203718A089A
:1022C3008B097808120792000014008200242384EB
:1022D30000282388002C2390005023A0005C2302B5
:1022E300013023040134230801382310015423202F
:1022F30001602302023C230402402308024423100A
:1023030002582320026423020448230404202308E0
:10231300044C231004682320046C2370237E308034
:102323004E7E31804A7E3280467E3380427E3480C8
:102333003E7E35803A7E3680367E3780327E3880E8
:102343002E7E39802A7E2A80267E2380227E41802B
:102353001E7E42801A7E4380167E4480127E458014
:102363000E7E46800A7E5580067E4E80027E009059
:10237300045DE004F0C394C94008E4F07A6AF912FA
:10238300036BEE60117AAA7B0A1203237A147B0093
:102393001203BF120329EEF902226074F71205E259
:1023A300E9FE43FD40C28602244074F71205E2E9C8
:1023B300FE43FD40D28602244074F71205E2EAFE92
:1023C300EBFF890880128E828F83E0F91203898ED6
:1023D300828F83A3AE82AF83A80874FF28F5080415
:1023E30070E402245AC082C08343FD40C2A07A1E17
:1023F30012242A79301203837A0212242A12242403
:1024030012242479101203837906120383790112AB
:10241300242612039B790C120383D083D0820200FB
:10242300FB7938122435227B001203BF7930122442
:1024330035221203837A027B001203BF228E90D2CD
:10244300A07A027B001203B9C2A07A507B00120368
:10245300B9900432E0F5907F0102064E74F712053D
:10246300E279801203837E1079201203891EEE70B5
:10247300F779C01203837E1079201203891EEE7050
:10248300F780D474F71205E2E9FF8A08EBFE7402C1
:102493006F7008744025084480800474804508F9EF
:1024A300120383EEF912038980AD74F61205E289F3
:1024B300088A09ECFEEDFF74026508700874402574
:1024C300094480800474804509F9120383EEFAEF0E
:1024D300FB120431EAF9EEFAEFFB12038F7F0202DB
:1024E300064EC082C083D285D2847A027B00120357
:1024F300B9C2848002D2857A027B001203B9C285F5
:102503007A027B001203B9D083D0820200FBC0821F
:10251300C083C2847A027B001203B9D2857A027B1C
:10252300001203B9D28480D8C082C083C28480C51C
:10253300C082C083D28480BD74F71205E2E9FF7EB6
:1025430008EFA2E75004D2848002C284D285C33349
:10255300FF12259B1EEE70E98002EEF97F01020651
:102563004E74F71205E27E00D28453F3EF53FDEF6E
:10257300538FEF53F7DF7A027B001203B97F08D240
:1025830085EEC333FEA2845003D2E0FE12259B1FC7
:10259300EF70EC1225C380C27A027B001203B9C22A
:1025A300857A027B001203B922C082C0831225C33D
:1025B30053F3DFD28543FD2079001202A502250AD9
:1025C30053F3EFD28443FD102274F71205E2E9FFBF
:1025D300EAFE122609EE12261612027B7A057B000A
:1025E3001203BF02255F74F71205E2E9FF12260901
:1025F30012027579A1122617120293E9FE120287BD
:1026030012027B02255D12027579A0122617EF12C2
:10261300261622F912028D1202812274F01205E2AB
:1026230074FB12058B74011205D6EAF0A3EBF0A339
:10263300ECF0A3EDF07A667B0574011205D6C08237
:10264300C0839006C97808120535D083D0827808F4
:10265300120437851082851183501C7401F0120512
:10266300D67808120535780812052474011205D6A8
:1026730078081205448002E4F074011205D6780C40
:102683001205359006CD7808120535780C790812B5
:1026930004E6E50824308A828B83F0A3AA82AB8305
:1026A30074011205D6780C1205359006CD78081200
:1026B3000535780C79081204E674011205D6780CF6
:1026C30012054474011205D67808120535E508454C
:1026D30009450A450B70A2851082851183E0A2E0AB
:1026E300500B8A828B83742DF0A30AAB838A828B6F
:1026F30083E412273078667905801D8A828B83E014
:10270300FC88828983E08A828B83122730EC88825B
:102713008983F0A3A882A983C3E89AE99B40DC7A62
:10272300667B0574051205A17F0802064EF0EA24B4
:10273300FF1AEB34FFFB22C082C083906189E0441F
:1027430060F090619074D5F09061FA7409F0906133
:10275300B27415F09061AEE4F012040779008004BE
:10276300F0EBA3F0D083D0820200FB79490200FB97
:10277300C082C08375F005E9A424D490618F80E3FF
:10278300C082C083EA90617480D6C082C083EA901D
:10279300617280CC74F61205E275E1EE7591FD78F5
:1027A3000080031227B3E8C39940F87F0202064E64
:1027B3008808EA2508F582EB3400F583E0F5D908AB
:1027C30022C082C083800DE5D98A828B83F0A3AABD
:1027D30082AB8319E970F002276779000200FB7569
:1027E300E1E9E591A2E150FA7591FD80ED75E1EC27
:1027F30075E1E30200FB75E1EF75E1EC0200FBC05C
:1028030082C0839061A3E0C2E6F0539AFE02276779
:10281300C082C0839061A3E0D2E6F0439A0102270D
:1028230067C082C083E5A8F8C2AF90045EEAF0A354
:10283300EBF0E8A2E792AF022767C082C083906102
:1028430093E0542270F8022767C082C08353F1FEDD
:1028530043F30C53F2F375868075C48075C2D87543
:10286300C50B75C402438640D2AA75C1009004E02B
:10287300E4F0A3F0900563F0A3F09004E2F0900578
:1028830065F0D083D0820200FB7F0102064E74F70D
:102893001205E2900563E0F8A3E0C398900563E0B6
:1028A300F8A3E0FEE85018C39EF895E0F9E824FF8A
:1028B30018E934FFF9E849701B780079008029C3CF
:1028C3009EF895E0F9E8247FF8E93400F9C3E89C21
:1028D300E99D50E57A007B008046E004F0439A04CA
:1028E300E8240108E93400F9C3E89CE99D502D8AE6
:1028F300828B83E0C0E0900564E0FE74E32EF582F2
:1029030074043400F583D0E0122926900565E4F0C1
:10291300900564E0C3947F40C1E480C0E8FAE9FB1A
:1029230002288CF08A828B83A3AA82AB8322C08283
:10293300C0837900120335D083D0820200FBEBC33E
:1029430013FBEA13FAEAF8EBF9E824FFFAE934FF98
:10295300FBE84960120000000000000000000000D6
:10296300000000000080DE0200FB74F71205E2EABB
:10297300FEEBFFEEF8EFF9E824FFFEE934FFFFE892
:102983004960097AE87B031203B980E77F010206F5
:102993004EC082C0831203B353F5EFD2A443FF109A
:1029A30053F5F7D2A343FF0853F5F753FFF743F764
:1029B3000853F5FEC2A043FF0153F3BFC28643FD94
:1029C3004075F4007590FF75FEFF900432E4F075D6
:1029D300900012039512037712041912033BD0835C
:1029E300D0820200FB74F61205E2740A1205D6E0E7
:1029F300FEA3E0FFEAF8EBF980188C828D83E08870
:102A0300828983F0A3A882A9838C828D83A3AC825D
:102A1300AD838E088F09E50824FF1EE50934FFFF07
:102A2300E508450970D47F0202064EE5C65480F8D6
:102A330053BEFBE59DA2E550FAE59DA2E240F400FA
:102A43007401697007744948F5C68005E970028806
:102A5300C6E5C6F8E59E6870FB43BE040200FBC0F2
:102A630082C0838A828B838001A3E070FCE582C3EA
:102A73009AFAE5839BFBD083D0820200FBD2AF029C
:102A830000FBC2AF0200FB0200FB0200FB0200FBE3
:052A930089900200FB28
:04000005000000E314
:00000001FF
